:020000040800F2
:100000000829002011020008D94C0008F52A000830
:100010001D330008C51400082192000800000000EC
:10002000000000000000000000000000FF61000868
:100030007D1A000800000000F95900085168000806
:100040002B0200086D5800082B020008E55E00082E
:100050002B0200082B020008211F00082B020008B9
:100060002B0200082B020008B92000082B02000810
:100070002B0200082B0200082B0200082B020008AC
:100080002B0200082B0200082B0200082B0200089C
:100090002B0200082B0200082B020008CB200008CE
:1000A0002B0200082B0200082B0200082B0200087C
:1000B000597300082B020008B57400082B020008D1
:1000C0002B0200082B0200082B0200082B0200085C
:1000D0002B020008AD8700089988000855890008A0
:1000E000591F00082B0200082B0200082B020008F1
:1000F0002B0200082B0200082B0200082B0200082C
:100100002B0200082B020008E57B00082B020008E8
:10011000A97D0008C18600082B0200082B020008F8
:100120002B0200082B0200082B0200082B020008FB
:1001300000F002F800F05CF80AA090E8000C82449D
:100140008344AAF10107DA4501D100F051F8AFF27A
:10015000090EBAE80F0013F0010F18BFFB1A43F0A5
:10016000010318471CD300003CD300000A444FF0A1
:10017000000C10F8013B13F0070408BF10F8014B06
:100180001D1108BF10F8015B641E05D010F8016B4B
:10019000641E01F8016BF9D113F0080F1EBF10F8AF
:1001A000014BAD1C0C1B09D16D1E58BF01F801CBD2
:1001B000FAD505E014F8016B01F8016B6D1EF9D555
:1001C0009142D6D37047000000230024002500266A
:1001D000103A28BF78C1FBD8520728BF30C148BFAA
:1001E0000B607047002070471FB51FBD10B510BDD4
:1001F00000F07CF91146FFF7F7FF0BF03DFD00F032
:100200009AF903B4FFF7F2FF03BC09F0F0FC000019
:100210000948804709480047FEE7FEE7FEE7FEE79A
:10022000FEE7FEE7FEE7FEE7FEE7FEE704480549D6
:10023000054A064B70470000856E00083101000832
:10024000081F002008290020082100200821002084
:10025000704700000FB4044910B503AA029800F0DB
:100260002FF910BC5DF814FB380000202DE9F05F79
:10027000894604464FF0000ADFF874B1FB44C0F829
:1002800020A02046E1688847002874D0252806D0A1
:10029000D4E901219047206A401C2062F1E7002642
:1002A0005F462046E16888472028054607DB312D58
:1002B00005D2781910F8200C08B10643F1E7B00711
:1002C00001D526F00406C4F81CA00027C4F818A025
:1002D0002A2D09D0284609F083FC38B304EB87089F
:1002E000303DC8F8185019E059F8041B204604EBBB
:1002F00087029161E1688847012F054618D1E069BE
:10030000002820DA26F020061DE0D8F8180000EBBF
:10031000800005EB40003038C8F818002046E1683E
:100320008847054609F05CFC0028EED1012F0AD071
:100330002E2D08D12046E16888477F1C0546022FF4
:1003400046F02006C4DBA069002803DA404246F0EC
:100350000106A061F00701D026F010066C2D0BD02D
:10036000682D09D04C2D39D06A2D35D0742D35D05B
:100370007A2D33D016E038E0E1682F4620468847D2
:10038000B842054609D16C2F26D04FF48060E16851
:10039000064320468847054604E06C2F1AD04FF4E8
:1003A000807006430DB3A5F14100192802D820350D
:1003B00046F400664A462946204626604E46FFF728
:1003C00011FF80B101280BD0F61D26F0070000F1C7
:1003D000080956E74020E4E78020D8E70020D6E768
:1003E00006F104094DE7284652E7206ABDE8F09F70
:1003F0000CD100004FF000020429C0F0128010F070
:10040000030C00F01B80CCF1040CBCF1020F18BFF0
:1004100000F8012BA8BF20F8022BA1EB0C0100F083
:100420000DB85FEAC17C24BF00F8012B00F8012B56
:1004300048BF00F8012B70474FF0000200B513468B
:1004400094469646203922BFA0E80C50A0E80C50F4
:10045000B1F12001BFF4F7AF090728BFA0E80C50A5
:1004600048BF0CC05DF804EB890028BF40F8042B9E
:1004700008BF704748BF20F8022B11F0804F18BF0B
:1004800000F8012B704770477047704770470000B5
:1004900001694A1C02610878704700B58FB0CDE948
:1004A00001310021059105497944CDE90310114638
:1004B0006846FFF7DBFE0FB000BD0000E5FFFFFF61
:1004C000074B70B50D467B44FFF7E7FF044628460F
:1004D00000F008F810B14FF0FF3070BD204670BD3D
:1004E0000B980000007B00F080007047754600F01C
:1004F0002BF8AE4605006946534620F007008546B6
:1005000018B020B5FFF792FEBDE820404FF000067E
:100510004FF000074FF000084FF0000B21F00701EB
:10052000AC46ACE8C009ACE8C009ACE8C009ACE82E
:10053000C0098D46704710B50446AFF300802046D1
:10054000BDE81040FFF75DBE00487047A41E0020C4
:1005500021B1826842F00102826003E0826822F0E9
:1005600001028260704721B1826842F48072826029
:1005700003E0826822F480728260704701460020A6
:100580008A6802F004020AB1012000E000207047EE
:10059000014600208A6802F008020AB1012000E04A
:1005A0000020704730B502460020002350680F4CF1
:1005B00020400D790C6844EA05242043506090687F
:1005C0000B4C2040D1E902542C434D7944EA4504B8
:1005D00020439060D06A20F470000C7C641EE4B26A
:1005E000234340EA0350D06230BD0000FFFEF0FF1D
:1005F000FDF7F1FF2DE9FE4F0024A346A1460020A0
:10060000029082466348807E00287DD000206149A8
:10061000887609F039FB00BF09E05F4951F82400F2
:100620000CF036FD5D4921F81400601CC4B2042CA6
:10063000F3DB4FF400515A4805F0DFF9002845D1AB
:100640005448008B401C5349088300F057FA8246F7
:1006500050460CF0D5FA4FF04042524BCDE9000124
:100660000CF076F9074600224F4B0CF019FB0546BB
:100670000CF030F902904FF0834102980CF046FCE8
:1006800001900CF00BFC05460022484B0CF060F981
:1006900007460CF01FF90290454902980CF078FDCE
:1006A00005460CF0F5FC82461FFA8AF000F0C6FB06
:1006B0008146484608F098FF3E49C8800846C088F1
:1006C000642803DD0846C0881938C8803949C888BD
:1006D0000CF016FD0290384902980CF017FC3749CF
:1006E00048622D4948680CF0D3FC85B2284602F0D8
:1006F000DFF88346584605F0B5F92E490881087A97
:100700000BF0AAFB2B4900E041E048812C48D0F8CF
:10071000C000012804D02A48D0F8C000032814D112
:100720001D4908680CF0B4FC85B2284605F072F942
:100730002049C881C8890CF0E3FC02901C4902984A
:100740000CF0E4FB1D49886102E000201949C881D2
:10075000184908890CF0D4FC0290154902980CF055
:10076000D5FB16494861134948890CF0C9FC134967
:100770000862094988680CF08BFC0649C88606495E
:10078000C8680CF085FC0349088705F087FD002048
:10079000BDE8FE8F800F00204817002002010020D6
:1007A00000180140FFFF5F4100409F400000E03F14
:1007B0000000C842E818002000002041F412002088
:1007C00060100020F0B504460D4600200021092DE0
:1007D00011DDE068A5F10A0606EB4607072606FAD2
:1007E00007F18843A5F10A0606EB460603FA06F16F
:1007F0000843E0600CE0206905EB4507072606FA90
:1008000007F1884305EB450603FA06F1084320612A
:10081000072A0FDA606B561E06EB86071F2606FABC
:1008200007F18843561E06EB860605FA06F10843D3
:10083000606322E00D2A0FDA206BD61F06EB8607D5
:100840001F2606FA07F18843D61F06EB860605FA2F
:1008500006F10843206310E0E06AA2F10D0606EB02
:1008600086071F2606FA07F18843A2F10D0606EB5C
:10087000860605FA06F10843E062F0BD816841F0A2
:1008800008018160704721B1826842F4A002826051
:1008900003E0826822F4A00282607047816841F020
:1008A000040181607047000008B50121042005F0B3
:1008B00065F90320ADF8000000208DF803006946BB
:1008C000084801F0FDFE0121102005F057F9002035
:1008D0008DF803000320ADF800006946024801F0DE
:1008E000EFFE08BD000801400010014010B5FFF701
:1008F000DBFF00F001F810BD00B591B00121084602
:1009000005F00CF90121480205F038F93D4800F0E6
:10091000F1FF3D4806903D48079000200890C82010
:10092000099000200A9080200B9040000C908000DD
:100930000D9020200E9000020F900020109006A92C
:10094000304801F07DF801212E4800F0C7FF00205B
:10095000019001208DF808008DF809004FF4602007
:1009600003900020049004208DF8140001A926486B
:100970004C38FFF717FE4FF4004005F0C3F807238B
:100980000122002120484C38FFF71CFF07230222D8
:1009900001211D484C38FFF715FF072303220A21C8
:1009A00019484C38FFF70EFF072304220B21164885
:1009B0004C38FFF707FF012113484C38FFF7D3FDF0
:1009C000012111484C38FFF7C3FD0F484C38FFF7A1
:1009D00055FF00BF0C484C38FFF7DAFD0028F9D16D
:1009E00009484C38FFF75AFF00BF07484C38FFF75B
:1009F000C5FD0028F9D1012103484C38FFF743FF1A
:100A000011B000BD080002404C24014058170020DE
:100A100008B5682000906A460121002000F094F893
:100A2000042000906A460121084600F08DF8552008
:100A300000906A460121022000F086F870200090A4
:100A40006A460121032000F07FF808BD10B5044676
:100A500014B1012C0ED106E0074A918A10680122D8
:100A600001F00BFF06E0044A918A1068002201F0B1
:100A700004FF00BF00BF10BD2802002038B50024CD
:100A80000121402005F07AF800BF10E010208DF819
:100A9000030001208DF80200164830F81400ADF86C
:100AA00000006946144801F00BFE601CC4B2032C20
:100AB000ECDB03240DE048208DF803000D4830F8EE
:100AC0001400ADF8000069460B4801F0F9FD601C08
:100AD000C4B2052CEFDB074A143A918A1068012250
:100AE00001F0CBFE034A143AD18A5068002201F08B
:100AF000C4FE38BD3C0200200018014010B50120A2
:100B0000FFF7A4FF102000F019F800F013F80446D6
:100B100000F010F840EA042400F00CF840EA042445
:100B200004F4000008B144F07F440020FFF78EFF7A
:100B3000204610BD10B505F0E3FA10BD10B504460F
:100B4000204605F015FB10BD2DE9F04106460C4688
:100B500015460120FFF77AFF0C2101EA8601621E8B
:100B600002F00302114341F04000FFF7E7FF0027C6
:100B700004E015F8040BFFF7E1FF7F1CA742F8DB48
:100B80000020FFF763FFBDE8F081000000B501F031
:100B9000CDFE1148007A012807D1104890F8750061
:100BA00018B903200D4981F875000D48C0880D491A
:100BB000896B884203D91020084981F875000848DC
:100BC00001890848406D401E814203D30220034939
:100BD00081F8750000BD000056120020800F002033
:100BE000E81800206010002010B5874880780028A1
:100BF0006FD0864800780B286CD2DFE800F0061D25
:100C0000376CCCFDFDFDFDFDBA0000F05DFF05F089
:100C100065FB01F087FC7E48C06AB0F5167F03D201
:100C200000207B4981F8AD004FF47A7009F01CF880
:100C3000012076490870E2E005F050FB00F044FF27
:100C400001F070FC7348007810B9012072490870F7
:100C50007148007848B100206F49087002206B4944
:100C600008706E49486808F0FFFFC8E005F036FBE1
:100C700000F02AFF01F056FC6948C07818B901203D
:100C8000634981F885006648C078012803D10020B7
:100C90005F4981F885005F48007810B901205E49FE
:100CA00008705D48007898B100205B490870032007
:100CB000564908704FF47A7008F0D6FF0020544966
:100CC00081F885005648007810B9052081F8750034
:100CD00095E095E090E000F0F7FE05F0FFFA01F0F6
:100CE00021FC4B4890F88200012803D10720484995
:100CF00081F875004748007810B90120464908700E
:100D00004548007880B30020434908703E48807809
:100D1000032803D10A203D49087029E04148008991
:100D200041498968884220D80020374988703F4966
:100D3000C8710846002101604160002033490870F5
:100D40000220314908703A49087001203949087079
:100D500002203949087005F0BBFA1E2004F090FD0E
:100D60004FF47A7008F080FF02E0042027490870F1
:100D700045E005F0B3FA05F09DFA00F0A1FA48B19C
:100D800004202249087001202849C8710020204908
:100D900081F85E0033E001202449C8710846C0791B
:100DA00030B300F091FE05F099FA1E4800891E4903
:100DB000896888421DD80020134988701B49C87172
:100DC000084600210160416000201049087002209F
:100DD0000D49087016490870012016490870002056
:100DE0001549087005F074FA4FF47A7008F03CFF6A
:100DF00001E005F05FFA02E00BF0CCF900BF02E081
:100E000000200249087010BD1E0E00208600002040
:100E1000800F0020450000204400002060100020CA
:100E200056120020E8180020441000206C0000201A
:100E300088000020890000208A00002010B50446A8
:100E400042F2A630844205DD42F21070844201DA9B
:100E5000002010BD42F21070844207DB42F696007B
:100E6000844203DA204608F04BFFF2E742F6960090
:100E7000844207DB42F61B20844203DA204609F055
:100E8000CCF8E6E742F61B20844207DB42F69F30AF
:100E9000844203DA20460AF0F5F8DAE742F69F309A
:100EA000844207DB42F62250844203DA20460AF0ED
:100EB000A2F9CEE742F62250844207DB42F6A46054
:100EC000844203DA20460AF056FAC2E742F6A460EA
:100ED000844207DB43F22400844203DA20460AF00E
:100EE0000AFBB6E743F22400844207DB43F2A41076
:100EF000844203DA20460AF0BEFBAAE743F2A410BC
:100F0000844207DB43F22230844203DA20460AF0AF
:100F100072FC9EE743F22230844207DB43F29F409B
:100F2000844203DA20460AF026FD92E743F29F400E
:100F3000844207DB43F21B60844203DA20460AF056
:100F4000DAFD86E743F21B60844207DB43F29570CB
:100F5000844203DA204608F0A0FF7AE743F2957056
:100F6000844207DB43F60F10844203DA204609F07F
:100F700009F96EE743F60F10844207DB43F687203A
:100F8000844203DA204609F0BDF962E743F6872080
:100F9000844207DB43F6FE30844203DA204609F040
:100FA00071FA56E743F6FE30844207DB43F675508C
:100FB000844203DA204609F025FB4AE743F67550E0
:100FC000844207DB43F6E960844203DA204609F0F5
:100FD000D9FB3EE743F6E960844207DB44F25D005B
:100FE000844203DA204609F08DFC32E744F25D00CA
:100FF000844207DB44F2D010844203DA204609F031
:1010000041FD26E744F2D010844207DB44F2413030
:10101000844203DA204609F0F5FD1AE744F2413034
:10102000844207DB44F2B240844203DA204609F0EE
:10103000A9FE0EE744F2B240844207DB44F221608D
:10104000844203DA204609F05DFF02E742F20F70A6
:10105000FFE60000F0B50021002200250023002457
:10106000002600271E4807780020DFF878C08CF89B
:10107000710007B9F0BD1C48808A81B21A48008A05
:1010800082B21948808985B21548001D008883B254
:1010900013480830008884B211480C30008886B2AA
:1010A000994206DD0120DFF83CC08CF87100002079
:1010B000E0E7994211D1A24206DD0120DFF824C009
:1010C0008CF871000020D5E7A24206D1B54204DBBE
:1010D0000120DFF810C08CF871000020CAE7000082
:1010E00014B80108800F0020500000202448D0F8D8
:1010F000C00020B12248D0F8C000012817D12148F3
:1011000090F8750078B11F4890F89C0078B10020E5
:101110001C4981F89C00084690F85F0038B1042013
:101120001949086003E004201749091D08601448A4
:10113000D0F8C000022804D01148D0F8C00003281D
:101140001BD1104890F8750018B91048B0F89200FB
:1011500078B10C4890F89C0078B10020094981F8DA
:101160009C00084690F85F0038B1042006490860EA
:1011700003E004200449091D0860002070470000B6
:1011800060100020800F0020101401407C1300200C
:1011900010B5002401F0CAFB4348407A012807D16A
:1011A000424890F8750018B90920404981F8750047
:1011B0003D48007A012807D13C4890F8750018B9DD
:1011C00003203A4981F875003748007800B90124B6
:1011D00024B10120354981F8410005E00020334960
:1011E00081F8410081F84000304890F8400005281F
:1011F0000EDB2F48807840F020002D4988700120B8
:101200002C49C8710020294981F8410081F840002B
:10121000264890F88200D0B905F060F8234890F88D
:101220006800401C214981F86800084690F8680071
:10123000032803DB0C2081F8750008E01C48807847
:1012400040F020001A49887001201A49C8711748D7
:1012500090F8680048B11548B0F86A00B0F5E16F41
:1012600003DB0020114981F868001348C088134946
:10127000896B884207D90D4890F8750018B910207D
:101280000A4981F875000C4801890C48406D401EE0
:10129000814207D3054890F8750018B90220034928
:1012A00081F8750010BD000056120020800F00204C
:1012B0001E0E00206C000020E818002060100020A6
:1012C00070B503250F260024474890F85E000028DB
:1012D0007ED0454890F8890030B102281AD0032802
:1012E0003FD004286BD15CE004F07AFB3F480089D2
:1012F0003F490978884204DD42F2107008F0B4FCDE
:1013000003E048F6B80008F0AFFC0220364981F847
:1013100089005CE03748007810B901203649087030
:101320003648007848B903202F4981F889004EF6E5
:10133000602008F099FC04F047FB2F48007878B152
:1013400000202D490870284981F8850004F03CFBF5
:101350004EF6602008F088FC0320234981F88900BC
:1013600035E004F031FB2348007810B90120224910
:10137000087022484078012803D104201A4981F8D6
:1013800089001D48007858B100201B490870164993
:1013900081F8850004F018FB0420134981F88900C6
:1013A00015E004F011FB00200F4981F8850081F859
:1013B0005E0081F88900012409E009E0FFE70020D0
:1013C000094981F85E0081F88900012400BF08E026
:1013D0000020054981F8890081F88500012404F086
:1013E000F3FA204670BD0000800F0020E8180020AE
:1013F000A0000020450000204400002056120020DC
:10140000024908800121014A11717047F40000204F
:1014100010B5002400BF264890F8AC0020B1012888
:1014200015D0022839D127E004F052FF002004F043
:1014300027FA04F0C9FA42F6E06008F015FC012032
:101440001B4981F8AC00002081F868002CE01948A5
:10145000007810B90120184908701748007850B179
:10146000002015490870124981F88000022081F897
:10147000AC0001F057F817E0104801891048406DA2
:10148000401E814203D30220094981F875000020E3
:10149000074981F8AC00012406E00020044981F8E6
:1014A000AC000AF077FE00BF00BF204610BD000070
:1014B000800F00204500002044000020E818002094
:1014C0006010002000BFFEE73CB5024600230093F9
:1014D000019300BF01F0CF038DF80030090A01F03D
:1014E000CF038DF8013002F0CF038DF80230120ADD
:1014F00002F0CF038DF80330120A02F0CF038DF80B
:101500000430120A02F0CF038DF805309DF8003048
:101510009DF8014004EB840403EB44039DF8024072
:1015200004EBC40505EB041403EB84039DF80340AE
:1015300004EB4405C5EBC41403EBC4049DF804306C
:1015400040F271256B4304EB03149DF8053040F61F
:1015500035456B4304EB43103CBD000070B50024DF
:10156000C0480068C049086008460068BF49884212
:1015700005D8BD48006847F23051884203D247F28F
:101580003050B9490860B748001D0068B649486046
:1015900008464068B549884205D8B348406847F2D4
:1015A0003051884203D247F23050AF494860AD48CD
:1015B00010300068AC490861084600693C2803D82F
:1015C000084600690F2802D21920A7490861A648D9
:1015D000406A642803D8A448406A142802D26420D0
:1015E000A1494862A048406A9F490969884203D2DC
:1015F0009D4800699C4948629A48283000689A4989
:1016000088620846806A012801D9012088629548CD
:1016100034300068944988630846806BB0F5FA6FEF
:1016200007D90846806BB0F5167F02D24FF4487098
:1016300088638F48806A8F490860084600680A28D6
:1016400005D3084600688849496D884202D337208F
:1016500088490860874840688349496D884204D3B7
:101660008148406D401F834948607E485030006883
:101670007D4948650846406DFA2801D950204865E3
:101680007948D0F8C00030B1012805D0022811D027
:1016900003281BD10FE000BF7748007810B9002065
:1016A0007649088074480078022802D101207349E5
:1016B00008800BE000BF72480088704908807048BD
:1016C0000088032801D10020088000BF00BF6D48BA
:1016D00090F838006949A1F86E006B48807908815C
:1016E0006948C07888816848407A0882674890F8DD
:1016F0008200C8806548B0F8B00048825E48C07B70
:1017000088805C4908680BF0FBFC054660490BF0DB
:10171000FDFB5A494867574948680BF0F1FC0546FC
:101720005B490BF0F3FB55498867524988680BF019
:10173000E7FC054656490BF0E9FB5049C8674A49A2
:10174000486D0BF0DDFC054651490BF0DFFB4B49C2
:10175000C1F88000444800684FF47A71B0FBF1F0A2
:101760004649C886404840684FF47A71B0FBF1F0B2
:10177000424908873C48008A48873B48808C8887D4
:101780003948806B0A21B0FBF1F03C49C8873648E4
:10179000008DA1F840003448808EA1F84200324804
:1017A000008EA1F85400394890F8750048803748F9
:1017B00090F85E00A1F8440033488078C881324830
:1017C000407A08822848B0F8BC00A1F846002648B4
:1017D000B0F8B800A1F848002348B0F8B000A1F86C
:1017E0004A002148B0F8A800A1F84C001E48B0F803
:1017F000C800A1F84E001C48B0F8CC00A1F8500079
:101800001948B0F84C00A1F852001748B0F87C0015
:10181000A1F866001448B0F88000A1F868001D48DF
:101820000088A1F872001048B0F8C000A1F870005C
:101830000D49486D0BF064FC0446154920460BF039
:1018400065FB0E49C1F880000E4890F868101248F8
:10185000A0F8B2100B4890F838100F48A0F86A10A2
:1018600070BD000000B8010860100020E093040083
:1018700000200308441000201E0E0020F412002057
:10188000701A0020841A002038170020800F0020D2
:101890000000C8428AD300087C13002004200C49B1
:1018A00008600820086002200860C001094908603B
:1018B00080010749086040000860402006494861EF
:1018C0008020486140004861400048617047000046
:1018D00014140140140801400010014021B10268B5
:1018E00042F00102026004E002684FF6FE731A4003
:1018F0000260704701684FF6FE72114001600021DE
:10190000016041608160C1604B49884208D14A4909
:101910000839496841F00F01474A083A51608AE0A6
:1019200045491431884208D143490839496841F092
:10193000F001414A083A51607DE03F492831884230
:1019400008D13D490839496841F470613A4A083A7A
:10195000516070E038493C31884208D13649083935
:10196000496841F47041344A083A516063E03249B1
:101970005031884208D130490839496841F4702112
:101980002D4A083A516056E02B496431884208D10B
:1019900029490839496841F47001274A083A5160D9
:1019A00049E025497831884208D1234908394968F6
:1019B00041F07061204A083A51603CE01F4988427A
:1019C00006D1011F096841F00F01021F116032E0CA
:1019D0001A491431884208D11849091F096841F091
:1019E000F001164A121F116025E01449283188427F
:1019F00008D11249091F096841F470610F4A121F8A
:101A0000116018E00D493C31884208D10B49091F8B
:101A1000096841F47041094A121F11600BE007493F
:101A20005031884207D10549091F096841F47021E6
:101A3000024A121F11607047080002400804024069
:101A400010B50022026847F6F0739A430C6A8B685F
:101A500023430C6923434C6923438C692343CC699A
:101A600023434C6A23438C6A23431A430260CB68A6
:101A700043600B6883604B68C36010BD70470146CC
:101A8000002005E0002001E0421CD0B21428FBDB5E
:101A90000A1EA1F1010399B2F4D1704710B50024D8
:101AA000074804780F2C00DA0F243C2C00DD3C247E
:101AB000204603F0E5FE03480470012010BD00003D
:101AC00010B8010847000020002001490870704745
:101AD000381700200120014908707047381700208E
:101AE00010B500247148007803280CD170480078A4
:101AF00010B96F48407810B101F008FC01E001F026
:101B0000FFFB002010BD6A48807818B96848C0788B
:101B100000B9002466488078012803D16448C07861
:101B200000B901246248807820B96148C078012852
:101B300000D102245E488078012804D15C48C07836
:101B4000012800D1032434B1012C19D0022C43D038
:101B5000032C7CD16CE05748407918B100205449DF
:101B6000887148810020524988710846408952494D
:101B70000988884203DB00204D490871487167E0FD
:101B80004B484078012813D14A48407910B10020D1
:101B9000474948810020464988710846408946499E
:101BA0000988884217DB002041494871088112E00A
:101BB0003F480078012809D13D4800893E490988FD
:101BC000884208DB01203A49887104E00120384945
:101BD0000871002008813BE035480078012813D1C6
:101BE0003448407910B10020314948810020304903
:101BF00088710846408930490988884217DB0020EF
:101C00002B490871088112E029484078012809D140
:101C10002748008928490988884208DB012024498F
:101C2000887104E0012022494871002008810FE0FA
:101C300001201F4908714871084600891E4909881A
:101C4000884202DB01201A49887101E0FFE700BFEA
:101C500000BF1A4890F84E0038B91548807910B185
:101C600001F054FB01E001F04BFB1148407968B1F1
:101C70000F484078C0B901200D4948700321104831
:101C800080F87310012180F874100DE00848407846
:101C9000012809D103210A4880F87310002180F837
:101CA000741000200249487000202BE71E0E00200F
:101CB000BC12002038170020B0000020800F002048
:101CC000841A00202DE9F04100242825122600273F
:101CD0008A48D0F8B800632803D963208749C1F83F
:101CE000B8008648D0F8B800192803D219208349D3
:101CF000C1F8B800814890F8B85000208049487376
:101D000080480078012802D144F0010401E004F089
:101D10000E047C484078012802D144F0020401E01E
:101D200004F00D0477488078012802D144F00404BF
:101D300001E004F00B047348C078012802D144F09C
:101D4000080401E004F007046F480078022808D175
:101D50006C48807828B96B48C078012801D104F01C
:101D600007046748847369484481694890F82400EF
:101D700000280ADD01206749887003206449A1F822
:101D8000B60000F0E5FB04F069FA614890F8240021
:101D900030B900205F49887000F0CEFB04F030FAC3
:101DA00059480078032802D10020BDE8F081584846
:101DB00090F8750030B1002056498870544981F878
:101DC0002400F2E750480078D8B9514890F88E00C6
:101DD00078B14C48407818B91E204D4981F824004C
:101DE0004848407801280AD10020494981F8240058
:101DF00005E0002047498870454981F8240000200B
:101E0000D3E7434890F8850038B1012041498870F4
:101E10003F4880F824500020C7E73A48007801285E
:101E200003D13848407800B9012736484078012866
:101E300003D13448807800B902273248407801281D
:101E400004D130488078012800D103272D4800783C
:101E500000B9002737B1012F0BD0022F19D0032F63
:101E600043D12BE02A4880F8245000202A490870EA
:101E700041E029480078022804D128480078401C15
:101E800026490870224880F8245001202249087011
:101E900031E022480078B04201DA204806701F483D
:101EA0000078A84201DD1D4805701C4800781849DB
:101EB00081F824000220184908701CE016480078B8
:101EC000022804D115480078401E144908701348B0
:101ED0000078B04201DA1148067003200E490870FC
:101EE00000200B4981F8240005E000270020084964
:101EF00081F8240000BF00BF002056E760100020DA
:101F0000AC0E0020561200201E0E0020F4120020FD
:101F1000800F0020BC120020B2000020B30000207F
:101F200010B5012000F000F990B10A48B0F8AE00F9
:101F3000401C0849A1F8AE000846C07F28B901201E
:101F4000C8770846807F81F82000012000F0E6F87D
:101F500010BD0000800F002010B54FF4806000F02D
:101F6000E3F818B14FF4806000F0D8F84FF4006047
:101F700000F0DAF818B14FF4006000F0CFF84FF439
:101F8000805000F0D1F8002870D001204549087138
:101F900000204549C87208730846807840B1084659
:101FA000C07A4FF40040414908600220086008E010
:101FB0003D48007B4FF400403C49091D0860022069
:101FC00008603948407818B140203949086102E07A
:101FD0004020374948613448007818B1802034499E
:101FE000086102E08020324948612F48407920B1E1
:101FF0004FF480402D49086004E04FF480402B49A5
:10200000091D08602848807920B14FF48070294963
:10201000086004E04FF480702649091D08602248DA
:10202000C07820B14FF480702149086103E04FF47B
:1020300080701F4948611C48807A18B108201B49EC
:10204000086003E008201949091D08601648407A15
:1020500020B14FF400701649086103E04FF400709E
:10206000134948614FF4805000F058F84FF4005085
:1020700000F05AF818B14FF4005000F04FF84FF448
:10208000804000F051F818B14FF4804000F046F85D
:102090004FF4004000F048F818B14FF4004000F051
:1020A0003DF810BD800F00203817002010140140AB
:1020B000001001401008014010B5102000F034F865
:1020C00010B1102000F02AF810BD10B5202000F04B
:1020D0002BF810B1202000F021F8402000F024F867
:1020E00010B1402000F01AF8802000F01DF810B167
:1020F000802000F013F84FF4807000F015F818B14C
:102100004FF4807000F00AF84FF4007000F00CF803
:1021100018B14FF4007000F001F810BD01490860DB
:102120007047000014040140014600200022074BC4
:102130001B6803EA0102054B14331B680B4013B103
:102140000AB1012000E000207047000000040140B7
:10215000002123498279002A3AD00A46126803688E
:102160009A430B461A600A1D126803689A430B1DB6
:102170001A60027911440A6803681A430A60184A0F
:102180000832126803689A43154B08331A601A1D07
:10219000126803689A43124B0C331A604279102A72
:1021A0000ED11A1F126803681A430D4B08331A60C8
:1021B0001A1D126803681A43094B0C331A600DE0AC
:1021C0000749427911440A6803681A430A6005E026
:1021D000027911440A6803689A430A607047000054
:1021E0000004014010B5214890F8750078B91F48E7
:1021F00090F88D0018B101201C4981F89200002050
:102200001A4981F8750081F88D00194948711748FD
:10221000B0F87C00B0F5E16F05DB002015490870CF
:102220001249A1F87C00114890F88D00E8B90F48D8
:1022300090F87500C8B109F0ADFF01200B4981F895
:102240008D0081F85F000A494871084890F87500D0
:1022500008490978884204D0044890F87500054977
:10226000087000200149A1F87C0010BD800F0020FB
:10227000F40000209B0000200149C8607047000066
:102280000020024030B5044604254FF4302000F011
:1022900001F90546042D17D10C48006940F00200F1
:1022A0000A49086108464461006940F0400008613D
:1022B0004FF4302000F0EEF805460448006941F67E
:1022C000FD71084001490861284630BD00200240E8
:1022D00004200B49C96801F0010109B101200EE099
:1022E0000749C96801F0040109B1022007E0044967
:1022F000C96801F0100109B1032000E00420704713
:102300000020024000200449C96901F0020109B11E
:10231000012000E0002070470020024003480069CF
:1023200040F0800001490861704700000020024031
:102330000549096821F01001034A11601146096836
:1023400001431160704700000020024078B5064646
:102350000C46042500200090E80200F09BF805469A
:10236000042D24D11348006940F00100114908618F
:102370003480E80200F08EF80546042D10D1B01C20
:102380000090200C00990880E80200F083F80546D0
:102390000848006941F6FE7108400649086106E0F8
:1023A0000448006941F6FE71084002490861284668
:1023B00078BD00000020024030B5054604244FF4EB
:1023C000302000F067F80446042C41D1214822490E
:1023D0008860224888600846006940F02000086153
:1023E0000846006940F0400008614FF4302000F0DA
:1023F00051F80446042C22D11748006941F6DF71D8
:102400000840154908610846006940F0100008615D
:102410001DB100201249088002E0A5201049088063
:102420004FF4302000F036F80446052C10D00A484E
:10243000006941F6EF7108400749086108E0052C82
:1024400006D00548006941F6DF710840024908617D
:10245000204630BD2301674500200240AB89EFCD07
:1024600000F8FF1F01460020034A106800F0380002
:1024700008431060704700000020024002480349F2
:1024800048600348486070472301674500200240C8
:10249000AB89EFCD00B502460423FFF719FF0346D1
:1024A00003E0FFF715FF0346521E012B01D1002A5E
:1024B000F7D102B90523184600BD000000201749D6
:1024C00091F8601011B30021144A82F86010144989
:1024D000096B0A2902D21249096B11B90321104A6A
:1024E00011630E49B1F8AE10002910DD0B49B1F8A7
:1024F000AE10C1EB01118900094A126BB1FBF2F178
:10250000064AA2F8B0100021A2F8AE1005E00021A2
:10251000024AA2F8AE10A2F8B0107047800F002057
:102520006010002010B5642003F0AAF9642001496E
:10253000087010BD470000200020034981F82400E6
:102540000249487170470000800F002038170020B2
:102550000548B0F8B600022801DC002070470120D1
:10256000024948710020F9E7800F00203817002049
:1025700010B5FFF7C7FE012806D0FFF77FFF012047
:10258000FFF71AFFFFF7CAFE10BD000070B508265E
:1025900000240025354890F8350008B9002070BDAA
:1025A0000020324981F83500012081F826000846D4
:1025B00090F82400642806DC084690F8240000EB1C
:1025C0008000450000E0002529480078401C28498B
:1025D000087008460078052805DD002025490870A8
:1025E0002349087002E00120224908702148007840
:1025F00010B1012833D118E01F48067003201E498E
:10260000487000208870C870087101204871082146
:10261000194801F053FD0446201217498871CC7106
:102620000822164806F00DFE1DE01348067006202D
:1026300011494870002088700120C8702812087164
:102640004D7108210C4801F039FD044620120A4959
:102650008871CC710822094806F0F3FD03E00020E0
:102660000449087000BF00BF002098E7800F0020D9
:10267000D1000020D00000200407002000480040C6
:1026800030B500228B071C0F0F2303FA04F20B4B0B
:102690008C1053F824309343084C8D1044F82530A7
:1026A00023468C1053F824308C07240F00FA04F4CE
:1026B0002343024C8D1044F8253030BD0800014002
:1026C0002DE9F041024600250026002000230024C9
:1026D000002791F803C00CF00F0591F803C00CF02F
:1026E000100CBCF1000F03D091F802C04CEA0505B4
:1026F00091F800C0BCF1000F31D0146800202BE02D
:102700004FF0010C0CFA00F3B1F800C00CEA03061C
:102710009E4220D183004FF00F0C0CFA03F7BC430C
:1027200005FA03FC4CEA040491F803C0BCF1280F3D
:1027300006D14FF0010C0CFA00FCC2F814C00AE0FC
:1027400091F803C0BCF1480F05D14FF0010C0CFA11
:1027500000FCC2F810C0401C0828D1D31460B1F8A6
:1027600000C0BCF1FF0F34DD546800202EE000F102
:10277000080C4FF0010808FA0CF3B1F800C00CEA9D
:1027800003069E4221D183004FF00F0C0CFA03F791
:10279000BC4305FA03FC4CEA040491F803C0BCF105
:1027A000280F05D100F1080C08FA0CF8C2F81480C3
:1027B00091F803C0BCF1480F07D100F1080C4FF0AD
:1027C000010808FA0CF8C2F81080401C0828CED383
:1027D0005460BDE8F0810000F0B50A4600230024F3
:1027E0000021002500F00046B6F1004F02D11D4E39
:1027F000F16901E01B4E7168C0F3034583B200F438
:102800004016B6F5401F08D121F07061154E76686C
:1028100026F07066134F7E6012E000F48016B6F565
:10282000801F06D1032606FA05F4A14341F070612A
:1028300006E0460D360103FA06F6B14341F0706139
:1028400022B1460D360103FA06F6314300F0004688
:10285000B6F1004F02D1034EF16101E0014E71600B
:10286000F0BD0000000001400246002093680B40CC
:102870000BB1012000E0002070470AB1016100E0C7
:102880004161704710B5FFF757FE02200749A1F8D4
:10289000B80003F0B5FC03F097F803F00BFD00F06F
:1028A000B7FC06F0DFFC002010BD0000800F002008
:1028B000014600BF40F6E44301FB03F2D31702EBED
:1028C0001353C3F30F30174AD082B0F5BE7F04DD37
:1028D00040F22F22904200DA501C134A526DA02A77
:1028E00008D8A0F22F2202EB820252008C2392FB26
:1028F000F3F290B20C4A526DA02A0DD90A4A526DD9
:10290000FA2A09D8A0F22F2202EBC20303EB02122B
:10291000E02392FBF3F290B2B0F5004F01DD40F2FC
:10292000E7307047800F0020601000200820002151
:1029300000BF544A9278012A06D1524A527812B105
:10294000504A127802B901214E4A5278012A03D125
:102950004C4A127802B9012199B14B4A92F882206F
:1029600032B10122484B83F8852083F8432003E0ED
:102970000022454B83F885200122434B83F83F20FA
:1029800007E00022404B83F8432083F83F2083F880
:102990003E203D4A92F84220052A07DB00223A4BAE
:1029A00083F8852083F8432083F84220374A127841
:1029B00002B90520344A92F8822052B1334A127883
:1029C000022A06D12F4A12780AB1082002E0052017
:1029D00000E00A202C4A92F83E2082420DDB2A4A6F
:1029E00092F875201AB90822274B83F87520002227
:1029F000254B83F83F2083F83E20224A927AC2B9C1
:102A0000214A92F83D201AB900221F4B83F83C203E
:102A100001221D4B83F83D201A4692F83C20012AE2
:102A20000DDD1A4692F875204AB90F2283F87520F9
:102A300005E00022144B83F83D2083F83C20114A26
:102A4000D27AC2B9104A92F83B201AB900220E4B32
:102A500083F83A2001220C4B83F83B201A4692F867
:102A60003A20012A0DDD1A4692F875204AB9012252
:102A700083F8752005E00022034B83F83B2083F8A0
:102A80003A20704756120020800F00201E0E0020B2
:102A900070B5044603F092F84FF4803003F050F91B
:102AA00003F0ACF90546012D23D11020FFF740FCBF
:102AB0000220FFF7D7FC002003F036F9A80203F04C
:102AC00065F9002003F06EF92146280403F07CF933
:102AD000012003F073F900BF392003F0FFF800284C
:102AE000FAD0022003F07EF900BF03F015F90828A0
:102AF000FBD170BD00BFFEE710B5284890F8750007
:102B000078B9264890F88D0018B10120234981F842
:102B100092000020214981F8750081F88D0020493C
:102B200048711E48B0F87C00B0F5E16F05DB00206D
:102B30001C4908701949A1F87C00184890F88D00CC
:102B400058BB164890F8750038B3144890F87500D3
:102B5000FF2822D000201449087014480078022869
:102B600001D109F017FB01200D4948710B4981F88B
:102B70008D0081F85F0081F89200084690F875009A
:102B800008490978884204D0044890F8750005493E
:102B9000087000200149A1F87C0010BD800F0020C2
:102BA000F40000209C000020880000201E0E002061
:102BB0001FB50121202002F0E1FF4FF48050ADF855
:102BC0000C0048208DF80F0003A92C48FFF778FD72
:102BD0000121084602F0D2FF0C210320FFF750FD2F
:102BE0004FF48050019000208DF8080008208DF8E7
:102BF000090001208DF80A0001A8FFF7A9FA282092
:102C00008DF8000002208DF801008DF802000120EF
:102C10008DF80300684602F067F80121082002F0F1
:102C2000ADFF0120ADF80C0048208DF80F0003A97E
:102C30001348FFF745FD00210120FFF721FD01208A
:102C4000019000208DF8080008208DF8090001206F
:102C50008DF80A0001A8FFF77BFA06208DF8000026
:102C600002208DF801008DF8020001208DF803008C
:102C7000684602F039F8002004B010BD001401408D
:102C8000000C014070B505460C4645F2555000F069
:102C90002BF8284600F01CF8204600F01FF800F042
:102CA0000FF800F001F870BD4CF6CC400149086007
:102CB000704700000030004010B500F001F810BD72
:102CC0004AF6AA2001490860704700000030004021
:102CD00001494860704700000030004001498860A9
:102CE0007047000000300040014908607047000054
:102CF0000030004000B50D4890F8750008B1002084
:102D000000BDFFF713FE0A48007860B9074890F845
:102D10008200012807D1054890F8750018B90720EE
:102D2000024981F875000020EAE70000800F0020CA
:102D30008C00002000B5FFF7F9FD0B48C0880B4957
:102D4000896B884207D90A4890F8750018B9102095
:102D5000074981F875000748007A012803D103204C
:102D6000034981F8750000BDE818002060100020BC
:102D7000800F00205612002010B50121084602F0F5
:102D8000FDFE01210148FFF727FD10BD00023000C4
:102D900070B5044600250026B248007810B101281D
:102DA0007ED14DE1002504EB4400AF4901EB00105A
:102DB000407B60B104EB440001EB0010407B401EFF
:102DC00004EB4401A84A02EB01114873012504EB0E
:102DD0004400A54901EB0010407C68B165B904EBE3
:102DE000440001EB0010407C401E04EB44019E4A6D
:102DF00002EB01114874022504EB44009A4901EBEF
:102E00000010407E68B165B904EB440001EB00108E
:102E1000407E401E04EB4401934A02EB01114876C8
:102E2000032504EB4400904901EB0010C07C68B11D
:102E300065B904EB440001EB0010C07C401E04EBBC
:102E40004401894A02EB0111C874042504EB4400D3
:102E5000854901EB0010407D68B165B904EB440081
:102E600001EB0010407D401E04EB44017E4A02EB62
:102E700001114875052504EB44007B4901EB001066
:102E8000C07D78B175B904EB440001EB0010C07D42
:102E9000401E04EB4401744A02EB0111C87500E0C6
:102EA000D8E0062504EB44006F4901EB0010C07B1D
:102EB00068B165B904EB440001EB0010C07B401E13
:102EC00004EB4401684A02EB0111C873072504EBC7
:102ED0004400654901EB0010C07E68B165B904EBA0
:102EE000440001EB0010C07E401E04EB44015E4A2A
:102EF00002EB0111C87609257DB904EB44005A495B
:102F000001EB0010007B0A2807DD002004EB4401E0
:102F1000554A02EB0111087308250A2D77D2DFE824
:102F200005F00518232E39444F5A656A04EB440016
:102F30004D4901EB0010007B401C04EB44014A4A60
:102F400002EB0111087312226421204600F0B4FF45
:102F50005FE004EB4400444901EB0010827B6421F4
:102F6000204600F0CFFF54E004EB44003E4901EB63
:102F70000010827C7021204600F0C4FF49E004EB81
:102F80004400394901EB0010827E6F21204600F099
:102F9000B9FF3EE004EB4400334901EB0010027D31
:102FA0007121204600F0AEFF33E004EB44002E49CF
:102FB00001EB0010827D7221204600F0A3FF28E083
:102FC00004EB4400284901EB0010027E73212046E7
:102FD00000F098FF1DE004EB4400234901EB0010D2
:102FE000027C6B21204600F08DFF12E096212046E6
:102FF00000F0AEFF0DE004EB44001B4901EB0010B4
:10300000027F7521204600F07DFF02E0FFE70025EA
:1030100000BF00BF04EB4400134901EB001080889F
:10302000401C04EB4401104A02EB0111888000208F
:103030000E4948710B480078401C0A4908700DE0A1
:103040000A48407928B100200849487105490870AC
:10305000012603E000200349087000BF00BF30468E
:1030600070BD0000D3000020841A0020800F0020D3
:1030700008B510208DF8030003208DF8020001210F
:10308000202002F07BFD1020ADF800008DF8030039
:1030900003208DF8020069464148FFF711FB01212A
:1030A000402002F06BFD0420ADF8000010208DF8E8
:1030B000030003208DF8020069463A48FFF700FB41
:1030C0000121402002F05AFD0820ADF80000102038
:1030D0008DF8030003208DF8020069463148FFF7A0
:1030E000EFFA0121102002F049FD3020ADF8000078
:1030F00048208DF8030069462B48FFF7E1FA0121CB
:10310000042002F03BFDC020ADF8000048208DF8FF
:10311000030069462548FFF7D3FA0121202002F079
:103120002DFDE020ADF8000048208DF80300694631
:103130001B48FFF7C5FA0121092002F01FFD0121FC
:103140001B48FFF749FB0121082002F017FD4FF44F
:103150007E70ADF8000048208DF8030069461548E0
:10316000FFF7AEFA0121402002F008FD0320ADF880
:10317000000048208DF8030069460A48FFF7A0FACE
:103180000121082002F0FAFC0120ADF800004820DF
:103190008DF8030069460748FFF792FA08BD000062
:1031A00000140140001801400010014000080140D7
:1031B00000023000000C014010B503F07BF8012044
:1031C000034981F89200002081F88E0010BD0000B4
:1031D000800F002010B503F07BF801200A4981F828
:1031E0008E0081F89200FFF79DF9074890F8900053
:1031F00020B10649486806F037FD03E043F6982001
:1032000006F032FD10BD0000800F0020601000208D
:1032100000200149487270473817002070B500BF80
:1032200000BF00262D48D0F8C800C0EB0010840075
:103230002A48D0F8CC0000EB80004FF6FF7101EA7D
:10324000400527480078032801D1002070BD24489C
:10325000007802280FD1234890F8820058B1214805
:1032600090F8280038B11F48C06A401C1D49C86248
:10327000002081F828001B48C06AA04206D3002025
:103280001849C86208630120174908701648007879
:10329000E0B11448006BA84214D21448407970B1D0
:1032A00000F026F80F4890F83400A0B100200D4936
:1032B00081F834000846006B401C08630BE0FFF700
:1032C000A7FF08E000200849087004E00020054935
:1032D0000863FFF79DFF0020B8E7000060100020A2
:1032E0001E0E0020800F0020AB00002038170020A9
:1032F0000120024948720020704700003817002062
:103300000020014948717047381700200120024908
:1033100048710020704700003817002000BFFEE70A
:103320002DE9FF5F4FF0000A0027002500200390E1
:103330008046029083460024814601900026FD4885
:1033400090F872000F2852DBFB48D0F8C00020B183
:10335000F948D0F8C00001280ED1F84800780228BA
:1033600001D108F017FFF5480078032804D10020A8
:10337000F2490870FFF786FAEF48D0F8C00002283B
:1033800004D0ED48D0F8C00003282AD1EC480088CA
:1033900001280FD10020EA490880E8480078022877
:1033A00001D108F0F7FE0321E64880F86D100021F6
:1033B00080F86E10E2480088032812D10020E0490E
:1033C0000880DE480078032804D10020DB4908701B
:1033D000FFF758FA0321DB4880F86D10002180F8D0
:1033E0006E100120D34981F85F00D7494871D74852
:1033F00090F85D02002878D00020D44981F85D0261
:10340000002240F22551D24805F0C3FBCF4890F886
:103410005902401ECF490A5CCC4890F85902801EE0
:10342000085C02EB00201FFA80F8C84890F8591297
:10343000C84800F043FE40457BD1C44890F82D01B8
:1034400002900020BB4981F872000298032874D1D1
:10345000BE4890F82F1190F82E0101EB00201FFAC2
:1034600080FBBA4890F8311190F8300101EB002050
:1034700084B2A146BBF1000F03D0BBF1C80F5AD1F3
:1034800027E088250120B1490870032048700846CC
:103490008570032706E0F81EAF49085CAB49C855A4
:1034A000781CC7B2E81C8742F5DB681DC1B2A7488B
:1034B00000F004FE80464FEA2821A44AE81C11547B
:1034C000281D02F800806A1DA049A14805F0B9FE38
:1034D00032E002200390482501209C490870032017
:1034E00048700846857003270CE0FAE3039800EB68
:1034F000C0009A4901EBC001F81E085C9349C85509
:10350000781CC7B2E81C8742F0DB681DC1B28F4847
:1035100000F0D4FD80464FEA28218C4AE81C115463
:10352000281D02F800806A1D8849894805F089FE37
:1035300002E06DE001E000BF00BF0298102867D1F3
:10354000824890F82F1190F82E0101EB00201FFA0D
:1035500080FB7E4890F8311190F8300101EB00209B
:103560001FFA80F9794890F8331190F8340101EB93
:10357000002084B2BBF1270F71D018DCBBF1270FFC
:103580006ED2DFE80BF059616E6D7A6DA8BBFE6DEF
:103590006D6D6D6D6D6D6D6D6D6D6D6DFCFBFAF925
:1035A000F8F7F6F5F4F3F2F1F0EFEEEDD600BBF13B
:1035B000C90F7DD027DCBBF1370F7AD014DCBBF10B
:1035C000330F77D009DCBBF1280F74D0BBF1290F82
:1035D00072D0BBF12A0F43D10EE2BBF1340F6CD095
:1035E000BBF1360FF7D134E2ABF138000928C7D26E
:1035F000DFE810F04F02360063023600D0023600DA
:10360000090336003A03ABF1CA001128B8D200E032
:10361000F9E3DFE810F0670325007703250087034F
:103620009703B903250025002500C903D803E90342
:103630002500F90309041904204601F037FA494628
:10364000584601F011FA03E224B94348448039494D
:1036500081F875404946584601F006FAFFE399E1C2
:10366000F1E3642C04DC3C488480E0B202F008F909
:103670004946584601F0F8F9F1E3012C26DC0ED159
:1036800001203549088103202A49A1F8B600FEF738
:103690005FFF3220274981F8240002F0DFFDACB93A
:1036A00000202D490881FEF747FF0220214905E04F
:1036B00007E3DAE1B0E17EE18EE1BBE1A1F8B80019
:1036C00002F09EFD00201B4981F82400494658461F
:1036D00001F0CAF9C3E3012C0BDC04D101201E491F
:1036E000888102F07DF924B900201B49888102F00D
:1036F0006BF94946584601F0B7F9B0E3012C13DCE9
:103700001548C48107D101201349C88102F0E0FDAA
:10371000642002F0B5F83CB900200F49C88102F0DE
:10372000C9FD002002F0ACF84946584601F09CF96A
:1037300095E31DE1800F0020601000201E0E002088
:10374000701A0020841A0020F4000020A604002033
:1037500000440040D2050020F41200207C13002019
:10376000F7E0E5E0D5E0B9E0A5E096E083E073E0BE
:1037700063E050E03DE035E02DE025E01DE015E0A0
:10378000FFE7012C0DDCF848048204D10120F64942
:103790000882FFF7ADFD24B90020F3490882FFF746
:1037A00037FD4946584601F05FF958E3EE488485F5
:1037B0004946584601F058F951E3EB48C48549465B
:1037C000584601F051F94AE3E7480486494658460D
:1037D00001F04AF943E3E44844864946584601F07B
:1037E00043F93CE3E04884864946584601F03CF9F9
:1037F00035E3142C0ADB782C08DCDB48C4864FF454
:103800007A706043D949086005F072FF494658460E
:1038100001F02AF923E3142C0ADB782C08DCD248C7
:1038200004874FF47A706043D049486005F060FF28
:103830004946584601F018F911E3142C07DB3C2CDB
:1038400005DCC9484487C948046105F051FF494671
:10385000584601F009F902E31E2C07DB642C05DC55
:10386000C1488487C148446205F042FF4946584632
:1038700001F0FAF8F3E2502C0ADBDC2C08DCBA4841
:10388000C48704EB84004000B849886305F030FF2A
:103890004946584601F0E8F8E1E2012C06DCB2485E
:1038A000A0F84040B148846205F022FF49465846DE
:1038B00001F0DAF8D3E2B4F5FA7F0ADB40F6B8306B
:1038C000844206DCA848A0F84240A848446305F0BA
:1038D0000FFF4946584601F0C7F8C0E2012C13DC3F
:1038E000A148A0F844400120A14981F85E000121CF
:1038F000A04880F87C10032180F87B10012180F81B
:10390000AC10032180F8AB104946584601F0ACF8E2
:10391000A5E2012C07DC9448A0F846409348C0F883
:10392000BC4005F0E5FE4946584601F09DF896E298
:10393000192C09DB642C07DC8B48A0F848408B4825
:10394000C0F8B84005F0D4FE4946584601F08CF85E
:1039500085E2012C07DC8448A0F84A408348C0F87F
:10396000B04005F0C5FE4946584601F07DF876E2C4
:10397000C82C0ADBB4F5AF7F07DC7B48A0F84C40CD
:103980007A48C0F8A84005F0B3FE4946584601F011
:103990006BF864E2012C09DB3C2C07DC7248A0F8D0
:1039A0004E407248C0F8C84005F0A2FE494658464D
:1039B00001F05AF853E2012C09DB3C2C07DC6A4881
:1039C000A0F850406948C0F8CC4005F091FE494647
:1039D000584601F049F842E2002C08DBFA2C06DCDC
:1039E0006148A0F852406148C46405F081FE494630
:1039F000584601F039F832E2012C08DB0A2C06DCCB
:103A00005948A0F854405948046305F071FE4946EE
:103A1000584601F029F822E2142C06DD5248A0F89D
:103A200066405248C46705F063FE4946584601F0B7
:103A30001BF814E2142C07DD4B48A0F868404B48F3
:103A4000C0F8804005F054FE4946584601F00CF895
:103A500005E2012C04DC4448A0F86C4005F048FE67
:103A60004946584601F000F8F9E1012C0CDC4248C7
:103A7000A0F86A40B0F86A003B49A1F86E003D48E2
:103A800080F8384006F002F84946584600F0ECFF4E
:103A9000E5E1032C0CDC3448A0F870403348C0F852
:103AA000C04005F025FE354800683049C1F8C00027
:103AB0004946584600F0D8FFD1E1B9F1020F52D182
:103AC0002F4890F833012F4908702D4890F83401A1
:103AD00048702B4890F835018870294890F83601D5
:103AE000C8700846006820494867486F264909F0B1
:103AF0004FFB009009F0CCFA86B20A2E2FDB1B4850
:103B0000406DB0422BD3214806601E48006816491C
:103B100048671E4800681D494968884219D91B48F2
:103B200000680A3019494860084640680F49496DE5
:103B3000884204D30D48406D401E14494860134923
:103B4000486809F0DDFA1049009009F0DFF90649EC
:103B5000886705F03DFF0E48806A0C4908604946B9
:103B6000584600F081FF7AE1F41200206010002036
:103B7000800F0020841A00207C130020B0B80108B8
:103B8000A60400207C0000200000C8424410002051
:103B900000200308B9F1020F34D1BC4890F833017A
:103BA000BB490870B94890F834014870B74890F89C
:103BB00035018870B54890F83601C870084600682D
:103BC000B4498867886FB44909F0E2FA009009F0B7
:103BD0005FFA86B2B1480068B0420FD8B048406D75
:103BE000B0420BD3AD484660A9480068A949886730
:103BF00005F0EEFEAB48C06AA84948604946584601
:103C000000F032FF2BE1B9F1020F2CD19F4890F860
:103C100033019F4908709D4890F8340148709B48D3
:103C200090F835018870994890F83601C8700846B8
:103C300000689849C867C86F974909F0A9FA0090C9
:103C400009F026FA86B295484068B04207D99348F1
:103C500086608F4800688F49C86705F0B9FE4946FD
:103C6000584600F001FFFAE0B9F1020F28D1874869
:103C700090F8330186490870844890F83401487000
:103C8000824890F835018870804890F83601C870F5
:103C9000084600687F49C1F88000D1F880007E495D
:103CA00009F076FA009009F0F3F986B2FA2E03DCF7
:103CB0007B48466505F01CFD4946584600F0D4FE99
:103CC000CDE0012C08DC7848A0F892400321774829
:103CD00080F86F1080F870404946584600F0C4FEE6
:103CE000BDE0D1E0642C08DC6F48A0F894400321CB
:103CF0006E4880F8791080F87A404946584600F0BE
:103D0000B3FEACE0012C08DC6748A0F89840032122
:103D1000664880F8731080F874404946584600F0B1
:103D2000A3FE9CE0012C08DC5F48A0F89C40032126
:103D30005E4880F8751080F876404946584600F095
:103D400093FE8CE0012C1ADC0CD101215648A0F81E
:103D50009E106421A0F894100321544880F871103B
:103D600080F872405CB900214F48A0F89E10A0F87E
:103D7000941003214D4880F8711080F87240494634
:103D8000584600F071FE6AE0012C08DC4648A0F8B5
:103D9000A0400321454880F8771080F878404946D4
:103DA000584600F061FE5AE03C2C07DC3E48A0F883
:103DB000A8403E4880F88A4005F068FE49465846CB
:103DC00000F052FE4BE0642C09DC1E2C07DB364869
:103DD000A0F8AA40354880F88B4005F057FE4946C8
:103DE000584600F041FE3AE0C82C07DC2E48A0F807
:103DF000AC402E4880F88C4005F048FE49465846B5
:103E000000F032FE2BE02BE0B4F5C87F07DC26483B
:103E1000A0F8B0402548A0F88E4005F037FE49468E
:103E2000584600F021FE1AE0012C07DC1E48A0F8DD
:103E3000B2401E4880F8684005F028FE49465846C2
:103E400000F012FE0BE009E0012C02DC1648A0F89D
:103E5000B4404946584600F007FE00E000BF00BFEE
:103E60004FF0000A07E00021114800F80A100AF19B
:103E7000010000F0FF0ABAF1C80FF4DB012240F2A2
:103E800025510C4804F085FEBDE8FF9FA6040020E4
:103E90007C000020F41200200000C84244100020E2
:103EA00060100020002003087C130020841A0020EA
:103EB000D2050020004400402DE9F04106460C46A2
:103EC000154600270D48067003200C494870201243
:103ED0008870CC70281208714D710821074800F0D5
:103EE000EDF80746381205498871CF710822044859
:103EF00005F0A7F90020BDE8F081000004070020CC
:103F0000004800402DE9F04106460C4615460027C2
:103F10000D48067006200C49487020128870CC703D
:103F2000281208714D710821074800F0C7F80746AC
:103F3000381205498871CF710822044805F081F9CB
:103F40000020BDE8F0810000040700200048004088
:103F50002DE9F04104460D46002600275248047022
:103F600010205149487028128870CD7000200871C7
:103F700012204871242088714C480088000AC871BA
:103F80004A480078087249488088000A48724748C1
:103F90000079887245480089000AC8724348007A4F
:103FA00008730020487304EB4400414901EB001002
:103FB00090F82A003C4988730020C87304EB440041
:103FC0003B4901EB001090F82B003749087404EBD3
:103FD0004400374901EB0010C08D0012324948748B
:103FE00004EB4400324901EB001090F82E002E49FA
:103FF00088740020C87404EB44002D4901EB0010C4
:1040000090F82C002849087500204875294890F838
:10401000B8008875274890F8C800C875254890F8FA
:10402000CC000876002048768876C87608774877EE
:104030008877C87781F8200081F821001D4890F822
:10404000280081F82200002081F82300194890F808
:10405000BC0081F82400002081F82500154890F864
:10406000540081F82600002081F82700114890F8BC
:10407000C00081F82800002081F829000B48007B4F
:1040800081F82A002D21084800F018F80646301261
:10409000054981F82B0081F82C602D22064805F097
:1040A000D0F80020BDE8F081040700204410002073
:1040B000841A00206010002000480040F0B502463D
:1040C0000B464FF6FF71002411E017787940002568
:1040D00008E001F00106491016B14AF201077940E3
:1040E0006F1CBDB2082DF4DB521C671CBCB29F1EB6
:1040F000A742EADC0F063F0C47EA1120F0BD0000A2
:1041000070B50024002500263D4890F85D02002887
:1041100074D000203A4981F85D02002240F2255116
:10412000384804F036FD364890F85902401E3649AA
:104130000A5C334890F85902801E085C02EB0020AC
:1041400085B22F4890F859122F48FFF7B7FFA842C1
:1041500045D12B4890F82C01FE282BD1284890F807
:104160002D01032826D1264890F82F1190F82E0112
:1041700001EB002086B2B6F57A7F1BD1204890F87B
:104180002C011F490870032048700220887000200D
:10419000C8701E4890F84C00087107211848FFF7B6
:1041A0008DFF05462812164948718D710722154862
:1041B00005F047F81548D0F8C00030B1012805D007
:1041C000022806D0032808D104E000BF01F0BCF8A3
:1041D00004E000BF00F0CAFD00E000BF00BF002403
:1041E00004E0002108480155601CC4B2642CF8DBCF
:1041F000012240F22551034804F0CBFC70BD0000C1
:1042000048020020003801407403002060100020A4
:104210002DE9F0470024002500260027A046A146EE
:10422000594890F84E0040BB01241CE004EB4400C8
:10423000564901EB001080881E2812DD002004EB97
:104240004401524A02EB0111487004EBC401504A88
:1042500022F8310004EBC40102EBC1004821FCF755
:10426000EBF8601CC4B20D2CE0DB484890F861000C
:1042700018B9002047494870C8704748D0F8BC00BA
:1042800048B1414890F827000A2808DB13203E492E
:1042900081F8750003E000203B4981F827003F4882
:1042A00090F85D0200286CD000203C4981F85D0246
:1042B000002240F225513A4804F06BFC374890F850
:1042C0005902401E37490A5C344890F85902801E52
:1042D000085C02EB00201FFA80F9304890F82D614D
:1042E00090F82E7190F859122E48FFF7E7FE4845D6
:1042F00038D12A4890F82C51234890F84E0038B90C
:10430000082D05DA254991F82D01294600F0D0F84D
:10431000082D27D100201C4981F8260081F82700AC
:10432000032E1FD1022F1DD11C4890F8301190F898
:104330002F0101EB00201FFA80F8B8F1EA0F04D139
:104340000120114981F8250003E000200E4981F881
:1043500025000D4890F82500012803D112200A49B4
:1043600081F87500002404E000210E480155601C0E
:10437000C4B2642CF8DB012240F22551084804F055
:1043800008FCBDE8F0870000800F0020841A0020A0
:104390007C130020BC1200206010002004070020C5
:1043A000004800403008002070B5002400253A483D
:1043B000D0F8C000022804D03748D0F8C000032845
:1043C00018D1364890F84E00012813DD334890F894
:1043D0004F000F280EDD32480078022801D107F087
:1043E000D9FE2F480078032802D100202C490870FC
:1043F000FEF748FA2B4890F85D0200284AD00020CA
:10440000284981F85D02002240F22551264804F037
:10441000C0FB244890F85902401E24490A5C2148F8
:1044200090F85902801E085C02EB002085B21D48FE
:1044300090F859121D48FFF741FEA8421BD11748BA
:1044400090F84E0048B9174890F82C011249C96CF1
:10445000884210D103F01EFD0DE0124890F82C01A7
:104460000E4991F84E10884205D100200B4981F881
:104470004F0003F00FFD002404E000210B4801551C
:10448000601CC4B2642CF8DB012240F225510648BE
:1044900004F07FFB70BD000060100020800F002042
:1044A0001E0E002062090020004C00408E0A0020F1
:1044B0002DE9F04707460C464FF000090025A846B5
:1044C0000026002004EB4401D74A02EB011188804A
:1044D000012004EB440102EB01114870032F7DD150
:1044E000D24890F82E91B9F1240FF8D104EB440092
:1044F000114601EB001080880A2806DD002004EB3D
:10450000C401CB4A22F831001DE0C84890F83001C0
:10451000022804D104EBC401C54A22F83100C34883
:1045200090F8300128B9012004EBC401C04A22F8F8
:104530003100BE4890F83C0128B1032004EBC401CF
:10454000BB4A22F83100B94890F83C0104EBC401A1
:10455000B74A02EBC1014880B44890F8440104EB2B
:10456000C40102EBC1018880B04890F83E0104EB21
:10457000C40102EBC101C880AC4890F8480104EBCB
:10458000C40102EBC1010881A84890F8360104EB90
:10459000C40102EBC1014881A44890F84A0104EB30
:1045A000C40102EBC1018881A04890F8460104EBE8
:1045B000C40102EBC101C8819C4890F84C0104EB96
:1045C000C40102EBC1010882984890F8401190F8AC
:1045D0003F0101EB002004EBC40100E0AEE002EB80
:1045E000C101488204EB44008F4901EB001090F8B0
:1045F0002A0004EBC40102EBC101088304EB440070
:10460000894901EB001090F82B0004EBC40102EB88
:10461000C101488304EB4400834901EB001090F88A
:104620002C0004EBC40102EBC101888304EB4400BD
:104630007D4901EB0010C08D04EBC40102EBC10108
:10464000088404EB4400784901EB0010007A04EB85
:10465000C40102EBC1014884022C0BD104EBC4005D
:10466000114601EBC000007A724948706F4890F81B
:104670004E01C8706D4991F8322191F8311102EB69
:10468000012008F025FD80460021404608F04CFE40
:104690000AD26949404608F039FC04EBC401644A77
:1046A00002EBC101086306E0002004EBC401604A8C
:1046B00002EBC10108635D4991F8422191F8411173
:1046C00002EB012008F004FD80460021404608F07E
:1046D0002BFE0AD25849404608F018FC04EBC401EE
:1046E000534A02EBC101486306E0002004EBC40119
:1046F0004F4A02EBC10148634C4991F83A2191F8C5
:10470000391102EB012008F0E3FC804604EBC40001
:10471000474901EBC000C0F84480444991F8382172
:1047200091F8371102EB012008F0D2FC804604EB2F
:10473000C4003F4901EBC000C0F84080062F70D193
:104740003A4890F82F1190F82E0101EB002085B225
:10475000364890F8311190F8300101EB002086B214
:10476000642D1FD1002004EB44012F4A02EB0111FC
:104770004873012E01D0022E05D1022004EBC401A2
:104780002B4A22F831002EB9012004EBC401284A3B
:1047900022F83100032E05D1032004EBC401244A82
:1047A00022F831006B2D06D1002004EB44011E4A93
:1047B00002EB0111C8736F2D06D1002004EB4401F8
:1047C000194A02EB01114876702D06D1002004EB46
:1047D0004401154A02EB01114874712D06D10020E5
:1047E00004EB4401104A02EB0111C874722D06D18A
:1047F000002004EB44010C4A02EB01114875732DB3
:1048000006D1002004EB4401074A02EB0111C875F0
:10481000752D06D1002004EB4401034A02EB01117F
:10482000C8760020BDE8F087841A00200407002025
:104830007C130020BC1200200000C84210B5834841
:10484000D0F8C00020B18148D0F8C00001282DD197
:104850007F480078012802D0022822D117E07B4847
:10486000D0F8BC0068B17B48407978B1FDF78EFE86
:1048700000207849487176480078401C74490870D7
:1048800004E073480078401C714908700DE07148DD
:10489000407928B100206F49487101206C490870A7
:1048A00003E001206A49087000BF00BF6748D0F8E4
:1048B000C000022804D06548D0F8C00003287DD18C
:1048C0006348007806287AD2DFE800F0B8037E89D2
:1048D0009CAE0121604880F831100021818680F86B
:1048E00036105C4890F8750018B901215A4880F8D4
:1048F0003210584890F875105848A0F84A10564899
:1049000090F83D00B0B10021534880F83D1090F878
:104910003E0028B952480078022801D107F03AFC3D
:104920004D4890F83E00012804D14D48007808B960
:1049300007F01EFE4A48007818B901204749A1F83F
:10494000480047480078022802D14449A1F84800AD
:10495000404890F8750018B103204049A1F848007C
:104960003E48B0F848003F49A1F86A000846B0F850
:104970006E103A48A0F86A103A48B0F86C10374800
:10498000A0F86C10374881883448A0F84C1035489E
:10499000818F3248A0F86210324841692F48816700
:1049A000304881692D48C1672A4890F84E0038B9CF
:1049B00027480078401C2649087004E043E03DE0A9
:1049C0000420234908703DE021480078FEF7E0F913
:1049D00020B11F480078401C1D49087032E01C4877
:1049E0000078FEF7D5F960B11848D0F8BC0028B1BE
:1049F00017480078401C1649087002E0012014494D
:104A000008701FE01148D0F8BC0060B1114840792F
:104A100048B1FDF7BBFD00200E4948710C480078F5
:104A2000401C0B4908700DE00A48407928B100206D
:104A30000849487101200649087003E00120044933
:104A4000087000BF00BF002010BD000060100020F3
:104A5000D2000020800F0020841A00207C13002048
:104A60001E0E0020F412002070B504460D460026EC
:104A700001200C4908701020487020128870CC70FA
:104A8000281208714D7108210648FFF717FB0646EA
:104A9000301204498871CE710822034804F0D1FB1A
:104AA000002070BDA60400200044004010B504465C
:104AB0003248D0F8C00030B1012805D0022825D0F6
:104AC000032856D123E000BF012C04D12C480078E4
:104AD00008B907F04DFD74B929480078022801D1C2
:104AE00007F058FB26480078032804D10020244909
:104AF0000870FDF7C7FE032C07D12148007820B9C4
:104B000003201F490870FDF7BDFE33E000BF012CF4
:104B100002D101201B490880BCB91948007802283D
:104B200001D107F037FB0020164908800321164801
:104B300080F86D1080F86E4011480078032804D189
:104B400000200F490870FDF79DFE032C10D10320B3
:104B50000C4908800A48007820B9032008490870E9
:104B6000FDF790FE0321084880F86D1080F86E4034
:104B700000E000BF00BF002010BD0000601000205A
:104B80001E0E0020701A0020841A002070B5044602
:104B90000D4600260D4890F82C010C49087006209F
:104BA000487020128870CC70281208714D7108214D
:104BB0000648FFF783FA0646301204498871CE7121
:104BC0000822034804F03DFB002070BD620900206C
:104BD000004C004070B504460D46002601200C49EB
:104BE00008701020487020128870CC70281208714C
:104BF0004D7108210648FFF761FA06463012044954
:104C00008871CE710822034804F01BFB002070BDA0
:104C100062090020004C00402DE9F04104460D4699
:104C200000260127114890F82C01012802DD1048C8
:104C300090F84C700D48077010200C4948702012F5
:104C40008870CC70281208714D7108210748FFF751
:104C500035FA0646301205498871CE71082205489A
:104C600004F0EFFA0020BDE8F081000048020020C7
:104C700060100020003801402DE9F04104460D4647
:104C800000260127114890F82C01012802DD104868
:104C900090F84C700D48077006200C49487020129F
:104CA0008870CC70281208714D7108210748FFF7F1
:104CB00005FA0646301205498871CE71082205486A
:104CC00004F0BFFA0020BDE8F08100004802002097
:104CD0006010002000380140704710B54FF4A0600C
:104CE00000F03AF810BD000070B5002100230F223B
:104CF000C47804B3154C246804F4E064C4F5E0649B
:104D0000210AC1F10403CA40447804FA03F184780B
:104D10001440214309010E4C0678A155047804F093
:104D20001F050124AC4005786D11AD0005F1E025AB
:104D3000C5F8004109E0047804F01F050124AC40E7
:104D4000044D0678761145F8264070BD0CED00E064
:104D500000E400E080E100E002490143024A116002
:104D6000704700000000FA050CED00E02DE9FF5F40
:104D70004FF0000B0020039080460126002482465D
:104D800002904FF001090025019000900027FE4895
:104D900090F82DB190F82F1190F82E0101EB002022
:104DA00086B2F94890F8311190F8300101EB0020FB
:104DB00000F0FF08F44890F8311190F8300101EB51
:104DC000002084B2F04890F82C01012802DDEF4861
:104DD00090F84C90BBF1030F03D0BBF1060F7DD1CF
:104DE00085E1822E7BD004DC642E07D0782E77D12B
:104DF000A1E0962E75D0A02EF9D146E1642E71D196
:104E0000B8F1120FFBD1E04880F800900320DE4992
:104E10004870242088700020C870DD480078087130
:104E200000204871DB48007888710020C871087242
:104E30004872D948807A8872D848C0880A2190FB85
:104E4000F1F01FFA80FA4FEA2A20CF49C87281F8A0
:104E50000CA0D149886A08F01BF987B23812CA49F8
:104E600048738F730020C873CB4880780874002083
:104E70004874C948007988740020C874C648007A0C
:104E8000087500204875C448807988750020C87569
:104E9000C34890F89A000876C149D1F8D00008F0CC
:104EA000F7F887B23812B84948768F76BC49D1F8FE
:104EB000D40008F0EDF887B23812B349C8760F77FE
:104EC00000204877B64890F8920088770020C8778D
:104ED000B34890F8940081F8200004E022E268E0F2
:104EE00002E1A4E026E0002081F82100AC4890F81F
:104EF000980081F82200002081F82300A84890F84B
:104F0000960081F82400002081F82500A44890F83C
:104F1000900081F8260029219B48FFF7CFF805462D
:104F20002812994981F8270081F8285029229D48A4
:104F300004F087F9D9E0782E3AD1B8F1040F37D1CF
:104F4000914880F8009003208F49487008208870AD
:104F50009348806F944908600846C0788A49C870B1
:104F60009148807808719048407848718E48007860
:104F700088718B48D0F8C0008B4908600846C0781B
:104F80008149C8718848807808728748407848729B
:104F90008548007888720D217B48FFF78FF8054619
:104FA00028127949C8720D730D227E4804F049F920
:104FB0009BE0822E3AD1B8F1040F37D1724880F8C5
:104FC00000900320704948700820887072488069FA
:104FD000754908600846C0786B49C8707248807887
:104FE00008717148407848716F48007888716C4842
:104FF000D0F8C4006C4908600846C0786249C8719E
:105000006948807808726848407848726648007835
:1050100088720D215C48FFF751F8054628125A495D
:10502000C8720D730D225F4804F00BF95DE0B8F112
:10503000030F29D1544880F800900320524948704A
:105040000620887059480088000AC87057480078C0
:10505000087156488088000A487154480079887160
:1050600052480089000AC8715048007A08720B2122
:105070004548FFF723F805462812434948728D72C8
:105080000B22484804F0DDF82FE0B8F1040F2AD1D4
:105090003D4880F8009003203B4948700820887004
:1050A0000020C8704248007B08714148C089001246
:1050B00048713F48807B88710020C8713C48007C63
:1050C0000872002048723A48407C88720D212E48B0
:1050D000FEF7F4FF054628122B49C8720D730D2206
:1050E000304804F0AEF800E000BF00BF1BE1982E8E
:1050F00049D00CDC712E6ED004DC642E10D06A2EE8
:105100006AD16BE0962E68D0972EF9D1B9E0A02E27
:105110007ED0A12E7DD0A22E7CD0A32EF0D1F1E0A6
:10512000194890F8311190F8300101EB00201FFA76
:1051300080FABAF1000F16D11548008898B1002006
:105140001349088013480078022801D107F022F89B
:105150000321184880F86D10002180F86E10214658
:105160003046FFF789FDBAF1010F33D121463046B1
:10517000FFF782FD0A48B0F86A00E8B90848B0F8BD
:10518000B200C8B9CCE08DE04802002060100020D9
:10519000701A00201E0E0020F4120020E8180020D3
:1051A0007C130020003801407C00002044100020C7
:1051B000800F0020841A00205C48B0F86A0018B9FB
:1051C0005A48B0F8B20028B15948008810B90120F7
:1051D00057490880A4E027E0A1E043E0554890F853
:1051E000750018B95148B0F89200E0B100214F485D
:1051F000A0F892100321504880F86F10002180F829
:10520000701000204B4981F875004C49487102E04C
:1052100055E05FE069E04871464981F88D0021461C
:105220003046FFF729FD7BE0424890F8750018B939
:105230003E48B0F89200A0B100213C48A0F892107E
:1052400003213D4880F86F10002180F87010002085
:10525000384981F875003949487121463046FFF7D1
:105260000BFD5DE036484068A04209D9142C07DBED
:105270003348046004F0ACFB21463046FFF7FCFCE9
:105280004EE03048406DA0420BD92D480068A04246
:1052900007D22B48446004F09BFB21463046FFF7C1
:1052A000EBFC3DE026484068A04207D924488460D2
:1052B00004F08EFB21463046FFF7DEFC30E0012C87
:1052C00007DC1C490C7304F083FB21463046FFF7D2
:1052D000D3FC25E0002C07DB1648C48104F078FBE2
:1052E00021463046FFF7C8FC1AE0002C09DB0C2CE5
:1052F00007DC10490C7404F06BFB21463046FFF7C5
:10530000BBFC0DE0002C09DB1E2C07DC09494C74AA
:1053100004F05EFB21463046FFF7AEFC00E000BF24
:1053200000BF00E000BF00BFBDE8FF9F7C1300206E
:10533000701A0020800F0020841A0020F400002042
:1053400044100020601000202DE9F04F89B00020AB
:105350000890079080460024814606904FF0010A8D
:1053600005900026002583460490002703900290B4
:1053700000900190FD4890F82D010890FB4890F8AE
:105380002F1190F82E0101EB00201FFA80F9F74849
:1053900090F8311190F8300101EB002000F0FF0887
:1053A000F24890F8311190F8300101EB002084B2FE
:1053B000EE4890F82C0101280DDDED4890F84CA046
:1053C000EA4890F82C01EA49C96C884203D00020D1
:1053D00009B0BDE8F08F0898032804D006287DD0D6
:1053E00010287CD1DFE1B9F1640F09D0B9F1780F51
:1053F00063D0B9F1960F73D0B9F1A00F71D1C2E0AB
:10540000B9F1640F58D1B8F10B0F55D1D74880F8D6
:1054100000A00320D5494870162088700020C8706D
:10542000D44800780871D448008900124871D248E5
:10543000007A88710020C871CF48807A08720020F5
:105440004872CE48807A88720020C872CA48C088E4
:105450000A2190FBF1F0C5490873C948808A0012FF
:105460004873C748007D88730020C873C44890F80B
:105470007500087400204874C24880788874002041
:10548000C874BE480079087500204875BD48407949
:1054900088750020C875BA4890F8820008761B21EC
:1054A000B248FEF70BFE06463012B04948768E76BB
:1054B0001B22B54803F0C5FEB3E0AF49088907F0E9
:1054C0001FFE0590B149059807F020FDB04908601E
:1054D000B9F1780F28D1B8F1020F03E0A3E0A6E1FB
:1054E00023E09DE020D1A14880F800A003209F493F
:1054F000487004208870A648C078C870A448807896
:105500000871A34840784871A14800788871092142
:105510009648FEF7D3FD064630129449C8710E72C4
:105520000922994803F08DFE7BE0B8F1030F29D1E1
:105530008E4880F800A003208C49487006208870AF
:1055400094480088000AC870924800780871914811
:105550008088000A48718F48007988718D480089D9
:10556000000AC8718B48007A08720B217F48FEF749
:10557000A5FD064630127D4948728E720B22824884
:1055800003F05FFE4DE0B8F1080F48D1774880F88E
:1055900000A0032075494870102088700020C87052
:1055A0007748007B08717648C089001248717448BA
:1055B000807B88710020C8717148007C08720020CF
:1055C00048726F48407C8872734A516B9069FBF750
:1055D0007BFF07463D0C28126449C8720D73BDB2AB
:1055E000281248738D736C4A116B5069FBF76CFF7E
:1055F00007463D0C28125D49C8730D74BDB22812D0
:1056000048748D7415215948FEF758FD064630122E
:105610005649C8740E7515225B4803F012FE00E06F
:1056200000BF00BF04E1B9F1980F5FD00CDCB9F105
:10563000640F16D0B9F16A0F2AD0B9F1960F35D0A0
:10564000B9F1970F75D140E0B9F1A00F5BD0B9F176
:10565000A10F63D0B9F1A20F6DD0B9F1A30FF1D1B1
:1056600076E04448007838B9022C05D106F080FF76
:1056700021464846FFF700FB3E480078022806D145
:105680002CB906F087FD21464846FFF7F5FA88E079
:1056900000203B4981F8750040494871384981F83C
:1056A0008D0021464846FFF7E7FA7AE0394840681E
:1056B000A04209D9142C07DB3648046004F088F9AD
:1056C00021464846FFF7D8FA6BE02948406DA042D2
:1056D0000BD930480068A04207D22E48446004F03D
:1056E00077F921464846FFF7C7FA5AE0294840684B
:1056F000A04207D92748846004F06AF92146484649
:10570000FFF7BAFA4DE0012C07DC1D490C7304F0D9
:105710005FF921464846FFF7AFFA42E0002C07DB6D
:105720001748C48104F054F921464846FFF7A4FA0B
:1057300037E035E0FFE7002C09DB0C2C07DC1049D3
:105740000C7404F045F921464846FFF795FA28E025
:10575000002C09DB1E2C07DC09494C7404F038F9D5
:1057600021464846FFF788FA1BE000004802002067
:10577000601000201E0E0020E8180020F412002007
:10578000800F002038170020003801400000C84278
:105790007C0000204410002068120020F40000204B
:1057A00000BF00BF44E0244890F8311190F8300168
:1057B00001EB002000F0FF081F4890F8341190F82A
:1057C000330101EB002085B21B4890F8361190F8A8
:1057D000350101EB00201FFA80FBB9F1A40F03D0C3
:1057E000B9F1A60F20D10FE0B8F1020F0BD10BEBEE
:1057F00005471248874206D31148874203D84146DD
:105800004846FFF709FA10E0B8F1020F0BD10BEB95
:1058100005470A48874206D30948874203D84146CC
:105820004846FFF7F9F900E000BF00BF00E000BF05
:1058300000BF0020CCE5000048020020A086010047
:105840003F420F00084890F89A0018B1002006491E
:1058500081F89A00044890F89D0018B10020024990
:1058600081F89D0070470000800F002010B50420D3
:1058700000F020F84FF48030FCF750FC10BD000021
:10588000642800DD642040F2F511052202FB1011AE
:10589000044A11800449C873044988800449087087
:1058A00070470000400400401E0E0020F41200204B
:1058B0004700002001460020034A52680A400AB10E
:1058C000012000E0002070470070004010B536480D
:1058D000007802280ED1354890F86C003C280DDB8A
:1058E0000020324981F86C0031480069401C304981
:1058F000086103E000202D4981F86C002C48006904
:105900002C490988884203D92A4800882849086117
:105910002748006928490988884207D90020274973
:1059200081F83F00012081F8400005E00020234974
:1059300081F83F0081F840002148007818B9002024
:105940001A49A1F866001A480069012810D91D48B3
:10595000007868B901201A4908701448B0F8660048
:10596000032805DB002008701149086104F08EF857
:105970000020124981F841000D4800693C21B0FB2C
:10598000F1F00E4981F84200002081F843000848F8
:1059900000693C21B0FBF1F201FB1200074981F8DC
:1059A0004400002010BD00001E0E0020800F0020CB
:1059B000300F0020A4000020A2000020AC0E002028
:1059C000A6000020561200204FF480700249486162
:1059D00000200249C87070470010014038170020AD
:1059E0004FF480700249086101200249C870704775
:1059F0000010014038170020704770B504460D466E
:105A000029462046FCF730FF012800D170BD002058
:105A1000FCE70000014600BF40F6E44301FB03F24F
:105A2000D31702EB1353C3F30F300D4AD082B0F5F6
:105A3000BE7F04DD40F22F22904200DA501CA0F21B
:105A40002F2202EBC20303EB0212E02392FBF3F2DC
:105A500090B2B0F5004F01DD40F2E7307047000032
:105A6000800F002030B50146002200230020204C8A
:105A700064688C4214D21F4C94F8774034B90124E6
:105A80001C4D85F87740002485F87840194C94F82F
:105A90007840062C01DB084629E0174C208926E0D7
:105AA0000024144D85F8774085F87840134C24780D
:105AB000042C02DD0024114D2C70114C0F4D2D785B
:105AC00024F815100D4C2478641C0C4D2C70002308
:105AD00006E00B4C34F813401444A2B25C1CE3B251
