:020000040800F2
:100000000029002011020008C14C0008F12A000854
:1000100019330008C51400085991000800000000B9
:10002000000000000000000000000000E761000880
:100030007D1A000800000000E15900083968000836
:100040002B020008555800082B020008CD5E00085E
:100050002B0200082B020008211F00082B020008B9
:100060002B0200082B020008B52000082B02000814
:100070002B0200082B0200082B0200082B020008AC
:100080002B0200082B0200082B0200082B0200089C
:100090002B0200082B0200082B020008C7200008D2
:1000A0002B0200082B0200082B0200082B0200087C
:1000B0001D7300082B020008797400082B02000849
:1000C0002B0200082B0200082B0200082B0200085C
:1000D0002B020008718700085D8800081989000854
:1000E000551F00082B0200082B0200082B020008F5
:1000F0002B0200082B0200082B0200082B0200082C
:100100002B0200082B020008A97B00082B02000824
:100110006D7D0008858600082B0200082B02000870
:100120002B0200082B0200082B0200082B020008FB
:1001300000F002F800F05CF80AA090E8000C82449D
:100140008344AAF10107DA4501D100F051F8AFF27A
:10015000090EBAE80F0013F0010F18BFFB1A43F0A5
:100160000103184754D2000074D200000A444FF033
:10017000000C10F8013B13F0070408BF10F8014B06
:100180001D1108BF10F8015B641E05D010F8016B4B
:10019000641E01F8016BF9D113F0080F1EBF10F8AF
:1001A000014BAD1C0C1B09D16D1E58BF01F801CBD2
:1001B000FAD505E014F8016B01F8016B6D1EF9D555
:1001C0009142D6D37047000000230024002500266A
:1001D000103A28BF78C1FBD8520728BF30C148BFAA
:1001E0000B607047002070471FB51FBD10B510BDD4
:1001F00000F07CF91146FFF7F7FF0BF0D9FC00F097
:100200009AF903B4FFF7F2FF03BC09F08CFC00007D
:100210000948804709480047FEE7FEE7FEE7FEE79A
:10022000FEE7FEE7FEE7FEE7FEE7FEE704480549D6
:10023000054A064B704700006D6E0008310100084A
:10024000001F0020002900200021002000210020A4
:10025000704700000FB4044910B503AA029800F0DB
:100260002FF910BC5DF814FB380000202DE9F05F79
:10027000894604464FF0000ADFF874B1FB44C0F829
:1002800020A02046E1688847002874D0252806D0A1
:10029000D4E901219047206A401C2062F1E7002642
:1002A0005F462046E16888472028054607DB312D58
:1002B00005D2781910F8200C08B10643F1E7B00711
:1002C00001D526F00406C4F81CA00027C4F818A025
:1002D0002A2D09D0284609F01FFC38B304EB870803
:1002E000303DC8F8185019E059F8041B204604EBBB
:1002F00087029161E1688847012F054618D1E069BE
:10030000002820DA26F020061DE0D8F8180000EBBF
:10031000800005EB40003038C8F818002046E1683E
:100320008847054609F0F8FB0028EED1012F0AD0D6
:100330002E2D08D12046E16888477F1C0546022FF4
:1003400046F02006C4DBA069002803DA404246F0EC
:100350000106A061F00701D026F010066C2D0BD02D
:10036000682D09D04C2D39D06A2D35D0742D35D05B
:100370007A2D33D016E038E0E1682F4620468847D2
:10038000B842054609D16C2F26D04FF48060E16851
:10039000064320468847054604E06C2F1AD04FF4E8
:1003A000807006430DB3A5F14100192802D820350D
:1003B00046F400664A462946204626604E46FFF728
:1003C00011FF80B101280BD0F61D26F0070000F1C7
:1003D000080956E74020E4E78020D8E70020D6E768
:1003E00006F104094DE7284652E7206ABDE8F09F70
:1003F00044D000004FF000020429C0F0128010F039
:10040000030C00F01B80CCF1040CBCF1020F18BFF0
:1004100000F8012BA8BF20F8022BA1EB0C0100F083
:100420000DB85FEAC17C24BF00F8012B00F8012B56
:1004300048BF00F8012B70474FF0000200B513468B
:1004400094469646203922BFA0E80C50A0E80C50F4
:10045000B1F12001BFF4F7AF090728BFA0E80C50A5
:1004600048BF0CC05DF804EB890028BF40F8042B9E
:1004700008BF704748BF20F8022B11F0804F18BF0B
:1004800000F8012B704770477047704770470000B5
:1004900001694A1C02610878704700B58FB0CDE948
:1004A00001310021059105497944CDE90310114638
:1004B0006846FFF7DBFE0FB000BD0000E5FFFFFF61
:1004C000074B70B50D467B44FFF7E7FF044628460F
:1004D00000F008F810B14FF0FF3070BD204670BD3D
:1004E00043970000007B00F080007047754600F0E5
:1004F0002BF8AE4605006946534620F007008546B6
:1005000018B020B5FFF792FEBDE820404FF000067E
:100510004FF000074FF000084FF0000B21F00701EB
:10052000AC46ACE8C009ACE8C009ACE8C009ACE82E
:10053000C0098D46704710B50446AFF300802046D1
:10054000BDE81040FFF75DBE00487047A01E0020C8
:1005500021B1826842F00102826003E0826822F0E9
:1005600001028260704721B1826842F48072826029
:1005700003E0826822F480728260704701460020A6
:100580008A6802F004020AB1012000E000207047EE
:10059000014600208A6802F008020AB1012000E04A
:1005A0000020704730B502460020002350680F4CF1
:1005B00020400D790C6844EA05242043506090687F
:1005C0000B4C2040D1E902542C434D7944EA4504B8
:1005D00020439060D06A20F470000C7C641EE4B26A
:1005E000234340EA0350D06230BD0000FFFEF0FF1D
:1005F000FDF7F1FF2DE9FE4F0024A346A1460020A0
:10060000029082466348807D00287DD000206149A9
:10061000887509F0D5FA00BF09E05F4951F8240058
:100620000CF0D2FC5D4921F81400601CC4B2042C0B
:10063000F3DB4FF400515A4805F0D3F9002845D1B7
:100640005448808A401C5349888200F057FA8246F9
:1006500050460CF071FA4FF04042524BCDE9000188
:100660000CF012F9074600224F4B0CF0B5FA054684
:100670000CF0CCF802904FF0834102980CF0E2FBB2
:1006800001900CF0A7FB05460022484B0CF0FCF84B
:1006900007460CF0BBF80290454902980CF014FD97
:1006A00005460CF091FC82461FFA8AF000F0C6FB6A
:1006B0008146484608F034FF3E49C8800846C08855
:1006C000642803DD0846C0881938C8803949C888BD
:1006D0000CF0B2FC0290384902980CF0B3FB374999
:1006E00048622D4948680CF06FFC85B2284602F03C
:1006F000DDF88346584605F0A9F92E490881087AA5
:100700000BF046FB2B4900E041E048812C48D0F833
:10071000C000012804D02A48D0F8C000032814D112
:100720001D4908680CF050FC85B2284605F066F9B2
:100730002049C881C8890CF07FFC02901C490298AE
:100740000CF080FB1D49886102E000201949C88136
:10075000184908890CF070FC0290154902980CF0B9
:1007600071FB16494861134948890CF065FC13492F
:100770000862094988680CF027FC06494886064942
:10078000C8680CF021FC0349888605F07BFD002039
:10079000BDE8FE8F800F00204417002002010020DA
:1007A00000180140FFFF5F4100409F400000E03F14
:1007B0000000C842E418002000002041F012002090
:1007C0005C100020F0B504460D4600200021092DE4
:1007D00011DDE068A5F10A0606EB4607072606FAD2
:1007E00007F18843A5F10A0606EB460603FA06F16F
:1007F0000843E0600CE0206905EB4507072606FA90
:1008000007F1884305EB450603FA06F1084320612A
:10081000072A0FDA606B561E06EB86071F2606FABC
:1008200007F18843561E06EB860605FA06F10843D3
:10083000606322E00D2A0FDA206BD61F06EB8607D5
:100840001F2606FA07F18843D61F06EB860605FA2F
:1008500006F10843206310E0E06AA2F10D0606EB02
:1008600086071F2606FA07F18843A2F10D0606EB5C
:10087000860605FA06F10843E062F0BD816841F0A2
:1008800008018160704721B1826842F4A002826051
:1008900003E0826822F4A00282607047816841F020
:1008A000040181607047000008B50121042005F0B3
:1008B00059F90320ADF8000000208DF803006946C7
:1008C000084801F0FBFE0121102005F04BF9002043
:1008D0008DF803000320ADF800006946024801F0DE
:1008E000EDFE08BD000801400010014010B5FFF703
:1008F000DBFF00F001F810BD00B591B00121084602
:1009000005F000F90121480205F02CF93D4800F0FE
:10091000F1FF3D4806903D48079000200890C82010
:10092000099000200A9080200B9040000C908000DD
:100930000D9020200E9000020F900020109006A92C
:10094000304801F07DF801212E4800F0C7FF00205B
:10095000019001208DF808008DF809004FF4602007
:1009600003900020049004208DF8140001A926486B
:100970004C38FFF717FE4FF4004005F0B7F8072397
:100980000122002120484C38FFF71CFF07230222D8
:1009900001211D484C38FFF715FF072303220A21C8
:1009A00019484C38FFF70EFF072304220B21164885
:1009B0004C38FFF707FF012113484C38FFF7D3FDF0
:1009C000012111484C38FFF7C3FD0F484C38FFF7A1
:1009D00055FF00BF0C484C38FFF7DAFD0028F9D16D
:1009E00009484C38FFF75AFF00BF07484C38FFF75B
:1009F000C5FD0028F9D1012103484C38FFF743FF1A
:100A000011B000BD080002404C24014054170020E2
:100A100008B5682000906A460121002000F094F893
:100A2000042000906A460121084600F08DF8552008
:100A300000906A460121022000F086F870200090A4
:100A40006A460121032000F07FF808BD10B5044676
:100A500014B1012C0ED106E0074A918A10680122D8
:100A600001F009FF06E0044A918A1068002201F0B3
:100A700002FF00BF00BF10BD2802002038B50024CF
:100A80000121402005F06EF800BF10E010208DF825
:100A9000030001208DF80200164830F81400ADF86C
:100AA00000006946144801F009FE601CC4B2032C22
:100AB000ECDB03240DE048208DF803000D4830F8EE
:100AC0001400ADF8000069460B4801F0F7FD601C0A
:100AD000C4B2052CEFDB074A143A918A1068012250
:100AE00001F0C9FE034A143AD18A5068002201F08D
:100AF000C2FE38BD3C0200200018014010B50120A4
:100B0000FFF7A4FF102000F019F800F013F80446D6
:100B100000F010F840EA042400F00CF840EA042445
:100B200004F4000008B144F07F440020FFF78EFF7A
:100B3000204610BD10B505F0D7FA10BD10B504461B
:100B4000204605F009FB10BD2DE9F04106460C4694
:100B500015460120FFF77AFF0C2101EA8601621E8B
:100B600002F00302114341F04000FFF7E7FF0027C6
:100B700004E015F8040BFFF7E1FF7F1CA742F8DB48
:100B80000020FFF763FFBDE8F081000000B501F031
:100B9000CBFE1148007A012807D1104890F8710067
:100BA00018B903200D4981F871000D48C0880D491E
:100BB000896B884203D91020084981F871000848E0
:100BC00001890848406D401E814203D30220034939
:100BD00081F8710000BD000052120020800F00203B
:100BE000E41800205C10002010B5874880780028A9
:100BF0006FD0864800780B286CD2DFE800F0061D25
:100C0000376CCCFDFDFDFDFDBA0000F05DFF05F089
:100C100059FB01F085FC7E48806AB0F5167F03D24F
:100C200000207B4981F8A9004FF47A7008F0B8FFE2
:100C3000012076490870E2E005F044FB00F044FF33
:100C400001F06EFC7348007810B9012072490870F9
:100C50007148007848B100206F49087002206B4944
:100C600008706E49486808F09BFFC8E005F02AFB51
:100C700000F02AFF01F054FC6948C07818B901203F
:100C8000634981F881006648C078012803D10020BB
:100C90005F4981F881005F48007810B901205E4902
:100CA00008705D48007898B100205B490870032007
:100CB000564908704FF47A7008F072FF00205449CA
:100CC00081F881005648007810B9052081F871003C
:100CD00095E095E090E000F0F7FE05F0F3FA01F002
:100CE0001FFC4B4890F87E00012803D1072048499B
:100CF00081F871004748007810B901204649087012
:100D00004548007880B30020434908703E48807809
:100D1000032803D10A203D49087029E04148008991
:100D200041498968884220D80020374988703F4966
:100D3000C8710846002101604160002033490870F5
:100D40000220314908703A49087001203949087079
:100D500002203949087005F0AFFA1E2004F084FD26
:100D60004FF47A7008F01CFF02E004202749087055
:100D700045E005F0A7FA05F091FA00F0A1FA48B1B4
:100D800004202249087001202849C8710020204908
:100D900081F85A0033E001202449C8710846C0791F
:100DA00030B300F091FE05F08DFA1E4800891E490F
:100DB000896888421DD80020134988701B49C87172
:100DC000084600210160416000201049087002209F
:100DD0000D49087016490870012016490870002056
:100DE0001549087005F068FA4FF47A7008F0D8FEDB
:100DF00001E005F053FA02E00BF068F900BF02E0F1
:100E000000200249087010BD1E0E00208600002040
:100E1000800F002045000020440000205C100020CE
:100E200052120020E4180020401000206C00002026
:100E300088000020890000208A00002010B50446A8
:100E400042F2A630844205DD42F21070844201DA9B
:100E5000002010BD42F21070844207DB42F696007B
:100E6000844203DA204608F0E7FEF2E742F69600F5
:100E7000844207DB42F61B20844203DA204609F055
:100E800068F8E6E742F61B20844207DB42F69F3013
:100E9000844203DA20460AF091F8DAE742F69F30FE
:100EA000844207DB42F62250844203DA20460AF0ED
:100EB0003EF9CEE742F62250844207DB42F6A460B8
:100EC000844203DA20460AF0F2F9C2E742F6A4604F
:100ED000844207DB43F22400844203DA20460AF00E
:100EE000A6FAB6E743F22400844207DB43F2A410DB
:100EF000844203DA20460AF05AFBAAE743F2A41020
:100F0000844207DB43F22230844203DA20460AF0AF
:100F10000EFC9EE743F22230844207DB43F29F40FF
:100F2000844203DA20460AF0C2FC92E743F29F4073
:100F3000844207DB43F21B60844203DA20460AF056
:100F400076FD86E743F21B60844207DB43F295702F
:100F5000844203DA204608F03CFF7AE743F29570BA
:100F6000844207DB43F60F10844203DA204609F07F
:100F7000A5F86EE743F60F10844207DB43F687209F
:100F8000844203DA204609F059F962E743F68720E4
:100F9000844207DB43F6FE30844203DA204609F040
:100FA0000DFA56E743F6FE30844207DB43F67550F0
:100FB000844203DA204609F0C1FA4AE743F6755045
:100FC000844207DB43F6E960844203DA204609F0F5
:100FD00075FB3EE743F6E960844207DB44F25D00BF
:100FE000844203DA204609F029FC32E744F25D002E
:100FF000844207DB44F2D010844203DA204609F031
:10100000DDFC26E744F2D010844207DB44F2413095
:10101000844203DA204609F091FD1AE744F2413098
:10102000844207DB44F2B240844203DA204609F0EE
:1010300045FE0EE744F2B240844207DB44F22160F1
:10104000844203DA204609F0F9FE02E742F20F700B
:10105000FFE60000F0B50021002200250023002457
:10106000002600271E4807780020DFF878C08CF89B
:101070006D0007B9F0BD1C48808A81B21A48008A09
:1010800082B21948808985B21548001D008883B254
:1010900013480830008884B211480C30008886B2AA
:1010A000994206DD0120DFF83CC08CF86D0000207D
:1010B000E0E7994211D1A24206DD0120DFF824C009
:1010C0008CF86D000020D5E7A24206D1B54204DBC2
:1010D0000120DFF810C08CF86D000020CAE7000086
:1010E00014B80108800F0020500000202448D0F8D8
:1010F000C00020B12248D0F8C000012817D12148F3
:1011000090F8710078B11F4890F8980078B10020ED
:101110001C4981F89800084690F85B0038B104201B
:101120001949086003E004201749091D08601448A4
:10113000D0F8C000022804D01148D0F8C00003281D
:101140001BD1104890F8710018B91048B0F89200FF
:1011500078B10C4890F8980078B10020094981F8DE
:101160009800084690F85B0038B1042006490860F2
:1011700003E004200449091D0860002070470000B6
:101180005C100020800F0020101401407813002014
:1011900010B5002401F0C8FB4348407A012807D16C
:1011A000424890F8710018B90920404981F871004F
:1011B0003D48007A012807D13C4890F8710018B9E1
:1011C00003203A4981F871003748007800B90124BA
:1011D00024B10120354981F83D0005E00020334964
:1011E00081F83D0081F83C00304890F83C0005282B
:1011F0000EDB2F48807840F020002D4988700120B8
:101200002C49C8710020294981F83D0081F83C0033
:10121000264890F87E00D0B905F054F8234890F89D
:101220006400401C214981F86400084690F864007D
:10123000032803DB0C2081F8710008E01C4880784B
:1012400040F020001A49887001201A49C8711748D7
:1012500090F8640048B11548B0F86600B0F5E16F49
:1012600003DB0020114981F864001348C08813494A
:10127000896B884207D90D4890F8710018B9102081
:101280000A4981F871000C4801890C48406D401EE4
:10129000814207D3054890F8710018B9022003492C
:1012A00081F8710010BD000052120020800F002054
:1012B0001E0E00206C000020E41800205C100020AE
:1012C00070B503250F260024474890F85A000028DF
:1012D0007ED0454890F8850030B102281AD0032806
:1012E0003FD004286BD15CE004F06EFB3F480089DE
:1012F0003F490978884204DD42F2107008F050FC42
:1013000003E048F6B80008F04BFC0220364981F8AB
:1013100085005CE03748007810B901203649087034
:101320003648007848B903202F4981F885004EF6E9
:10133000602008F035FC04F03BFB2F48007878B1C2
:1013400000202D490870284981F8810004F030FB05
:101350004EF6602008F024FC0320234981F8850024
:1013600035E004F025FB2348007810B9012022491C
:10137000087022484078012803D104201A4981F8D6
:1013800085001D48007858B100201B490870164997
:1013900081F8810004F00CFB0420134981F88500DA
:1013A00015E004F005FB00200F4981F8810081F869
:1013B0005A0081F88500012409E009E0FFE70020D8
:1013C000094981F85A0081F88500012400BF08E02E
:1013D0000020054981F8850081F88100012404F08E
:1013E000E7FA204670BD0000800F0020E4180020BE
:1013F000A0000020450000204400002052120020E0
:10140000024908800121014A11717047F40000204F
:1014100010B5002400BF264890F8A80020B101288C
:1014200015D0022839D127E004F046FF002004F04F
:101430001BFA04F0BDFA42F6E06008F0B1FB0120AF
:101440001B4981F8A800002081F864002CE01948AD
:10145000007810B90120184908701748007850B179
:10146000002015490870124981F87C00022081F89B
:10147000A80001F055F817E0104801891048406DA8
:10148000401E814203D30220094981F871000020E7
:10149000074981F8A800012406E00020044981F8EA
:1014A000A8000AF013FE00BF00BF204610BD0000D8
:1014B000800F00204500002044000020E418002098
:1014C0005C10002000BFFEE73CB5024600230093FD
:1014D000019300BF01F0CF038DF80030090A01F03D
:1014E000CF038DF8013002F0CF038DF80230120ADD
:1014F00002F0CF038DF80330120A02F0CF038DF80B
:101500000430120A02F0CF038DF805309DF8003048
:101510009DF8014004EB840403EB44039DF8024072
:1015200004EBC40505EB041403EB84039DF80340AE
:1015300004EB4405C5EBC41403EBC4049DF804306C
:1015400040F271256B4304EB03149DF8053040F61F
:1015500035456B4304EB43103CBD000070B50024DF
:10156000C0480068C049086008460068BF49884212
:1015700005D8BD48006847F23051884203D247F28F
:101580003050B9490860B748001D0068B649486046
:1015900008464068B549884205D8B348406847F2D4
:1015A0003051884203D247F23050AF494860AD48CD
:1015B00010300068AC490861084600693C2803D82F
:1015C000084600690F2802D21920A7490861A648D9
:1015D000406A642803D8A448406A142802D26420D0
:1015E000A1494862A048406A9F490969884203D2DC
:1015F0009D4800699C4948629A48283000689A4989
:1016000088620846806A012801D9012088629548CD
:1016100034300068944988630846806BB0F5FA6FEF
:1016200007D90846806BB0F5167F02D24FF4487098
:1016300088638F48806A8F490860084600680A28D6
:1016400005D3084600688849496D884202D337208F
:1016500088490860874840688349496D884204D3B7
:101660008148406D401F834948607E485030006883
:101670007D4948650846406DFA2801D950204865E3
:101680007948D0F8C00030B1012805D0022811D027
:1016900003281BD10FE000BF7748007810B9002065
:1016A0007649088074480078022802D101207349E5
:1016B00008800BE000BF72480088704908807048BD
:1016C0000088032801D10020088000BF00BF6D48BA
:1016D00090F838006949A1F86E006B48807908815C
:1016E0006948C07888816848407A0882674890F8DD
:1016F0007E00C8806548B0F8AC0048825E48C07B78
:1017000088805C4908680BF097FC054660490BF03F
:1017100099FB5A494867574948680BF08DFC0546C4
:101720005B490BF08FFB55498867524988680BF07D
:1017300083FC054656490BF085FB5049C8674A496A
:10174000486D0BF079FC054651490BF07BFB4B498A
:10175000C1F88000444800684FF47A71B0FBF1F0A2
:101760004649C886404840684FF47A71B0FBF1F0B2
:10177000424908873C48008A48873B48808C8887D4
:101780003948806B0A21B0FBF1F03C49C8873648E4
:10179000008DA1F840003448808EA1F84200324804
:1017A000008EA1F85400394890F8710048803748FD
:1017B00090F85A00A1F8440033488078C881324834
:1017C000407A08822848B0F8BC00A1F846002648B4
:1017D000B0F8B800A1F848002348B0F8B000A1F86C
:1017E0004A002148B0F8A800A1F84C001E48B0F803
:1017F000C800A1F84E001C48B0F8CC00A1F8500079
:101800001948B0F84C00A1F852001748B0F87C0015
:10181000A1F866001448B0F88000A1F868001D48DF
:101820000088A1F872001048B0F8C000A1F870005C
:101830000D49486D0BF000FC0446154920460BF09D
:1018400001FB0E49C1F880000E4890F8681012485C
:10185000A0F8B2100B4890F838100F48A0F86A10A2
:1018600070BD000000B801085C100020E093040087
:1018700000200308401000201E0E0020F01200205F
:101880006C1A0020801A002034170020800F0020DE
:101890000000C842C2D200087813002004200C497E
:1018A00008600820086002200860C001094908603B
:1018B00080010749086040000860402006494861EF
:1018C0008020486140004861400048617047000046
:1018D00014140140140801400010014021B10268B5
:1018E00042F00102026004E002684FF6FE731A4003
:1018F0000260704701684FF6FE72114001600021DE
:10190000016041608160C1604B49884208D14A4909
:101910000839496841F00F01474A083A51608AE0A6
:1019200045491431884208D143490839496841F092
:10193000F001414A083A51607DE03F492831884230
:1019400008D13D490839496841F470613A4A083A7A
:10195000516070E038493C31884208D13649083935
:10196000496841F47041344A083A516063E03249B1
:101970005031884208D130490839496841F4702112
:101980002D4A083A516056E02B496431884208D10B
:1019900029490839496841F47001274A083A5160D9
:1019A00049E025497831884208D1234908394968F6
:1019B00041F07061204A083A51603CE01F4988427A
:1019C00006D1011F096841F00F01021F116032E0CA
:1019D0001A491431884208D11849091F096841F091
:1019E000F001164A121F116025E01449283188427F
:1019F00008D11249091F096841F470610F4A121F8A
:101A0000116018E00D493C31884208D10B49091F8B
:101A1000096841F47041094A121F11600BE007493F
:101A20005031884207D10549091F096841F47021E6
:101A3000024A121F11607047080002400804024069
:101A400010B50022026847F6F0739A430C6A8B685F
:101A500023430C6923434C6923438C692343CC699A
:101A600023434C6A23438C6A23431A430260CB68A6
:101A700043600B6883604B68C36010BD70470146CC
:101A8000002005E0002001E0421CD0B21428FBDB5E
:101A90000A1EA1F1010399B2F4D1704710B50024D8
:101AA000074804780F2C00DA0F243C2C00DD3C247E
:101AB000204603F0D9FE03480470012010BD000049
:101AC00010B8010847000020002001490870704745
:101AD0003417002001200149087070473417002096
:101AE00010B500247148007803280CD170480078A4
:101AF00010B96F48407810B101F006FC01E001F028
:101B0000FDFB002010BD6A48807818B96848C0788D
:101B100000B9002466488078012803D16448C07861
:101B200000B901246248807820B96148C078012852
:101B300000D102245E488078012804D15C48C07836
:101B4000012800D1032434B1012C19D0022C43D038
:101B5000032C7CD16CE05748407918B100205449DF
:101B6000887148810020524988710846408952494D
:101B70000988884203DB00204D490871487167E0FD
:101B80004B484078012813D14A48407910B10020D1
:101B9000474948810020464988710846408946499E
:101BA0000988884217DB002041494871088112E00A
:101BB0003F480078012809D13D4800893E490988FD
:101BC000884208DB01203A49887104E00120384945
:101BD0000871002008813BE035480078012813D1C6
:101BE0003448407910B10020314948810020304903
:101BF00088710846408930490988884217DB0020EF
:101C00002B490871088112E029484078012809D140
:101C10002748008928490988884208DB012024498F
:101C2000887104E0012022494871002008810FE0FA
:101C300001201F4908714871084600891E4909881A
:101C4000884202DB01201A49887101E0FFE700BFEA
:101C500000BF1A4890F84A0038B91548807910B189
:101C600001F052FB01E001F049FB1148407968B1F5
:101C70000F484078C0B901200D4948700321104831
:101C800080F87310012180F874100DE00848407846
:101C9000012809D103210A4880F87310002180F837
:101CA000741000200249487000202BE71E0E00200F
:101CB000B812002034170020B0000020800F002050
:101CC000801A00202DE9F041002428251226002743
:101CD0008A48D0F8B800632803D963208749C1F83F
:101CE000B8008648D0F8B800192803D219208349D3
:101CF000C1F8B800814890F8B85000208049487376
:101D000080480078012802D144F0010401E004F089
:101D10000E047C484078012802D144F0020401E01E
:101D200004F00D0477488078012802D144F00404BF
:101D300001E004F00B047348C078012802D144F09C
:101D4000080401E004F007046F480078022808D175
:101D50006C48807828B96B48C078012801D104F01C
:101D600007046748847369484481694890F82000F3
:101D700000280ADD01206749887003206449A1F822
:101D8000B20000F0E3FB04F05DFA614890F8200037
:101D900030B900205F49887000F0CCFB04F024FAD1
:101DA00059480078032802D10020BDE8F081584846
:101DB00090F8710030B1002056498870544981F87C
:101DC0002000F2E750480078D8B9514890F88A00CE
:101DD00078B14C48407818B91E204D4981F8200050
:101DE0004848407801280AD10020494981F820005C
:101DF00005E0002047498870454981F8200000200F
:101E0000D3E7434890F8810038B1012041498870F8
:101E10003F4880F820500020C7E73A480078012862
:101E200003D13848407800B9012736484078012866
:101E300003D13448807800B902273248407801281D
:101E400004D130488078012800D103272D4800783C
:101E500000B9002737B1012F0BD0022F19D0032F63
:101E600043D12BE02A4880F8205000202A490870EE
:101E700041E029480078022804D128480078401C15
:101E800026490870224880F8205001202249087015
:101E900031E022480078B04201DA204806701F483D
:101EA0000078A84201DD1D4805701C4800781849DB
:101EB00081F820000220184908701CE016480078BC
:101EC000022804D115480078401E144908701348B0
:101ED0000078B04201DA1148067003200E490870FC
:101EE00000200B4981F8200005E000270020084968
:101EF00081F8200000BF00BF002056E75C100020E2
:101F0000AC0E0020521200201E0E0020F012002005
:101F1000800F0020B8120020B2000020B300002083
:101F200010B5012000F0FEF888B10948B0F8AA0009
:101F3000401C0749A1F8AA000846C07E20B901202C
:101F4000C8760846807E0877012000F0E5F810BDCD
:101F5000800F002010B54FF4806000F0E3F818B156
:101F60004FF4806000F0D8F84FF4006000F0DAF829
:101F700018B14FF4006000F0CFF84FF4805000F03B
:101F8000D1F8002870D0012045490870002045494B
:101F9000C87208730846807840B10846C07A4FF48A
:101FA0000040414908600220086008E03D48007B8D
:101FB0004FF400403C49091D086002200860394880
:101FC000407818B140203949086102E04020374983
:101FD00048613448007818B180203449086102E033
:101FE0008020324948612F48407920B14FF4804029
:101FF0002D49086004E04FF480402B49091D08601A
:102000002848807920B14FF480702949086004E0A5
:102010004FF480702649091D08602248C07820B11D
:102020004FF480702149086103E04FF480701F492C
:1020300048611C48807A18B108201B49086003E0F9
:1020400008201949091D08601648407A20B14FF44C
:1020500000701649086103E04FF4007013494861AD
:102060004FF4805000F058F84FF4005000F05AF848
:1020700018B14FF4005000F04FF84FF4804000F0DA
:1020800051F818B14FF4804000F046F84FF400408A
:1020900000F048F818B14FF4004000F03DF810BDD2
:1020A000800F002034170020101401400010014060
:1020B0001008014010B5102000F034F810B11020C5
:1020C00000F02AF810BD10B5202000F02BF810B158
:1020D000202000F021F8402000F024F810B140202A
:1020E00000F01AF8802000F01DF810B1802000F0F8
:1020F00013F84FF4807000F015F818B14FF48070A9
:1021000000F00AF84FF4007000F00CF818B14FF42A
:10211000007000F001F810BD014908607047000030
:1021200014040140014600200022074B1B6803EA0B
:102130000102054B14331B680B4013B10AB1012097
:1021400000E0002070470000000401400021234906
:102150008279002A3AD00A46126803689A430B46ED
:102160001A600A1D126803689A430B1D1A600279EF
:1021700011440A6803681A430A60184A0832126850
:1021800003689A43154B08331A601A1D12680368D6
:102190009A43124B0C331A604279102A0ED11A1F3F
:1021A000126803681A430D4B08331A601A1D12682F
:1021B00003681A43094B0C331A600DE00749427952
:1021C00011440A6803681A430A6005E00279114461
:1021D0000A6803689A430A607047000000040140DF
:1021E00010B5214890F8710078B91F4890F889001F
:1021F00018B101201C4981F88E0000201A4981F88D
:10220000710081F88900194948711748B0F87800C1
:10221000B0F5E16F05DB0020154908701249A1F8FF
:102220007800114890F88900E8B90F4890F87100DB
:10223000C8B109F04BFF01200B4981F8890081F8F2
:102240005B000A494871084890F87100084909780C
:10225000884204D0044890F87100054908700020B5
:102260000149A1F8780010BD800F0020F400002083
:102270009B0000200149C860704700000020024018
:1022800030B5044604254FF4302000F001F905462E
:10229000042D17D10C48006940F002000A4908617A
:1022A00008464461006940F0400008614FF4302066
:1022B00000F0EEF805460448006941F6FD7108405B
:1022C00001490861284630BD0020024004200B4926
:1022D000C96801F0010109B101200EE00749C96890
:1022E00001F0040109B1022007E00449C96801F0C6
:1022F000100109B1032000E00420704700200240D3
:1023000000200449C96901F0020109B1012000E07F
:1023100000207047002002400348006940F0800020
:102320000149086170470000002002400549096822
:1023300021F01001034A1160114609680143116040
:10234000704700000020024078B506460C46042580
:1023500000200090E80200F09BF80546042D24D1EF
:102360001348006940F00100114908613480E80217
:1023700000F08EF80546042D10D1B01C0090200C02
:1023800000990880E80200F083F8054608480069D3
:1023900041F6FE7108400649086106E004480069FC
:1023A00041F6FE71084002490861284678BD0000E8
:1023B0000020024030B5054604244FF4302000F0E0
:1023C00067F80446042C41D12148224988602248FC
:1023D00088600846006940F02000086108460069EE
:1023E00040F0400008614FF4302000F051F80446FE
:1023F000042C22D11748006941F6DF7108401549C5
:1024000008610846006940F0100008611DB1002015
:102410001249088002E0A520104908804FF43020BE
:1024200000F036F80446052C10D00A48006941F641
:10243000EF7108400749086108E0052C06D00548FF
:10244000006941F6DF71084002490861204630BD4D
:102450002301674500200240AB89EFCD00F8FF1F44
:1024600001460020034A106800F03800084310605D
:1024700070470000002002400248034948600348BA
:10248000486070472301674500200240AB89EFCDCB
:1024900000B502460423FFF719FF034603E0FFF7E8
:1024A00015FF0346521E012B01D1002AF7D102B9B4
:1024B0000523184600BD00000020174991F85C1064
:1024C00011B30021144A82F85C101449096B0A29DF
:1024D00002D21249096B11B90321104A11630E4946
:1024E000B1F8AA10002910DD0B49B1F8AA10C1EB10
:1024F00001118900094A126BB1FBF2F1064AA2F8F8
:10250000AC100021A2F8AA1005E00021024AA2F8AE
:10251000AA10A2F8AC107047800F00205C100020B9
:1025200010B5642003F0A0F964200149087010BDC3
:10253000470000200020034981F82000024948712B
:1025400070470000800F0020341700200548B0F8C5
:10255000B200022801DC00207047012002494871C6
:102560000020F9E7800F00203417002010B5FFF796
:10257000C7FE012806D0FFF77FFF0120FFF71AFFF3
:10258000FFF7CAFE10BD000070B508260024002524
:10259000354890F8310008B9002070BD002032495C
:1025A00081F83100012081F82200084690F82000CF
:1025B000642806DC084690F8200000EB8000450007
:1025C00000E0002529480078401C2849087008468A
:1025D0000078052805DD002025490870234908708A
:1025E00002E00120224908702148007810B101283A
:1025F00033D118E01F48067003201E4948700020A0
:102600008870C8700871012048710821194801F0CC
:1026100053FD0446201217498871CC7108221648D0
:1026200006F0ABFD1DE01348067006201149487006
:10263000002088700120C870281208714D7108218F
:102640000C4801F039FD044620120A498871CC710A
:102650000822094806F091FD03E0002004490870B3
:1026600000BF00BF002098E7800F0020D1000020AD
:10267000D0000020040700200048004030B50022B0
:102680008B071C0F0F2303FA04F20B4B8C1053F82B
:1026900024309343084C8D1044F8253023468C1089
:1026A00053F824308C07240F00FA04F42343024C1F
:1026B0008D1044F8253030BD080001402DE9F0416F
:1026C000024600250026002000230024002791F860
:1026D00003C00CF00F0591F803C00CF0100CBCF116
:1026E000000F03D091F802C04CEA050591F800C034
:1026F000BCF1000F31D0146800202BE04FF0010C2A
:102700000CFA00F3B1F800C00CEA03069E4220D197
:1027100083004FF00F0C0CFA03F7BC4305FA03FCDF
:102720004CEA040491F803C0BCF1280F06D14FF025
:10273000010C0CFA00FCC2F814C00AE091F803C0C6
:10274000BCF1480F05D14FF0010C0CFA00FCC2F8A7
:1027500010C0401C0828D1D31460B1F800C0BCF1EF
:10276000FF0F34DD546800202EE000F1080C4FF01C
:10277000010808FA0CF3B1F800C00CEA03069E4207
:1027800021D183004FF00F0C0CFA03F7BC4305FA7C
:1027900003FC4CEA040491F803C0BCF1280F05D1F6
:1027A00000F1080C08FA0CF8C2F8148091F803C084
:1027B000BCF1480F07D100F1080C4FF0010808FAEE
:1027C0000CF8C2F81080401C0828CED35460BDE835
:1027D000F0810000F0B50A46002300240021002506
:1027E00000F00046B6F1004F02D11D4EF16901E044
:1027F0001B4E7168C0F3034583B200F44016B6F572
:10280000401F08D121F07061154E766826F0706681
:10281000134F7E6012E000F48016B6F5801F06D1DB
:10282000032606FA05F4A14341F0706106E0460D67
:10283000360103FA06F6B14341F0706122B1460D4C
:10284000360103FA06F6314300F00046B6F1004FB8
:1028500002D1034EF16101E0014E7160F0BD000054
:10286000000001400246002093680B400BB101209C
:1028700000E0002070470AB1016100E0416170474B
:1028800010B5FFF757FE02200749A1F8B40003F086
:10289000ABFC03F08DF803F001FD00F0B7FC06F08F
:1028A0007DFC002010BD0000800F0020014600BF0D
:1028B00040F6E44301FB03F2D31702EB1353C3F3D7
:1028C0000F30174A5082B0F5BE7F04DD40F22F2250
:1028D000904200DA501C134A526DA02A08D8A0F288
:1028E0002F2202EB820252008C2392FBF3F290B271
:1028F0000C4A526DA02A0DD90A4A526DFA2A09D8FB
:10290000A0F22F2202EBC20303EB0212E02392FBA0
:10291000F3F290B2B0F5004F01DD40F2E7307047BE
:10292000800F00205C1000200820002100BF544AC6
:102930009278012A06D1524A527812B1504A12783E
:1029400002B901214E4A5278012A03D14C4A127829
:1029500002B9012199B14B4A92F87E2032B101228D
:10296000484B83F8812083F83F2003E00022454B49
:1029700083F881200122434B83F83B2007E00022AB
:10298000404B83F83F2083F83B2083F83A203D4AB0
:1029900092F83E20052A07DB00223A4B83F881207B
:1029A00083F83F2083F83E20374A127802B9052089
:1029B000344A92F87E2052B1334A1278022A06D164
:1029C0002F4A12780AB1082002E0052000E00A2010
:1029D0002C4A92F83A2082420DDB2A4A92F8712062
:1029E0001AB90822274B83F871200022254B83F85F
:1029F0003B2083F83A20224A927AC2B9214A92F8BF
:102A000039201AB900221F4B83F8382001221D4BB0
:102A100083F839201A4692F83820012A0DDD1A462B
:102A200092F871204AB90F2283F8712005E0002244
:102A3000144B83F8392083F83820114AD27AC2B96E
:102A4000104A92F837201AB900220E4B83F836202C
:102A500001220C4B83F837201A4692F83620012ABF
:102A60000DDD1A4692F871204AB9012283F87120CF
:102A700005E00022034B83F8372083F836207047A7
:102A800052120020800F00201E0E002070B5044658
:102A900003F088F84FF4803003F046F903F0A2F910
:102AA0000546012D23D11020FFF740FC0220FFF73F
:102AB000D7FC002003F02CF9A80203F05BF90020FA
:102AC00003F064F92146280403F072F9012003F0B1
:102AD00069F900BF392003F0F5F80028FAD0022088
:102AE00003F074F900BF03F00BF90828FBD170BDA7
:102AF00000BFFEE710B5284890F8710078B9264865
:102B000090F8890018B10120234981F88E00002037
:102B1000214981F8710081F88900204948711E48D7
:102B2000B0F87800B0F5E16F05DB00201C490870B3
:102B30001949A1F87800184890F8890058BB164840
:102B400090F8710038B3144890F87100FF2822D033
:102B500000201449087014480078022801D109F0B7
:102B6000B5FA01200D4948710B4981F8890081F8B7
:102B70005B0081F88E00084690F8710008490978DA
:102B8000884204D0044890F871000549087000207C
:102B90000149A1F8780010BD800F0020F40000204A
:102BA0009C000020880000201E0E00201FB501217F
:102BB000202002F0D7FF4FF48050ADF80C004820E1
:102BC0008DF80F0003A92C48FFF778FD0121084676
:102BD00002F0C8FF0C210320FFF750FD4FF4805096
:102BE000019000208DF8080008208DF809000120D0
:102BF0008DF80A0001A8FFF7A9FA28208DF8000037
:102C000002208DF801008DF8020001208DF80300EC
:102C1000684602F05DF80121082002F0A3FF0120C0
:102C2000ADF80C0048208DF80F0003A91348FFF7FA
:102C300045FD00210120FFF721FD0120019000202A
:102C40008DF8080008208DF8090001208DF80A0091
:102C500001A8FFF77BFA06208DF8000002208DF80E
:102C600001008DF8020001208DF80300684602F093
:102C70002FF8002004B010BD00140140000C0140EA
:102C800070B505460C4645F2555000F02BF8284625
:102C900000F01CF8204600F01FF800F00FF800F0DC
:102CA00001F870BD4CF6CC40014908607047000047
:102CB0000030004010B500F001F810BD4AF6AA201F
:102CC0000149086070470000003000400149486039
:102CD00070470000003000400149886070470000E4
:102CE000003000400149086070470000003000409B
:102CF00000B50D4890F8710008B1002000BDFFF745
:102D000013FE0A48007860B9074890F87E00012851
:102D100007D1054890F8710018B90720024981F8D9
:102D200071000020EAE70000800F00208C000020E6
:102D300000B5FFF7F9FD0B48C0880B49896B884245
:102D400007D90A4890F8710018B91020074981F88E
:102D500071000748007A012803D10320034981F854
:102D6000710000BDE41800205C100020800F0020DE
:102D70005212002010B50121084602F0F3FE012195
:102D80000148FFF727FD10BD0002300070B5044672
:102D900000250026B248007810B101287ED14DE10F
:102DA000002504EB4400AF4901EB0010407B60B10B
:102DB00004EB440001EB0010407B401E04EB440197
:102DC000A84A02EB01114873012504EB4400A54910
:102DD00001EB0010407C68B165B904EB440001EBE5
:102DE0000010407C401E04EB44019E4A02EB01119E
:102DF0004874022504EB44009A4901EB0010407E20
:102E000068B165B904EB440001EB0010407E401E40
:102E100004EB4401934A02EB01114876032504EBCD
:102E20004400904901EB0010C07C68B165B904EB27
:102E3000440001EB0010C07C401E04EB4401894AB1
:102E400002EB0111C874042504EB4400854901EB31
:102E50000010407D68B165B904EB440001EB00103F
:102E6000407D401E04EB44017E4A02EB011148758F
:102E7000052504EB44007B4901EB0010C07D78B1CF
:102E800075B904EB440001EB0010C07D401E04EB5B
:102E90004401744A02EB0111C87500E0D8E0062530
:102EA00004EB44006F4901EB0010C07B68B165B9C9
:102EB00004EB440001EB0010C07B401E04EB440116
:102EC000684A02EB0111C873072504EB4400654909
:102ED00001EB0010C07E68B165B904EB440001EB62
:102EE0000010C07E401E04EB44015E4A02EB01115B
:102EF000C87609257DB904EB44005A4901EB00105E
:102F0000007B0A2807DD002004EB4401554A02EB50
:102F10000111087308250A2D77D2DFE805F005189E
:102F2000232E39444F5A656A04EB44004D4901EBA6
:102F30000010007B401C04EB44014A4A02EB0111E3
:102F4000087312226421204600F0B4FF5FE004EB16
:102F50004400444901EB0010827B6421204600F0CC
:102F6000CFFF54E004EB44003E4901EB0010827CAB
:102F70007021204600F0C4FF49E004EB44003949C9
:102F800001EB0010827E6F21204600F0B9FF3EE089
:102F900004EB4400334901EB0010027D712120460F
:102FA00000F0AEFF33E004EB44002E4901EB0010CB
:102FB000827D7221204600F0A3FF28E004EB44004C
:102FC000284901EB0010027E7321204600F098FF93
:102FD0001DE004EB4400234901EB0010027C6B214F
:102FE000204600F08DFF12E09621204600F0AEFF53
:102FF0000DE004EB44001B4901EB0010027F75213A
:10300000204600F07DFF02E0FFE7002500BF00BF83
:1030100004EB4400134901EB00108088401C04EBD2
:103020004401104A02EB0111888000200E494870CB
:103030000B480078401C0A4908700DE00A484078A7
:1030400028B100200849487005490870012603E0AE
:1030500000200349087000BF00BF304670BD00006B
:10306000D3000020801A0020800F002008B5102017
:103070008DF8030003208DF802000121202002F0CA
:1030800071FD1020ADF800008DF8030003208DF8CD
:10309000020069464148FFF711FB0121402002F080
:1030A00061FD0420ADF8000010208DF8030003201E
:1030B0008DF8020069463A48FFF700FB01214020E5
:1030C00002F050FD0820ADF8000010208DF803003C
:1030D00003208DF8020069463148FFF7EFFA01211D
:1030E000102002F03FFD3020ADF8000048208DF8A0
:1030F000030069462B48FFF7E1FA0121042002F0A2
:1031000031FDC020ADF8000048208DF8030069466D
:103110002548FFF7D3FA0121202002F023FDE0200B
:10312000ADF8000048208DF8030069461B48FFF702
:10313000C5FA0121092002F015FD01211B48FFF706
:1031400049FB0121082002F00DFD4FF47E70ADF81F
:10315000000048208DF8030069461548FFF7AEFAD5
:103160000121402002F0FEFC0320ADF800004820C1
:103170008DF8030069460A48FFF7A0FA01210820EC
:1031800002F0F0FC0120ADF8000048208DF80300AB
:1031900069460748FFF792FA08BD00000014014095
:1031A00000180140001001400008014000023000FA
:1031B000000C014010B503F071F80120034981F8BB
:1031C0008E00002081F88A0010BD0000800F0020D2
:1031D00010B503F071F801200A4981F88A0081F8DE
:1031E0008E00FFF79DF9074890F88C0020B1064942
:1031F000486806F0D5FC03E043F6982006F0D0FCC2
:1032000010BD0000800F00205C100020002001494C
:10321000487270473417002070B500BF00BF002609
:103220002D48D0F8C800C0EB001084002A48D0F820
:10323000CC0000EB80004FF6FF7101EA4005274803
:103240000078032801D1002070BD244800780228AE
:103250000FD1234890F87E0058B1214890F82400FF
:1032600038B11F48806A401C1D498862002081F8DF
:1032700024001B48806AA04206D3002018498862B7
:10328000C86201201749087016480078E0B1144858
:10329000C06AA84214D21448407970B100F026F8F0
:1032A0000F4890F83000A0B100200D4981F830009F
:1032B0000846C06A401CC8620BE0FFF7A7FF08E0A1
:1032C00000200849087004E000200549C862FFF7A3
:1032D0009DFF0020B8E700005C1000201E0E0020BB
:1032E000800F0020AB00002034170020012002498D
:1032F0004872002070470000341700200020014968
:10330000487170473417002001200249487100209D
:10331000704700003417002000BFFEE72DE9FF5F73
:103320004FF0000A002700250020039080460290FD
:1033300083460024814601900026FD4890F86E00E7
:103340000F2852DBFB48D0F8C00020B1F948D0F874
:10335000C00001280ED1F8480078022801D108F0F9
:10336000B5FEF5480078032804D10020F249087022
:10337000FFF786FAEF48D0F8C000022804D0ED48E5
:10338000D0F8C00003282AD1EC48008801280FD1CA
:103390000020EA490880E8480078022801D108F0B6
:1033A00095FE0321E64880F86D10002180F86E102C
:1033B000E2480088032812D10020E0490880DE4856
:1033C0000078032804D10020DB490870FFF758FA81
:1033D0000321DB4880F86D10002180F86E10012079
:1033E000D34981F85B00D7494871D74890F85D020E
:1033F000002878D00020D44981F85D02002240F2F4
:103400002551D24805F0A7FBCF4890F85902401E3D
:10341000CF490A5CCC4890F85902801E085C02EB48
:1034200000201FFA80F8C84890F85912C84800F0E8
:1034300043FE40457BD1C44890F82D010290002006
:10344000BB4981F86E000298032874D1BE4890F8F9
:103450002F1190F82E0101EB00201FFA80FBBA48D3
:1034600090F8311190F8300101EB002084B2A146B0
:10347000BBF1000F03D0BBF1C80F5AD127E088255C
:103480000120B14908700320487008468570032761
:1034900006E0F81EAF49085CAB49C855781CC7B2B6
:1034A000E81C8742F5DB681DC1B2A74800F004FEA6
:1034B00080464FEA2821A44AE81C1154281D02F82E
:1034C00000806A1DA049A14805F057FE32E00220A5
:1034D0000390482501209C49087003204870084645
:1034E000857003270CE0FAE3039800EBC0009A49CB
:1034F00001EBC001F81E085C9349C855781CC7B29F
:10350000E81C8742F0DB681DC1B28F4800F0D4FD93
:1035100080464FEA28218C4AE81C1154281D02F8E5
:1035200000806A1D8849894805F027FE02E06DE0A9
:1035300001E000BF00BF0298102867D1824890F8D0
:103540002F1190F82E0101EB00201FFA80FB7E481E
:1035500090F8311190F8300101EB00201FFA80F94A
:10356000794890F8331190F8340101EB002084B2CF
:10357000BBF1270F71D018DCBBF1270F6ED2DFE84B
:103580000BF059616E6D7A6DA8BBFE6D6D6D6D6D42
:103590006D6D6D6D6D6D6D6DFCFBFAF9F8F7F6F5FF
:1035A000F4F3F2F1F0EFEEEDD600BBF1C90F7DD0F0
:1035B00027DCBBF1370F7AD014DCBBF1330F77D0A7
:1035C00009DCBBF1280F74D0BBF1290F72D0BBF11D
:1035D0002A0F43D10EE2BBF1340F6CD0BBF1360F92
:1035E000F7D134E2ABF138000928C7D2DFE810F098
:1035F0004F02360063023600D0023600090336005F
:103600003A03ABF1CA001128B8D200E0F9E3DFE8D1
:1036100010F0670325007703250087039703B9039C
:10362000250025002500C903D803E9032500F90377
:1036300009041904204601F02DFA4946584601F0C4
:1036400007FA03E224B943484480394981F87140BC
:103650004946584601F0FCF9FFE399E1F1E3642C97
:1036600004DC3C488480E0B202F0FEF8494658464B
:1036700001F0EEF9F1E3012C26DC0ED101203549F1
:10368000088103202A49A1F8B200FEF75FFF32202B
:10369000274981F8200002F0D5FDACB900202D4962
:1036A0000881FEF747FF0220214905E007E3DAE140
:1036B000B0E17EE18EE1BBE1A1F8B40002F094FD3F
:1036C00000201B4981F820004946584601F0C0F906
:1036D000C3E3012C0BDC04D101201E49888102F0D8
:1036E00073F924B900201B49888102F061F9494629
:1036F000584601F0ADF9B0E3012C13DC1548C48144
:1037000007D101201349C88102F0D6FD642002F0E0
:10371000ABF83CB900200F49C88102F0BFFD002082
:1037200002F0A2F84946584601F092F995E31DE1EE
:10373000800F00205C1000201E0E00206C1A00205C
:10374000801A0020F4000020A6040020004400405D
:10375000D2050020F012002078130020F7E0E5E009
:10376000D5E0B9E0A5E096E083E073E063E050E0E7
:103770003DE035E02DE025E01DE015E0FFE7012C00
:103780000DDCF848048204D10120F6490882FFF7D5
:10379000ADFD24B90020F3490882FFF737FD494603
:1037A000584601F055F958E3EE4884854946584695
:1037B00001F04EF951E3EB48C4854946584601F003
:1037C00047F94AE3E74804864946584601F040F97C
:1037D00043E3E44844864946584601F039F93CE35E
:1037E000E04884864946584601F032F935E3142C06
:1037F0000ADB782C08DCDB48C4864FF47A7060431F
:10380000D949086005F010FF4946584601F020F9F3
:1038100023E3142C0ADB782C08DCD24804874FF40D
:103820007A706043D049486005F0FEFE494658462C
:1038300001F00EF911E3142C07DB3C2C05DCC94820
:103840004487C948046105F0EFFE4946584601F037
:10385000FFF802E31E2C07DB642C05DCC1488487DB
:10386000C148446205F0E0FE4946584601F0F0F8D0
:10387000F3E2502C0ADBDC2C08DCBA48C48704EBEA
:1038800084004000B849886305F0CEFE494658469A
:1038900001F0DEF8E1E2012C06DCB248A0F840407D
:1038A000B148846205F0C0FE4946584601F0D0F8A0
:1038B000D3E2B4F5FA7F0ADB40F6B830844206DC86
:1038C000A848A0F84240A848446305F0ADFE494628
:1038D000584601F0BDF8C0E2012C13DCA148A0F865
:1038E00044400120A14981F85A000121A04880F8F4
:1038F0007C10032180F87B10012180F8AC1003219B
:1039000080F8AB104946584601F0A2F8A5E2012C18
:1039100007DC9448A0F846409348C0F8BC4005F046
:1039200083FE4946584601F093F896E2192C09DBCC
:10393000642C07DC8B48A0F848408B48C0F8B8409E
:1039400005F072FE4946584601F082F885E2012CE6
:1039500007DC8448A0F84A408348C0F8B04005F02E
:1039600063FE4946584601F073F876E2C82C0ADB3C
:10397000B4F5AF7F07DC7B48A0F84C407A48C0F82C
:10398000A84005F051FE4946584601F061F864E24E
:10399000012C09DB3C2C07DC7248A0F84E40724831
:1039A000C0F8C84005F040FE4946584601F050F8BE
:1039B00053E2012C09DB3C2C07DC6A48A0F850409C
:1039C0006948C0F8CC4005F02FFE4946584601F042
:1039D0003FF842E2002C08DBFA2C06DC6148A0F834
:1039E00052406148C46405F01FFE4946584601F044
:1039F0002FF832E2012C08DB0A2C06DC5948A0F82B
:103A000054405948046305F00FFE4946584601F0FA
:103A10001FF822E2142C06DD5248A0F866405248F6
:103A2000C46705F001FE4946584601F011F814E25A
:103A3000142C07DD4B48A0F868404B48C0F8804084
:103A400005F0F2FD4946584601F002F805E2012C66
:103A500004DC4448A0F86C4005F0E6FD49465846B1
:103A600000F0F6FFF9E1012C0CDC4248A0F86A40B6
:103A7000B0F86A003B49A1F86E003D4880F8384034
:103A800005F0A0FF4946584600F0E2FFE5E1032CAF
:103A90000CDC3448A0F870403348C0F8C04005F052
:103AA000C3FD354800683049C1F8C0004946584652
:103AB00000F0CEFFD1E1B9F1020F52D12F4890F8BA
:103AC00033012F4908702D4890F8340148702B4875
:103AD00090F835018870294890F83601C87008467A
:103AE000006820494867486F264909F0EDFA0090C0
:103AF00009F06AFA86B20A2E2FDB1B48406DB042ED
:103B00002BD3214806601E480068164948671E48A6
:103B100000681D494968884219D91B4800680A3065
:103B200019494860084640680F49496D884204D3E6
:103B30000D48406D401E144948601349486809F01B
:103B40007BFA1049009009F07DF90649886705F075
:103B5000DBFE0E48806A0C4908604946584600F072
:103B600077FF7AE1F01200205C100020800F002027
:103B7000801A002078130020B0B80108A6040020A5
:103B80007C0000200000C8424010002000200308F4
:103B9000B9F1020F34D1BC4890F83301BB49087029
:103BA000B94890F834014870B74890F835018870EA
:103BB000B54890F83601C87008460068B44988676F
:103BC000886FB44909F080FA009009F0FDF986B2D7
:103BD000B1480068B0420FD8B048406DB0420BD336
:103BE000AD484660A9480068A949886705F08CFE81
:103BF000AB48C06AA84948604946584600F028FFCB
:103C00002BE1B9F1020F2CD19F4890F833019F4965
:103C100008709D4890F8340148709B4890F8350131
:103C20008870994890F83601C8700846006898492D
:103C3000C867C86F974909F047FA009009F0C4F9BE
:103C400086B295484068B04207D9934886608F484D
:103C500000688F49C86705F057FE4946584600F08E
:103C6000F7FEFAE0B9F1020F28D1874890F8330146
:103C700086490870844890F834014870824890F86A
:103C800035018870804890F83601C8700846006891
:103C90007F49C1F88000D1F880007E4909F014FA0C
:103CA000009009F091F986B2FA2E03DC7B48466554
:103CB00005F0BAFC4946584600F0CAFECDE0012C9A
:103CC00008DC7848A0F892400321774880F86F100C
:103CD00080F870404946584600F0BAFEBDE0D1E099
:103CE000642C08DC6F48A0F8944003216E4880F8EB
:103CF000791080F87A404946584600F0A9FEACE0B9
:103D0000012C08DC6748A0F898400321664880F839
:103D1000731080F874404946584600F099FE9CE0C4
:103D2000012C08DC5F48A0F89C4003215E4880F825
:103D3000751080F876404946584600F089FE8CE0C0
:103D4000012C1ADC0CD101215648A0F89E106421E8
:103D5000A0F894100321544880F8711080F8724044
:103D60005CB900214F48A0F89E10A0F894100321E0
:103D70004D4880F8711080F872404946584600F06E
:103D800067FE6AE0012C08DC4648A0F8A040032149
:103D9000454880F8771080F878404946584600F04A
:103DA00057FE5AE03C2C07DC3E48A0F8A8403E48AD
:103DB00080F88A4005F006FE4946584600F048FE65
:103DC0004BE0642C09DC1E2C07DB3648A0F8AA4027
:103DD000354880F88B4005F0F5FD4946584600F01F
:103DE00037FE3AE0C82C07DC2E48A0F8AC402E483D
:103DF00080F88C4005F0E6FD4946584600F028FE64
:103E00002BE02BE0B4F5C87F07DC2648A0F8B040D3
:103E10002548A0F88E4005F0D5FD4946584600F0EB
:103E200017FE1AE0012C07DC1E48A0F8B2401E481D
:103E300080F8684005F0C6FD4946584600F008FE87
:103E40000BE009E0012C02DC1648A0F8B44049461A
:103E5000584600F0FDFD00E000BF00BF4FF0000A33
:103E600007E00021114800F80A100AF1010000F0F3
:103E7000FF0ABAF1C80FF4DB012240F225510C48C9
:103E800004F069FEBDE8FF9FA60400207C0000202E
:103E9000F01200200000C842401000205C100020FA
:103EA0000020030878130020801A0020D20500208B
:103EB000004400402DE9F04106460C461546002717
:103EC0000D48067003200C49487020128870CC7091
:103ED000281208714D710821074800F0EDF80746D7
:103EE000381205498871CF710822044805F045F958
:103EF0000020BDE8F08100000407002000480040D9
:103F00002DE9F04106460C46154600270D4806707F
:103F100006200C49487020128870CC702812087155
:103F20004D710821074800F0C7F8074638120549C7
:103F30008871CF710822044805F01FF90020BDE800
:103F4000F081000004070020004800402DE9F04106
:103F500004460D460026002752480470102051499F
:103F6000487028128870CD700020087112204871A6
:103F7000242088714C480088000AC8714A4800789B
:103F8000087249488088000A487247480079887258
:103F900045480089000AC8724348007A0873002027
:103FA000487304EB4400414901EB001090F82A00EB
:103FB0003C4988730020C87304EB44003B4901EB83
:103FC000001090F82B003749087404EB440037497F
:103FD00001EB0010C08D00123249487404EB44001C
:103FE000324901EB001090F82E002E498874002011
:103FF000C87404EB44002D4901EB001090F82C002C
:104000002849087500204875294890F8B800887537
:10401000274890F8C800C875254890F8CC00087665
:10402000002048768876C876087748778877C877FA
:1040300081F8200081F821001D4890F8280081F8BF
:104040002200002081F82300194890F8BC0081F874
:104050002400002081F82500154890F8540081F8CC
:104060002600002081F82700114890F8C00081F850
:104070002800002081F829000B48007B81F82A00E5
:104080002D21084800F018F806463012054981F83D
:104090002B0081F82C602D22064805F06EF80020D8
:1040A000BDE8F0810407002040100020801A0020A5
:1040B0005C10002000480040F0B502460B464FF669
:1040C000FF71002411E017787940002508E001F025
:1040D0000106491016B14AF2010779406F1CBDB2C2
:1040E000082DF4DB521C671CBCB29F1EA742EADC01
:1040F0000F063F0C47EA1120F0BD000070B5002408
:10410000002500263D4890F85D02002874D000206C
:104110003A4981F85D02002240F22551384804F006
:104120001AFD364890F85902401E36490A5C334859
:1041300090F85902801E085C02EB002085B22F48DF
:1041400090F859122F48FFF7B7FFA84245D12B48E6
:1041500090F82C01FE282BD1284890F82D01032837
:1041600026D1264890F82F1190F82E0101EB00205F
:1041700086B2B6F57A7F1BD1204890F82C011F49F2
:10418000087003204870022088700020C8701E4804
:1041900090F84C00087107211848FFF78DFF05467D
:1041A0002812164948718D710722154804F0E5FF61
:1041B0001548D0F8C00030B1012805D0022806D03B
:1041C000032808D104E000BF01F0B2F804E000BF0A
:1041D00000F0C0FD00E000BF00BF002404E00021AB
:1041E00008480155601CC4B2642CF8DB012240F27F
:1041F0002551034804F0AFFC70BD000048020020C8
:1042000000380140740300205C1000202DE9F047C5
:104210000024002500260027A046A146594890F812
:104220004A0040BB01241CE004EB4400564901EB6A
:10423000001080881E2812DD002004EB4401524A41
:1042400002EB0111487004EBC401504A22F831001E
:1042500004EBC40102EBC1004821FCF7EDF8601C3F
:10426000C4B20D2CE0DB484890F8610018B900207A
:1042700047494870C8704748D0F8BC0048B1414829
:1042800090F823000A2808DB13203E4981F87100CA
:1042900003E000203B4981F823003F4890F85D028D
:1042A00000286CD000203C4981F85D02002240F2D9
:1042B00025513A4804F04FFC374890F85902401E07
:1042C00037490A5C344890F85902801E085C02EBBA
:1042D00000201FFA80F9304890F82D6190F82E7177
:1042E00090F859122E48FFF7E7FE484538D12A4882
:1042F00090F82C51234890F84A0038B9082D05DA77
:10430000254991F82D01294600F0D0F8082D27D134
:1043100000201C4981F8220081F82300032E1FD1C0
:10432000022F1DD11C4890F8301190F82F0101EB9D
:1043300000201FFA80F8B8F1EA0F04D101201149DA
:1043400081F8210003E000200E4981F821000D488A
:1043500090F82100012803D112200A4981F8710048
:10436000002404E000210E480155601CC4B2642CF6
:10437000F8DB012240F22551084804F0ECFBBDE8CF
:10438000F0870000800F0020801A002078130020A2
:10439000B81200205C1000200407002000480040F4
:1043A0003008002070B5002400253A48D0F8C0003D
:1043B000022804D03748D0F8C000032818D1364866
:1043C00090F84A00012813DD334890F84B000F287D
:1043D0000EDD32480078022801D107F077FE2F4821
:1043E0000078032802D100202C490870FEF748FA13
:1043F0002B4890F85D0200284AD00020284981F817
:104400005D02002240F22551264804F0A4FB244816
:1044100090F85902401E24490A5C214890F859023C
:10442000801E085C02EB002085B21D4890F85912EE
:104430001D48FFF741FEA8421BD1174890F84A00DB
:1044400048B9174890F82C011249C96C884210D11C
:1044500003F002FD0DE0124890F82C010E4991F88E
:104460004A10884205D100200B4981F84B0003F027
:10447000F3FC002404E000210B480155601CC4B289
:10448000642CF8DB012240F22551064804F063FB5E
:1044900070BD00005C100020800F00201E0E002068
:1044A00062090020004C00408E0A00202DE9F047F0
:1044B00007460C464FF000090025A84600260020BC
:1044C00004EB4401D74A02EB01118880012004EB80
:1044D000440102EB01114870032F7DD1D24890F8BE
:1044E0002E91B9F1240FF8D104EB4400114601EBF1
:1044F000001080880A2806DD002004EBC401CB4AA6
:1045000022F831001DE0C84890F83001022804D19B
:1045100004EBC401C54A22F83100C34890F83001C9
:1045200028B9012004EBC401C04A22F83100BE487A
:1045300090F83C0128B1032004EBC401BB4A22F8E7
:104540003100B94890F83C0104EBC401B74A02EBD2
:10455000C1014880B44890F8440104EBC40102EB67
:10456000C1018880B04890F83E0104EBC40102EB21
:10457000C101C880AC4890F8480104EBC40102EBCB
:10458000C1010881A84890F8360104EBC40102EB90
:10459000C1014881A44890F84A0104EBC40102EB30
:1045A000C1018881A04890F8460104EBC40102EBE8
:1045B000C101C8819C4890F84C0104EBC40102EB96
:1045C000C1010882984890F8401190F83F0101EB32
:1045D000002004EBC40100E0AEE002EBC101488220
:1045E00004EB44008F4901EB001090F82A0004EB23
:1045F000C40102EBC101088304EB4400894901EBCB
:10460000001090F82B0004EBC40102EBC1014883B9
:1046100004EB4400834901EB001090F82C0004EBFC
:10462000C40102EBC101888304EB44007D4901EB26
:104630000010C08D04EBC40102EBC101088404EB3F
:104640004400784901EB0010007A04EBC40102EB4E
:10465000C1014884022C0BD104EBC400114601EBCC
:10466000C000007A724948706F4890F84E01C870D7
:104670006D4991F8322191F8311102EB012008F0D7
:10468000C3FC80460021404608F0EAFD0AD2694991
:10469000404608F0D7FB04EBC401644A02EBC101B9
:1046A000086306E0002004EBC401604A02EBC1018C
:1046B00008635D4991F8422191F8411102EB012014
:1046C00008F0A2FC80460021404608F0C9FD0AD24D
:1046D0005849404608F0B6FB04EBC401534A02EBCC
:1046E000C101486306E0002004EBC4014F4A02EB1D
:1046F000C10148634C4991F83A2191F8391102EB14
:10470000012008F081FC804604EBC400474901EB1E
:10471000C000C0F84480444991F8382191F837111D
:1047200002EB012008F070FC804604EBC4003F4916
:1047300001EBC000C0F84080062F70D13A4890F8D5
:104740002F1190F82E0101EB002085B2364890F829
:10475000311190F8300101EB002086B2642D1FD199
:10476000002004EB44012F4A02EB01114873012E93
:1047700001D0022E05D1022004EBC4012B4A22F8FD
:1047800031002EB9012004EBC401284A22F831007F
:10479000032E05D1032004EBC401244A22F8310082
:1047A0006B2D06D1002004EB44011E4A02EB0111DF
:1047B000C8736F2D06D1002004EB4401194A02EBA7
:1047C00001114876702D06D1002004EB4401154AF2
:1047D00002EB01114874712D06D1002004EB440155
:1047E000104A02EB0111C874722D06D1002004EBAF
:1047F00044010C4A02EB01114875732D06D10020CB
:1048000004EB4401074A02EB0111C875752D06D16E
:10481000002004EB4401034A02EB0111C87600209A
:10482000BDE8F087801A00200407002078130020DC
:10483000B81200200000C84210B57E48D0F8C00071
:1048400020B17C48D0F8C00001282DD17A480078EA
:10485000012802D0022822D117E07648D0F8BC0007
:1048600068B17648407878B1FDF78EFE0020734934
:10487000487071480078401C6F49087004E06E4829
:104880000078401C6C4908700DE06C48407828B1F5
:1048900000206A49487001206749087003E0012040
:1048A0006549087000BF00BF6248D0F8C000022808
:1048B00004D06048D0F8C000032873D15E48007867
:1048C000062870D2DFE800F0AE03747F92A40121C5
:1048D0005B4880F831100021818680F836105748F7
:1048E00090F8710018B90121554880F832105348EA
:1048F00090F871105348A0F84A10514890F83D00C4
:10490000B0B100214E4880F83D1090F83E0028B923
:104910004D480078022801D107F0D8FB484890F8AC
:104920003E00012804D14848007808B907F0BCFDD2
:104930004548007818B901204249A1F8480042488A
:104940000078022802D13F49A1F848003B4890F87E
:10495000710018B103203B49A1F848003948B0F86C
:1049600048003A49A1F86A000846B0F86E10354888
:10497000A0F86A103548B0F86C103248A0F86C10F6
:10498000324841692F488167304881692D48C167A5
:104990002A4890F84A0038B927480078401C264930
:1049A000087004E043E03DE00420234908703DE046
:1049B00021480078FEF7EAF920B11F480078401C32
:1049C0001D49087032E01C480078FEF7DFF960B13D
:1049D0001848D0F8BC0028B117480078401C164988
:1049E000087002E00120144908701FE01148D0F857
:1049F000BC0060B11148407848B1FDF7C5FD00200A
:104A00000E4948700C480078401C0B4908700DE0B6
:104A10000A48407828B1002008494870012006491A
:104A2000087003E001200449087000BF00BF0020A7
:104A300010BD00005C100020D2000020800F00207C
:104A4000801A0020781300201E0E0020F012002093
:104A500070B504460D46002601200C490870102050
:104A6000487020128870CC70281208714D7108218E
:104A70000648FFF721FB0646301204498871CE71C3
:104A80000822034804F079FB002070BDA604002032
:104A90000044004010B504463248D0F8C00030B1A0
:104AA000012805D0022825D0032856D123E000BFD5
:104AB000012C04D12C48007808B907F0F5FC74B932
:104AC00029480078022801D107F000FB2648007829
:104AD000032804D1002024490870FDF7D1FE032CDF
:104AE00007D12148007820B903201F490870FDF73D
:104AF000C7FE33E000BF012C02D101201B49088012
:104B0000BCB919480078022801D107F0DFFA00206B
:104B1000164908800321164880F86D1080F86E4011
:104B200011480078032804D100200F490870FDF7D0
:104B3000A7FE032C10D103200C4908800A480078F6
:104B400020B9032008490870FDF79AFE03210848A0
:104B500080F86D1080F86E4000E000BF00BF0020BC
:104B600010BD00005C1000201E0E00206C1A0020FA
:104B7000801A002070B504460D4600260D4890F8B6
:104B80002C010C4908700620487020128870CC70E7
:104B9000281208714D7108210648FFF78DFA064664
:104BA000301204498871CE710822034804F0E5FAF6
:104BB000002070BD62090020004C004070B5044622
:104BC0000D46002601200C49087010204870201264
:104BD0008870CC70281208714D7108210648FFF7C3
:104BE0006BFA0646301204498871CE7108220348D8
:104BF00004F0C3FA002070BD62090020004C0040A0
:104C00002DE9F04104460D4600260127114890F891
:104C10002C01012802DD104890F84C700D480770F7
:104C200010200C49487020128870CC70281208712E
:104C30004D7108210748FFF73FFA06463012054933
:104C40008871CE710822054804F097FA0020BDE86B
:104C5000F0810000480200205C1000200038014074
:104C60002DE9F04104460D4600260127114890F831
:104C70002C01012802DD104890F84C700D48077097
:104C800006200C49487020128870CC7028120871D8
:104C90004D7108210748FFF70FFA06463012054903
:104CA0008871CE710822054804F067FA0020BDE83B
:104CB000F0810000480200205C1000200038014014
:104CC000704710B54FF4A06000F03AF810BD000036
:104CD00070B5002100230F22C47804B3154C24685A
:104CE00004F4E064C4F5E064210AC1F10403CA409D
:104CF000447804FA03F184781440214309010E4CEE
:104D00000678A155047804F01F050124AC4005780D
:104D10006D11AD0005F1E025C5F8004109E004780A
:104D200004F01F050124AC40044D0678761145F8C7
:104D3000264070BD0CED00E000E400E080E100E002
:104D400002490143024A1160704700000000FA0561
:104D50000CED00E02DE9FF5F4FF0000B0020039009
:104D6000804601260024824602904FF0010900256A
:104D7000019000900027FE4890F82DB190F82F1177
:104D800090F82E0101EB002086B2F94890F831111D
:104D900090F8300101EB002000F0FF08F44890F893
:104DA000311190F8300101EB002084B2F04890F806
:104DB0002C01012802DDEF4890F84C90BBF1030F65
:104DC00003D0BBF1060F7DD185E1822E7BD004DCC0
:104DD000642E07D0782E77D1A1E0962E75D0A02E24
:104DE000F9D146E1642E71D1B8F1120FFBD1E04840
:104DF00080F800900320DE4948702420887000204D
:104E0000C870DD480078087100204871DB480078E0
:104E100088710020C87108724872D948807A8872F7
:104E2000D848C0880A2190FBF1F01FFA80FA4FEAB7
:104E30002A20CF49C87281F80CA0D149886A08F0AD
:104E4000C3F887B23812CA4948738F730020C873F9
:104E5000CB488078087400204874C9480079887469
:104E60000020C874C648007A087500204875C448F8
:104E7000807988750020C875C34890F89A00087634
:104E8000C149D1F8D00008F09FF887B23812B8496C
:104E900048768F76BC49D1F8D40008F095F887B2EF
:104EA0003812B349C8760F7700204877B64890F893
:104EB000920088770020C877B34890F8940081F872
:104EC000200004E022E268E002E1A4E026E0002005
:104ED00081F82100AC4890F8980081F82200002069
:104EE00081F82300A84890F8960081F8240000205B
:104EF00081F82500A44890F8900081F82600292127
:104F00009B48FFF7D9F805462812994981F82700F0
:104F100081F8285029229D4804F02FF9D9E0782EF5
:104F20003AD1B8F1040F37D1914880F800900320AE
:104F30008F494870082088709348806F94490860B2
:104F40000846C0788A49C8709148807808719048AE
:104F5000407848718E48007888718B48D0F8C0003E
:104F60008B4908600846C0788149C87188488078B4
:104F700008728748407848728548007888720D2109
:104F80007B48FFF799F8054628127949C8720D73D6
:104F90000D227E4804F0F1F89BE0822E3AD1B8F160
:104FA000040F37D1724880F8009003207049487090
:104FB0000820887072488069754908600846C07882
:104FC0006B49C870724880780871714840784871A0
:104FD0006F48007888716C48D0F8C4006C4908604C
:104FE0000846C0786249C871694880780872684884
:104FF000407848726648007888720D215C48FFF757
:105000005BF8054628125A49C8720D730D225F4895
:1050100004F0B3F85DE0B8F1030F29D1544880F8EB
:105020000090032052494870062088705948008833
:10503000000AC87057480078087156488088000AEE
:10504000487154480079887152480089000AC87133
:105050005048007A08720B214548FFF72DF80546A5
:105060002812434948728D720B22484804F085F893
:105070002FE0B8F1040F2AD13D4880F800900320BA
:105080003B494870082088700020C8704248007A68
:10509000087141484089001248713F48807A887100
:1050A0000020C8713C48007B0872002048723A48D2
:1050B000407B88720D212E48FEF7FEFF0546281220
:1050C0002B49C8720D730D22304804F056F800E0E9
:1050D00000BF00BF1BE1982E49D00CDC712E6ED0B2
:1050E00004DC642E10D06A2E6AD16BE0962E68D054
:1050F000972EF9D1B9E0A02E7ED0A12E7DD0A22E80
:105100007CD0A32EF0D1F1E0194890F8311190F83D
:10511000300101EB00201FFA80FABAF1000F16D11E
:105120001548008898B1002013490880134800787A
:10513000022801D106F0CAFF0321184880F86D103B
:10514000002180F86E1021463046FFF789FDBAF144
:10515000010F33D121463046FFF782FD0A48B0F8EF
:105160006A00E8B90848B0F8B200C8B9CCE08DE0F0
:10517000480200205C1000206C1A00201E0E002047
:10518000F0120020E41800207813002000380140BD
:105190007C00002040100020800F0020801A00209A
:1051A0005C48B0F86A0018B95A48B0F8B20028B1A3
:1051B0005948008810B9012057490880A4E027E029
:1051C000A1E043E0554890F8710018B95148B0F893
:1051D0009200E0B100214F48A0F8921003215048FE
:1051E00080F86F10002180F8701000204B4981F882
:1051F00071004C49487102E055E05FE069E0487198
:10520000464981F8890021463046FFF729FD7BE0B9
:10521000424890F8710018B93E48B0F89200A0B129
:1052200000213C48A0F8921003213D4880F86F10FF
:10523000002180F870100020384981F87100394948
:10524000487121463046FFF70BFD5DE03648406867
:10525000A04209D9142C07DB3348046004F054FB46
:1052600021463046FFF7FCFC4EE03048406DA0423E
:105270000BD92D480068A04207D22B48446004F0A7
:1052800043FB21463046FFF7EBFC3DE026484068F3
:10529000A04207D92448846004F036FB21463046FA
:1052A000FFF7DEFC30E0012C07DC1C490C7204F037
:1052B0002BFB21463046FFF7D3FC25E0002C07DB13
:1052C0001648448104F020FB21463046FFF7C8FC15
:1052D0001AE0002C09DB0C2C07DC10490C7304F0DD
:1052E00013FB21463046FFF7BBFC0DE0002C09DB29
:1052F0001E2C07DC09494C7304F006FB214630469E
:10530000FFF7AEFC00E000BF00BF00E000BF00BF41
:10531000BDE8FF9F781300206C1A0020800F00204A
:10532000801A0020F4000020401000205C100020B3
:105330002DE9F04F89B000200890079080460024A6
:10534000814606904FF0010A05900026002583460D
:10535000049000270390029000900190FD4890F87F
:105360002D010890FB4890F82F1190F82E0101EBC9
:1053700000201FFA80F9F74890F8311190F83001B9
:1053800001EB002000F0FF08F24890F8311190F88E
:10539000300101EB002084B2EE4890F82C01012886
:1053A0000DDDED4890F84CA0EA4890F82C01EA4950
:1053B000C96C884203D0002009B0BDE8F08F08987E
:1053C000032804D006287DD010287CD1DFE1B9F174
:1053D000640F09D0B9F1780F63D0B9F1960F73D08B
:1053E000B9F1A00F71D1C2E0B9F1640F58D1B8F191
:1053F0000B0F55D1D74880F800A00320D54948703D
:10540000162088700020C870D44800780871D448ED
:10541000008900124871D248007A88710020C87152
:10542000CF48807A087200204872CE48807A88720D
:105430000020C872CA48C0880A2190FBF1F0C54913
:105440000873C948008A00124873C748007C8873F3
:105450000020C873C44890F8710008740020487494
:10546000C248807888740020C874BE4800790875E6
:1054700000204875BD48407988750020C875BA4835
:1054800090F87E0008761B21B248FEF715FE06460E
:105490003012B04948768E761B22B54803F06DFE77
:1054A000B3E0AF49088907F0C7FD0590B1490598F9
:1054B00007F0C8FCB0490860B9F1780F28D1B8F1FD
:1054C000020F03E0A3E0A6E123E09DE020D1A14884
:1054D00080F800A003209F49487004208870A648E7
:1054E000C078C870A44880780871A3484078487193
:1054F000A1480078887109219648FEF7DDFD06462F
:1055000030129449C8710E720922994803F035FE91
:105510007BE0B8F1030F29D18E4880F800A003206A
:105520008C4948700620887094480088000AC8702A
:1055300092480078087191488088000A48718F4825
:10554000007988718D480089000AC8718B48007AFB
:1055500008720B217F48FEF7AFFD064630127D49E9
:1055600048728E720B22824803F007FE4DE0B8F1BC
:10557000080F48D1774880F800A00320754948708B
:10558000102088700020C8707748007A087176482B
:105590004089001248717448807A88710020C8716F
:1055A0007148007B0872002048726F48407B887207
:1055B000734A516B9069FBF787FF07463D0C281231
:1055C0006449C8720D73BDB2281248738D736C4A5A
:1055D000116B5069FBF778FF07463D0C28125D49B7
:1055E000C8730D74BDB2281248748D7415215948C2
:1055F000FEF762FD064630125649C8740E75152234
:105600005B4803F0BAFD00E000BF00BF04E1B9F160
:10561000980F5FD00CDCB9F1640F16D0B9F16A0FA6
:105620002AD0B9F1960F35D0B9F1970F75D140E076
:10563000B9F1A00F5BD0B9F1A10F63D0B9F1A20FFE
:105640006DD0B9F1A30FF1D176E04448007838B9B4
:10565000022C05D106F028FF21464846FFF700FB43
:105660003E480078022806D12CB906F02FFD2146CD
:105670004846FFF7F5FA88E000203B4981F87100C1
:1056800040494871384981F8890021464846FFF76A
:10569000E7FA7AE039484068A04209D9142C07DBC0
:1056A0003648046004F030F921464846FFF7D8FA3E
:1056B0006BE02948406DA0420BD930480068A042F9
:1056C00007D22E48446004F01FF921464846FFF7F0
:1056D000C7FA5AE029484068A04207D927488460A1
:1056E00004F012F921464846FFF7BAFA4DE0012CC2
:1056F00007DC1D490C7204F007F921464846FFF704
:10570000AFFA42E0002C07DB1748448104F0FCF8B4
:1057100021464846FFF7A4FA37E035E0FFE7002CC2
:1057200009DB0C2C07DC10490C7304F0EDF8214662
:105730004846FFF795FA28E0002C09DB1E2C07DC11
:1057400009494C7304F0E0F821464846FFF788FA0F
:105750001BE00000480200205C1000201E0E00200C
:10576000E4180020F0120020800F002034170020E1
:10577000003801400000C8427C000020401000209A
:1057800064120020F400002000BF00BF44E0244861
:1057900090F8311190F8300101EB002000F0FF0883
:1057A0001F4890F8341190F8330101EB002085B2C6
:1057B0001B4890F8361190F8350101EB00201FFAD4
:1057C00080FBB9F1A40F03D0B9F1A60F20D10FE0EF
:1057D000B8F1020F0BD10BEB05471248874206D3F5
:1057E0001148874203D841464846FFF709FA10E0BE
:1057F000B8F1020F0BD10BEB05470A48874206D3DD
:105800000948874203D841464846FFF7F9F900E0C6
:1058100000BF00BF00E000BF00BF0020CCE50000DB
:1058200048020020A08601003F420F00084890F87F
:10583000960018B10020064981F89600044890F8B7
:10584000990018B10020024981F8990070470000C2
:10585000800F002010B5042000F020F84FF48030B5
:10586000FCF75AFC10BD0000642800DD642040F203
:10587000F511052202FB1011044A11800449C87376
:1058800004498880044908707047000040040040C3
:105890001E0E0020F01200204700002001460020CC
:1058A000034A52680A400AB1012000E00020704714
:1058B0000070004010B53648007802280ED13548F7
:1058C00090F868003C280DDB0020324981F8680020
:1058D00031480069401C3049086103E000202D492F
:1058E00081F868002C4800692C490988884203D94E
:1058F0002A480088284908612748006928490988FA
:10590000884207D90020274981F83F00012081F80B
:10591000400005E00020234981F83F0081F8400065
:105920002148007818B900201A49A1F862001A48E5
:105930000069012810D91D48007868B901201A496A
:1059400008701448B0F86200032805DB00200870D6
:105950001149086104F036F80020124981F841002D
:105960000D4800693C21B0FBF1F00E4981F842007E
:10597000002081F84300084800693C21B0FBF1F2A7
:1059800001FB1200074981F84400002010BD00000F
:105990001E0E0020800F0020300F0020A4000020E9
:1059A000A2000020AC0E0020A60000205212002011
:1059B0004FF480700249486100200249C870704766
:1059C00000100140341700204FF480700249086134
:1059D00001200249C87070470010014034170020B0
:1059E000704770B504460D4629462046FCF73AFF3D
:1059F000012800D170BD0020FCE70000014600BF77
:105A000040F6E44301FB03F2D31702EB1353C3F355
:105A10000F300D4A5082B0F5BE7F04DD40F22F22D8
:105A2000904200DA501CA0F22F2202EBC20303EBDB
:105A30000212E02392FBF3F290B2B0F5004F01DDC9
:105A400040F2E73070470000800F002030B501467B
:105A5000002200230020204C64688C4214D21F4C8A
:105A600094F8734034B901241C4D85F87340002428
:105A700085F87440194C94F87440062C01DB0846F4
:105A800029E0174C208926E00024144D85F8734046
:105A900085F87440134C2478042C02DD0024114D49
:105AA0002C70114C0F4D2D7824F815100D4C2478C6
:105AB000641C0C4D2C70002306E00B4C34F8134092
:105AC0001444A2B25C1CE3B2042BF6DD052492FB65
:105AD000F4F4A2B2104630BD40100020800F002028
