:020000040800F2
:100000002829002011020008354F0008A12B000804
:10001000D93300082515000861950008000000008C
:100020000000000000000000000000005F64000805
:10003000FD1A000800000000595C0008B16A0008C1
:100040002B020008CD5A00082B0200084561000869
:100050002B0200082B020008A11F00082B02000839
:100060002B0200082B0200083D2100082B0200088B
:100070002B0200082B0200082B0200082B020008AC
:100080002B0200082B0200082B0200082B0200089C
:100090002B0200082B0200082B0200084F21000849
:1000A0002B0200082B0200082B0200082B0200087C
:1000B000B57500082B020008117700082B02000814
:1000C0002B0200082B0200082B0200082B0200085C
:1000D0002B020008ED8A0008D98B0008958C0008D7
:1000E000DD1F00082B0200082B0200082B0200086D
:1000F0002B0200082B0200082B0200082B0200082C
:100100002B0200082B020008797E00082B02000851
:100110003D800008018A00082B0200082B0200081D
:100120002B0200082B0200082B0200082B020008FB
:1001300000F002F800F05CF80AA090E8000C82449D
:100140008344AAF10107DA4501D100F051F8AFF27A
:10015000090EBAE80F0013F0010F18BFFB1A43F0A5
:1001600001031847B8D70000D8D700000A444FF061
:10017000000C10F8013B13F0070408BF10F8014B06
:100180001D1108BF10F8015B641E05D010F8016B4B
:10019000641E01F8016BF9D113F0080F1EBF10F8AF
:1001A000014BAD1C0C1B09D16D1E58BF01F801CBD2
:1001B000FAD505E014F8016B01F8016B6D1EF9D555
:1001C0009142D6D37047000000230024002500266A
:1001D000103A28BF78C1FBD8520728BF30C148BFAA
:1001E0000B607047002070471FB51FBD10B510BDD4
:1001F00000F07CF91146FFF7F7FF0BF033FF00F03A
:100200009AF903B4FFF7F2FF03BC09F0E6FE000021
:100210000948804709480047FEE7FEE7FEE7FEE79A
:10022000FEE7FEE7FEE7FEE7FEE7FEE704480549D6
:10023000054A064B70470000E170000831010008D4
:10024000281F002028290020282100202821002004
:10025000704700000FB4044910B503AA029800F0DB
:100260002FF910BC5DF814FB380000202DE9F05F79
:10027000894604464FF0000ADFF874B1FB44C0F829
:1002800020A02046E1688847002874D0252806D0A1
:10029000D4E901219047206A401C2062F1E7002642
:1002A0005F462046E16888472028054607DB312D58
:1002B00005D2781910F8200C08B10643F1E7B00711
:1002C00001D526F00406C4F81CA00027C4F818A025
:1002D0002A2D09D0284609F079FE38B304EB8708A7
:1002E000303DC8F8185019E059F8041B204604EBBB
:1002F00087029161E1688847012F054618D1E069BE
:10030000002820DA26F020061DE0D8F8180000EBBF
:10031000800005EB40003038C8F818002046E1683E
:100320008847054609F052FE0028EED1012F0AD079
:100330002E2D08D12046E16888477F1C0546022FF4
:1003400046F02006C4DBA069002803DA404246F0EC
:100350000106A061F00701D026F010066C2D0BD02D
:10036000682D09D04C2D39D06A2D35D0742D35D05B
:100370007A2D33D016E038E0E1682F4620468847D2
:10038000B842054609D16C2F26D04FF48060E16851
:10039000064320468847054604E06C2F1AD04FF4E8
:1003A000807006430DB3A5F14100192802D820350D
:1003B00046F400664A462946204626604E46FFF728
:1003C00011FF80B101280BD0F61D26F0070000F1C7
:1003D000080956E74020E4E78020D8E70020D6E768
:1003E00006F104094DE7284652E7206ABDE8F09F70
:1003F000A8D500004FF000020429C0F0128010F0D0
:10040000030C00F01B80CCF1040CBCF1020F18BFF0
:1004100000F8012BA8BF20F8022BA1EB0C0100F083
:100420000DB85FEAC17C24BF00F8012B00F8012B56
:1004300048BF00F8012B70474FF0000200B513468B
:1004400094469646203922BFA0E80C50A0E80C50F4
:10045000B1F12001BFF4F7AF090728BFA0E80C50A5
:1004600048BF0CC05DF804EB890028BF40F8042B9E
:1004700008BF704748BF20F8022B11F0804F18BF0B
:1004800000F8012B704770477047704770470000B5
:1004900001694A1C02610878704700B58FB0CDE948
:1004A00001310021059105497944CDE90310114638
:1004B0006846FFF7DBFE0FB000BD0000E5FFFFFF61
:1004C000074B70B50D467B44FFF7E7FF044628460F
:1004D00000F008F810B14FF0FF3070BD204670BD3D
:1004E000F79B0000007B00F080007047754600F02D
:1004F0002BF8AE4605006946534620F007008546B6
:1005000018B020B5FFF792FEBDE820404FF000067E
:100510004FF000074FF000084FF0000B21F00701EB
:10052000AC46ACE8C009ACE8C009ACE8C009ACE82E
:10053000C0098D46704710B50446AFF300802046D1
:10054000BDE81040FFF75DBE00487047C81E0020A0
:1005500021B1826842F00102826003E0826822F0E9
:1005600001028260704721B1826842F48072826029
:1005700003E0826822F480728260704701460020A6
:100580008A6802F004020AB1012000E000207047EE
:10059000014600208A6802F008020AB1012000E04A
:1005A0000020704730B502460020002350680F4CF1
:1005B00020400D790C6844EA05242043506090687F
:1005C0000B4C2040D1E902542C434D7944EA4504B8
:1005D00020439060D06A20F470000C7C641EE4B26A
:1005E000234340EA0350D06230BD0000FFFEF0FF1D
:1005F000FDF7F1FF2DE9FE4F0024A346A1460020A0
:1006000002908246654890F8260000287ED000209F
:10061000624981F8260009F02DFD00BF09E060491C
:1006200051F824000CF082FF5E4921F81400601C90
:10063000C4B2042CF3DB4FF400515B4805F00DFB12
:10064000002845D15548808C401C5449888400F0CE
:1006500059FA824650460CF021FD4FF04042534B70
:10066000CDE900010CF0C2FB07460022504B0CF014
:1006700065FD05460CF07CFB02904FF0834102982B
:100680000CF092FE01900CF057FE05460022494BFB
:100690000CF0ACFB07460CF06BFB0290464902984D
:1006A0000CF0C4FF05460CF041FF82461FFA8AF0A9
:1006B00000F0D8FB8146484609F036F93F49C8802A
:1006C0000846C088642803DD0846C0881938C880F9
:1006D0003A49C8880CF062FF0290394902980CF040
:1006E00063FE384948622E4948680CF01FFF85B206
:1006F000284602F033F98346584605F0E3FA2F49BD
:100700000881087A0BF0A2FD2C4900E043E0488103
:100710002D48D0F8C000012804D02B48D0F8C000E4
:10072000032814D11E4908680CF000FF85B2284642
:1007300005F0A0FA2149C881C8890CF02FFF02906A
:100740001D4902980CF030FE1E49886102E000202D
:100750001A49C881194908890CF020FF02901649EE
:1007600002980CF021FE17494861144948890CF0A1
:1007700015FF144908620A4988680CF0D7FE07493A
:10078000A1F842000649C8680CF0D0FE0349A1F860
:10079000440005F0B3FE0020BDE8FE8F880F002066
:1007A0006C1700200A01002000180140FFFF5F4184
:1007B00000409F400000E03F0000C8420C190020AC
:1007C000000020411813002074100020F0B50446EA
:1007D0000D4600200021092D11DDE068A5F10A0673
:1007E00006EB4607072606FA07F18843A5F10A0635
:1007F00006EB460603FA06F10843E0600CE02069C8
:1008000005EB4507072606FA07F1884305EB450681
:1008100003FA06F108432061072A0FDA606B561EBF
:1008200006EB86071F2606FA07F18843561E06EBDD
:10083000860605FA06F10843606322E00D2A0FDA06
:10084000206BD61F06EB86071F2606FA07F18843A2
:10085000D61F06EB860605FA06F10843206310E072
:10086000E06AA2F10D0606EB86071F2606FA07F1DD
:100870008843A2F10D0606EB860605FA06F1084349
:10088000E062F0BD816841F008018160704721B1EC
:10089000826842F4A002826003E0826822F4A0022F
:1008A00082607047816841F00401816070470000F8
:1008B00008B50121042005F091FA0320ADF80000ED
:1008C00000208DF803006946084801F04FFF012120
:1008D000102005F083FA00208DF803000320ADF806
:1008E00000006946024801F041FF08BD00080140D0
:1008F0000010014010B5FFF7DBFF00F001F810BD5C
:1009000000B591B00121084605F038FA01214802EE
:1009100005F064FA3D4801F02DF83D4806903D4849
:10092000079000200890C820099000200A9080209D
:100930000B9040000C9080000D9020200E90000243
:100940000F900020109006A9304801F0B9F801215D
:100950002E4801F003F80020019001208DF80800D6
:100960008DF809004FF460200390002004900420CB
:100970008DF8140001A926484C38FFF713FE4FF4F8
:10098000004005F0EFF907230122002120484C38F0
:10099000FFF71CFF0723022201211D484C38FFF7F7
:1009A00015FF072303220A2119484C38FFF70EFFD1
:1009B000072304220B2116484C38FFF707FF0121BB
:1009C00013484C38FFF7CFFD012111484C38FFF791
:1009D000BFFD0F484C38FFF755FF00BF0C484C389F
:1009E000FFF7D6FD0028F9D109484C38FFF75AFF28
:1009F00000BF07484C38FFF7C1FD0028F9D101219D
:100A000003484C38FFF743FF11B000BD0800024017
:100A10004C2401407C17002008B5682000906A46ED
:100A20000121002000F094F8042000906A46012182
:100A3000084600F08DF8552000906A4601210220FA
:100A400000F086F8702000906A460121032000F033
:100A50007FF808BD10B5044614B1012C0ED106E094
:100A6000074A918A1068012201F05DFF06E0044AFE
:100A7000918A1068002201F056FF00BF00BF10BD30
:100A80003002002038B500240121402005F0A6F9ED
:100A900000BF10E010208DF8030001208DF8020047
:100AA000164830F81400ADF800006946144801F00B
:100AB0005DFE601CC4B2032CECDB03240DE0482077
:100AC0008DF803000D4830F81400ADF800006946B9
:100AD0000B4801F04BFE601CC4B2052CEFDB074A4B
:100AE000143A918A1068012201F01DFF034A143A5A
:100AF000D18A5068002201F016FF38BD4402002060
:100B00000018014010B50120FFF7A4FF102000F0ED
:100B100019F800F013F8044600F010F840EA042435
:100B200000F00CF840EA042404F4000008B144F09A
:100B30007F440020FFF78EFF204610BD10B505F062
:100B40000FFC10BD10B50446204605F041FC10BD59
:100B50002DE9F04106460C4615460120FFF77AFFC5
:100B60000C2101EA8601621E02F00302114341F0EA
:100B70004000FFF7E7FF002704E015F8040BFFF73C
:100B8000E1FF7F1CA742F8DB0020FFF763FFBDE811
:100B9000F081000000B501F01FFF1148007A012824
:100BA00007D1104890F8810018B903200D4981F849
:100BB00081000D48C0880D49896B884203D91020F7
:100BC000084981F88100084801890848406D401EA5
:100BD000814203D30220034981F8810000BD000057
:100BE0007A120020880F00200C19002074100020B9
:100BF00010B58F48807800286FD08E4800780B2879
:100C00006CD2DFE800F0061D376CD46B6B6B6B6B3E
:100C1000C20000F099FF05F091FC01F0D9FC864874
:100C2000806BB0F5167F03D20020834981F8B900AC
:100C30004FF47A7009F00EFA01207E490870F2E054
:100C400005F07CFC00F080FF01F0C2FC7B480078DE
:100C500010B901207A4908707948007848B100201D
:100C6000774908700220734908707649486809F08E
:100C7000F1F9D8E005F062FC00F066FF01F0A8FC95
:100C80007148C07818B901206B4981F891006E480D
:100C9000C078012803D10020674981F89100674896
:100CA000007810B90120664908706548007898B14D
:100CB00000206349087003205E4908704FF47A7081
:100CC00009F0C8F900205C4981F891005E4800787D
:100CD00010B9052081F88100A5E0A5E0A0E000F0B2
:100CE00033FF05F02BFC01F073FC534890F88E00A5
:100CF000012803D10720504981F881004F4800782E
:100D000010B901204E4908704D480078C0B300204A
:100D10004B49087046488078032803D10A2045498A
:100D2000087031E04948008949498968884207D9F3
:100D30003F488078052803D03D488078062820D198
:100D400000203B4988704349C87108460021016072
:100D500041600020374908700220354908703E493B
:100D6000087001203D49087002203D49087005F0D7
:100D7000DFFB1E2004F0B4FE4FF47A7009F06AF92C
:100D800002E004202B4908704DE005F0D7FB05F088
:100D9000C1FB00F09DFA48B10420264908700120EB
:100DA0002C49C8710020244981F86A003BE00120E9
:100DB0002849C8710846C07970B300F0C5FE05F037
:100DC000BDFB2248008922498968884207D9184812
:100DD0008078052803D01648807806281DD1002089
:100DE000134988701B49C8710846002101604160A1
:100DF00000201049087002200D490870164908703B
:100E000001201649087000201549087005F090FB74
:100E10004FF47A7009F01EF901E005F07BFB02E067
:100E20000BF0E4FB00BF02E000200249087010BD97
:100E3000260E002086000020880F0020450000209C
:100E400044000020741000207A1200200C190020A9
:100E5000581000206C00002088000020890000202D
:100E60008A00002010B5044642F2A630844205DD17
:100E700042F21070844201DA002010BD42F210707C
:100E8000844207DB42F69600844203DA204609F0EA
:100E90002DF9F2E742F69600844207DB42F61B206A
:100EA000844203DA204609F0AEFAE6E742F61B2058
:100EB000844207DB42F69F30844203DA20460AF080
:100EC000D7FADAE742F69F30844207DB42F6225037
:100ED000844203DA20460AF084FBCEE742F6225031
:100EE000844207DB42F6A460844203DA20460AF01B
:100EF00038FCC2E742F6A460844207DB43F22400D8
:100F0000844203DA20460AF0ECFCB6E743F2240000
:100F1000844207DB43F2A410844203DA20460AF03D
:100F2000A0FDAAE743F2A410844207DB43F222307B
:100F3000844203DA20460AF054FE9EE743F2223050
:100F4000844207DB43F29F40844203DA20460AF0E2
:100F500008FF92E743F29F40844207DB43F21B60A5
:100F6000844203DA20460AF0BCFF86E743F21B60A6
:100F7000844207DB43F29570844203DA204609F08D
:100F800082F97AE743F29570844207DB43F60F104B
:100F9000844203DA204609F0EBFA6EE743F60F10BD
:100FA000844207DB43F68720844203DA204609F0B7
:100FB0009FFB62E743F68720844207DB43F6FE305F
:100FC000844203DA204609F053FC56E743F6FE302C
:100FD000844207DB43F67550844203DA204609F069
:100FE00007FD4AE743F67550844207DB43F6E960A4
:100FF000844203DA204609F0BBFD3EE743F6E96090
:10100000844207DB44F25D00844203DA204609F0A3
:101010006FFE32E744F25D00844207DB44F2D010F9
:10102000844203DA204609F023FF26E744F2D01079
:10103000844207DB44F24130844203DA204609F05F
:10104000D7FF1AE744F24130844207DB44F2B24052
:10105000844203DA20460AF08BF80EE744F2B240ED
:10106000844207DB44F22160844203DA20460AF01E
:101070003FF902E742F20F70FFE60000F0B50021F1
:101080000022002500230024002600271E480778A0
:101090000020DFF878C08CF87D0007B9F0BD1C484F
:1010A000808A81B21A48008A82B21948808985B242
:1010B0001548001D008883B213480830008884B2A8
:1010C00011480C30008886B2994206DD0120DFF815
:1010D0003CC08CF87D000020E0E7994211D1A2428B
:1010E00006DD0120DFF824C08CF87D000020D5E764
:1010F000A24206D1B54204DB0120DFF810C08CF813
:101100007D000020CAE7000014B80108880F002005
:10111000500000202448D0F8C00020B12248D0F868
:10112000C000012817D1214890F8810078B11F48EC
:1011300090F8A80078B100201C4981F8A800084662
:1011400090F86B0038B104201949086003E00420CE
:101150001749091D08601448D0F8C000022804D0BF
:101160001148D0F8C00003281BD1104890F8810026
:1011700018B91048B0F8920078B10C4890F8A8005F
:1011800078B10020094981F8A800084690F86B0062
:1011900038B104200649086003E004200449091D11
:1011A000086000207047000074100020880F0020A5
:1011B00010140140A013002010B5002401F00CFC15
:1011C0003D48407A012807D13C4890F8810018B981
:1011D00009203A4981F881003748007A012807D16F
:1011E000364890F8810018B90320344981F881000D
:1011F0003148007800B9012424B101202F4981F839
:101200004D0005E000202D4981F84D0081F84C008B
:101210002A4890F84C0005280BDB062028498870E6
:1012200001202849C8710020244981F84D0081F827
:101230004C00224890F88E00D0B905F07FF91F4885
:1012400090F87400401C1D4981F87400084690F81D
:101250007400032803DB0C2081F8810008E01848A3
:10126000807840F020001649887001201549C87127
:10127000124890F8740048B11048B0F87600B0F504
:10128000E16F03DB00200D4981F874000E48C0882F
:101290000E49896B884203D91020084981F88100E2
:1012A000094801890948406D401E814203D302204C
:1012B000024981F8810010BD7A120020880F0020B9
:1012C000260E00206C0000200C1900207410002055
:1012D00070B503250F260024474890F86A000028BF
:1012E0007ED0454890F8950030B102281AD00328E6
:1012F0003FD004286BD15CE004F0A2FC3F48008999
:101300003F490978884204DD46F2A81008F0A2FEA1
:1013100003E048F6B80008F09DFE0220364981F847
:1013200095005CE03748007810B901203649087014
:101330003648007848B903202F4981F895004EF6C9
:10134000602008F087FE04F06FFC2F48007878B129
:1013500000202D490870284981F8910004F064FCB0
:101360004EF6602008F076FE0320234981F89500B0
:1013700035E004F059FC2348007810B901202249D7
:10138000087022484078012803D104201A4981F8C6
:1013900095001D48007858B100201B490870164977
:1013A00081F8910004F040FC0420134981F8950075
:1013B00015E004F039FC00200F4981F8910081F814
:1013C0006A0081F89500012409E009E0FFE70020A8
:1013D000094981F86A0081F89500012400BF08E0FE
:1013E0000020054981F8950081F89100012404F05E
:1013F0001BFC204670BD0000880F00200C19002047
:10140000A800002045000020440000207A1200209F
:10141000024908800121014A11717047FC00002037
:1014200010B5002400BF3A4890F8B80020B1012858
:1014300026D0022862D144E005F07AF8002004F0BA
:101440004FFB04F0F1FB42F6E06008F003FE314888
:10145000D0F8C000012804D02E48D0F8C0000328DE
:1014600005D12D48C089012801DC01F09FFF012032
:10147000274981F8B800002081F87400888044E092
:101480002648007810B901202549087024480078C2
:10149000B0B10020224908701D4981F88C0002205B
:1014A00081F8B80001F094F81A48D0F8C00001287B
:1014B00004D01848D0F8C000032801D101F0FAFE8A
:1014C00023E01448D0F8C000012804D01148D0F817
:1014D000C000032801D101F0EDFE0F4801890D483D
:1014E000406D401E814203D30220094981F88100EA
:1014F0000020074981F8B800012406E000200449D3
:1015000081F8B8000BF072F800BF00BF204610BD94
:10151000880F0020741000200C19002045000020C6
:101520004400002000BFFEE73CB5024600230093C4
:10153000019300BF01F0CF038DF80030090A01F0DC
:10154000CF038DF8013002F0CF038DF80230120A7C
:1015500002F0CF038DF80330120A02F0CF038DF8AA
:101560000430120A02F0CF038DF805309DF80030E8
:101570009DF8014004EB840403EB44039DF8024012
:1015800004EBC40505EB041403EB84039DF803404E
:1015900004EB4405C5EBC41403EBC4049DF804300C
:1015A00040F271256B4304EB03149DF8053040F6BF
:1015B00035456B4304EB43103CBD000070B500247F
:1015C000C8480068C849086008460068C74988429A
:1015D00005D8C548006847F23051884203D247F227
:1015E0003050C1490860BF48001D0068BE494860CE
:1015F00008464068BD49884205D8BB48406847F264
:101600003051884203D247F23050B7494860B5485C
:1016100010300068B4490861084600693C2803D8C6
:10162000084600690F2802D21920AF490861AE4868
:10163000406A642803D8AC48406A142802D2642067
:10164000A9494862A848406AA7490969884203D263
:10165000A5480069A4494862A24828300068A24908
:1016600088620846806A012801D9012088629D4865
:10167000343000689C4988630846806BB0F5FA6F87
:1016800007D90846806BB0F5167F02D24FF4487038
:1016900088639748806A97490860084600680A2866
:1016A00005D3084600689049496D884202D3372027
:1016B000904908608F4840688B49496D884204D33F
:1016C0008948406D401F8B4948608648503000680B
:1016D000854948650846406DFA2801D9502048657B
:1016E0008148D0F8C00030B1012805D0022811D0BF
:1016F00003281BD10FE000BF7F48007810B90020FD
:101700007E4908807C480078022802D101207B496C
:1017100008800BE000BF7A48008878490880784844
:101720000088032801D10020088000BF00BF754851
:1017300000897249A1F8600072484089A1F86200EE
:101740007048008DA1F856006A488089A1F86400AD
:101750006D4890F83800A1F86E006C4880790881D7
:101760006A48C07888816948407A0882654890F85C
:101770008E00C8806348B0F8BC0048825E48C07BD9
:1017800088805C4908680BF009FF054660490BF04A
:101790000BFE5A494867574948680BF0FFFE05465B
:1017A0005B490BF001FE55498867524988680BF088
:1017B000F5FE054656490BF0F7FD5049C8674A4902
:1017C000486D0BF0EBFE054651490BF0EDFD4B4922
:1017D000C1F88000444800684FF47A71B0FBF1F022
:1017E0004649C886404840684FF47A71B0FBF1F032
:1017F000424908873C48008A48873B48808C888754
:101800003948806B0A21B0FBF1F03C49C887364863
:10181000008DA1F840003448808EA1F84200324883
:10182000008EA1F85400374890F881004880354870
:1018300090F86A00A1F8440034488078C8813348A1
:10184000407A08822848B0F8BC00A1F84600264833
:10185000B0F8B800A1F848002348B0F8B000A1F8EB
:101860004A002148B0F8A800A1F84C001E48B0F882
:10187000C800A1F84E001C48B0F8CC00A1F85000F8
:101880001948B0F84C00A1F852001748B0F87C0095
:10189000A1F866001448B0F88000A1F868001D485F
:1018A0000088A1F872001048B0F8C000A1F87000DC
:1018B0000D49486D0BF072FE0446154920460BF0A9
:1018C00073FD0E49C1F880000F4890F86810124867
:1018D000A0F8B2100C4890F838100F48A0F86A1021
:1018E00070BD000000B8010874100020E0930400EF
:1018F0000020030858100020260E00201813002096
:10190000941A0020880F0020A81A00205C170020DD
:101910000000C84226D80008A013002004200C496B
:1019200008600820086002200860C00109490860BA
:10193000800107490860400008604020064948616E
:1019400080204861400048614000486170470000C5
:1019500014140140140801400010014021B1026834
:1019600042F00102026004E002684FF6FE731A4082
:101970000260704701684FF6FE721140016000215D
:10198000016041608160C1604B49884208D14A4989
:101990000839496841F00F01474A083A51608AE026
:1019A00045491431884208D143490839496841F012
:1019B000F001414A083A51607DE03F4928318842B0
:1019C00008D13D490839496841F470613A4A083AFA
:1019D000516070E038493C31884208D136490839B5
:1019E000496841F47041344A083A516063E0324931
:1019F0005031884208D130490839496841F4702192
:101A00002D4A083A516056E02B496431884208D18A
:101A100029490839496841F47001274A083A516058
:101A200049E025497831884208D123490839496875
:101A300041F07061204A083A51603CE01F498842F9
:101A400006D1011F096841F00F01021F116032E049
:101A50001A491431884208D11849091F096841F010
:101A6000F001164A121F116025E0144928318842FE
:101A700008D11249091F096841F470610F4A121F09
:101A8000116018E00D493C31884208D10B49091F0B
:101A9000096841F47041094A121F11600BE00749BF
:101AA0005031884207D10549091F096841F4702166
:101AB000024A121F116070470800024008040240E9
:101AC00010B50022026847F6F0739A430C6A8B68DF
:101AD00023430C6923434C6923438C692343CC691A
:101AE00023434C6A23438C6A23431A430260CB6826
:101AF00043600B6883604B68C36010BD704701464C
:101B0000002005E0002001E0421CD0B21428FBDBDD
:101B10000A1EA1F1010399B2F4D1704710B5002457
:101B2000074804780F2C00DA0F243C2C00DD3C24FD
:101B3000204603F0D5FF03480470012010BD0000CB
:101B400010B80108470000200020014908707047C4
:101B50005C17002001200149087070475C170020C5
:101B600010B500247148007803280CD17048007823
:101B700010B96F48407810B101F026FC01E001F087
:101B80001DFC002010BD6A48807818B96848C078EC
:101B900000B9002466488078012803D16448C078E1
:101BA00000B901246248807820B96148C0780128D2
:101BB00000D102245E488078012804D15C48C078B6
:101BC000012800D1032434B1012C19D0022C43D0B8
:101BD000032C7CD16CE05748407918B1002054495F
:101BE00088714881002052498871084640895249CD
:101BF0000988884203DB00204D490871487167E07D
:101C00004B484078012813D14A48407910B1002050
:101C1000474948810020464988710846408946491D
:101C20000988884217DB002041494871088112E089
:101C30003F480078012809D13D4800893E4909887C
:101C4000884208DB01203A49887104E001203849C4
:101C50000871002008813BE035480078012813D145
:101C60003448407910B10020314948810020304982
:101C700088710846408930490988884217DB00206E
:101C80002B490871088112E029484078012809D1C0
:101C90002748008928490988884208DB012024490F
:101CA000887104E0012022494871002008810FE07A
:101CB00001201F4908714871084600891E4909889A
:101CC000884202DB01201A49887101E0FFE700BF6A
:101CD00000BF1A4890F85A0038B91548807910B1F9
:101CE00001F072FB01E001F069FB1148407968B135
:101CF0000F484078C0B901200D49487003211048B1
:101D000080F87310012180F874100DE008484078C5
:101D1000012809D103210A4880F87310002180F8B6
:101D2000741000200249487000202BE7260E002086
:101D3000E01200205C170020B8000020880F00206F
:101D4000A81A00202DE9F04100242825122600279A
:101D50008A48D0F8B800632803D963208749C1F8BE
:101D6000B8008648D0F8B800192803D21920834952
:101D7000C1F8B800814890F8B850002080494873F5
:101D800080480078012802D144F0010401E004F009
:101D90000E047C484078012802D144F0020401E09E
:101DA00004F00D0477488078012802D144F004043F
:101DB00001E004F00B047348C078012802D144F01C
:101DC000080401E004F007046F480078022808D1F5
:101DD0006C48807828B96B48C078012801D104F09C
:101DE00007046748847369484481694890F8300063
:101DF00000280ADD01206749887003206449A1F8A2
:101E0000C20000F0FBFB04F059FB614890F8300081
:101E100030B900205F49887000F0E4FB04F020FB3B
:101E200059480078032802D10020BDE8F0815848C5
:101E300090F8810030B1002056498870544981F8EB
:101E40003000F2E750480078D8B9514890F89A002D
:101E500078B14C48407818B91E204D4981F83000BF
:101E60004848407801280AD10020494981F83000CB
:101E700005E0002047498870454981F8300000207E
:101E8000D3E7434890F8910038B101204149887068
:101E90003F4880F830500020C7E73A4800780128D2
:101EA00003D13848407800B90127364840780128E6
:101EB00003D13448807800B902273248407801289D
:101EC00004D130488078012800D103272D480078BC
:101ED00000B9002737B1012F0BD0022F19D0032FE3
:101EE00043D12BE02A4880F8305000202A4908705E
:101EF00041E029480078022804D128480078401C95
:101F000026490870224880F8305001202249087084
:101F100031E022480078B04201DA204806701F48BC
:101F20000078A84201DD1D4805701C48007818495A
:101F300081F830000220184908701CE0164800782B
:101F4000022804D115480078401E1449087013482F
:101F50000078B04201DA1148067003200E4908707B
:101F600000200B4981F8300005E0002700200849D7
:101F700081F8300000BF00BF002056E77410002039
:101F8000B40E00207A120020260E00201813002024
:101F9000880F0020E0120020BA000020BB000020C3
:101FA00010B5012000F002F9A8B10B48B0F8BA0052
:101FB000401C0949A1F8BA00084690F82B0038B92E
:101FC000012081F82B00084690F82A0081F82C00A7
:101FD000012000F0E5F810BD880F002010B54FF487
:101FE000806000F0E3F818B14FF4806000F0D8F89A
:101FF0004FF4006000F0DAF818B14FF4006000F020
:10200000CFF84FF4805000F0D1F8002870D00120B4
:102010004549087400204549C8720873084680780D
:1020200040B10846C07A4FF40040414908600220A0
:10203000086008E03D48007B4FF400403C49091D22
:102040000860022008603948407818B140203949BA
:10205000086102E04020374948613448007818B1EF
:1020600080203449086102E08020324948612F48CD
:10207000407920B14FF480402D49086004E04FF4CE
:1020800080402B49091D08602848807920B14FF411
:1020900080702949086004E04FF480702649091DCA
:1020A00008602248C07820B14FF48070214908614F
:1020B00003E04FF480701F4948611C48807A18B1D2
:1020C00008201B49086003E008201949091D086021
:1020D0001648407A20B14FF400701649086103E0B9
:1020E0004FF40070134948614FF4805000F058F8E5
:1020F0004FF4005000F05AF818B14FF4005000F0BF
:102100004FF84FF4804000F051F818B14FF4804080
:1021100000F046F84FF4004000F048F818B14FF4D2
:10212000004000F03DF810BD880F00205C17002033
:1021300010140140001001401008014010B510209B
:1021400000F034F810B1102000F02AF810BD10B5DE
:10215000202000F02BF810B1202000F021F84020C2
:1021600000F024F810B1402000F01AF8802000F0B0
:102170001DF810B1802000F013F84FF4807000F0CB
:1021800015F818B14FF4807000F00AF84FF40070A1
:1021900000F00CF818B14FF4007000F001F810BD19
:1021A0000149086070470000140401400146002006
:1021B0000022074B1B6803EA0102054B14331B681E
:1021C0000B4013B10AB1012000E00020704700006D
:1021D00000040140002123498279002A3AD00A46AE
:1021E000126803689A430B461A600A1D1268036856
:1021F0009A430B1D1A60027911440A6803681A4356
:102200000A60184A0832126803689A43154B08336B
:102210001A601A1D126803689A43124B0C331A6035
:102220004279102A0ED11A1F126803681A430D4B07
:1022300008331A601A1D126803681A43094B0C33DD
:102240001A600DE00749427911440A6803681A438D
:102250000A6005E0027911440A6803689A430A603B
:10226000704700000004014010B52A4890F8810032
:1022700078B9284890F8990018B10120254981F8CB
:102280009E000020234981F8810081F899002249AD
:1022900048712048B0F88800B0F5E16F05DB0020F8
:1022A0001E4908701B49A1F888001A4890F8990047
:1022B000F0B9184890F8810050B30AF097F901205E
:1022C000144981F8990081F86B001349487111484D
:1022D00090F8810011490978884204D00D4890F89F
:1022E00081000E49087000200A49A1F888000FE01B
:1022F000084890F8810058B109480078022807D1B1
:102300000AF074F90120034981F86B000249487111
:1023100010BD0000880F0020FC000020A30000205A
:10232000260E00200149C8607047000000200240CE
:1023300030B5044604254FF4302000F001F905467D
:10234000042D17D10C48006940F002000A490861C9
:1023500008464461006940F0400008614FF43020B5
:1023600000F0EEF805460448006941F6FD710840AA
:1023700001490861284630BD0020024004200B4975
:10238000C96801F0010109B101200EE00749C968DF
:1023900001F0040109B1022007E00449C96801F015
:1023A000100109B1032000E0042070470020024022
:1023B00000200449C96901F0020109B1012000E0CF
:1023C00000207047002002400348006940F0800070
:1023D0000149086170470000002002400549096872
:1023E00021F01001034A1160114609680143116090
:1023F000704700000020024078B506460C460425D0
:1024000000200090E80200F09BF80546042D24D13E
:102410001348006940F00100114908613480E80266
:1024200000F08EF80546042D10D1B01C0090200C51
:1024300000990880E80200F083F805460848006922
:1024400041F6FE7108400649086106E0044800694B
:1024500041F6FE71084002490861284678BD000037
:102460000020024030B5054604244FF4302000F02F
:1024700067F80446042C41D121482249886022484B
:1024800088600846006940F020000861084600693D
:1024900040F0400008614FF4302000F051F804464D
:1024A000042C22D11748006941F6DF710840154914
:1024B00008610846006940F0100008611DB1002065
:1024C0001249088002E0A520104908804FF430200E
:1024D00000F036F80446052C10D00A48006941F691
:1024E000EF7108400749086108E0052C06D005484F
:1024F000006941F6DF71084002490861204630BD9D
:102500002301674500200240AB89EFCD00F8FF1F93
:1025100001460020034A106800F0380008431060AC
:102520007047000000200240024803494860034809
:10253000486070472301674500200240AB89EFCD1A
:1025400000B502460423FFF719FF034603E0FFF737
:1025500015FF0346521E012B01D1002AF7D102B903
:102560000523184600BD00000020174991F86C10A3
:1025700011B30021144A82F86C101449096B0A291E
:1025800002D21249096B11B90321104A11630E4995
:10259000B1F8BA10002910DD0B49B1F8BA10C1EB3F
:1025A00001118900094A126BB1FBF2F1064AA2F847
:1025B000BC100021A2F8BA1005E00021024AA2F8DE
:1025C000BA10A2F8BC107047880F002074100020C9
:1025D00010B5642003F084FA64200149087010BD2E
:1025E000470000200020034981F83000024948716B
:1025F00070470000880F00205C1700200548B0F8E5
:10260000C200022801DC0020704701200249487105
:102610000020F9E7880F00205C17002010B5FFF7B5
:10262000C7FE012806D0FFF77FFF0120FFF71AFF42
:10263000FFF7CAFE10BD000070B508260024002573
:10264000354890F8410008B9002070BD002032499B
:1026500081F84100012081F83200084690F83000EE
:10266000642806DC084690F8300000EB8000450046
:1026700000E0002529480078401C284908700846D9
:102680000078052805DD00202549087023490870D9
:1026900002E00120224908702148007810B1012889
:1026A00033D118E01F48067003201E4948700020EF
:1026B0008870C8700871012048710821194801F01C
:1026C000B1FD0446201217498871CC7108221648C2
:1026D00006F057FF1DE013480670062011494870A8
:1026E000002088700120C870281208714D710821DF
:1026F0000C4801F097FD044620120A498871CC71FC
:102700000822094806F03DFF03E000200449087054
:1027100000BF00BF002098E7880F0020D9000020EC
:10272000D80000200C0700200048004030B50022EF
:102730008B071C0F0F2303FA04F20B4B8C1053F87A
:1027400024309343084C8D1044F8253023468C10D8
:1027500053F824308C07240F00FA04F42343024C6E
:102760008D1044F8253030BD080001402DE9F041BE
:10277000024600250026002000230024002791F8AF
:1027800003C00CF00F0591F803C00CF0100CBCF165
:10279000000F03D091F802C04CEA050591F800C083
:1027A000BCF1000F31D0146800202BE04FF0010C79
:1027B0000CFA00F3B1F800C00CEA03069E4220D1E7
:1027C00083004FF00F0C0CFA03F7BC4305FA03FC2F
:1027D0004CEA040491F803C0BCF1280F06D14FF075
:1027E000010C0CFA00FCC2F814C00AE091F803C016
:1027F000BCF1480F05D14FF0010C0CFA00FCC2F8F7
:1028000010C0401C0828D1D31460B1F800C0BCF13E
:10281000FF0F34DD546800202EE000F1080C4FF06B
:10282000010808FA0CF3B1F800C00CEA03069E4256
:1028300021D183004FF00F0C0CFA03F7BC4305FACB
:1028400003FC4CEA040491F803C0BCF1280F05D145
:1028500000F1080C08FA0CF8C2F8148091F803C0D3
:10286000BCF1480F07D100F1080C4FF0010808FA3D
:102870000CF8C2F81080401C0828CED35460BDE884
:10288000F0810000F0B50A46002300240021002555
:1028900000F00046B6F1004F02D11D4EF16901E093
:1028A0001B4E7168C0F3034583B200F44016B6F5C1
:1028B000401F08D121F07061154E766826F07066D1
:1028C000134F7E6012E000F48016B6F5801F06D12B
:1028D000032606FA05F4A14341F0706106E0460DB7
:1028E000360103FA06F6B14341F0706122B1460D9C
:1028F000360103FA06F6314300F00046B6F1004F08
:1029000002D1034EF16101E0014E7160F0BD0000A3
:10291000000001400246002093680B400BB10120EB
:1029200000E0002070470AB1016100E0416170479A
:1029300010B5FFF757FE02200749A1F8C40003F0C5
:102940008FFD03F071F903F0E5FD00F0B3FC06F034
:1029500029FE002010BD0000880F0020014600BFA6
:1029600040F6E44301FB03F2D31702EB1353C3F326
:102970000F30174A5084B0F5BE7F04DD40F22F229D
:10298000904200DA501C134A526DA02A08D8A0F2D7
:102990002F2202EB820252008C2392FBF3F290B2C0
:1029A0000C4A526DA02A0DD90A4A526DFA2A09D84A
:1029B000A0F22F2202EBC20303EB0212E02392FBF0
:1029C000F3F290B2B0F5004F01DD40F2E73070470E
:1029D000880F0020741000200820002100BF544AF6
:1029E0009278012A06D1524A527812B1504A12788E
:1029F00002B901214E4A5278012A03D14C4A127879
:102A000002B9012199B14B4A92F88E2032B10122CC
:102A1000484B83F8912083F84F2003E00022454B78
:102A200083F891200122434B83F84B2007E00022DA
:102A3000404B83F84F2083F84B2083F84A203D4ACF
:102A400092F84E20052A07DB00223A4B83F89120AA
:102A500083F84F2083F84E20374A127802B90520B8
:102A6000344A92F88E2052B1334A1278022A06D1A3
:102A70002F4A12780AB1082002E0052000E00A205F
:102A80002C4A92F84A2082420DDB2A4A92F8812091
:102A90001AB90822274B83F881200022254B83F89E
:102AA0004B2083F84A20224A927AC2B9214A92F8EE
:102AB00049201AB900221F4B83F8482001221D4BE0
:102AC00083F849201A4692F84820012A0DDD1A465B
:102AD00092F881204AB90F2283F8812005E0002274
:102AE000144B83F8492083F84820114AD27AC2B99E
:102AF000104A92F847201AB900220E4B83F846205C
:102B000001220C4B83F847201A4692F84620012AEE
:102B10000DDD1A4692F881204AB9012283F88120FE
:102B200005E00022034B83F8472083F846207047D6
:102B30007A120020880F0020260E002070B504466F
:102B400003F06CF94FF4803003F02AFA03F086FAB0
:102B50000546012D23D11020FFF740FC0220FFF78E
:102B6000D7FC002003F010FAA80203F03FFA00207F
:102B700003F048FA2146280403F056FA012003F036
:102B80004DFA00BF392003F0D9F90028FAD002200D
:102B900003F058FA00BF03F0EFF90828FBD170BD2D
:102BA00000BFFEE710B5284890F8810078B92648A4
:102BB00090F8990018B10120234981F89E00002067
:102BC000214981F8810081F89900204948711E4807
:102BD000B0F88800B0F5E16F05DB00201C490870F3
:102BE0001949A1F88800184890F8990058BB164870
:102BF00090F8810038B3144890F88100FF2822D063
:102C000000201449087014480078022801D109F006
:102C1000EDFC01200D4948710B4981F8990081F8BC
:102C20006B0081F89E00084690F8810008490978F9
:102C3000884204D0044890F88100054908700020BB
:102C40000149A1F8880010BD880F0020FC00002079
:102C5000A400002088000020260E00201FB50121BE
:102C6000202003F0BBF84FF48050ADF80C00482052
:102C70008DF80F0003A92C48FFF778FD01210846C5
:102C800003F0ACF80C210320FFF750FD4FF4805007
:102C9000019000208DF8080008208DF8090001201F
:102CA0008DF80A0001A8FFF795FA28208DF800009A
:102CB00002208DF801008DF8020001208DF803003C
:102CC000684602F03FF90121082003F087F801204F
:102CD000ADF80C0048208DF80F0003A91348FFF74A
:102CE00045FD00210120FFF721FD0120019000207A
:102CF0008DF8080008208DF8090001208DF80A00E1
:102D000001A8FFF767FA06208DF8000002208DF871
:102D100001008DF8020001208DF80300684602F0E2
:102D200011F9002004B010BD00140140000C014056
:102D300070B505460C4645F2555000F02BF8284674
:102D400000F01CF8204600F01FF800F00FF800F02B
:102D500001F870BD4CF6CC40014908607047000096
:102D60000030004010B500F001F810BD4AF6AA206E
:102D70000149086070470000003000400149486088
:102D80007047000000300040014988607047000033
:102D900000300040014908607047000000300040EA
:102DA00000B50D4890F8810008B1002000BDFFF784
:102DB00013FE0A48007860B9074890F88E00012891
:102DC00007D1054890F8810018B90720024981F819
:102DD00081000020EAE70000880F00208C0000201E
:102DE00000B5FFF7F9FD0948C0880949896B884299
:102DF00003D91020074981F881000748007A01288B
:102E000003D10320034981F8810000BD0C19002083
:102E100074100020880F00207A12002010B50121C4
:102E2000084602F0DBFF01210148FFF72BFD10BD32
:102E30000002300070B5044600250026B248007834
:102E400010B101287ED14DE1002504EB4400AF49CB
:102E500001EB0010407B60B104EB440001EB00107B
:102E6000407B401E04EB4401A84A02EB0111487369
:102E7000012504EB4400A54901EB0010407C68B13A
:102E800065B904EB440001EB0010407C401E04EBEC
:102E900044019E4A02EB01114874022504EB4400F0
:102EA0009A4901EB0010407E68B165B904EB44001B
:102EB00001EB0010407E401E04EB4401934A02EBFC
:102EC00001114876032504EB4400904901EB001002
:102ED000C07C68B165B904EB440001EB0010C07C14
:102EE000401E04EB4401894A02EB0111C874042519
:102EF00004EB4400854901EB0010407D68B165B9E1
:102F000004EB440001EB0010407D401E04EB440143
:102F10007E4A02EB01114875052504EB44007B490C
:102F200001EB0010C07D78B175B904EB440001EBF2
:102F30000010C07D401E04EB4401744A02EB0111F5
:102F4000C87500E0D8E0062504EB44006F4901EBAA
:102F50000010C07B68B165B904EB440001EB0010C0
:102F6000C07B401E04EB4401684A02EB0111C873A8
:102F7000072504EB4400654901EB0010C07E68B1F1
:102F800065B904EB440001EB0010C07E401E04EB69
:102F900044015E4A02EB0111C87609257DB904EBB4
:102FA00044005A4901EB0010007B0A2807DD00208D
:102FB00004EB4401554A02EB0111087308250A2D60
:102FC00077D2DFE805F00518232E39444F5A656A99
:102FD00004EB44004D4901EB0010007B401C04EB66
:102FE00044014A4A02EB011108731222642120466F
:102FF00000F0FCFF5FE004EB4400444901EB0010EB
:10300000827B6421204601F017F854E004EB440071
:103010003E4901EB0010827C7021204601F00CF843
:1030200049E004EB4400394901EB0010827E6F2136
:10303000204601F001F83EE004EB4400334901EB87
:103040000010027D7121204600F0F6FF33E004EB12
:1030500044002E4901EB0010827D7221204600F0D1
:10306000EBFF28E004EB4400284901EB0010027E4E
:103070007321204600F0E0FF1DE004EB44002349EB
:1030800001EB0010027C6B21204600F0D5FF12E01E
:103090009621204600F0F6FF0DE004EB44001B49AA
:1030A00001EB0010027F7521204600F0C5FF02E011
:1030B000FFE7002500BF00BF04EB4400134901EB0C
:1030C00000108088401C04EB4401104A02EB0111FF
:1030D000888000200E4948740B480078401C0A493B
:1030E00008700DE00A48407C28B100200849487467
:1030F00005490870012603E000200349087000BF5D
:1031000000BF304670BD0000DB000020A81A002080
:10311000880F002008B510208DF8030003208DF8DB
:1031200002000121202002F059FE1020ADF800001D
:103130008DF8030003208DF8020069464148FFF72F
:1031400015FB0121402002F049FE0420ADF80000EB
:1031500010208DF8030003208DF8020069463A48DC
:10316000FFF704FB0121402002F038FE0820ADF8F3
:10317000000010208DF8030003208DF8020069463E
:103180003148FFF7F3FA0121102002F027FE30202A
:10319000ADF8000048208DF8030069462B48FFF782
:1031A000E5FA0121042002F019FEC020ADF800006C
:1031B00048208DF8030069462548FFF7D7FA01211A
:1031C000202002F00BFEE020ADF8000048208DF832
:1031D000030069461B48FFF7C9FA0121092002F0E4
:1031E000FDFD01211B48FFF74DFB0121082002F0E6
:1031F000F5FD4FF47E70ADF8000048208DF8030017
:1032000069461548FFF7B2FA0121402002F0E6FDB9
:103210000320ADF8000048208DF8030069460A48F5
:10322000FFF7A4FA0121082002F0D8FD0120ADF833
:10323000000048208DF8030069460748FFF796FA1A
:1032400008BD0000001401400018014000100140BA
:103250000008014000023000000C014010B503F0EE
:1032600059F90120034981F89E00002081F89A0055
:1032700010BD0000880F002010B503F059F901209F
:103280000A4981F89A0081F89E00FFF7A1F90748E2
:1032900090F89C0020B10649486806F0DBFE03E088
:1032A00043F6982006F0D6FE10BD0000880F0020DF
:1032B0007410002000200149487270475C170020FC
:1032C00070B500BF00BF00263348D0F8C800C0EB7F
:1032D000001084003048D0F8CC0000EB80004FF69E
:1032E000FF7101EA40052C48D0F8C000012804D045
:1032F0002948D0F8C000032801D1002070BD27481C
:103300000078032801D10020F8E72448007802283B
:103310000FD1234890F88E0058B1214890F834001E
:1033200038B11F48806B401C1D498863002081F81C
:1033300034001B48806BA04206D3002018498863E4
:10334000C86301201749087016480078E0B1144896
:10335000C06BA84214D21448407970B100F026F82E
:103360000F4890F84000A0B100200D4981F84000BE
:103370000846C06B401CC8630BE0FFF79BFF08E0EA
:1033800000200849087004E000200549C863FFF7E1
:1033900091FF0020B2E7000074100020260E0020EC
:1033A000880F0020B30000205C1700200120024994
:1033B00048720020704700005C170020002001497F
:1033C000487170475C1700200120024948710020B5
:1033D000704700005C17002000BFFEE72DE9FF5F8B
:1033E0004FF0000A0027002500200390804602903D
:1033F00083460024814601900026FC4890F87E0018
:103400000F2852DBFA48D0F8C00020B1F848D0F8B5
:10341000C00001280ED1F7480078022801D109F038
:10342000E5F8F4480078032804D10020F149087039
:10343000FFF77EFAEE48D0F8C000022804D0EC482E
:10344000D0F8C00003282AD1EB48008801280FD10A
:103450000020E9490880E7480078022801D109F0F6
:10346000C5F80321E54880F86D10002180F86E1042
:10347000E1480088032812D10020DF490880DD4898
:103480000078032804D10020DA490870FFF750FAC9
:103490000321DA4880F86D10002180F86E100120B9
:1034A000D24981F86B00D6494871D64890F85D0240
:1034B000002878D00020D34981F85D02002240F234
:1034C0002551D14805F005FDCE4890F85902401E1F
:1034D000CE490A5CCB4890F85902801E085C02EB8A
:1034E00000201FFA80F8C74890F85912C74800F02A
:1034F00099FE40457BD1C34890F82D0102900020F1
:10350000BA4981F87E000298032874D1BD4890F82A
:103510002F1190F82E0101EB00201FFA80FBB94813
:1035200090F8311190F8300101EB002084B2A146EF
:10353000BBF1000F03D0BBF1C80F5AD127E088259B
:103540000120B049087003204870084685700327A1
:1035500006E0F81EAE49085CAA49C855781CC7B2F7
:10356000E81C8742F5DB681DC1B2A64800F05AFE90
:1035700080464FEA2821A34AE81C1154281D02F86E
:1035800000806A1D9F49A04805F0FBFF32E0022041
:103590000390482501209B49087003204870084685
:1035A000857003270CE0F8E3039800EBC00099490D
:1035B00001EBC001F81E085C9249C855781CC7B2DF
:1035C000E81C8742F0DB681DC1B28E4800F02AFE7D
:1035D00080464FEA28218B4AE81C1154281D02F826
:1035E00000806A1D8749884805F0CBFF02E07AE039
:1035F00001E000BF00BF0298102874D1814890F804
:103600002F1190F82E0101EB00201FFA80FB7D485E
:1036100090F8311190F8300101EB00201FFA80F989
:10362000784890F8331190F8340101EB002084B20F
:10363000BBF12A0F6FD019DCBBF12A0F6CD2DFE887
:103640000BF04A535E6B6C6B94A7C26B6B6B6B6B2E
:103650006B6B6B6B6B6B6B6BFEFDFCFBFAF9F8F73E
:10366000F6F5F4F3F2F1F0EFEEEDECEBBBF1400F19
:103670007AD018DCABF12C001328DFD2DFE810F091
:1036800019022802380248024C004C005802660217
:1036900074024C0083028F02A3024C00B7024C005C
:1036A00023034C005C03ABF1C9001228C6D2DFE84B
:1036B00010F0A203B2033300C2033300D203E203CB
:1036C00004043300330033001504250436043300AA
:1036D000450455046404204601F016FB494658464B
:1036E00001F0F0FA03E2F8E324B9494844803F4985
:1036F00081F881404946584601F0E4FAF2E7642C2B
:1037000004DC43488480E0B202F0EAF949465846B6
:1037100001F0D8FAE6E7BCE1EFE3012C1FDC0ED1A3
:1037200001203B49088103203049A1F8C200FEF77F
:1037300065FF32202D4981F8300002F0BFFE74B9D8
:10374000002033490881FEF74DFF02202749A1F8E8
:10375000C40002F085FE0020244981F8300049466B
:10376000584601F0AFFABDE718E3012C0BDC04D199
:1037700001202749888102F063FA24B900202449F6
:10378000888102F051FA4946584601F09BFAFFE35E
:10379000012C13DC1E48C48107D101201C49C881BB
:1037A00002F0C6FE642002F09BF93CB900201849E3
:1037B000C88102F0AFFE002002F092F94946584657
:1037C00001F080FAE4E3012C0DDC1148048204D1FD
:1037D00001200F490882FFF7E9FD24B900200C49B8
:1037E0000882FFF767FD4946584629E0880F002008
:1037F00074100020260E0020941A0020A81A002021
:10380000FC000020AE04002000440040DA05002047
:1038100018130020A01300202BE119E107E1F4E0C8
:10382000E4E0D2E0C2E0A6E092E083E070E060E095
:1038300050E03DE02AE022E01AE012E00AE002E077
:1038400001F040FAA4E3FE4884854946584601F059
:1038500039FA9DE3FA48C4854946584601F032FAE0
:1038600096E3F74804864946584601F02BFA8FE361
:10387000F34844864946584601F024FA88E3F04864
:1038800084864946584601F01DFA81E3142C0ADB70
:10389000782C08DCEA48C4864FF47A706043E94922
:1038A000086006F089F84946584601F00BFA6FE3C4
:1038B000142C0ADB782C08DCE14804874FF47A707A
:1038C0006043E049486006F077F84946584601F001
:1038D000F9F95DE3142C07DB3C2C05DCD848448760
:1038E000D848046106F068F84946584601F0EAF9FC
:1038F0004EE31E2C07DB642C05DCD1488487D148BD
:10390000446206F059F84946584601F0DBF93FE3B6
:10391000502C0ADBDC2C08DCC948C48704EB84008B
:103920004000C849886306F047F84946584601F008
:10393000C9F92DE3012C06DCC148A0F84040C1487C
:10394000846206F039F84946584601F0BBF91FE396
:10395000B4F5FA7F0ADB40F6B830844206DCB8489A
:10396000A0F84240B748446306F026F84946584656
:1039700001F0A8F90CE3012C13DCB148A0F8444095
:103980000120B14981F86A000121B04880F87C101B
:10399000032180F87B10012180F8AC10032180F80E
:1039A000AB104946584601F08DF9F1E2012C07DCD5
:1039B000A348A0F84640A348C0F8BC4005F0FCFF6F
:1039C0004946584601F07EF9E2E2192C09DB642CE5
:1039D00007DC9B48A0F848409A48C0F8B84005F07A
:1039E000EBFF4946584601F06DF9D1E2012C07DCA6
:1039F0009348A0F84A409348C0F8B04005F0DCFF77
:103A00004946584601F05EF9C2E2C82C0ADBB4F51B
:103A1000AF7F07DC8A48A0F84C408A48C0F8A8402D
:103A200005F0CAFF4946584601F04CF9B0E2012CB6
:103A300009DB3C2C07DC8248A0F84E408148C0F8E6
:103A4000C84005F0B9FF4946584601F03BF99FE2EE
:103A5000012C09DB3C2C07DC7948A0F85040794860
:103A6000C0F8CC4005F0A8FF4946584601F02AF9B5
:103A70008EE2002C08DBFA2C06DC7148A0F85240DC
:103A80007048C46405F098FF4946584601F01AF999
:103A90007EE2012C08DB0A2C06DC6948A0F85440C1
:103AA0006848046305F088FF4946584601F00AF962
:103AB0006EE2012C07DC6248A0F858406148C0F86B
:103AC000D04005F079FF4946584601F0FBF85FE227
:103AD000B4F57A7F07DC5A48A0F85A405948C0F834
:103AE000D44005F069FF4946584601F0EBF84FE233
:103AF000B4F57A7F07DC5248A0F85C405148C0F822
:103B0000D84005F059FF4946584601F0DBF83FE23E
:103B1000B4F57A7F07DC4A48A0F85E404948C0F80F
:103B2000DC4005F049FF4946584601F0CBF82FE24A
:103B3000012C06DC4248A0F864404548C46006F009
:103B4000C7F84946584601F0BDF821E2142C06DDBD
:103B50003B48A0F866403B48C46705F02DFF494646
:103B6000584601F0AFF813E2142C07DD3448A0F8F2
:103B700068403448C0F8804005F01EFF494658466A
:103B800001F0A0F804E2012C04DC2D48A0F86C4000
:103B900005F012FF4946584601F094F8F8E1012C6F
:103BA0000CDC2C48A0F86A40B0F86A002449A1F85F
:103BB0006E00264880F8384006F0E2F8494658463C
:103BC00001F080F8E4E1032C0CDC1D48A0F8704003
:103BD0001C48C0F8C04005F0EFFE1F4800681949B6
:103BE000C1F8C0004946584601F06CF8D0E1B9F17F
:103BF000020F67D1194890F8330119490870174826
:103C000090F834014870154890F8350188701348D1
:103C100090F83601C8700846006809494867486F3F
:103C2000104909F003FD009009F080FC86B20A2ECD
:103C300044DB0448406DB04240D30548066013E0C1
:103C40001813002074100020880F0020A81A0020EC
:103C500058100020A0130020B0B80108AE040020C6
:103C60007C0000200000C842D5480068D54948675C
:103C7000D5480068D4494968884219D9D2480068B3
:103C80000A30D149486008464068D049496D8842A9
:103C900004D3CE48406D401ECB494860CA494868AD
:103CA00009F07CFCCA49009009F07EFBC549886791
:103CB00006F00EF8C748806AC3490860494658466E
:103CC00001F000F864E1B9F1020F34D1C24890F874
:103CD0003301BB490870C04890F834014870BE48B1
:103CE00090F835018870BC4890F83601C8700846D5
:103CF0000068B4498867886FB54909F097FC00905F
:103D000009F014FC86B2B0480068B0420FD8AF4842
:103D1000406DB0420BD3AC484660A9480068A94941
:103D2000886705F0D5FFAB48C06AA7494860494697
:103D3000584600F0C7FF2BE1B9F1020F2CD1A6487D
:103D400090F833019E490870A34890F834014870F8
:103D5000A14890F8350188709F4890F83601C870E6
:103D6000084600689749C867C86F994909F05EFC22
:103D7000009009F0DBFB86B293484068B04207D957
:103D8000914886608E4800688E49C86705F0A0FF9C
:103D90004946584600F096FFFAE00EE1B9F1020FED
:103DA00028D18D4890F83301854908708A4890F8E9
:103DB00034014870884890F835018870864890F83A
:103DC0003601C870084600687E49C1F88000D1F805
:103DD00080007F4909F02AFC009009F0A7FB86B219
:103DE000FA2E03DC7948466505F0E6FD494658465B
:103DF00000F068FFCCE0012C08DC7848A0F8924085
:103E00000321774880F86F1080F870404946584683
:103E100000F058FFBCE0642C08DC7048A0F8944027
:103E200003216F4880F8791080F87A404946584657
:103E300000F048FFACE0012C08DC6848A0F898408E
:103E40000321674880F8731080F87440494658464B
:103E500000F038FF9CE0012C08DC6048A0F89C4092
:103E600003215F4880F8751080F87640494658462F
:103E700000F028FF8CE0012C1ADC0CD101215748FE
:103E8000A0F89E106421A0F894100321544880F8F3
:103E9000711080F872405CB900215048A0F89E1063
:103EA000A0F8941003214E4880F8711080F87240F9
:103EB0004946584600F006FF6AE0012C08DC4748F6
:103EC000A0F8A0400321464880F8771080F8784099
:103ED0004946584600F0F6FE5AE05AE03C2C07DC12
:103EE0003E48A0F8A8403E4880F88A4005F048FFC8
:103EF0004946584600F0E6FE4AE048E0642C09DCFA
:103F00001E2C07DB3548A0F8AA40354880F88B40C6
:103F100005F036FF4946584600F0D4FE38E0C82C7C
:103F200007DC2E48A0F8AC402D4880F88C4005F006
:103F300027FF4946584600F0C5FE29E0B4F5C87F82
:103F400007DC2648A0F8B0402548A0F88E4005F0D0
:103F500017FF4946584600F0B5FE19E0012C07DC72
:103F60001E48A0F8B2401E4880F8684005F008FFDF
:103F70004946584600F0A6FE0AE0012C02DC17482C
:103F8000A0F8B4404946584600F09CFE00E000BF4F
:103F900000BF4FF0000A07E00021124800F80A10A5
:103FA0000AF1010000F0FF0ABAF1C80FF4DB0122A8
:103FB00040F225510C4804F08CFFBDE8FF9F000043
:103FC0007C000020181300205810002074100020DE
:103FD0000000C84200200308AE040020A013002007
:103FE000A81A0020DA050020004400402DE9F04125
:103FF00006460C46154600270D48067003200C495E
:10400000487020128870CC70281208714D710821F8
:10401000074800F007F90746381205498871CF7143
:104020000822044805F0ADFA0020BDE8F081000048
:104030000C070020004800402DE9F04106460C46E0
:10404000154600270D48067006200C4948702012BE
:104050008870CC70281208714D710821074800F053
:10406000E1F80746381205498871CF7108220448E3
:1040700005F087FA0020BDE8F08100000C07002061
:10408000004800402DE9F04104460D460026002777
:104090005F48047010205E49487028128870CD7007
:1040A0000020087112204871242088715948008826
:1040B000000AC87157480078087256488088000A7C
:1040C000487254480079887252480089000AC872C0
:1040D0005048007A08730020487304EB44004E49AE
:1040E00001EB001090F82A00494988730020C8733A
:1040F00004EB4400484901EB001090F82B004449C0
:10410000087404EB4400444901EB0010C08D001218
:104110003F49487404EB44003F4901EB001090F81C
:104120002E003B4988740020C87404EB44003A49CF
:1041300001EB001090F82C003549087500204875F7
:10414000364890F8B8008875344890F8C800C875AB
:10415000324890F8CC000876002048762F4890F836
:10416000D00088762D48B0F8D400000AC8762B48D5
:1041700090F8D40008772948B0F8D800000A4877AA
:10418000264890F8D80088772448B0F8DC00000A68
:10419000C877224890F8DC0081F82000002081F8E0
:1041A00021001E4890F8280081F82200002081F8A4
:1041B00023001A4890F8BC0081F82400002081F800
:1041C0002500164890F8540081F82600002081F858
:1041D0002700124890F8C00081F82800002081F8DC
:1041E00029000C48007B81F82A002D21084800F0A6
:1041F00019F806463012064981F82B0081F82C6028
:104200002D22074805F0BDF90020BDE8F08100002F
:104210000C07002058100020A81A0020741000205D
:1042200000480040F0B502460B464FF6FF710024EF
:1042300011E017787940002508E001F001064910E7
:1042400016B14AF2010779406F1CBDB2082DF4DBAC
:10425000521C671CBCB29F1EA742EADC0F063F0C33
:1042600047EA1120F0BD000070B5002400250026AB
:104270003D4890F85D02002874D000203A4981F84A
:104280005D02002240F22551384804F022FE3648F3
:1042900090F85902401E36490A5C334890F859029A
:1042A000801E085C02EB002085B22F4890F859125E
:1042B0002F48FFF7B7FFA84245D12B4890F82C01B3
:1042C000FE282BD1284890F82D01032826D1264816
:1042D00090F82F1190F82E0101EB002086B2B6F570
:1042E0007A7F1BD1204890F82C011F4908700320C9
:1042F0004870022088700020C8701E4890F84C005A
:10430000087107211848FFF78DFF05462812164946
:1043100048718D710722154805F033F91548D0F81A
:10432000C00030B1012805D0022806D0032808D1EA
:1043300004E000BF01F036F904E000BF00F044FEE5
:1043400000E000BF00BF002404E000210848015540
:10435000601CC4B2642CF8DB012240F225510348F2
:1043600004F0B7FD70BD000050020020003801408D
:104370007C030020741000202DE9F0470024002564
:104380000027A0460026A1466A4890F85A0040BB84
:1043900001241CE004EB4400674901EB0010808815
:1043A0001E2812DD002004EB4401634A02EB0111D8
:1043B000487004EBC401614A22F8310004EBC401E7
:1043C00002EBC1004821FCF737F8601CC4B20D2C89
:1043D000E0DB594890F8610018B90020584948704E
:1043E000C8705848D0F8BC0048B1524890F8330023
:1043F0000A2808DB13204F4981F8810003E00020E0
:104400004C4981F83300504890F85D0200287BD079
:1044100000204D4981F85D02002240F225514B48B1
:1044200004F057FD484890F85902401E48490A5C7C
:10443000454890F85902801E085C02EB00201FFAE4
:1044400080F9414890F82D7190F82E8190F859121A
:104450003F48FFF7E7FE48455AD13B4890F82C51BA
:10446000344890F85A0038B9082D05DA364991F8E1
:104470002D01294600F0F2F8082D26D100202D4903
:1044800081F8320081F83300032F1ED1B8F1020FFA
:104490001BD12D4890F8301190F82F0101EB00202E
:1044A00086B2EA2E04D10120224981F8310003E0CE
:1044B0000020204981F831001E4890F83100012881
:1044C00003D112201B4981F881000A2D20D11E48FA
:1044D00090F82D0104281BD11B4890F8301190F85A
:1044E0002F0101EB002086B2002E0EDD06EB8600C8
:1044F0008000C0EB001000EB800040F6FF7190FBE5
:10450000F1F00C49088103E011E00020094908811D
:10451000002404E000210E480155601CC4B2642C44
:10452000F8DB012240F22551084804F0D2FCBDE836
:10453000F0870000880F0020A81A0020A013002098
:10454000E0120020741000200C07002000480040FA
:104550003808002070B5002400253A48D0F8C00083
:10456000022804D03748D0F8C000032818D13648B4
:1045700090F85A00012813DD334890F85B000F28AB
:104580000EDD32480078022801D108F02FF82F48BC
:104590000078032802D100202C490870FEF7C8F9E2
:1045A0002B4890F85D0200284AD00020284981F865
:1045B0005D02002240F22551264804F08AFC24487E
:1045C00090F85902401E24490A5C214890F859028B
:1045D000801E085C02EB002085B21D4890F859123D
:1045E0001D48FFF71FFEA8421BD1174890F85A003C
:1045F00048B9174890F82C011249C96C884210D16B
:1046000003F092FD0DE0124890F82C010E4991F84C
:104610005A10884205D100200B4981F85B0003F055
:1046200083FD002404E000210B480155601CC4B246
:10463000642CF8DB012240F22551064804F049FCC5
:1046400070BD000074100020880F0020260E00208E
:104650006A090020004C0040960A00202DE9F0472E
:1046600007460C464FF000090025A846002600200A
:1046700004EB4401E24A02EB01118880012004EBC3
:10468000440102EB01114870032F7DD1DD4890F801
:104690002E91B9F1240FF8D104EB4400114601EB3F
:1046A000001080880F2806DD002004EBC401D64AE4
:1046B00022F831001DE0D34890F83001022804D1DF
:1046C00004EBC401D04A22F83100CE4890F8300102
:1046D00028B9012004EBC401CB4A22F83100C948B3
:1046E00090F83C0128B1032004EBC401C64A22F82B
:1046F0003100C44890F83C0104EBC401C24A02EB0B
:10470000C1014880BF4890F8440104EBC40102EBAA
:10471000C1018880BB4890F83E0104EBC40102EB64
:10472000C101C880B74890F8480104EBC40102EB0E
:10473000C1010881B34890F8360104EBC40102EBD3
:10474000C1014881AF4890F84A0104EBC40102EB73
:10475000C1018881AB4890F8460104EBC40102EB2B
:10476000C101C881A74890F84C0104EBC40102EBD9
:10477000C1010882A34890F8401190F83F0101EB75
:10478000002004EBC40100E0C3E002EBC101488259
:104790009C4890F8501190F84F0101EB00209B4984
:1047A0004881984890F8521190F8510101EB00208F
:1047B00004EBC40102EBC101C88404EB440090493E
:1047C00001EB001090F82A0004EBC40102EBC101D8
:1047D000088304EB44008A4901EB001090F82B0099
:1047E00004EBC40102EBC101488304EB440084499B
:1047F00001EB001090F82C0004EBC40102EBC101A6
:10480000888304EB44007E4901EB0010C08D04EB6B
:10481000C40102EBC101088404EB4400784901EBB8
:104820000010007A04EBC40102EBC1014884022CA1
:104830000BD104EBC400114601EBC000007A7449AF
:104840004870704890F84E01C8706E4991F8322156
:1048500091F8311102EB012008F088FE804600211A
:10486000404608F0AFFF0AD26A49404608F09CFD76
:1048700004EBC401644A02EBC101086306E00020B6
:1048800004EBC401604A02EBC10108635D4991F881
:10489000422191F8411102EB012008F067FE8046A9
:1048A0000021404608F08EFF0AD25A49404608F0DF
:1048B0007BFD04EBC401544A02EBC101486306E0EE
:1048C000002004EBC401504A02EBC10148634D498A
:1048D00091F83A2191F8391102EB012008F046FED7
:1048E000804604EBC400484901EBC000C0F8448096
:1048F000444991F8382191F8371102EB012008F072
:1049000035FE804604EBC4003F4901EBC000C0F80F
:104910004080062F70D13B4890F82F1190F82E015F
:1049200001EB002085B2374890F8311190F8300142
:1049300001EB002086B2642D1FD1002004EB44015E
:104940002F4A02EB01114873012E01D0022E05D12E
:10495000022004EBC4012C4A22F831002EB90120B8
:1049600004EBC401284A22F83100032E05D10320AC
:1049700004EBC401244A22F831006B2D06D100203B
:1049800004EB44011E4A02EB0111C8736F2D06D1DE
:10499000002004EB44011A4A02EB01114876702D05
:1049A00006D1002004EB4401154A02EB01114874C2
:1049B000712D06D1002004EB4401114A02EB0111D4
:1049C000C874722D06D1002004EB44010C4A02EB9E
:1049D00001114875732D06D1002004EB4401084AEB
:1049E00002EB0111C875752D06D1002004EB4401BE
:1049F000034A02EB0111C8760020BDE8F0870000F1
:104A0000A81A00200C070020A0130020880F002007
:104A1000E01200200000C84210B50024A048D0F8E1
:104A2000C00020B19E48D0F8C00001282DD19D487B
:104A30000078012802D0022822D117E09848D0F847
:104A4000BC0068B19848407C78B1FDF7F5FD0020C6
:104A50009549487493480078401C9249087004E0D6
:104A600090480078401C8F4908700DE08E48407CCB
:104A700028B100208C49487401208A49087003E05D
:104A800001208849087000BF00BF8548D0F8C000E9
:104A9000022804D08248D0F8C00003287ED1814883
:104AA000007807287BD2DFE800F0F3048691AAC0E3
:104AB000E90001217D4880F831100021818680F8CD
:104AC0003610794890F8810018B90121774880F8AC
:104AD0003210754890F881107548A0F84A10734854
:104AE00090F83D00B0B10021704880F83D1090F87A
:104AF0003E0028B96F480078022801D107F076FD02
:104B00006A4890F83E00012804D16A48007808B944
:104B100007F07CFF6748007818B901206449A1F8C4
:104B2000480064480078022802D16149A1F8480091
:104B30005D4890F8810018B103205D49A1F8480054
:104B40005B48B0F848005C49A1F86A000846B0F834
:104B50006E105748A0F86A105748B0F86C105448C7
:104B6000A0F86C10544881885148A0F84C10524865
:104B7000818F4F48A0F862104F48B0F856104C484B
:104B8000A0F86E104C484169494881674A488169DC
:104B90004748C167444890F85A0001E07DE077E05B
:104BA00028B940480078401C3E49087002E00420C3
:104BB0003C49087070E03B480078FEF73BF920B1B3
:104BC00038480078401C3749087065E0354800785F
:104BD000FEF730F990B13248D0F8BC0028B1314826
:104BE0000078401C2F49087008E001202D4908700A
:104BF0002B48D0F8D00008B1052008704CE02848B8
:104C0000D0F8BC0068B12848407C68B1FDF714FDBD
:104C100000202549487423480078401C2149087029
:104C200002E001201F49087036E01F48407C20B395
:104C300000201D49487401201A4908701848D0F80E
:104C4000D000D0B10A201D4908700420487000200F
:104C50008870C87008710220487108211748FFF752
:104C6000E1FA0446201215498871CC7108221448D3
:104C700004F087FC06200B4908700DE00A48407CD0
:104C800028B100200849487401200649087003E053
:104C900001200449087000BF00BF002010BD0000C3
:104CA00074100020DA000020880F0020A81A0020CD
:104CB000A0130020260E0020181300200C0700204F
:104CC0000048004070B504460D46002601200C49FE
:104CD00008701020487020128870CC70281208715B
:104CE0004D7108210648FFF79DFA06463012044927
:104CF0008871CE710822034804F043FC002070BD87
:104D0000AE0400200044004010B504463248D0F8FC
:104D1000C00030B1012805D0022825D0032856D183
:104D200023E000BF012C04D12C48007808B907F01B
:104D30006DFE74B929480078022801D107F056FCAD
:104D400026480078032804D1002024490870FDF784
:104D5000EFFD032C07D12148007820B903201F491B
:104D60000870FDF7E5FD33E000BF012C02D1012002
:104D70001B490880BCB919480078022801D107F006
:104D800035FC0020164908800321164880F86D1074
:104D900080F86E4011480078032804D100200F49A4
:104DA0000870FDF7C5FD032C10D103200C490880C5
:104DB0000A48007820B9032008490870FDF7B8FDBB
:104DC0000321084880F86D1080F86E4000E000BFB5
:104DD00000BF002010BD000074100020260E00202F
:104DE000941A0020A81A002070B504460D4600262B
:104DF0000D4890F82C010C490870062048702012CC
:104E00008870CC70281208714D7108210648FFF790
:104E100009FA0646301204498871CE710822034807
:104E200004F0AFFB002070BD6A090020004C004078
:104E300070B504460D46002601200C49087010206C
:104E4000487020128870CC70281208714D710821AA
:104E50000648FFF7E7F90646301204498871CE711B
:104E60000822034804F08DFB002070BD6A09002071
:104E7000004C00402DE9F04104460D460026012774
:104E8000114890F82C01012802DD104890F84C7070
:104E90000D48077010200C49487020128870CC70A3
:104EA000281208714D7108210748FFF7BBF9064623
:104EB000301205498871CE710822054804F061FB63
:104EC0000020BDE8F0810000500200207410002096
:104ED000003801402DE9F04104460D460026012727
:104EE000114890F82C01012802DD104890F84C7010
:104EF0000D48077006200C49487020128870CC704D
:104F0000281208714D7108210748FFF78BF90646F2
:104F1000301205498871CE710822054804F031FB32
:104F20000020BDE8F0810000500200207410002035
:104F300000380140704710B54FF4A06000F03AF817
:104F400010BD000070B5002100230F22C47804B307
:104F5000154C246804F4E064C4F5E064210AC1F14E
:104F60000403CA40447804FA03F1847814402143CE
:104F700009010E4C0678A155047804F01F050124A0
:104F8000AC4005786D11AD0005F1E025C5F8004194
:104F900009E0047804F01F050124AC40044D0678B4
:104FA000761145F8264070BD0CED00E000E400E00D
:104FB00080E100E002490143024A116070470000AD
:104FC0000000FA050CED00E02DE9FF5F4FF0000B4B
:104FD00000200390804601260024824602904FF074
:104FE00001090025019000900027FE4890F82DB19E
:104FF00090F82F1190F82E0101EB002086B2F948AD
:1050000090F8311190F8300101EB002000F0FF081A
:10501000F44890F8311190F8300101EB002084B28F
:10502000F04890F82C01012802DDEF4890F84C90F0
:10503000BBF1030F03D0BBF1060F7DD185E1822EBA
:105040007BD004DC642E07D0782E77D1A1E0962E99
:1050500075D0A02EF9D146E1642E71D1B8F1120FAE
:10506000FBD1E04880F800900320DE4948702420FE
:1050700088700020C870DD480078087100204871F1
:10508000DB48007888710020C87108724872D948DE
:10509000807A8872D848C0880A2190FBF1F01FFA04
:1050A00080FA4FEA2A20CF49C87281F80CA0D14972
:1050B000886A08F03BFA87B23812CA4948738F737E
:1050C0000020C873CB488078087400204874C94811
:1050D000007988740020C874C648007A08750020DA
:1050E0004875C448807988750020C875C34890F811
:1050F0009A000876C149D1F8D00008F017FA87B2B3
:105100003812B84948768F76BC49D1F8D40008F0F7
:105110000DFA87B23812B349C8760F770020487766
:10512000B64890F8920088770020C877B34890F886
:10513000940081F8200004E022E268E002E1A4E0AB
:1051400026E0002081F82100AC4890F8980081F812
:105150002200002081F82300A84890F8960081F8EA
:105160002400002081F82500A44890F8900081F8E0
:10517000260029219B48FFF755F805462812994932
:1051800081F8270081F8285029229D4804F0F9F978
:10519000D9E0782E3AD1B8F1040F37D1914880F890
:1051A000009003208F494870082088709348806FD2
:1051B000944908600846C0788A49C8709148807848
:1051C00008719048407848718E48007888718B4803
:1051D000D0F8C0008B4908600846C0788149C87182
:1051E00088488078087287484078487285480078F7
:1051F00088720D217B48FFF715F80546281279497A
:10520000C8720D730D227E4804F0BBF99BE0822E1C
:105210003AD1B8F1040F37D1724880F800900320DA
:105220007049487008208870724880697549086024
:105230000846C0786B49C870724880780871714818
:10524000407848716F48007888716C48D0F8C40085
:105250006C4908600846C0786249C871694880781E
:1052600008726848407848726648007888720D2154
:105270005C48FEF7D7FF054628125A49C8720D73DD
:105280000D225F4804F07DF95DE0B8F1030F29D1EC
:10529000544880F8009003205249487006208870D6
:1052A00059480088000AC870574800780871564865
:1052B0008088000A487154480079887152480089F2
:1052C000000AC8715048007A08720B214548FEF761
:1052D000A9FF05462812434948728D720B2248489F
:1052E00004F04FF92FE0B8F1040F2AD13D4880F8BF
:1052F000009003203B494870082088700020C87047
:105300004248007E08714148408B001248713F4876
:10531000807E88710020C8713C48007F08720020A0
:1053200048723A48407F88720D212E48FEF77AFF76
:10533000054628122B49C8720D730D22304804F01F
:1053400020F900E000BF00BF1BE1982E49D00CDC23
:10535000712E6ED004DC642E10D06A2E6AD16BE000
:10536000962E68D0972EF9D1B9E0A02E7ED0A12E2E
:105370007DD0A22E7CD0A32EF0D1F1E0194890F878
:10538000311190F8300101EB00201FFA80FABAF1D8
:10539000000F16D11548008898B1002013490880E5
:1053A00013480078022801D107F020F9032118489A
:1053B00080F86D10002180F86E1021463046FFF70E
:1053C00089FDBAF1010F33D121463046FFF782FD46
:1053D0000A48B0F86A00E8B90848B0F8B200C8B99D
:1053E000CCE08DE05002002074100020941A0020C0
:1053F000260E0020181300200C190020A0130020F6
:10540000003801407C00002058100020880F002048
:10541000A81A00205C48B0F86A0018B95A48B0F8D9
:10542000B20028B15948008810B9012057490880B6
:10543000A4E027E0A1E043E0554890F8810018B9C6
:105440005148B0F89200E0B100214F48A0F8921006
:105450000321504880F86F10002180F87010002060
:105460004B4981F881004C49487102E055E05FE00A
:1054700069E04871464981F8990021463046FFF7B6
:1054800029FD7BE0424890F8810018B93E48B0F809
:105490009200A0B100213C48A0F8921003213D48A1
:1054A00080F86F10002180F870100020384981F8D2
:1054B00081003949487121463046FFF70BFD5DE018
:1054C00036484068A04209D9142C07DB33480460F1
:1054D00004F0FEFB21463046FFF7FCFC4EE030486E
:1054E000406DA0420BD92D480068A04207D22B483E
:1054F000446004F0EDFB21463046FFF7EBFC3DE055
:1055000026484068A04207D92448846004F0E0FBA4
:1055100021463046FFF7DEFC30E0012C07DC1C4959
:105520000C7604F0D5FB21463046FFF7D3FC25E08E
:10553000002C07DB1648448304F0CAFB21463046A2
:10554000FFF7C8FC1AE0002C09DB0C2C07DC104923
:105550000C7704F0BDFB21463046FFF7BBFC0DE0A5
:10556000002C09DB1E2C07DC09494C7704F0B0FB4A
:1055700021463046FFF7AEFC00E000BF00BF00E070
:1055800000BF00BFBDE8FF9FA0130020941A0020B9
:10559000880F0020A81A0020FC00002058100020CE
:1055A000741000202DE9F04F89B00020089007907A
:1055B00080460024814606904FF0010A059000269F
:1055C00000258346049000270390029000900190EC
:1055D000F74890F82D010890F54890F82F1190F8B1
:1055E0002E0101EB00201FFA80F9F14890F83111EB
:1055F00090F8300101EB002000F0FF08EC4890F833
:10560000311190F8300101EB002084B2E84890F8A5
:105610002C0101280DDDE74890F84CA0E44890F8F3
:105620002C01E449C96C884203D0002009B0BDE8D0
:10563000F08F0898032804D006287CD010287BD14E
:10564000E0E1B9F1640F09D0B9F1780F64D0B9F194
:10565000960F72D0B9F1A00F70D1C3E0B9F1640F09
:1056600059D1B8F10B0F56D1D14880F800A00320D2
:10567000CF494870162088700020C870CE48007846
:105680000871CE48008900124871CC48007A8871B0
:105690000020C871C948807A087200204872C84842
:1056A000807A88720020C872C448C0880A2190FBA2
:1056B000F1F0BF490873C348008C00124873C14819
:1056C00090F8200088730020C873BE4890F88100CD
:1056D000087400204874BC48807888740020C8741E
:1056E000B7480079087500204875B7484079887533
:1056F0000020C875B34890F88E0008761B21AC488E
:10570000FEF790FD06463012A94948768E761B2298
:10571000AE4803F036FFB3E0A849088907F03EFF22
:105720000590AB49059807F03FFEAA490860B9F11A
:10573000780F28D103E0A5E0A8E125E09FE0B8F1CB
:10574000020F20D19A4880F800A0032098494870A1
:10575000042088709F48C078C8709E48807808717F
:105760009C48407848719B4800788871092190488E
:10577000FEF758FD064630128D49C8710E72092297
:10578000924803F0FEFE7BE0B8F1030F29D1884870
:1057900080F800A0032086494870062088708E4853
:1057A0000088000AC8708C48007808718A48808890
:1057B000000A487188480079887187480089000A82
:1057C000C8718548007A08720B217948FEF72AFDD6
:1057D00006463012764948728E720B227B4803F0DF
:1057E000D0FE4DE0B8F1080F48D1714880F800A014
:1057F00003206F494870102088700020C8707148DD
:10580000007E08716F48408B001248716D48807EA1
:1058100088710020C8716B48007F087200204872B0
:105820006848407F88726D4A516B9069FBF77CFE37
:1058300007463D0C28125E49C8720D73BDB228128E
:1058400048738D73654A116B5069FBF76DFE07460F
:105850003D0C28125649C8730D74BDB22812487405
:105860008D7415215248FEF7DDFC06463012504972
:10587000C8740E751522554803F083FE00E000BF82
:1058800000BF04E1B9F1980F5FD00CDCB9F1640FEF
:1058900016D0B9F16A0F2AD0B9F1960F35D0B9F107
:1058A000970F75D140E0B9F1A00F5BD0B9F1A10F0E
:1058B00063D0B9F1A20F6DD0B9F1A30FF1D191E08E
:1058C0003D48007838B9022C05D107F09FF82146F1
:1058D0004846FFF7FFFA38480078022806D12CB96D
:1058E00006F084FE21464846FFF7F4FA88E00020DF
:1058F000344981F881003A494871324981F8990068
:1059000021464846FFF7E6FA7AE033484068A0426D
:1059100009D9142C07DB3048046004F0D9F921467A
:105920004846FFF7D7FA6BE02248406DA0420BD9FA
:1059300029480068A04207D22748446004F0C8F90B
:1059400021464846FFF7C6FA5AE023484068A0427D
:1059500007D92148846004F0BBF921464846FFF787
:10596000B9FA4DE0012C07DC16490C7604F0B0F9C9
:1059700021464846FFF7AEFA42E0002C07DB11480B
:10598000448304F0A5F921464846FFF7A3FA37E01F
:1059900035E0FFE7002C09DB0C2C07DC09490C770C
:1059A00004F096F921464846FFF794FA28E00000F3
:1059B0005002002074100020260E00200C19002038
:1059C00018130020880F00205C17002000380140C9
:1059D0000000C8427C000020581000208C120020DB
:1059E000FC000020002C09DB1E2C07DC29494C7729
:1059F00004F06EF921464846FFF76CFA00E000BF5C
:105A000000BF44E0244890F8311190F8300101EBD8
:105A1000002000F0FF08204890F8341190F833017E
:105A200001EB002085B21C4890F8361190F8350142
:105A300001EB00201FFA80FBB9F1A40F03D0B9F1EC
:105A4000A60F20D10FE0B8F1020F0BD10BEB0547E9
:105A50001248874206D31248874203D84146484637
:105A6000FFF708FA10E0B8F1020F0BD10BEB054776
:105A70000A48874206D30A48874203D84146484627
:105A8000FFF7F8F900E000BF00BF00E000BF00BF73
:105A90000020CBE5880F002050020020A0860100E6
:105AA0003F420F00084890F8A60018B100200649B0
:105AB00081F8A600044890F8A90018B10020024916
:105AC00081F8A90070470000880F002010B504205D
:105AD00000F020F84FF48030FCF762FB10BD0000AE
