:020000040800F2
:10000000C820002011020008795000088D25000842
:10001000914D0008491400087F8600080000000088
:10002000000000000000000000000000C76600089B
:10003000F51700080000000049570008956C0008FB
:100040002B020008655500082B020008C95C000857
:100050002B0200082B0200082B0200082B020008CC
:100060002B0200082B020008FD1900082B020008D3
:100070002B0200082B0200082B0200082B020008AC
:100080002B0200082B0200082B0200082B0200089C
:100090002B0200082B0200082B0200080F1A000890
:1000A0002B0200082B0200082B0200082B0200087C
:1000B000417500082B0200089D7600082B020008FD
:1000C0002B0200082B0200082B0200082B0200085C
:1000D0002B020008A1810008798200082183000812
:1000E0008D1900082B0200082B0200082B020008C3
:1000F0002B0200082B0200082B0200082B0200082C
:100100002B0200082B020008597D00082B02000872
:10011000F17F0008C98000082B0200082B020008AC
:100120002B0200082B0200082B0200082B020008FB
:1001300000F002F800F05CF80AA090E8000C82449D
:100140008344AAF10107DA4501D100F051F8AFF27A
:10015000090EBAE80F0013F0010F18BFFB1A43F0A5
:100160000103184734CD000054CD00000A444FF07D
:10017000000C10F8013B13F0070408BF10F8014B06
:100180001D1108BF10F8015B641E05D010F8016B4B
:10019000641E01F8016BF9D113F0080F1EBF10F8AF
:1001A000014BAD1C0C1B09D16D1E58BF01F801CBD2
:1001B000FAD505E014F8016B01F8016B6D1EF9D555
:1001C0009142D6D37047000000230024002500266A
:1001D000103A28BF78C1FBD8520728BF30C148BFAA
:1001E0000B607047002070471FB51FBD10B510BDD4
:1001F00000F0F2F91146FFF7F7FF0BF063FA00F099
:1002000010FA03B4FFF7F2FF03BC08F070FF000020
:100210000948804709480047FEE7FEE7FEE7FEE79A
:10022000FEE7FEE7FEE7FEE7FEE7FEE704480549D6
:10023000054A064B70470000A17100083101000813
:10024000C8160020C8200020C8180020C8180020A8
:10025000704700000FB4044910B503AA029800F0DB
:10026000A5F910BC5DF814FB380000202DE9F05F03
:10027000894604464FF0000ADFF874B1FB44C0F829
:1002800020A02046E1688847002874D0252806D0A1
:10029000D4E901219047206A401C2062F1E7002642
:1002A0005F462046E16888472028054607DB312D58
:1002B00005D2781910F8200C08B10643F1E7B00711
:1002C00001D526F00406C4F81CA00027C4F818A025
:1002D0002A2D09D0284608F003FF38B304EB87081D
:1002E000303DC8F8185019E059F8041B204604EBBB
:1002F00087029161E1688847012F054618D1E069BE
:10030000002820DA26F020061DE0D8F8180000EBBF
:10031000800005EB40003038C8F818002046E1683E
:100320008847054608F0DCFE0028EED1012F0AD0F0
:100330002E2D08D12046E16888477F1C0546022FF4
:1003400046F02006C4DBA069002803DA404246F0EC
:100350000106A061F00701D026F010066C2D0BD02D
:10036000682D09D04C2D39D06A2D35D0742D35D05B
:100370007A2D33D016E038E0E1682F4620468847D2
:10038000B842054609D16C2F26D04FF48060E16851
:10039000064320468847054604E06C2F1AD04FF4E8
:1003A000807006430DB3A5F14100192802D820350D
:1003B00046F400664A462946204626604E46FFF728
:1003C00011FF80B101280BD0F61D26F0070000F1C7
:1003D000080956E74020E4E78020D8E70020D6E768
:1003E00006F104094DE7284652E7206ABDE8F09F70
:1003F00026CB0000032A40F2308010F0030C00F0FE
:10040000158011F8013BBCF1020F624498BF11F84E
:1004100001CB00F8013B38BF11F8013BA2F1040207
:1004200098BF00F801CB38BF00F8013B11F003037F
:1004300000F02580083AC0F0088051F8043B083AE3
:1004400051F804CBA0E80810F5E7121D5CBF51F885
:10045000043B40F8043BAFF30080D20724BF11F8FF
:10046000013B11F801CB48BF11F8012B24BF00F864
:10047000013B00F801CB48BF00F8012B704710B5D5
:10048000203AC0F00B80B1E81850203AA0E818508C
:10049000B1E81850A0E81850BFF4F5AF5FEA027C4D
:1004A00024BFB1E81850A0E8185044BF18C918C0BC
:1004B000BDE810405FEA827C24BF51F8043B40F85D
:1004C000043B08BF7047D20728BF31F8023B48BF42
:1004D00011F8012B28BF20F8023B48BF00F8012B80
:1004E00070474FF000020429C0F0128010F0030C96
:1004F00000F01B80CCF1040CBCF1020F18BF00F817
:10050000012BA8BF20F8022BA1EB0C0100F00DB8C5
:100510005FEAC17C24BF00F8012B00F8012B48BF23
:1005200000F8012B70474FF0000200B513469446C7
:100530009646203922BFA0E80C50A0E80C50B1F13B
:100540002001BFF4F7AF090728BFA0E80C5048BF4F
:100550000CC05DF804EB890028BF40F8042B08BFED
:10056000704748BF20F8022B11F0804F18BF00F8E9
:10057000012B7047704770477047704701694A1CEC
:1005800002610878704700B58FB0CDE901310021D4
:10059000059105497944CDE9031011466846FFF7F6
:1005A00065FE0FB000BD0000E5FFFFFF074B70B513
:1005B0000D467B44FFF7E7FF0446284600F008F8A5
:1005C00010B14FF0FF3070BD204670BDF3900000B9
:1005D000007B00F080007047754600F02BF8AE46B7
:1005E00005006946534620F00700854618B020B53F
:1005F000FFF71CFEBDE820404FF000064FF000075B
:100600004FF000084FF0000B21F00701AC46ACE8BA
:10061000C009ACE8C009ACE8C009ACE8C0098D4627
:10062000704710B50446AFF300802046BDE8104087
:10063000FFF7E7BD004870476816002021B18268C7
:1006400042F00102826003E0826822F001028260CF
:10065000704721B1826842F48072826003E0826850
:1006600022F4807282607047014600208A6802F09E
:1006700004020AB1012000E000207047014600207A
:100680008A6802F008020AB1012000E000207047E9
:1006900030B502460020002350680F4C20400D79F1
:1006A0000C6844EA05242043506090680B4C2040BD
:1006B000D1E902542C434D7944EA4504204390602B
:1006C000D06A20F470000C7C641EE4B2234340EA3C
:1006D0000350D06230BD0000FFFEF0FFFDF7F1FFD8
:1006E0002DE9FE4F0024A346A14600200290824639
:1006F0004148007A00287BD000203F49087208F06A
:10070000ADFF00BF09E03D4951F824000CF04AFA62
:100710003B4921F81400601CC4B2042CF3DB4FF4F5
:100720000051384805F011F8002845D13248C088FA
:10073000401C3149C88000F00DFA824650460CF04A
:1007400031F84FF04042304BCDE900010BF0D2FEC2
:10075000074600222D4B0CF039F805460BF098FEA9
:1007600002904FF0834102980CF05AF901900CF07E
:100770002BF905460022264B0BF0BCFE07460BF07A
:1007800087FE0290234902980CF040FA05460CF0CF
:1007900009FA82461FFA8AF000F07EFB814648463D
:1007A00008F00CF91C49C8800846C088642803DD9D
:1007B0000846C0881938C880104948680CF0F2F91A
:1007C00085B2284601F0D8FD8346584605F03CF82E
:1007D00011490881094988680CF0E4F90649C88381
:1007E0000649C8680CF0DEF90349088405F0A4FF47
:1007F0000020BDE8FE8F0000781000209C13002030
:10080000FE00002000180140FFFF5F4100409F40B4
:100810000000E03F0000C8423C150020F0B504464F
:100820000D4600200021092D11DDE068A5F10A0622
:1008300006EB4607072606FA07F18843A5F10A06E4
:1008400006EB460603FA06F10843E0600CE0206977
:1008500005EB4507072606FA07F1884305EB450631
:1008600003FA06F108432061072A0FDA606B561E6F
:1008700006EB86071F2606FA07F18843561E06EB8D
:10088000860605FA06F10843606322E00D2A0FDAB6
:10089000206BD61F06EB86071F2606FA07F1884352
:1008A000D61F06EB860605FA06F10843206310E022
:1008B000E06AA2F10D0606EB86071F2606FA07F18D
:1008C0008843A2F10D0606EB860605FA06F10843F9
:1008D000E062F0BD816841F008018160704721B19C
:1008E000826842F4A002826003E0826822F4A002DF
:1008F00082607047816841F00401816070470000A8
:1009000008B50121042005F02BF80320ADF8000004
:1009100000208DF803006946084801F04BFC0121D6
:10092000102005F01DF800208DF803000320ADF81D
:1009300000006946024801F03DFC08BD0008014086
:100940000010014010B5FFF7DBFF00F001F810BD0B
:1009500000B591B00121084604F0D2FF0121480200
:1009600004F0FEFF3D4800F081FE3D4806903D4802
:10097000079000200890C820099000200A9080204D
:100980000B9040000C9080000D9020200E900002F3
:100990000F900020109006A9304800F00DFF0121B3
:1009A0002E4800F057FE0020019001208DF808002D
:1009B0008DF809004FF4602003900020049004207B
:1009C0008DF8140001A926484C38FFF761FE4FF45A
:1009D000004004F089FF07230122002120484C3801
:1009E000FFF71CFF0723022201211D484C38FFF7A7
:1009F00015FF072303220A2119484C38FFF70EFF81
:100A0000072304220B2116484C38FFF707FF01216A
:100A100013484C38FFF71DFE012111484C38FFF7F1
:100A20000DFE0F484C38FFF755FF00BF0C484C38FF
:100A3000FFF724FE0028F9D109484C38FFF75AFF88
:100A400000BF07484C38FFF70FFE0028F9D10121FD
:100A500003484C38FFF743FF11B000BD08000240C7
:100A60004C240140AC13002008B5682000906A4671
:100A70000121002000F094F8042000906A46012132
:100A8000084600F08DF8552000906A4601210220AA
:100A900000F086F8702000906A460121032000F0E3
:100AA0007FF808BD10B5044614B1012C0ED106E044
:100AB000074A918A1068012201F059FC06E0044AB5
:100AC000918A1068002201F052FC00BF00BF10BDE7
:100AD0004002002038B500240121402004F040FFEE
:100AE00000BF10E010208DF8030001208DF80200F7
:100AF000164830F81400ADF800006946144801F0BB
:100B000059FB601CC4B2032CECDB03240DE048202D
:100B10008DF803000D4830F81400ADF80000694668
:100B20000B4801F047FB601CC4B2052CEFDB074A01
:100B3000143A918A1068012201F019FC034A143A10
:100B4000D18A5068002201F012FC38BD5402002006
:100B50000018014010B50120FFF7A4FF102000F09D
:100B600019F800F013F8044600F010F840EA0424E5
:100B700000F00CF840EA042404F4000008B144F04A
:100B80007F440020FFF78EFF204610BD10B505F012
:100B90001BFD10BD10B50446204605F04DFD10BDEF
:100BA0002DE9F04106460C4615460120FFF77AFF75
:100BB0000C2101EA8601621E02F00302114341F09A
:100BC0004000FFF7E7FF002704E015F8040BFFF7EC
:100BD000E1FF7F1CA742F8DB0020FFF763FFBDE8C1
:100BE000F081000000B501F0EDFB14480079012808
:100BF0000DD11348407840F0200011494870114849
:100C000090F8570018B903200E4981F857000E4894
:100C1000C0880E49496B884203D91020094981F8E0
:100C20005700094801890948006D401E814203D3DD
:100C30000220044981F8570000BD0000F212002094
:100C4000160F0020781000203C15002034110020E1
:100C500010B58448807800287ED0834800780B281F
:100C60007BD2DFE800F006142E61C3F7F7F7F7F741
:100C7000B50000F0EFFD05F035FE01F0D3F84FF4BC
:100C80007A7008F0DBFC012077490870E5E005F098
:100C900029FE00F0DFFD01F0C5F87448007810B9B6
:100CA0000120734908707248007848B100207049EB
:100CB000087002206C4908706E49486808F0BEFC54
:100CC000CBE005F00FFE00F0C5FD01F0ABF86A487F
:100CD000C07818B90120694981F867006648C07872
:100CE000012803D10020654981F867005F4800783A
:100CF00010B901205E4908705D48007898B1002065
:100D00005B4908700320584908704FF47A7008F066
:100D100095FC0020594981F867005748007810B9C0
:100D2000052081F8570098E000F094FD05F0DAFD09
:100D300001F078F8514890F86400012803D10720A9
:100D40004E4981F857004948007810B901204849B8
:100D500008704748007801E080E07BE098B300200D
:100D6000434908703F488078032803D10A203E4950
:100D700008702CE04248008942498968884223D89B
:100D80000020384988704049C87108460021016038
:100D900041600020344908700220324908703B4904
:100DA000087001203A49087002203A49087005F09D
:100DB0006DFD1E2004F0E0FB4FF47A7008F03EFC5D
:100DC00001200AF043FC02E004202749087044E0B7
:100DD00005F088FD05F020FD01F0DAFB28B10420C4
:100DE0002149087001202849C87136E001202649B0
:100DF000C8710846C07948B300F02CFD05F072FDBB
:100E00001F4800891F498968884220D80020154959
:100E100088701D49C87108460021016041600020AA
:100E20001149087002200F49087018490870012004
:100E30001749087000201749087005F027FD4FF486
:100E40007A7008F0FBFB01200AF000FC01E005F0DD
:100E5000E3FC02E00AF000FF00BF02E000200249CC
:100E6000087010BD160F00208A00002049000020E5
:100E70004800002034110020F212002078100020D9
:100E80003C15002018110020700000208C0000206C
:100E90008D0000208E00002010B5044642F2A630DE
:100EA000844205DD42F21070844201DA002010BD58
:100EB00042F21070844207DB42F69600844203DA65
:100EC000204608F007FCF2E742F69600844207DB72
:100ED00042F61B20844203DA204608F088FDE6E74C
:100EE00042F61B20844207DB42F69F30844203DA3D
:100EF000204609F0B1FDDAE742F69F30844207DB75
:100F000042F62250844203DA204609F05EFECEE724
:100F100042F62250844207DB42F6A460844203DAA0
:100F2000204609F012FFC2E742F6A460844207DBC4
:100F300043F22400844203DA204609F0C6FFB6E7F4
:100F400043F22400844207DB43F2A410844203DA14
:100F500020460AF07AF8AAE743F2A410844207DB9D
:100F600043F22230844203DA20460AF02EF99EE74B
:100F700043F22230844207DB43F29F40844203DA8B
:100F800020460AF0E2F992E743F29F40844207DBF1
:100F900043F21B60844203DA20460AF096FA86E7A1
:100FA00043F21B60844207DB43F29570844203DA0C
:100FB000204608F05CFC7AE743F29570844207DB38
:100FC00043F60F10844203DA204608F0C5FD6EE7B1
:100FD00043F60F10844207DB43F68720844203DA8E
:100FE000204608F079FE62E743F68720844207DB5B
:100FF00043F6FE30844203DA204608F02DFF56E720
:1010000043F6FE30844207DB43F67550844203DA30
:10101000204608F0E1FF4AE743F67550844207DBBB
:1010200043F6E960844203DA204609F095F83EE78A
:1010300043F6E960844207DB44F25D00844203DA50
:10104000204609F049F932E744F25D00844207DBAB
:1010500044F2D010844203DA204609F0FDF926E775
:1010600044F2D010844207DB44F24130844203DA78
:10107000204609F0B1FA1AE744F24130844207DB16
:1010800044F2B240844203DA204609F065FB0EE7E1
:1010900044F2B240844207DB44F22160844203DA26
:1010A000204609F019FC02E742F20F70FFE600004B
:1010B000F0B500210022002500230024002600278F
:1010C0001E4807780020DFF878C08CF8530007B975
:1010D000F0BD1C48808A81B21A48008A82B2194841
:1010E000808985B21548001D008883B213480830F6
:1010F000008884B211480C30008886B2994206DD1F
:101100000120DFF83CC08CF853000020E0E7994252
:1011100011D1A24206DD0120DFF824C08CF8530073
:101120000020D5E7A24206D1B54204DB0120DFF85A
:1011300010C08CF853000020CAE7000014B8010862
:1011400078100020540000200C4890F8570078B127
:101150000A4890F87A0078B10020084981F87A00AE
:10116000084690F8430038B104200549086003E0C0
:1011700004200349091D08600020704778100020F2
:101180001014014010B5002401F01CF946484079C4
:10119000012807D1454890F8570018B9092043495C
:1011A00081F857004048007901280DD14048407827
:1011B00040F020003E4948703C4890F8570018B96C
:1011C00003203A4981F857003748007800B90124D4
:1011D00024B10120354981F8290005E00020334978
:1011E00081F8290081F82800304890F828000A2862
:1011F0000EDB2F48807840F020002D4988700120B8
:101200002C49C8710020294981F8290081F828005B
:10121000264890F86400D0B905F064FB234890F8A4
:101220004A00401C214981F84A00084690F84A00CB
:10123000032803DB0C2081F8570008E01C48807865
:1012400040F020001A49887001201A49C8711748D7
:1012500090F84A0048B11548B0F84C00B0F5E16F7D
:1012600003DB0020114981F84A001348C088134964
:10127000496B884207D90D4890F8570018B91020DB
:101280000A4981F857000C4801890C48006D401E3E
:10129000814207D3054890F8570018B90220034946
:1012A00081F8570010BD0000F212002078100020D5
:1012B000160F0020700000203C1500203411002083
:1012C000024908800121014A11717047F000002095
:1012D00010B5002400BF264890F88A0020B10128EC
:1012E00015D0022839D127E005F0D0FA002004F00B
:1012F00043F904F0E1F942F6E06008F09FF90120BB
:101300001B4981F88A00002081F84A002CE0194826
:10131000007810B90120184908701748007850B1BA
:10132000002015490870124981F86200022081F8F6
:101330008A0000F077FD17E0104801891048006D21
:10134000401E814203D30220094981F85700002042
:10135000074981F88A00012406E00020044981F849
:101360008A000AF079FC00BF00BF204610BD0000D3
:101370007810002049000020480000203C15002083
:101380003411002010B52E4890F82C014C2822D1A1
:101390002B4890F82D014F281DD1294890F82E0197
:1013A000432818D1264890F82F014B2813D1244800
:1013B00090F8300139280ED1214890F831013928B0
:1013C00009D12048C06830B901201E49C86007F023
:1013D000BBFD03F073FC1A4890F82C0155282DD161
:1013E000174890F82D014E2828D1154890F82E0165
:1013F0004C2823D1124890F82F014F281ED11048B5
:1014000090F83001432819D10D4890F831014B284C
:1014100014D10B4890F8320139280FD1084890F8C0
:10142000330139280AD10748C068012806D10020B5
:101430000449C86007F088FD03F040FC002010BD9F
:10144000400300201811002000BFFEE74D4800684F
:101450004D490860084600684C49884205D84A480A
:10146000006847F23051884203D247F23050464973
:1014700008604448001D00684349486008464068C9
:101480004249884205D84048406847F23051884276
:1014900003D247F230503C4948603A481030006867
:1014A00039490861084600693C2803D808460069A4
:1014B0000F2802D21920344908613348406A642851
:1014C00003D83148406A1E2802D264202E4948625F
:1014D0002D48406A2C490969884203D22A4800698C
:1014E0002949486227482830006827498862084609
:1014F000806A012801D901208862224834300068BE
:10150000214948630846406BB0F5FA6F07D9084691
:10151000406BB0F5167F02D24FF44870486319480B
:1015200038300068184988630846806B012801D963
:10153000002088631648006816490860084600685D
:101540000A2805D3084600680F49096D884202D968
:101550003720104908600B48503000680A49086578
:101560000846006DA02801D95020086505483C3088
:1015700000680549C8630846C06B012801D90020EE
:10158000C863704700B8010834110020E0930400DC
:1015900000E001081811002004200C490860082010
:1015A000086002200860C0010949086080010749FD
:1015B000086040000860402006494861802048617A
:1015C0004000486140004861704700001414014029
:1015D000140801400010014010B500241B48006FA2
:1015E0001B49C979884204D01948C079174908674E
:1015F00001241648406F1649097A884204D01448DD
:10160000007A1249486701241048806F1049497ACE
:10161000884204D00E48407A0C49886701240B4860
:10162000C06F0B49897A884204D00948807A0749FB
:10163000C867012444B1002407F008FA01F058F902
:1016400007F052FE01F054F9002010BD34110020C3
:101650006213002021B1026842F00102026004E03E
:1016600002684FF6FE731A400260704701684FF639
:10167000FE72114001600021016041608160C16023
:101680004B49884208D14A490839496841F00F015D
:10169000474A083A51608AE045491431884208D1E6
:1016A00043490839496841F0F001414A083A51601C
:1016B0007DE03F492831884208D13D4908394968D1
:1016C00041F470613A4A083A516070E038493C315F
:1016D000884208D136490839496841F47041344A92
:1016E000083A516063E032495031884208D13049AC
:1016F0000839496841F470212D4A083A516056E092
:101700002B496431884208D129490839496841F494
:101710007001274A083A516049E0254978318842EA
:1017200008D123490839496841F07061204A083AD4
:1017300051603CE01F49884206D1011F096841F011
:101740000F01021F116032E01A491431884208D19A
:101750001849091F096841F0F001164A121F11606B
:1017600025E014492831884208D11249091F096827
:1017700041F470610F4A121F116018E00D493C31AD
:10178000884208D10B49091F096841F47041094A90
:10179000121F11600BE007495031884207D10549FB
:1017A000091F096841F47021024A121F1160704735
:1017B000080002400804024010B50022026847F603
:1017C000F0739A430C6A8B6823430C6923434C697A
:1017D00023438C692343CC6923434C6A23438C6A9B
:1017E00023431A430260CB6843600B6883604B68F5
:1017F000C36010BD70470146002005E0002001E0F5
:10180000421CD0B21428FBDB0A1EA1F1010399B2DD
:10181000F4D1704710B500240A4804780F2C00DA80
:101820000F243C2C00DD3C24204603F0A5FE064896
:101830000470007805490870034800780449C873AB
:10184000012010BD10B801084B0000204D00002001
:10185000160F002010B580200A4948610A48007818
:1018600030B1142005F0F8F90120084981F8720020
:101870000748C07800F0F7000549C8700020024909
:10188000087010BD001001408E1300207810002059
:10189000160F002010B580200D4908610D48007812
:1018A00058B9642005F0D8F90B480069401C0A4972
:1018B00008610120094981F872000948C07840F0A8
:1018C00008000749C87001200249087010BD0000D7
:1018D000001001408E130020181100207810002005
:1018E000160F002070B5002500241E241F4890F814
:1018F00048001F490870032048701E2088701B484C
:1019000090F84400C8701B48007888711A4890F815
:101910005700C8711948807B08721648407A48728F
:101920001448C07B88721648C0880A2190FBF1F0E9
:101930000F49C872104890F8640008731148407944
:1019400048731048807888732146094803F022FACA
:1019500005462912A01E064A1154601E155422463F
:101960000349094806F09CFE002070BD3411002098
:1019700070130020160F002078100020A40F002004
:101980003C1500208E130020004C004010B54FF491
:10199000806000F06BF818B14FF4806000F060F8E0
:1019A0004FF4006000F062F818B14FF4006000F0EE
:1019B00057F84FF4805000F059F818B14FF48050A8
:1019C00000F04EF84FF4005000F050F818B14FF40A
:1019D000005000F045F84FF4804000F047F818B18F
:1019E0004FF4804000F03CF84FF4004000F03EF827
:1019F00018B14FF4004000F033F810BD10B51020BE
:101A000000F034F810B1102000F02AF810BD10B525
:101A1000202000F02BF810B1202000F021F8402009
:101A200000F024F810B1402000F01AF8802000F0F7
:101A30001DF810B1802000F013F84FF4807000F012
:101A400015F818B14FF4807000F00AF84FF40070E8
:101A500000F00CF818B14FF4007000F001F810BD60
:101A6000014908607047000014040140014600204D
:101A70000022074B1B6803EA0102054B14331B6865
:101A80000B4013B10AB1012000E0002070470000B4
:101A90000004014010B5294890F8570078B927484C
:101AA00090F86D0018B10120244981F872000020DF
:101AB000224981F8570081F86D00214948711F487B
:101AC000B0F85E00B0F5E16F05DB00201D4908703D
:101AD0001A49A1F85E00194890F86D0050BB1748EC
:101AE00090F8570028B30AF0B7F80120134981F89D
:101AF0006D0081F8430012494871032009F0A6FDEA
:101B00000E4890F857000F49097888420BD00B48CF
:101B100090F857000B49087002F02AFD07F0EEF824
:101B2000642005F099F800200449A1F85E0003F054
:101B3000C5F802E0032009F089FD10BD78100020EF
:101B4000F00000209D00002030B5044604254FF42D
:101B5000302000F001F90546042D17D10C4800692A
:101B600040F002000A49086108464461006940F0FB
:101B7000400008614FF4302000F0EEF805460448BC
:101B8000006941F6FD71084001490861284630BDF1
:101B90000020024004200B49C96801F0010109B18D
:101BA00001200EE00749C96801F0040109B10220D3
:101BB00007E00449C96801F0100109B1032000E001
:101BC000042070470020024000200449C96901F048
:101BD000020109B1012000E000207047002002400E
:101BE0000348006940F08000014908617047000027
:101BF000002002400549096821F01001034A1160E4
:101C0000114609680143116070470000002002403E
:101C100078B506460C46042500200090E80200F046
:101C20009BF80546042D24D11348006940F00100BB
:101C3000114908613480E80200F08EF80546042D51
:101C400010D1B01C0090200C00990880E80200F030
:101C500083F805460848006941F6FE7108400649C8
:101C6000086106E00448006941F6FE710840024937
:101C70000861284678BD00000020024030B50546C6
:101C800004244FF4302000F067F80446042C41D1BE
:101C9000214822498860224888600846006940F04F
:101CA000200008610846006940F0400008614FF4D8
:101CB000302000F051F80446042C22D11748006966
:101CC00041F6DF710840154908610846006940F097
:101CD000100008611DB100201249088002E0A52013
:101CE000104908804FF4302000F036F80446052CE7
:101CF00010D00A48006941F6EF71084007490861B1
:101D000008E0052C06D00548006941F6DF7108405F
:101D100002490861204630BD23016745002002408A
:101D2000AB89EFCD00F8FF1F01460020034A106881
:101D300000F03800084310607047000000200240A7
:101D400002480349486003484860704723016745DB
:101D500000200240AB89EFCD00B502460423FFF717
:101D600019FF034603E0FFF715FF0346521E012B40
:101D700001D1002AF7D102B90523184600BD0000A1
:101D80000020234991F84410A1B30021204A82F891
:101D9000441020490978052902D100211D4A1170FB
:101DA0001B4991F88C101C4A1A4B1B7822F813100F
:101DB0001146098852881144174A92881144164ADC
:101DC000D2881144144A128988180521B0FBF1F019
:101DD00010490978491C0F4A1170C0EB00118900A5
:101DE0000E4A1278B1FBF2F1094AA2F88E100021D6
:101DF00082F88C100649B1F88E100912084A82F850
:101E00004710034991F88E1082F84810704700007F
:101E100078100020A100002058130020A20000200C
:101E2000A40F002010B50A48C07800F0FD00084952
:101E3000C870642003F0A0FB6420064908700846BF
:101E4000007805490870034800780149C87310BD3F
:101E5000160F00204B0000204D00002010B5104848
:101E6000407930B10A2004F0F7FE01200D4981F8D5
:101E700072004FF480400C49086000200949087343
:101E8000074948710948C07800F0BF000749C87089
:101E900000200749C874024840790875002010BD29
:101EA0008E1300207810002014140140160F00201B
:101EB000A40F00202648B0F89400022801DC00207E
:101EC00070472448007803281BD14FF480402249F2
:101ED00008602248407930B900201D4981F87F0010
:101EE000012081F872000020194981F86800012062
:101EF0001A4948711748C07840F040001549C87029
:101F00001EE0134890F87F00D0B14FF48040124992
:101F100008601248407930B900200D4981F87F00EF
:101F2000012081F872000020094981F86800012031
:101F30000A4948710748C07840F040000549C87018
:101F400000200749C8740548407908750020B7E7A4
:101F500078100020160F0020101401408E1300206E
:101F6000A40F002010B564200549C87303F004FBDA
:101F7000642004490870084600780349087010BDC1
:101F8000160F00204B0000204D00002010B500204F
:101F90000549C87303F0F0FA0020044908700846A8
:101FA00000780349087010BD160F00204B00002078
:101FB0004D00002010B5FFF707FE012806D0FFF7FF
:101FC000BFFE0120FFF75AFEFFF70AFE10BD00001A
:101FD00070B50826002400253348407F08B900204A
:101FE00070BD002030494877012088730846007B87
:101FF000642805DC0846007B00EB8000450000E01B
:1020000000252A480078401C2849087008460078B6
:10201000052805DD0020264908702449087002E0E3
:102020000120234908702248007810B1012833D1DB
:1020300018E02048067003201E4948700020887070
:10204000C87008710120487108211A4802F0A2FEE8
:102050000446201217498871CC710822164806F0F0
:102060001FFB1DE01348067006201249487000202F
:1020700088700120C870281208714D7108210D4820
:1020800002F088FE044620120A498871CC710822A9
:10209000094806F005FB03E000200549087000BF71
:1020A00000BF00209CE7000078100020D400002032
:1020B000D3000020FC070020004800402DE9F04735
:1020C0000025002600240027A046A1463548C07BF5
:1020D0000A2803DB1320334981F85700324890F86F
:1020E0005D0200285AD000202F4981F85D020022AD
:1020F00040F225512D4806F028FA2B4890F8590255
:10210000401E2B490A5C284890F85902801E085C42
:1021100002EB002085B2244890F82C6190F82D71D4
:1021200090F82E81082E2AD190F85912204802F0FA
:1021300031FEA84223D100201A498873C873032FA7
:102140001DD1B8F1020F1AD1174890F8301190F84C
:102150002F0101EB00201FFA80F9B9F1EA0F03D13A
:1021600001201049487302E000200E4948730D48D1
:10217000407B012803D112200A4981F8570000242E
:1021800004E000210A480155601CC4B2642CF8DB4D
:10219000012240F22551054806F0D7F90020BDE89C
:1021A000F087000078100020FC0700200048004065
:1021B000280900202DE9F0410246002500260020D4
:1021C00000230024002791F803C00CF00F0591F8BC
:1021D00003C00CF0100CBCF1000F03D091F802C04A
:1021E0004CEA050591F800C0BCF1000F31D014682D
:1021F00000202BE04FF0010C0CFA00F3B1F800C006
:102200000CEA03069E4220D183004FF00F0C0CFA1B
:1022100003F7BC4305FA03FC4CEA040491F803C03D
:10222000BCF1280F06D14FF0010C0CFA00FCC2F8EB
:1022300014C00AE091F803C0BCF1480F05D14FF07B
:10224000010C0CFA00FCC2F810C0401C0828D1D3C5
:102250001460B1F800C0BCF1FF0F34DD54680020F9
:102260002EE000F1080C4FF0010808FA0CF3B1F869
:1022700000C00CEA03069E4221D183004FF00F0CF0
:102280000CFA03F7BC4305FA03FC4CEA040491F88A
:1022900003C0BCF1280F05D100F1080C08FA0CF8B6
:1022A000C2F8148091F803C0BCF1480F07D100F1C7
:1022B000080C4FF0010808FA0CF8C2F81080401C16
:1022C0000828CED35460BDE8F0810000F0B50A467E
:1022D000002300240021002500F00046B6F1004F45
:1022E00002D11D4EF16901E01B4E7168C0F3034538
:1022F00083B200F44016B6F5401F08D121F070619A
:10230000154E766826F07066134F7E6012E000F47A
:102310008016B6F5801F06D1032606FA05F4A14300
:1023200041F0706106E0460D360103FA06F6B1434E
:1023300041F0706122B1460D360103FA06F63143D1
:1023400000F00046B6F1004F02D1034EF16101E00A
:10235000014E7160F0BD0000000001400246002007
:1023600093680B400BB1012000E0002070470AB1D8
:10237000016100E041617047014600BF40F6E4435F
:1023800001FB03F2D31702EB1353C3F30F300C4AD4
:102390009080B0F5BE7F04DD40F22F22904200DA3B
:1023A000501CA0F22F2202EB820252008C2392FBDF
:1023B000F3F290B2B0F5004F01DD40F2E730704724
:1023C000781000200820002100BF544A9278012A8A
:1023D00006D1524A527812B1504A127802B90121FC
:1023E0004E4A5278012A03D14C4A127802B901218F
:1023F00099B14B4A92F8642032B10122484B83F8DC
:10240000672083F82B2003E00022454B83F86720E8
:102410000122434B83F8272007E00022404B83F83A
:102420002B2083F8272083F826203D4A92F82A2083
:102430000C2A07DB00223A4B83F8672083F82B2015
:1024400083F82A20374A127802B90520344A92F8D4
:10245000642052B1334A1278022A06D12F4A1278E8
:102460000AB10F2002E00C2000E00F202C4A92F865
:10247000262082420DDB2A4A92F857201AB90822F8
:10248000274B83F857200022254B83F8272083F819
:102490002620224AD279C2B9214A92F825201AB9B7
:1024A00000221F4B83F8242001221D4B83F8252096
:1024B0001A4692F82420012A0DDD1A4692F8572078
:1024C0004AB90F2283F8572005E00022144B83F805
:1024D000252083F82420114A9279C2B9104A92F833
:1024E00023201AB900220E4B83F8222001220C4B24
:1024F00083F823201A4692F82220012A0DDD1A467D
:1025000092F857204AB9012283F8572005E00022AB
:10251000034B83F8232083F822207047F212002017
:1025200078100020160F002070B5044603F038FA2A
:102530004FF4803003F0F6FA03F052FB0546012D0C
:1025400023D11020FFF756FB0220FFF7EDFB002000
:1025500003F0DCFAA80203F00BFB002003F014FBED
:102560002146280403F022FB012003F019FB00BFE1
:10257000392003F0A5FA0028FAD0022003F024FB4A
:1025800000BF03F0BBFA0828FBD170BD00BFFEE717
:1025900070B503240F2500268A48806B002876D06A
:1025A000894890F84200002872D0874890F86B0064
:1025B00009286ED2DFE800F005E92C4B81A0B9CCE8
:1025C000DF0003F079F88148008981490978884261
:1025D00011DD01207C4981F867004FF47A7105FB19
:1025E00001F007F02BF80220774981F86B000020FA
:1025F000784908700BE00020734981F8670042F2C7
:10260000107007F01BF804206F4981F86B00C4E0DC
:102610007148007810B90120704908706F4800783F
:10262000A0B100206D490870674981F8670003F088
:1026300067F868480078401C6649087043F2C82073
:1026400006F0FCFF0320604981F86B00A5E003F071
:1026500057F800205C4981F867005F48007810B99E
:1026600001205E4908705D48007828B300205B496E
:10267000087003F021F85A4806F0E0FF554800784A
:10268000A04207DA0220504981F86B0006E08DE095
:1026900084E07AE004204C4981F86B004B480089C3
:1026A0004B490978884207DA0420474981F86B00D2
:1026B00044F6206006F0C2FF6FE002F0FDFF00204C
:1026C00044490870404981F867004348007810B9D0
:1026D0000120424908704148007860B100203F491C
:1026E000087003F00DF847F2305006F0A7FF052000
:1026F000354981F86B0050E003F002F800203249C0
:1027000081F867003448007810B901203349087017
:102710003248007840B100203049087002F0CCFF08
:102720000620294981F86B0037E002F0C5FF2D48EB
:10273000407801280BD12B480078012807D10720C9
:10274000214981F86B0047F2305006F077FF24E012
:1027500002F0B2FF2048007810B901201F4908702C
:102760001E48007830B100201C4908700820164926
:1027700081F86B0011E002F09FFF0020124981F800
:10278000420081F86B00012607E000200E4981F825
:10279000420081F86B00012600BF10E000200A49CA
:1027A00081F86B00012602F087FF08E002F084FF49
:1027B00001260020044981F8670081F86B0030464B
:1027C00070BD000034110020781000203C1500205E
:1027D000A3000020A40000204900002048000020A1
:1027E00080380100F212002010B52F4890F85700F1
:1027F00078B92D4890F86D0018B101202A4981F868
:1028000072000020284981F8570081F86D0027499F
:1028100048712548B0F85E00B0F5E16F05DB002097
:10282000234908702049A1F85E001F4890F86D0008
:10283000002837D11C4890F8570098B31A4890F8F0
:102840005700FF282ED000201A4908701A48007837
:10285000022801D109F000FA032008F0F7FE012058
:1028600012494871104981F86D0081F8430081F8E0
:102870007200084690F857000D49097888420BD03D
:10288000094890F857000A49087001F071FE06F0F7
:1028900035FA642004F0E0F900200349A1F85E0055
:1028A00002F00CFA10BD000078100020F0000020AB
:1028B0009E0000208C000020160F002070B50546F9
:1028C0000C4645F2555000F02BF8284600F01CF855
:1028D000204600F01FF800F00FF800F001F870BD7E
:1028E0004CF6CC40014908607047000000300040C1
:1028F00010B500F001F810BD4AF6AA2001490860A1
:1029000070470000003000400149486070470000F7
:1029100000300040014988607047000000300040EE
:1029200001490860704700000030004000B51448BD
:1029300090F8570008B1002000BD1248C088124925
:10294000496B884207D90E4890F8570018B91020F3
:102950000B4981F85700FFF735FD0C48007860B946
:10296000074890F86400012807D1054890F85700FF
:1029700018B90720024981F857000020DCE7000061
:10298000781000203C150020341100209000002019
:1029900000B5FFF717FD07480079012809D106485F
:1029A000407840F02000044948700320034981F832
:1029B000570000BDF2120020160F002078100020F2
:1029C00010B50121084602F0CBFF01210148FFF7B5
:1029D0007DFC10BD0002300008B510208DF803000A
:1029E00003208DF802000121202002F0B9FF102001
:1029F000ADF800008DF8030003208DF80200694651
:102A00004148FFF7D7FB0121402002F0A9FF042035
:102A1000ADF8000010208DF8030003208DF80200AF
:102A200069463A48FFF7C6FB0121402002F098FFB3
:102A30000820ADF8000010208DF8030003208DF869
:102A4000020069463148FFF7B5FB0121102002F072
:102A500087FF3020ADF8000048208DF8030069465C
:102A60002B48FFF7A7FB0121042002F079FFC020CB
:102A7000ADF8000048208DF8030069462548FFF7AF
:102A800099FB0121202002F06BFFE020ADF800004F
:102A900048208DF8030069461B48FFF78BFB012196
:102AA000092002F05DFF01211B48FFF70FFC012107
:102AB000082002F055FF4FF47E70ADF8000048206A
:102AC0008DF8030069461548FFF774FB012140208B
:102AD00002F046FF0320ADF8000048208DF8030007
:102AE00069460A48FFF766FB0121402002F038FFE3
:102AF0000120ADF8000004208DF803006946074866
:102B0000FFF758FB08BD0000001401400018014009
:102B1000001001400008014000023000000C01409C
:102B200010B503F079FE0120064981F872000648CD
:102B3000407800F07F00044948700020014981F886
:102B40006E0010BD78100020160F002010B503F0A5
:102B50009DFE01200E4981F86E000E48407840F03D
:102B600080000C4948700120094981F87200FFF784
:102B700059F9074890F8700020B10749486806F0F5
:102B80005DFD03E043F6982006F058FD10BD0000FF
:102B900078100020160F0020341100202DE9F04F8E
:102BA00093B04FF0000800201290119010908146D1
:102BB00000250F90002600240E900D9082460027DD
:102BC0000C90049083460190FE4890F85D02002826
:102BD00001F0FC820020FB4981F85D02002240F2F6
:102BE0002551F94805F0B1FCF64890F85902401E0D
:102BF000F6490A5CF34890F85902801E085C02EB23
:102C000000201FFA80FAEF4890F85902052818DDD5
:102C1000EC4890F85902401FC0B20C9000BF05E08C
:102C2000EA48F91C405C05A9C8557F1C0C988742EE
:102C3000F6D305A80C9901F0DDFA504501D1012029
:102C400004900498002801F0BC82DE4890F82C0122
:102C50005A2841F0B682DB4890F82D01A528F8D11A
:102C6000D84890F82E011290D64890F82F8190F80D
:102C7000311190F8300101EB00201FFA80F9B8F112
:102C8000810F7DD1A9F2023000287AD0A0F5E8505A
:102C90000E38002876D1CB4991F8321101F0F000BE
:102CA000C11700EB1171091101EB8102C54991F8BF
:102CB000321101F00F0101EB420101F5FA61C44A42
:102CC0005161C04991F8331101F0F000C11700EBD8
:102CD0001171091101EB8102BA4991F8331101F028
:102CE0000F0101EB4201BA4A1161B64991F8341162
:102CF00001F0F000C11700EB1171091101EB810225
:102D0000B04991F8341101F00F0101EB4201B04AD2
:102D1000D160AC4991F8361101F0F000C11700EB19
:102D20001171091101EB8102A64991F8361101F0E8
:102D30000F0101EB4201A64A9160A24991F83711B7
:102D400001F0F000C11700EB1171091101EB8102D4
:102D50009C4991F8371101F00F0101EB42019C4AA7
:102D60005160984991F8381101F0F000C11700EB5B
:102D70001171091101EB8102924991F8381102E0B9
:102D800030E00BE02DE001F00F0101EB4201904A31
:102D9000116000208F4981F8540022E0894890F8A2
:102DA000331190F8320101EB002085B2894890F888
:102DB0006500A8420AD0874890F86500002809DD20
:102DC000844991F8650008F041FC03E00020814946
:102DD00081F865006E2D03D100207E4981F85100F5
:102DE00000BF00BFB8F1830F41F0E08148F28001DD
:102DF000A9EB0100894571D05CDC47F2A001A9EB89
:102E0000010089456BD02DDC47F20901A9EB0100D7
:102E1000894570D017DCB9F5CA4F6DD00ADCB9F11D
:102E2000010F6AD0B9F5445F68D0B9F5A04F41F001
:102E3000BB81ADE0B9F5E04F61D0A9F5E0400338C2
:102E40000028F4D16DE137285AD006DC072858D085
:102E5000172857D02728EAD1ABE1572873D0672825
:102E6000E5D1DCE1B0F5786F6ED011DCB0F5766FAE
:102E70006BD006DC102869D0602868D08028D6D1B5
:102E800014E2A0F66370002877D00D28CFD161E35B
:102E9000B0F57B6F72D006DCB0F5796F6FD0B0F50E
:102EA0007A6FC4D1FEE3B0F57C6F69D0B0F57D6F69
:102EB000BDD1F8E340F68872811A90427CD02BDCB9
:102EC000B0F5786F79D010DC802877D008DC102836
:102ED00075D0202874D03028A9D1EEE3EEE3B0E11C
:102EE00090286ED0A028A2D1E9E3A0F6817007282F
:102EF00081F05A8107E026E14BE042E047E0FFE045
:102F000069E132E143E1DFE810F029064F098B0661
:102F1000B306E8060B073407FA2901F05B8017DCDB
:102F2000042900F0AC8707DC012900F0938702290F
:102F30007ED0032985D1F7E3F82900F0C487F92969
:102F400089D100F0FFBF58E144E3C1E18BE19CE18E
:102F5000B1F5847F01F0BA8006DCFB2901F06480C2
:102F6000FC298CD101F094B8A1F20911002901F0DB
:102F7000D18001298AD101F0FFB844E2D5E36FE3A3
:102F8000F4E30020134981F8510001F00EB9FCE789
:102F9000FBE700200F4981F854000A4890F83411EB
:102FA00090F8330101EB00200B490870054890F8B8
:102FB000381190F8370111E0FEE3FEE3FEE3FEE393
:102FC000FEE343E29E05002000440040CA060020C4
:102FD00054000020781000202402002001EB002083
:102FE000FE494870FE4890F83C1190F83B0101EB17
:102FF0000020FA498870FA4890F8401190F83F0193
:1030000001EB0020F549C870F54890F8441190F89C
:10301000430101EB0020F14908711721F148FDF748
:1030200060FAF1488078EF490871EF48807800E055
:10303000E3E3EA490978884201D001200F90EA4889
:103040004079E8490872E8484079E449497888427B
:1030500001D001200F90E448407AE2490873E24829
:10306000407ADE498978884201D001200F90DF48FC
:1030700090F84200DB490874DC4890F84200D749D8
:10308000C978884201D001200F90D748007AD549ED
:103090000875D548007AD1490979884201D00120C4
:1030A0000F900F9858B35A208DF80C00A5208DF87A
:1030B0000D0019208DF80E008220CA490870652085
:1030C0004870002088701721C64801F093F88246A6
:1030D0004FEA2A208DF808000AF0FF008DF8090059
:1030E000032203A9C24805F0DBFA1722BD49C048F4
:1030F00005F0D6FA022202A9BD4805F0D1FA44E74C
:10310000B74890F8341190F8330101EB002085B2F4
:10311000B5F5E04F04D103220021802003F026F909
:1031200033E7AF4890F8341190F8330101EB0020F9
:1031300085B247F20300854204D106220321802094
:1031400003F014F921E7A64890F8341190F8330100
:1031500001EB002085B247F20900854204D1082224
:103160001021812003F002F90FE79D4890F83411F7
:1031700090F8330101EB002085B247F21000854240
:1031800004D104221021802003F0F0F8FDE69448D9
:1031900090F8341190F8330101EB002085B247F22A
:1031A0002000854204D105222021802003F0DEF892
:1031B000EBE68B4890F8341190F8330101EB0020D6
:1031C00085B247F23000854204D1032230218020AD
:1031D00003F0CCF8D9E6824890F8341190F8330126
:1031E00001EB002085B247F24000854204D1032262
:1031F0004021802003F0BAF8C7E6794890F83411EE
:1032000090F8330101EB002085B247F2600085425F
:1032100004D104226021802003F0A8F8B5E67048AC
:1032200090F8341190F8330101EB002085B247F299
:103230007000854204D103227021802003F096F8AB
:10324000A3E6674890F8341190F8330101EB0020B1
:1032500085B247F2A000854204D10A22A021802035
:1032600003F084F891E65E4890F8341190F8330149
:1032700001EB002085B247F2B000854204D1022262
:10328000B021802003F072F87FE6554890F83411A1
:1032900090F8330101EB002085B2B5F5E24F04D17F
:1032A00002220021812003F061F86EE64C4890F87C
:1032B000341190F8330101EB002085B247F2201061
:1032C000854204D103222021812003F04FF85CE6DF
:1032D000434890F8341190F8330101EB002084B298
:1032E0003F4890F8361190F8350101EB002080B28C
:1032F0000E903B4890F8381190F8370101EB002010
:1033000080B20D903B48006DA04209D33948016D51
:103310000E98814204D33748016D0D98814203D243
:10332000092008F093F958E02D4890F8341190F8EE
:10333000330101EB002030490860294890F836112C
:1033400090F8350101EB00202B494860244890F8A3
:10335000381190F8370101EB0020274988600846B2
:1033600000680A2801D20A20086023480068214921
:10337000096D884203D91F48006D1F4908601E4827
:1033800040681D490968884204D81B4800680A3013
:1033900019494860184840681649096D884203D9A0
:1033A0001448006D14494860134880681249496800
:1033B000884202D90A20104988600F4880680A288C
:1033C00002D20A200C49886005F0BEFD0B48006857
:1033D00009490860042008F039F911E024020020AE
:1033E0009E050020C11500208E13002078100020BB
:1033F00000440040341100201811002000E00108B2
:1034000001F05CFCC1E5FD4890F8341190F83301FF
:1034100001EB0020FA494861F84890F8360108614C
:10342000F64890F83801C860F44890F83A0188608E
:10343000F24890F83C014860F04890F83E0108607E
:1034400005F058FE042008F001F99EE5EB4890F8DD
:10345000341190F8330101EB002084B21E2C07DBFD
:10346000B4F5967F04DC4FF47A706043E549086058
:10347000E24890F8361190F8350101EB002084B253
:103480001E2C07DBB4F5967F04DC4FF47A706043A2
:10349000DC494860D94890F8381190F8370101EBC1
:1034A000002084B20F2C03DB462C01DCD5480461DC
:1034B000D24890F83A1190F8390101EB002084B21B
:1034C0001E2C03DB642C01DCCE484462CB4890F810
:1034D0003C1190F83B0101EB002084B23C2C06DB50
:1034E000C82C04DC04EB84004000C6494863C34890
:1034F00090F83E1190F83D0101EB002084B2052CBC
:1035000004DB282C02DCBF48C0F88840BB4890F898
:10351000401190F83F0101EB002084B23C2C04DB09
:10352000FF2C02DCB748C0F8A040B44890F8421124
:1035300090F8410101EB002084B23C2C04DBFF2C0D
:1035400002DCB048C0F89C4005F080FA0B2008F07F
:103550007DF81AE5A94890F8341190F8330101EB91
:10356000002084B2012C01DCA6484461A34890F8F5
:10357000361190F8350101EB002084B240F2E4707E
:10358000844205DB40F60200844201DC9D488461F0
:103590009A4890F8381190F8370101EB002084B276
:1035A000012C03DB0C2C01DC9648C461934890F895
:1035B0003A1190F8390101EB002084B2012C03DBB1
:1035C0001E2C01DC8F48046205F040FA0B2008F045
:1035D0003DF8DAE4894890F8341190F8330101EBB2
:1035E000002084B2012C01DC86488463834890F873
:1035F000361190F8350101EB002084B2012C03DB79
:10360000172C01DC7F4884657C4890F8381190F8CD
:10361000370101EB002084B2012C01DC7948C4653C
:10362000764890F83A1190F8390101EB002084B205
:10363000012C03DB172C01DC724804666F4890F8FC
:103640003C1190F83B0101EB002084B2012C01DC1D
:103650006C48446605F0FAF90B2007F0F7FF94E494
:10366000664890F8341190F8330101EB002084B2E1
:10367000642C01DC63488464604890F8361190F84B
:10368000350101EB002084B2012C01DC5D4844656A
:103690005A4890F8381190F8370101EB002084B2B5
:1036A000012C01E00CE0B3E001DC5648446405F075
:1036B000CDF90B2007F0CAFF67E4C3E1D5E0FFE1D5
:1036C0004E4890F8341190F8330101EB002084B299
:1036D000012C01DC4B488462484890F8361190F880
:1036E000350101EB002084B2B4F57A7F05DB42F2AC
:1036F0000F70844201DC4348C462404890F838119E
:1037000090F8370101EB002084B2B4F57A7F05DB35
:1037100041F27070844201DC3A48046305F096F986
:103720000B2007F093FF30E451E2344890F8341155
:1037300090F8330101EB002084B2304890F8361144
:1037400090F8350101EB002080B20E900E9800EB4E
:1037500004472D48874202D10B2007F077FF2B4802
:10376000874202D10D2007F071FF0EE4FFE72348E6
:1037700090F8341190F8330101EB002084B23C2C16
:1037800003DB642C01DC1F4804671C4890F83611E9
:1037900090F8350101EB002084B21E2C03DB462C8F
:1037A00001DC18484467154890F8381190F8370143
:1037B00001EB002084B204E027E3B0E162E1CCE059
:1037C00016E11E2C04DBB4F5167F01DC0D4884677E
:1037D0000A4890F83A1190F8390101EB002084B2C0
:1037E0001E2C04DBB4F5167F01DC0648C46705F027
:1037F0002DF90B2007F02AFF81E4CAE19E05002085
:10380000540000203411002093E20B00B9100F0087
:10381000F84890F8341190F8330101EB002084B29D
:10382000012C02DCF448C0F88040F24890F83611D0
:1038300090F8350101EB002084B2012C02DCEE4847
:10384000C0F88440EB4890F8381190F8370101EB4C
:10385000002084B2012C02DCE748C0F8984005F053
:10386000F5F80B2007F0F2FE49E4E24890F8360143
:10387000E2490870DF4890F835014870DD4890F85B
:1038800034018870DB4890F83301C8700846D0F8DE
:1038900000B0D84890F838010870D64890F8370141
:1038A000487000208870C870084600680190D448AD
:1038B00090F84710D34850F8210088B3D04890F8CA
:1038C0004700D049383951F8200058452DD1CC480F
:1038D00090F84710CB481C3850F8211001988142CD
:1038E00023D10020C64981F84800C749C875C4489B
:1038F00090F848000876C24890F84700C04981F81F
:1039000046000020C0494876BD4890F846008876B9
:10391000BB4890F8570020B1032007F097FE0BE05A
:1039200007E0012007F092FE06E0252007F08EFE5A
:1039300002E0222007F08AFEB14890F847000628EE
:103940000AD1B248834507D143F2375101988842E2
:1039500002D10D2007F07AFE06E4A64890F8330164
:10396000FF2803D1042007F071FE40E0A14890F841
:103970003601A24908709F4890F8350148709D486B
:1039800090F8340188709B4890F83301C87008465D
:10399000D0F800B0974890F838010870954890F832
:1039A0003701487000208870C87008460068019090
:1039B000934890F84610934850F82100A0B19048E1
:1039C00090F846008F49383941F820B08C4991F879
:1039D00046208C491C39019841F8220005F0E4FA90
:1039E000232007F033FE02E0222007F02FFEDCE365
:1039F00001261FE0701E082101EB80018448455C10
:103A0000012D02DC7F4840F82650701E0A2101EB90
:103A100080017F48455C012D0AD17E4879493839BB
:103A200041F8260043F2385176481C3840F82610F9
:103A3000701CC6B2052EDDDD05F0B6FA1A2007F0BF
:103A400005FEB2E36B4890F8341190F8330101EBB6
:103A5000002085B2012D02DC6748C0F8B8506548E7
:103A600090F8361190F8350101EB002085B2642DF5
:103A700002DA6148C0F8B45004F0E8FF0E2007F005
:103A8000E5FD92E35B4890F8341190F8330101EBC7
:103A9000002084B2012C02DC5748C0F8AC405548E5
:103AA00090F8361190F8350101EB002084B25248AD
:103AB000C0F8A44004F0CAFF0B2007F0C7FD74E370
:103AC0004C4890F8341190F8330101EB002084B297
:103AD000012C02DC4848C0F8BC40464890F836113A
:103AE00090F8350101EB002084B2012C04DB642C3A
:103AF00002DC4148C0F8C0403E4890F8381190F8C8
:103B0000370101EB002084B2642C02DC3A48C0F893
:103B1000C44004F09BFF0E2007F098FD45E33548B4
:103B200090F8341190F8330101EB002085B234484D
:103B300090F84600012800DA37E3B5F5104F0CD1B4
:103B40003548007810B90A2007F080FD3248007827
:103B5000022802D1242007F079FD26E3254890F8B9
:103B6000341190F8330101EB002085B2244890F81D
:103B70004600012800DA18E349F20100854207D126
:103B80002548007820B908F071FA3220FDF798FB3B
:103B90000BE3184890F8341190F8330101EB002042
:103BA00085B2174890F84600012800DAFDE249F294
:103BB0000A0085420AD118480078022806D108F088
:103BC0004BF83220FDF77CFB01F018F8EDE20948D4
:103BD00090F8341190F8330101EB002085B249F2DE
:103BE0000B00854205D10020054981F843000B49AF
:103BF0004871DAE29E050020341100207800002090
:103C0000781000203C130020A40F00203433323100
:103C1000CA06002032373431160F0020F000002091
:103C2000F84890F8341190F8330101EB002085B288
:103C300049F2030085421AD1F3480078042802D1E2
:103C40000020F1490870012007F000FD0020EF4935
:103C500081F85700EE494871EC4981F86D004886BB
:103C600081F8300081F83800488701F027F89CE29D
:103C7000E44890F8341190F8330101EB002085B24C
:103C8000E24890F8570000B18FE2E04890F8460013
:103C9000012800DA89E249F2040085421CD1DA48A1
:103CA0000078C8B9D94890F84200A8B902F0B4FD2C
:103CB00002F018FEFDF7CEFDFEF7D0F802F004FD8D
:103CC00001F0FAFC04F0FCFC0320CF49087000F07E
:103CD00095FF052007F0BAFC67E2CA4890F8341156
:103CE00090F8330101EB002085B249F205008542CE
:103CF00015D102F091FD02F0F5FDFDF7ABFDFEF7E9
:103D0000ADF801F0D9FC04F0DBFC02F0DDFC002092
:103D1000BD49087000F072FF012007F097FC44E2F3
:103D20000320B9490870BB48807870B902F0AEFD35
:103D3000FEF718F9642300220921902007F042FFC2
:103D4000FEF7D6FD00F05AFF2FE2B2488078012836
:103D50000ED102F061FDFEF719F900231A46092180
:103D6000902007F02FFFFEF7C3FD00F047FF1CE295
:103D70001BE2A44890F8341190F8330101EB0020C5
:103D800085B249F2070085423ED103209E49087062
:103D9000A0484079E8B900209F49C87401200875FF
:103DA00000F02CFF02F0A6FCFEF7A2FD4FF42F70EE
:103DB00002F052FFFEF79CFD03209449A1F8940005
:103DC000FEF778F8322091490873012081F87100DC
:103DD000EBE190484079012816D1FEF73FF800F05A
:103DE0000DFFFEF785FD4FF4967002F035FFFEF7EC
:103DF0007FFD03208549A1F8960002F065FC0020B4
:103E0000824981F87100D0E1CFE17E4890F8341109
:103E100090F8330101EB002085B203207A49087045
:103E200049F20800854214D17A48C07830B901F0CF
:103E300067FCFEF75DFD00F0E1FEB6E17548C07875
:103E4000012806D101F038FCFEF752FD00F0D6FE45
:103E5000ABE1AAE16B4890F8341190F8330101EB23
:103E6000002085B2642D07DC0A2D05DB69488078C7
:103E700010B1E8B201F080FB00F0C0FE95E16148AE
:103E800090F8341190F8330101EB002085B249F22B
:103E90000C00854216D1002609E006EBC6005F49FA
:103EA00008440021016041600172701CC6B2072EF7
:103EB000F3DDFEF71DFD04F021FF00F0BBF9072044
:103EC00007F0C4FB71E14F4890F8341190F83301CA
:103ED00001EB002085B24D4890F84600042800DA36
:103EE00063E1B5F5114F2CD14D480088C0F3072090
:103EF00011904B480078109000218020DDE91032AD
:103F000007F060FE46488088C0F3072011904448BF
:103F10000079109001218020DDE9103207F052FE77
:103F20003F480089C0F3072011903D48007A109067
:103F300002218020DDE9103207F044FE082007F05E
:103F400085FB32E137484069642805DA3548808AC4
:103F500000F5FA6084B202E03248808A84B220120E
:103F60001190E0B2109003218020DDE9103207F0BB
:103F700029FE2C48007C1090002204218020109BF8
:103F800007F020FE2748007B1090002205218020AA
:103F9000109B07F017FE2348007A1090002206219C
:103FA0008020109B07F00EFE1E4800791090002222
:103FB00007218020109B07F005FE1A48007810901A
:103FC000002208218020109B07F0FCFD062007F04E
:103FD0003DFBEAE00B4890F8341190F8330101EB17
:103FE000002085B249F2021085420AD1074890F8B4
:103FF000570018B1032007F029FB02E0012007F069
:1040000025FBD2E09E050020160F0020781000202E
:10401000F00000208E130020A40F00206212002068
:1040200018110020540000206D4890F8341190F8C9
:10403000330101EB002085B26A4890F84600012860
:1040400000DAB2E041F20100854204D1042007F019
:10405000FDFA05F049F949F20310854217D1FF2313
:104060001A469021802007F0ADFD5E4890F846008A
:10407000062802DA1F2007F0E9FA5A4890F84600AD
:10408000062802D11A2007F0E1FA05F02DF98CE09C
:10409000534890F8341190F8330101EB002085B2B9
:1040A000504890F84600062800DA7EE049F20410F5
:1040B000854204D10B2007F0C9FA05F015F949F241
:1040C0000510854201D105F00FF96EE0454890F8E2
:1040D0004600444981F84700084690F8470010B967
:1040E000012081F847003F4890F8473000221146F0
:1040F000622007F067FD0A2002F0AEFD394890F813
:10410000473000221146622007F05CFD1C2007F0BA
:104110009DFA4AE0334890F84600002824DD3148F3
:1041200090F8480020B901202E4981F848001BE092
:104130002C4890F846002B4981F847001C2007F0D6
:1041400085FA284890F8473000221146622007F08F
:1041500039FD0A2002F080FD224890F84730002205
:104160001146622007F02EFD00201F49C8751D482A
:1041700090F84800087618E0194890F8341190F843
:10418000330101EB002085B2062D02DC154981F8D0
:104190004750FEF7ADFB134890F847300022114618
:1041A000622007F00FFD00E000BF00BFB8F1820FF2
:1041B00007D144F64B70814503D10020094981F8AD
:1041C00054004FF496710948FCF78BF9012240F234
:1041D0002551074804F0B9F913B0BDE8F08F00008D
:1041E0009E05002078100020A40F0020CA060020A1
:1041F00000440040F0B502460B464FF6FF71002424
:1042000011E017787940002508E001F00106491017
:1042100016B14AF2010779406F1CBDB2082DF4DBDC
:10422000521C671CBCB29C42EBDB0F063F0C47EAFA
:104230001120F0BD7CB5CBA00068019000260025C0
:10424000002401F0D3FE1E2002F006FD0724822088
:1042500004EBC401C44A5054662004EBC401114469
:104260004870152004EBC40111448870032201A991
:10427000BE4804F015FA04EBC401BB4A88180921B2
:1042800007F0DCFC04EBC401B74A88180921FFF7EA
:10429000B1FF054628128DF80000E8B28DF8010044
:1042A00002226946B14804F0FBF91E2002F0D4FC5A
:1042B0000624822004EBC401AB4A5054662004EB70
:1042C000C40111444870122004EBC40111448870E9
:1042D000032201A9A54804F0E3F904EBC401A24AB2
:1042E0008818092107F0AAFC04EBC4019E4A88182B
:1042F0000921FFF77FFF054628128DF80000E8B27C
:104300008DF8010002226946984804F0C9F91E2080
:1043100002F0A2FC822004EBC401934A50546620B0
:1043200004EBC401114448700F2004EBC401114494
:104330008870032201A98D4804F0B2F904EBC4018E
:10434000894A8818092107F079FC04EBC401864AE0
:1043500088180921FFF74EFF054628128DF8000046
:10436000E8B28DF8010002226946804804F098F90D
:104370001E2002F071FC0424822004EBC4017A4A5E
:104380005054662004EBC401114448700C2004EB27
:10439000C40111448870032201A9744804F080F913
:1043A00004EBC401704A8818092107F047FC04EBAC
:1043B000C4016D4A88180921FFF71CFF0546281221
:1043C0008DF80000E8B28DF80100022269466748C6
:1043D00004F066F91E2002F03FFC0324822004EB67
:1043E000C401614A5054662004EBC4011144487072
:1043F000092004EBC40111448870032201A95B4821
:1044000004F04EF904EBC401574A8818092107F05B
:1044100015FC04EBC401544A88180921FFF7EAFE91
:10442000054628128DF80000E8B28DF8010002223E
:1044300069464E4804F034F91E2002F00DFC0224B7
:10444000822004EBC401484A5054662004EBC401A6
:1044500011444870062004EBC40111448870032203
:1044600001A9424804F01CF904EBC4013E4A881833
:10447000092107F0E3FB04EBC4013B4A881809213A
:10448000FFF7B8FE054628128DF80000E8B28DF857
:10449000010002226946354804F002F91E2002F0AC
:1044A000DBFB0124822004EBC4012F4A5054662018
:1044B00004EBC40111444870032004EBC40111440F
:1044C0008870032201A9294804F0EAF804EBC4012A
:1044D000254A8818092107F0B1FB04EBC401224AE0
:1044E00088180921FFF786FE054628128DF800007E
:1044F000E8B28DF80100022269461C4804F0D0F8A9
:104500001E2002F0A9FB0024822004EBC401164AFD
:104510005054662004EBC40111444870002004EBA1
:10452000C4011144887004EBC40188180921FFF705
:1045300061FE054628128DF80000E8B28DF80100F2
:10454000032201A9094804F0ABF804EBC401064AB0
:104550008818092107F072FB02226946034804F01B
:104560009FF87CBD5AA50B00621200200044004059
:104570007CB5FEA0006801900026002500241E20C6
:1045800002F06AFBFA48A0F109010A6802604A6871
:104590004260097A01720724822004EBC401F44AC4
:1045A0003F3A5054662004EBC40111444870152072
:1045B00004EBC40111448870032201A9ED4804F002
:1045C0006FF804EBC401EA4A3F3A8818092107F062
:1045D00035FB04EBC401E64A3F3A88180921FFF78E
:1045E00009FE054628128DF80000E8B28DF801009A
:1045F00002226946DF4804F053F81E2002F02CFB2B
:10460000DB480938A0F109010A6802604A68426083
:10461000097A01720624822004EBC401D44A3F3A8D
:104620005054662004EBC40111444870122004EB7E
:10463000C40111448870032201A9CE4804F030F867
:1046400004EBC401CA4A3F3A8818092107F0F6FA78
:1046500004EBC401C64A3F3A88180921FFF7CAFD96
:10466000054628128DF80000E8B28DF801000222FC
:104670006946C04804F014F81E2002F0EDFABC4868
:104680001238A0F12D014A6A02608A6A426091F8EC
:104690002C1001720524822004EBC401B44A3F3A75
:1046A0005054662004EBC401114448700F2004EB01
:1046B000C40111448870032201A9AE4803F0F0FF41
:1046C00004EBC401AA4A3F3A8818092107F0B6FA58
:1046D00004EBC401A64A3F3A88180921FFF78AFD76
:1046E000054628128DF80000E8B28DF8010002227C
:1046F0006946A04803F0D4FF1E2002F0ADFA9C49A1
:104700003F3901F11B0002684A6242688A62007AFE
:1047100081F82C000424822004EBC401944A3F3A1F
:104720005054662004EBC401114448700C2004EB83
:10473000C40111448870032201A98E4803F0B0FF20
:1047400004EBC4018A4A3F3A8818092107F076FA37
:1047500004EBC401864A3F3A88180921FFF74AFD55
:10476000054628128DF80000E8B28DF801000222FB
:104770006946804803F094FF1E2002F06DFA7C48E1
:104780002438A0F109010A6802604A684260097A87
:1047900001720324822004EBC401754A3F3A50544D
:1047A000662004EBC40111444870092004EBC401E5
:1047B00011448870032201A96E4803F071FF04EBD5
:1047C000C4016B4A3F3A8818092107F037FA04EB15
:1047D000C401674A3F3A88180921FFF70BFD0546D7
:1047E00028128DF80000E8B28DF801000222694617
:1047F000604803F055FF1E2002F02EFA5C482D3869
:10480000A0F109010A6802604A684260097A0172EF
:104810000224822004EBC401554A3F3A50546620DA
:1048200004EBC40111444870062004EBC401114498
:104830008870032201A94F4803F032FF04EBC40142
:104840004B4A3F3A8818092107F0F8F904EBC401F4
:10485000474A3F3A88180921FFF7CCFC0546281241
:104860008DF80000E8B28DF8010002226946414847
:1048700003F016FF1E2002F0EFF93D483638A0F194
:1048800009010A6802604A684260097A01720124DB
:10489000822004EBC401364A3F3A5054662004EBB0
:1048A000C40111444870032004EBC4011144887012
:1048B000032201A92F4803F0F3FE04EBC4012C4AA4
:1048C0003F3A8818092107F0B9F904EBC401284AD6
:1048D0003F3A88180921FFF78DFC054628128DF80C
:1048E0000000E8B28DF8010002226946214803F079
:1048F000D7FE21480069FF2190FBF1F201FB120075
:104900000A2190FBF1F201FB12011B480069FF2212
:1049100090FBF2F302FB13000A2290FBF2F001EB92
:10492000001013493F39C8701348C068FF2190FB3D
:10493000F1F201FB12000A2190FBF1F201FB1201DE
:104940000D48C068FF2290FBF2F302FB13000A221D
:1049500090FBF2F001EB001005493F390871064861
:104960008068FF2190FBF1F208E000005AA50B00DF
:10497000A1120020004400405400002001FB12005E
:104980000A2190FBF1F201FB120130488068FF22FE
:1049900090FBF2F302FB13000A2290FBF2F001EB12
:1049A00000102B49487129484068FF2190FBF1F223
:1049B00001FB12000A2190FBF1F201FB12012348D6
:1049C0004068FF2290FBF2F302FB13000A2290FBE7
:1049D000F2F001EB00101E4988710020C8711E2002
:1049E00002F03AF91B4890F8570019490872002460
:1049F000822004EBC401164A5054662004EBC40123
:104A000011444870002004EBC4011144887004EB89
:104A1000C40188180921FFF7EDFB054628128DF81F
:104A20000000E8B28DF80100032201A90A4803F052
:104A300037FE04EBC401064A8818092107F0FEF886
:104A400002226946044803F02BFE7CBD540000207E
:104A50006212002078100020004400407FB500253D
:104A600000260024142002F0F7F85A208DF80C00DC
:104A7000A5208DF80D000A208DF80E0084208DF8F9
:104A8000040007208DF805001948C0880612184850
:104A900084798DF806608DF8074000890612144865
:104AA000047A8DF808608DF809401248C47B002014
:104AB0008DF80A008DF80B40082101A8FFF79AFB3A
:104AC000054628128DF80000E8B28DF80100032297
:104AD00003A9094803F0E4FD082201A9064803F0F0
:104AE000DFFD02226946044803F0DAFD7FBD0000C5
:104AF0003C150020160F0020004400404FF40070C9
:104B00000249486100200249887270470010014044
:104B10008E13002070B500BF00BF00262B48D0F8D0
:104B2000C000C0EB001084002848D0F8C40000EB9F
:104B300080004FF6FF7101EA40052448D0F8BC0020
:104B400008B9002070BD2248007802280DD1214804
:104B500090F8640048B11F48007C30B11D4840699E
:104B6000401C1C494861002008741A484069A04252
:104B700006D3002017494861886101201649087052
:104B800015480078D0B113488069A84212D2134862
:104B9000407960B100F024F80E48007F98B1002001
:104BA0000C49087708468069401C88610BE0FFF7D4
:104BB000A5FF08E000200849087004E0002005492E
:104BC0008861FFF79BFF0020BCE700003411002044
:104BD000160F002078100020AF0000208E13002058
:104BE0004FF40070034908610120034988720020D6
:104BF00070470000001001408E1300207CB5002596
:104C000000245A208DF80400A5208DF805006520A9
:104C10008DF806008220234908706120487000202A
:104C200088704871887120480078022801D10120DD
:104C3000887100201B4948721B48C07B8872002085
:104C4000C8731A4890F857000874002081F82300B0
:104C5000174890F8500081F8240016480088001288
:104C600081F861001348007881F8620063210D48E3
:104C7000FFF7C0FA044620128DF80000E0B28DF86C
:104C80000100032201A90C4803F00AFD6322054933
:104C9000094803F005FD02226946074803F000FDBC
:104CA0007CBD0000A40F0020160F0020781000200B
:104CB00034110020A4CD00080044004010B50024A9
:104CC0002D4800782D49887323212D48FBF709FCD6
:104CD00000202B490870032048701E208870FD209A
:104CE000C877DF2081F8200024480078C870254864
:104CF00090F8570008712148407848710020887169
:104D00001E48C078C87100200872487288721E4818
:104D1000C0880012C8721C48807908731A4800893C
:104D2000001248731848007A8873174840890012A7
:104D3000C8731548807A08741048C07B48740E48C0
:104D4000007888750C480079C8750B48007A087699
:104D50000E4890F8540048770748007B8877232155
:104D6000074800F017F804462012054981F8210091
:104D700081F8224010BD000018110020160F0020FD
:104D80009E150020781000203C15002034110020D2
:104D900000BFFEE7F0B502460B464FF6FF71002458
:104DA00011E017787940002508E001F0010649106C
:104DB00016B14AF2010779406F1CBDB2082DF4DB31
:104DC000521C671CBCB29F1EA742EADC0F063F0CB8
:104DD00047EA1120F0BD000070B5002400252A220A
:104DE0001E491F48FBF706FB1E4890F85D0200288D
:104DF00032D000201B4981F85D02002240F225518B
:104E0000194803F0A2FB174890F85902401E1749B1
:104E10000A5C144890F85902801E085C02EB0020DE
:104E200085B2104890F859121048FFF7B3FFA84216
:104E300001D100F06BF9FCF7A5FA002404E0002191
:104E40000A480155601CC4B2642CF8DB012240F210
:104E50002551054803F079FB70BD0000160F0020B6
:104E6000400F002040030020003801406C04002067
:104E700070B5002400252A222B492C48FBF7BAFAEA
:104E80002B4890F85D0200284DD00020284981F879
:104E90005D02002240F22551264803F056FB2448CB
:104EA00090F85902401E24490A5C214890F85902A2
:104EB000801E085C02EB002085B21D4890F82C0192
:104EC0001E49896C88421FD1194890F859121A4816
:104ED000FFF760FFA84217D1154890F82C01174939
:104EE000896C884201D100F08FFF1448406C58B1A2
:104EF000002405E01048005D11490855601CC4B24B
:104F00000E2CF7DB01F06CFA002404E000210A48C3
:104F10000155601CC4B2642CF8DB012240F225511B
:104F2000044803F012FB70BD160F0020400F002054
:104F30005A0A0020004C0040860B0020341100204B
:104F40006213002070B50021552228231E24142549
:104F5000424890F87020006F404E766AB04203D805
:104F60003E4890F8702002E03C4890F824203B48EE
:104F7000406F3A4E3669B04203D3384890F87430E7
:104F800001E03648037C354890F8784090F87C5032
:104F90003348C17B0078022838D1324890F8640049
:104FA00000282AD0914203DD01202F4E307004E00A
:104FB00000202D4E3070707030712B484078A04228
:104FC00005DD0020284E307070700120307199424C
:104FD00003DA0120244EB07004E00020224EB070AD
:104FE000F070B0712048C078A84213DD00201E4E3A
:104FF000B070F0700120B0710CE01948807848B1B1
:105000000020194E30710120B07103E00020164ECF
:105010003071B07115480068154E3689B0420DD90F
:1050200012480068124E3689801B042803D90020DC
:105030000D4EB07102E000200B4E30710A4800792D
:10504000074EB07408488079F07407480079094E1B
:105050003071054880797071002070BD34110020D6
:10506000160F002078100020C40000201811002026
:105070003C15002070130020704710B54FF4A0605D
:1050800000F03AF810BD000070B5002100230F2297
:10509000C47804B3154C246804F4E064C4F5E064F7
:1050A000210AC1F10403CA40447804FA03F1847868
:1050B0001440214309010E4C0678A155047804F0F0
:1050C0001F050124AC4005786D11AD0005F1E02508
:1050D000C5F8004109E0047804F01F050124AC4044
:1050E000044D0678761145F8264070BD0CED00E0C1
:1050F00000E400E080E100E002490143024A11605F
:10510000704700000000FA050CED00E02DE9FF5F9C
:105110004FF00009CB4600270025A8460020039049
:10512000012682460024029001900090EC4890F8FD
:105130002D9190F82F1190F82E0101EB00201FFA0D
:1051400080F8E74890F8311190F8300101EB002029
:10515000C7B23D46B9F1030F03D0B9F1060F7DD1B7
:10516000C7E0B8F1640F06D0B8F1780F5ED0B8F19F
:10517000960F74D18EE0B8F1640F56D10B2F54D135
:10518000D74806700320D649487016208870002042
:10519000C870D44800780871D3480089001248715B
:1051A000D148007A88710020C871CF48807A08728F
:1051B00000204872CD48807B88720020C872CA489F
:1051C000C0880A2190FBF1F0C5490873C84840889F
:1051D00000124873C648807888730020C873C4489A
:1051E00090F85700087400204874C248807888748A
:1051F0000020C874BB48C07B087500204875BD48B6
:10520000407988750020C875B94890F86400087620
:105210001B21B348FFF7BEFD04462012B049487673
:105220008C761B22B44803F03BFA60E0AE49088953
:1052300007F0D8FC8246B149504607F0F1FBB0496F
:105240000860B8F1780F24D1022F22D1A44806704B
:105250000320A34948700420887001E03BE145E049
:10526000A748C078C870A64880780871A4484078DC
:105270004871A3480078887109219948FFF78AFD91
:10528000044620129649C8710C7209229A4803F00C
:1052900007FA2CE0032F28D191480670032090498B
:1052A00048700620887097480088000AC8709548A2
:1052B0000078087193488088000A48719148007905
:1052C000887190480089000AC8718E48007A087277
:1052D0000B218348FFF75EFD044620128049487287
:1052E0008C720B22844803F0DBF900E000BF00BFA2
:1052F000F2E0B8F1960F73D006DCB8F1640F0AD073
:10530000B8F16A0F6AD144E0B8F1970F67D0B8F1ED
:10531000980FF7D1B6E073480078D8B9022D19D1AB
:1053200006F0A4FE6E48067003206D494870022006
:1053300088700020C8700220087107216848FFF7B4
:1053400029FD04462012664948718C7107226A487B
:1053500003F0A6F963480078022819D1C5B906F010
:105360007BFC5F48067003205D494870022088700E
:105370000020C870087107215948FFF70BFD04464B
:105380002012574948718C7107225B4803F088F955
:105390009FE0012006F05AF90020554981F8570096
:1053A00059494871524981F86D004D4806700320F3
:1053B0004B494870022088700020C870087107218E
:1053C0004748FFF7E7FC04462012454948718C71B5
:1053D0000722494803F064F97BE001E078E027E028
:1053E00048484068A84220D9142D1EDB4548056076
:1053F00003F0AAFD3A48067003203949487002209C
:10540000887040480088000AC8703E4800780871DB
:1054100007213348FFF7BEFC04462012304948718B
:105420008C710722344803F03BF903F05DFF50E034
:105430003648006DA84222D932480068A8421ED2E0
:105440003048456003F080FD25480670032024495C
:105450004870022088702B488088000AC87029484C
:105460000079087107211E48FFF794FC04462012BA
:105470001B4948718C7107221F4803F011F903F092
:1054800033FF26E01F484068A8421ED91D488560AA
:1054900003F05AFD1248067003201149487002209B
:1054A000887018480089000AC8701648007A087188
:1054B00007210B48FFF76EFC04462012084948718B
:1054C0008C7107220C4803F0EBF803F00DFF00E0AD
:1054D00000BF00BF00E000BF00BFBDE8FF9F0000AD
:1054E00040030020160F00203C150020A40F0020D0
:1054F000781000208E130020003801400000C842C0
:105500008000002018110020F0000020341100203D
:10551000114890F87800B0B100200F4981F8780068
:105520000E480078022805D10D48007A401C0C492D
:10553000087202E000200A4908720948007A00F067
:10554000010007490872044890F87B0018B1002058
:10555000014981F87B00704778100020160F002069
:105560008E13002010B5042000F01CF84FF480309A
:10557000FCF776FA10BD0000642800DD642040F2DC
:10558000F511052202FB1011034A11800349C8736B
:10559000034908707047000040040040160F0020C7
:1055A0004D00002001460020034A52680A400AB11B
:1055B000012000E0002070470070004010B5364820
:1055C000007802280ED1354890F84E003C280DDBBB
:1055D0000020324981F84E0031480069401C3049B2
:1055E000086103E000202D4981F84E002C48006935
:1055F0002C490988884203D92A480088284908612B
:105600002748006928490988884207D90020274986
:1056100081F83F00012081F8400005E00020234987
:1056200081F83F0081F840002148007818B9002037
:105630001A4981F849001A480069012810D91D4803
:10564000007868B901201A490870144890F8490098
:10565000142805DB002008701149086103F0DEFC06
:105660000020124981F841000D4800693C21B0FB3F
:10567000F1F00E4981F84200002081F8430008480B
:1056800000693C21B0FBF1F201FB1200074981F8EF
:105690004400002010BD0000160F002078100020EC
:1056A00028100020A8000020A6000020A40F002041
:1056B000AA000020F212002010B50D48C07810B1E9
:1056C0000A2001F0C9FA4FF480700A4948610020AD
:1056D0000749C8700848C07800F07F000649C870C4
:1056E0000020064948750248C078887510BD000042
:1056F0008E13002000100140160F0020A40F002080
:1057000010B50D48C07810B90A2001F0A5FA4FF481
:1057100080700A49086101200749C8700848C078AC
:1057200040F080000649C8700020064948750248CC
:10573000C078887510BD00008E1300200010014055
:10574000160F0020A40F0020704770B504460D46C8
:1057500029462046FCF702FE012800D170BD00203A
:10576000FCE700001CB5002433A103C9CDE900010A
:10577000334890F8630030B101281CD004282CD0A5
:10578000052850D147E001221146002000F0EEFD2F
:10579000C82001F061FAFDF701FA294890F851009C
:1057A00040B9472005F052FF0120254981F86300E8
:1057B00081F851003CE008226946224802F070FF5F
:1057C000C82001F049FAFDF7E9F904201C4981F8E5
:1057D0006300012081F851002AE00120184981F876
:1057E000650000F087FD0020154981F86500C8209C
:1057F00001F032FAFDF7D2F9114890F8510048B99A
:1058000001200F4981F85100052081F86300012033
:1058100005F01CFF0CE001240020094981F8630019
:1058200081F8510004E00020054981F8630000BFC1
:1058300000BF20461CBD00005AA50581201039E498
:10584000781000200044004030B5014600220023BB
:105850000020204C64688C4214D21F4C94F85940AC
:1058600034B901241C4D85F85940002485F85A406C
:10587000194C94F85A40062C01DB084629E0174CD5
:10588000208926E00024144D85F8594085F85A40B7
:10589000134C2478142C02DB0024114D2C70114C75
:1058A0000F4D2D7824F815100D4C2478641C0C4DE8
:1058B0002C70002306E00B4C34F813401444A2B2C1
:1058C0005C1CE3B2132BF6DD142492FBF4F4A2B2B9
:1058D000104630BD18110020781000203C15002023
:1058E000750100204A15002001460020034A506837
:1058F00020F4404008435060704700000010024010
:1059000029B1064A52690243044B5A6104E0034A32
:1059100052698243014B5A617047000000100240F7
:1059200029B1064AD2690243044BDA6104E0034A12
:10593000D2698243014BDA617047000000100240D7
:1059400029B1064A12690243044B1A6104E0034A72
:1059500012698243014B1A61704700000010024037
:1059600029B1064A92690243044B9A6104E0034A52
:1059700092698243014B9A61704700000010024017
:1059800029B1064AD2680243044BDA6004E0034AB4
:10599000D2688243014BDA60704700000010024079
:1059A0000F48006840F001000D4908600846406853
:1059B0000C4908400A494860084600680A490840FE
:1059C000074908600846006820F4802008600846FF
:1059D000406820F4FE0048604FF41F008860704764
:1059E000001002400000FFF8FFFFF6FE30B5002176
:1059F0000022002400232D4D6D6805F00C0121B11B
:105A0000042905D0082923D105E0294D056022E0AD
:105A1000274D05601FE0254D6D6805F47012234D7C
:105A20006D6805F48034022505EB92421CB9214DC6
:105A3000554305600BE01D4D6D6805F400351DB143
:105A40001C4D5543056002E0194D5543056002E0C9
:105A5000174D056000BF00BF144D6D6805F0F001E3
:105A60000909154D6B5C0568DD4045600F4D6D689B
:105A700005F4E061090A104D6B5C4568DD40856006
:105A80000A4D6D6805F46051C90A0B4D6B5C4568A1
:105A9000DD40C560054D6D6805F44041890B074D3B
:105AA0006B5CC568B5FBF3F5056130BD00100240C5
:105AB00000127A0000093D00B0000020C000002064
:105AC00010B501460022002300204A11012A02D10C
:105AD000094C236806E0022A02D1074C236A01E040
