:020000040800F2
:10000000A020002011020008D14C00086523000840
:10001000E949000839140008A78200080000000020
:100020000000000000000000000000001F63000846
:10003000E517000800000000A1530008ED68000863
:100040002B020008BD5100082B02000821590008AE
:100050002B0200082B0200082B0200082B020008CC
:100060002B0200082B020008ED1900082B020008E3
:100070002B0200082B0200082B0200082B020008AC
:100080002B0200082B0200082B0200082B0200089C
:100090002B0200082B0200082B020008FF190008A1
:1000A0002B0200082B0200082B0200082B0200087C
:1000B0008D7100082B020008E97200082B0200086D
:1000C0002B0200082B0200082B0200082B0200085C
:1000D0002B020008C97D0008A17E0008497F0008A6
:1000E0007D1900082B0200082B0200082B020008D3
:1000F0002B0200082B0200082B0200082B0200082C
:100100002B0200082B020008817900082B0200084E
:10011000197C0008F17C00082B0200082B02000863
:100120002B0200082B0200082B0200082B020008FB
:1001300000F002F800F05CF80AA090E8000C82449D
:100140008344AAF10107DA4501D100F051F8AFF27A
:10015000090EBAE80F0013F0010F18BFFB1A43F0A5
:1001600001031847C0C60000E0C600000A444FF073
:10017000000C10F8013B13F0070408BF10F8014B06
:100180001D1108BF10F8015B641E05D010F8016B4B
:10019000641E01F8016BF9D113F0080F1EBF10F8AF
:1001A000014BAD1C0C1B09D16D1E58BF01F801CBD2
:1001B000FAD505E014F8016B01F8016B6D1EF9D555
:1001C0009142D6D37047000000230024002500266A
:1001D000103A28BF78C1FBD8520728BF30C148BFAA
:1001E0000B607047002070471FB51FBD10B510BDD4
:1001F00000F0F2F91146FFF7F7FF0AF053FF00F0A5
:1002000010FA03B4FFF7F2FF03BC08F07EFC000015
:100210000948804709480047FEE7FEE7FEE7FEE79A
:10022000FEE7FEE7FEE7FEE7FEE7FEE704480549D6
:10023000054A064B70470000FD6D000831010008BB
:10024000A0160020A0200020A0180020A018002048
:10025000704700000FB4044910B503AA029800F0DB
:10026000A5F910BC5DF814FB380000202DE9F05F03
:10027000894604464FF0000ADFF874B1FB44C0F829
:1002800020A02046E1688847002874D0252806D0A1
:10029000D4E901219047206A401C2062F1E7002642
:1002A0005F462046E16888472028054607DB312D58
:1002B00005D2781910F8200C08B10643F1E7B00711
:1002C00001D526F00406C4F81CA00027C4F818A025
:1002D0002A2D09D0284608F011FC38B304EB870812
:1002E000303DC8F8185019E059F8041B204604EBBB
:1002F00087029161E1688847012F054618D1E069BE
:10030000002820DA26F020061DE0D8F8180000EBBF
:10031000800005EB40003038C8F818002046E1683E
:100320008847054608F0EAFB0028EED1012F0AD0E5
:100330002E2D08D12046E16888477F1C0546022FF4
:1003400046F02006C4DBA069002803DA404246F0EC
:100350000106A061F00701D026F010066C2D0BD02D
:10036000682D09D04C2D39D06A2D35D0742D35D05B
:100370007A2D33D016E038E0E1682F4620468847D2
:10038000B842054609D16C2F26D04FF48060E16851
:10039000064320468847054604E06C2F1AD04FF4E8
:1003A000807006430DB3A5F14100192802D820350D
:1003B00046F400664A462946204626604E46FFF728
:1003C00011FF80B101280BD0F61D26F0070000F1C7
:1003D000080956E74020E4E78020D8E70020D6E768
:1003E00006F104094DE7284652E7206ABDE8F09F70
:1003F000B2C40000032A40F2308010F0030C00F079
:10040000158011F8013BBCF1020F624498BF11F84E
:1004100001CB00F8013B38BF11F8013BA2F1040207
:1004200098BF00F801CB38BF00F8013B11F003037F
:1004300000F02580083AC0F0088051F8043B083AE3
:1004400051F804CBA0E80810F5E7121D5CBF51F885
:10045000043B40F8043BAFF30080D20724BF11F8FF
:10046000013B11F801CB48BF11F8012B24BF00F864
:10047000013B00F801CB48BF00F8012B704710B5D5
:10048000203AC0F00B80B1E81850203AA0E818508C
:10049000B1E81850A0E81850BFF4F5AF5FEA027C4D
:1004A00024BFB1E81850A0E8185044BF18C918C0BC
:1004B000BDE810405FEA827C24BF51F8043B40F85D
:1004C000043B08BF7047D20728BF31F8023B48BF42
:1004D00011F8012B28BF20F8023B48BF00F8012B80
:1004E00070474FF000020429C0F0128010F0030C96
:1004F00000F01B80CCF1040CBCF1020F18BF00F817
:10050000012BA8BF20F8022BA1EB0C0100F00DB8C5
:100510005FEAC17C24BF00F8012B00F8012B48BF23
:1005200000F8012B70474FF0000200B513469446C7
:100530009646203922BFA0E80C50A0E80C50B1F13B
:100540002001BFF4F7AF090728BFA0E80C5048BF4F
:100550000CC05DF804EB890028BF40F8042B08BFED
:10056000704748BF20F8022B11F0804F18BF00F8E9
:10057000012B7047704770477047704701694A1CEC
:1005800002610878704700B58FB0CDE901310021D4
:10059000059105497944CDE9031011466846FFF7F6
:1005A00065FE0FB000BD0000E5FFFFFF074B70B513
:1005B0000D467B44FFF7E7FF0446284600F008F8A5
:1005C00010B14FF0FF3070BD204670BDD38A0000DF
:1005D000007B00F080007047754600F02BF8AE46B7
:1005E00005006946534620F00700854618B020B53F
:1005F000FFF71CFEBDE820404FF000064FF000075B
:100600004FF000084FF0000B21F00701AC46ACE8BA
:10061000C009ACE8C009ACE8C009ACE8C0098D4627
:10062000704710B50446AFF300802046BDE8104087
:10063000FFF7E7BD004870473C16002021B18268F3
:1006400042F00102826003E0826822F001028260CF
:10065000704721B1826842F48072826003E0826850
:1006600022F4807282607047014600208A6802F09E
:1006700004020AB1012000E000207047014600207A
:100680008A6802F008020AB1012000E000207047E9
:1006900030B502460020002350680F4C20400D79F1
:1006A0000C6844EA05242043506090680B4C2040BD
:1006B000D1E902542C434D7944EA4504204390602B
:1006C000D06A20F470000C7C641EE4B2234340EA3C
:1006D0000350D06230BD0000FFFEF0FFFDF7F1FFD8
:1006E0002DE9FE4F0024A346A14600200290824639
:1006F0004148007A00287BD000203F49087208F06A
:100700009DFC00BF09E03D4951F824000BF010FFAB
:100710003B4921F81400601CC4B2042CF3DB4FF4F5
:100720000051384804F03DFE002845D13248C088C9
:10073000401C3149C88000F00DFA824650460BF04B
:10074000F7FC4FF04042304BCDE900010BF098FB35
:10075000074600222D4B0BF0FFFC05460BF05EFB1D
:1007600002904FF0834102980BF020FE01900BF0B5
:10077000F1FD05460022264B0BF082FB07460BF0ED
:100780004DFB0290234902980BF006FF05460BF043
:10079000CFFE82461FFA8AF000F07EFB8146484673
:1007A00007F02EFE1C49C8800846C088642803DD77
:1007B0000846C0881938C880104948680BF0B8FE50
:1007C00085B2284601F0DAFC8346584604F068FEFC
:1007D00011490881094988680BF0AAFE06498881F9
:1007E0000649C8680BF0A4FE0349C88105F0D0FD96
:1007F0000020BDE8FE8F00006C1000207013002068
:10080000F200002000180140FFFF5F4100409F40C0
:100810000000E03F0000C84210150020F0B504467B
:100820000D4600200021092D11DDE068A5F10A0622
:1008300006EB4607072606FA07F18843A5F10A06E4
:1008400006EB460603FA06F10843E0600CE0206977
:1008500005EB4507072606FA07F1884305EB450631
:1008600003FA06F108432061072A0FDA606B561E6F
:1008700006EB86071F2606FA07F18843561E06EB8D
:10088000860605FA06F10843606322E00D2A0FDAB6
:10089000206BD61F06EB86071F2606FA07F1884352
:1008A000D61F06EB860605FA06F10843206310E022
:1008B000E06AA2F10D0606EB86071F2606FA07F18D
:1008C0008843A2F10D0606EB860605FA06F10843F9
:1008D000E062F0BD816841F008018160704721B19C
:1008E000826842F4A002826003E0826822F4A002DF
:1008F00082607047816841F00401816070470000A8
:1009000008B50121042004F057FE0320ADF80000D3
:1009100000208DF803006946084801F04EFB0121D4
:10092000102004F049FE00208DF803000320ADF8EC
:1009300000006946024801F040FB08BD0008014084
:100940000010014010B5FFF7DBFF00F001F810BD0B
:1009500000B591B00121084604F0FEFD01214802D6
:1009600004F02AFE3D4800F079FE3D4806903D48DF
:10097000079000200890C820099000200A9080204D
:100980000B9040000C9080000D9020200E900002F3
:100990000F900020109006A9304800F005FF0121BB
:1009A0002E4800F04FFE0020019001208DF8080035
:1009B0008DF809004FF4602003900020049004207B
:1009C0008DF8140001A926484C38FFF761FE4FF45A
:1009D000004004F0B5FD07230122002120484C38D7
:1009E000FFF71CFF0723022201211D484C38FFF7A7
:1009F00015FF072303220A2119484C38FFF70EFF81
:100A0000072304220B2116484C38FFF707FF01216A
:100A100013484C38FFF71DFE012111484C38FFF7F1
:100A20000DFE0F484C38FFF755FF00BF0C484C38FF
:100A3000FFF724FE0028F9D109484C38FFF75AFF88
:100A400000BF07484C38FFF70FFE0028F9D10121FD
:100A500003484C38FFF743FF11B000BD08000240C7
:100A60004C2401408013002008B5682000906A469D
:100A70000121002000F094F8042000906A46012132
:100A8000084600F08DF8552000906A4601210220AA
:100A900000F086F8702000906A460121032000F0E3
:100AA0007FF808BD10B5044614B1012C0ED106E044
:100AB000074A918A1068012201F05BFB06E0044AB4
:100AC000918A1068002201F054FB00BF00BF10BDE6
:100AD0003402002038B500240121402004F06CFDD0
:100AE00000BF10E010208DF8030001208DF80200F7
:100AF000164830F81400ADF800006946144801F0BB
:100B00005CFA601CC4B2032CECDB03240DE048202B
:100B10008DF803000D4830F81400ADF80000694668
:100B20000B4801F04AFA601CC4B2052CEFDB074AFF
:100B3000143A918A1068012201F01BFB034A143A0F
:100B4000D18A5068002201F014FB38BD4802002011
:100B50000018014010B50120FFF7A4FF102000F09D
:100B600019F800F013F8044600F010F840EA0424E5
:100B700000F00CF840EA042404F4000008B144F04A
:100B80007F440020FFF78EFF204610BD10B505F012
:100B900047FB10BD10B50446204605F079FB10BD9B
:100BA0002DE9F04106460C4615460120FFF77AFF75
:100BB0000C2101EA8601621E02F00302114341F09A
:100BC0004000FFF7E7FF002704E015F8040BFFF7EC
:100BD000E1FF7F1CA742F8DB0020FFF763FFBDE8C1
:100BE000F081000000B501F0EFFA14480079012807
:100BF0000DD11348407840F0200011494870114849
:100C000090F8450018B903200E4981F845000E48B8
:100C1000C0880E49496B884203D91020094981F8E0
:100C20004500094801890948006D401E814203D3EF
:100C30000220044981F8450000BD0000CA120020CE
:100C40000A0F00206C100020101500201811002041
:100C500010B58448807800287ED0834800780B281F
:100C60007BD2DFE800F006142E61C3F7F7F7F7F741
:100C7000B50000F0E7FD05F061FC01F0CBF84FF4A2
:100C80007A7008F0CBF9012077490870E5E005F0AB
:100C900055FC00F0D7FD01F0BDF87448007810B99C
:100CA0000120734908707248007848B100207049EB
:100CB000087002206C4908706E49486808F0AEF967
:100CC000CBE005F03BFC00F0BDFD01F0A3F86A4865
:100CD000C07818B90120694981F855006648C07884
:100CE000012803D10020654981F855005F4800784C
:100CF00010B901205E4908705D48007898B1002065
:100D00005B4908700320584908704FF47A7008F066
:100D100085F90020594981F855005748007810B9E5
:100D2000052081F8450098E000F08CFD05F006FCF8
:100D300001F070F8514890F85200012803D10720C3
:100D40004E4981F845004948007810B901204849CA
:100D500008704748007801E080E07BE098B300200D
:100D6000434908703F488078032803D10A203E4950
:100D700008702CE04248008942498968884223D89B
:100D80000020384988704049C87108460021016038
:100D900041600020344908700220324908703B4904
:100DA000087001203A49087002203A49087005F09D
:100DB00099FB1E2004F00CFA4FF47A7008F02EF91B
:100DC00001200AF033F902E004202749087044E0CA
:100DD00005F0B4FB05F04CFB01F0C6FA28B1042085
:100DE0002149087001202849C87136E001202649B0
:100DF000C8710846C07948B300F024FD05F09EFB99
:100E00001F4800891F498968884220D80020154959
:100E100088701D49C87108460021016041600020AA
:100E20001149087002200F49087018490870012004
:100E30001749087000201749087005F053FB4FF45C
:100E40007A7008F0EBF801200AF0F0F801E005F004
:100E50000FFB02E00AF0E0FB00BF02E000200249C5
:100E6000087010BD0A0F00208A00002049000020F1
:100E70004800002018110020CA1200206C10002029
:100E800010150020FC100020700000208C000020B5
:100E90008D0000208E00002010B5044642F2A630DE
:100EA000844205DD42F21070844201DA002010BD58
:100EB00042F21070844207DB42F69600844203DA65
:100EC000204608F0F7F8F2E742F69600844207DB86
:100ED00042F61B20844203DA204608F078FAE6E75F
:100EE00042F61B20844207DB42F69F30844203DA3D
:100EF000204609F0A1FADAE742F69F30844207DB88
:100F000042F62250844203DA204609F04EFBCEE737
:100F100042F62250844207DB42F6A460844203DAA0
:100F2000204609F002FCC2E742F6A460844207DBD7
:100F300043F22400844203DA204609F0B6FCB6E707
:100F400043F22400844207DB43F2A410844203DA14
:100F5000204609F06AFDAAE743F2A410844207DBA9
:100F600043F22230844203DA204609F01EFE9EE757
:100F700043F22230844207DB43F29F40844203DA8B
:100F8000204609F0D2FE92E743F29F40844207DBFD
:100F900043F21B60844203DA204609F086FF86E7AD
:100FA00043F21B60844207DB43F29570844203DA0C
:100FB000204608F04CF97AE743F29570844207DB4B
:100FC00043F60F10844203DA204608F0B5FA6EE7C4
:100FD00043F60F10844207DB43F68720844203DA8E
:100FE000204608F069FB62E743F68720844207DB6E
:100FF00043F6FE30844203DA204608F01DFC56E733
:1010000043F6FE30844207DB43F67550844203DA30
:10101000204608F0D1FC4AE743F67550844207DBCE
:1010200043F6E960844203DA204608F085FD3EE796
:1010300043F6E960844207DB44F25D00844203DA50
:10104000204608F039FE32E744F25D00844207DBB7
:1010500044F2D010844203DA204608F0EDFE26E781
:1010600044F2D010844207DB44F24130844203DA78
:10107000204608F0A1FF1AE744F24130844207DB22
:1010800044F2B240844203DA204609F055F80EE7F4
:1010900044F2B240844207DB44F22160844203DA26
:1010A000204609F009F902E742F20F70FFE600005E
:1010B000F0B500210022002500230024002600278F
:1010C0001E4807780020DFF878C08CF8410007B987
:1010D000F0BD1C48808A81B21A48008A82B2194841
:1010E000808985B21548001D008883B213480830F6
:1010F000008884B211480C30008886B2994206DD1F
:101100000120DFF83CC08CF841000020E0E7994264
:1011100011D1A24206DD0120DFF824C08CF8410085
:101120000020D5E7A24206D1B54204DB0120DFF85A
:1011300010C08CF841000020CAE7000014B8010874
:101140006C100020540000200C4890F8450078B145
:101150000A4890F8680078B10020084981F86800D2
:10116000084690F8310038B104200549086003E0D2
:1011700004200349091D0860002070476C100020FE
:101180001014014010B5002401F01EF842484079C7
:10119000012807D1414890F8450018B909203F4976
:1011A00081F845003C48007901280DD13C48407841
:1011B00040F020003A494870384890F8450018B986
:1011C0000320364981F845003348007800B90124EE
:1011D0001CB101203149C87503E000202F49C875B2
:1011E00088752E48807D0A280CDB2D48807840F0D9
:1011F00020002B49887001202A49C8710020274906
:10120000C8758875254890F85200D0B905F096F950
:10121000224890F83800401C204981F838000846E0
:1012200090F83800032803DB0C2081F8450008E023
:101230001B48807840F02000194988700120194926
:10124000C871164890F8380040B11448408FB0F586
:10125000E16F03DB0020114981F838001248C08893
:101260001249496B884207D90C4890F8450018B9D3
:1012700010200A4981F845000B4801890B48006D90
:10128000401E814207D3054890F8450018B9022056
:10129000024981F8450010BDCA1200206C100020E0
:1012A0000A0F0020700000201015002018110020E7
:1012B000024908800121014A11717047E4000020B1
:1012C00010B5002400BF264890F8780020B101280E
:1012D00015D0022839D127E005F004F9002003F0E9
:1012E00077FF04F015F842F6E06007F097FE012062
:1012F0001B4981F87800002081F838002CE019485B
:10130000007810B90120184908701748007850B1CA
:10131000002015490870124981F85000022081F818
:10132000780000F077FD17E0104801891048006D43
:10133000401E814203D30220094981F84500002064
:10134000074981F87800012406E00020044981F86B
:1013500078000AF061F900BF00BF204610BD000010
:101360006C100020490000204800002010150020CB
:101370001811002010B52E4890F82C014C2822D1CD
:101380002B4890F82D014F281DD1294890F82E01A7
:10139000432818D1264890F82F014B2813D1244810
:1013A00090F8300139280ED1214890F831013928C0
:1013B00009D12048C06830B901201E49C86007F033
:1013C000D1FA03F0A7FA1A4890F82C0155282DD12C
:1013D000174890F82D014E2828D1154890F82E0175
:1013E0004C2823D1124890F82F014F281ED11048C5
:1013F00090F83001432819D10D4890F831014B285D
:1014000014D10B4890F8320139280FD1084890F8D0
:10141000330139280AD10748C068012806D10020C5
:101420000449C86007F09EFA03F074FA002010BD6A
:1014300034030020FC10002000BFFEE74D48006888
:101440004D490860084600684C49884205D84A481A
:10145000006847F23051884203D247F23050464983
:1014600008604448001D00684349486008464068D9
:101470004249884205D84048406847F23051884286
:1014800003D247F230503C4948603A481030006877
:1014900039490861084600693C2803D808460069B4
:1014A0000F2802D21920344908613348406A642861
:1014B00003D83148406A1E2802D264202E4948626F
:1014C0002D48406A2C490969884203D22A4800699C
:1014D0002949486227482830006827498862084619
:1014E000806A012801D901208862224834300068CE
:1014F000214948630846406BB0F5FA6F07D90846A2
:10150000406BB0F5167F02D24FF44870486319481B
:1015100038300068184988630846806B012801D973
:10152000002088631648006816490860084600686D
:101530000A2805D3084600680F49096D884202D978
:101540003720104908600B48503000680A49086588
:101550000846006DA02801D95020086505483C3098
:1015600000680549C8630846C06B012801D90020FE
:10157000C863704700B8010818110020E093040008
:1015800000E00108FC10002004200C49086008203D
:10159000086002200860C00109490860800107490D
:1015A000086040000860402006494861802048618A
:1015B0004000486140004861704700001414014039
:1015C000140801400010014010B500241B48006FB2
:1015D0001B49C979884204D01948C079174908675E
:1015E00001241648406F1649097A884204D01448ED
:1015F000007A1249486701241048806F1049497ADF
:10160000884204D00E48407A0C49886701240B4870
:10161000C06F0B49897A884204D00948807A07490B
:10162000C867012444B1002406F032FF01F04CF8F1
:1016300007F066FB01F048F8002010BD18110020EB
:101640003A13002021B1026842F00102026004E076
:1016500002684FF6FE731A400260704701684FF649
:10166000FE72114001600021016041608160C16033
:101670004B49884208D14A490839496841F00F016D
:10168000474A083A51608AE045491431884208D1F6
:1016900043490839496841F0F001414A083A51602C
:1016A0007DE03F492831884208D13D4908394968E1
:1016B00041F470613A4A083A516070E038493C316F
:1016C000884208D136490839496841F47041344AA2
:1016D000083A516063E032495031884208D13049BC
:1016E0000839496841F470212D4A083A516056E0A2
:1016F0002B496431884208D129490839496841F4A5
:101700007001274A083A516049E0254978318842FA
:1017100008D123490839496841F07061204A083AE4
:1017200051603CE01F49884206D1011F096841F021
:101730000F01021F116032E01A491431884208D1AA
:101740001849091F096841F0F001164A121F11607B
:1017500025E014492831884208D11249091F096837
:1017600041F470610F4A121F116018E00D493C31BD
:10177000884208D10B49091F096841F47041094AA0
:10178000121F11600BE007495031884207D105490B
:10179000091F096841F47021024A121F1160704745
:1017A000080002400804024010B50022026847F613
:1017B000F0739A430C6A8B6823430C6923434C698A
:1017C00023438C692343CC6923434C6A23438C6AAB
:1017D00023431A430260CB6843600B6883604B6805
:1017E000C36010BD70470146002005E0002001E005
:1017F000421CD0B21428FBDB0A1EA1F1010399B2EE
:10180000F4D1704710B500240A4804780F2C00DA90
:101810000F243C2C00DD3C24204603F0D9FC064874
:101820000470007805490870034800780449C873BB
:10183000012010BD10B801084B0000204D00002011
:101840000A0F002010B580200A4948610A48007834
:1018500030B1142005F02CF80120084981F860000F
:101860000748C07800F0F7000549C8700020024919
:10187000087010BD00100140661300206C1000209D
:101880000A0F002010B580200D4908610D4800782E
:1018900058B9642005F00CF80B480069401C0A494F
:1018A00008610120094981F860000948C07840F0CA
:1018B00008000749C87001200249087010BD0000E7
:1018C0000010014066130020FC1000206C10002066
:1018D0000A0F002070B5002500241E241F4890F830
:1018E00048001F490870032048701E2088701B485C
:1018F00090F84400C8701B48007888711A4890F826
:101900004500C8711948807B08721648407A4872B1
:101910001448C07B88721648C0880A2190FBF1F0F9
:101920000F49C872104890F8520008731148407966
:1019300048731048807888732146094803F056F8A8
:1019400005462912A01E064A1154601E155422464F
:101950000349094806F0B8FC002070BD18110020AA
:10196000481300200A0F00206C100020980F002060
:101970001015002066130020004C004010B54FF4F5
:10198000806000F06BF818B14FF4806000F060F8F0
:101990004FF4006000F062F818B14FF4006000F0FE
:1019A00057F84FF4805000F059F818B14FF48050B8
:1019B00000F04EF84FF4005000F050F818B14FF41A
:1019C000005000F045F84FF4804000F047F818B19F
:1019D0004FF4804000F03CF84FF4004000F03EF837
:1019E00018B14FF4004000F033F810BD10B51020CE
:1019F00000F034F810B1102000F02AF810BD10B536
:101A0000202000F02BF810B1202000F021F8402019
:101A100000F024F810B1402000F01AF8802000F007
:101A20001DF810B1802000F013F84FF4807000F022
:101A300015F818B14FF4807000F00AF84FF40070F8
:101A400000F00CF818B14FF4007000F001F810BD70
:101A5000014908607047000014040140014600205D
:101A60000022074B1B6803EA0102054B14331B6875
:101A70000B4013B10AB1012000E0002070470000C4
:101A80000004014010B5294890F8450078B927486E
:101A900090F85B0018B10120244981F86000002013
:101AA000224981F8450081F85B00214948711F48AF
:101AB000B0F84C00B0F5E16F05DB00201D4908705F
:101AC0001A49A1F84C00194890F85B0050BB174820
:101AD00090F8450028B309F09FFD0120134981F8D3
:101AE0005B0081F8310012494871032009F09EFA29
:101AF0000E4890F845000F49097888420BD00B48F2
:101B000090F845000B49087002F0DEFB06F004FE79
:101B1000642004F0CDFE00200449A1F84C0002F03E
:101B2000F9FE02E0032009F081FA10BD6C100020DC
:101B3000E40000209D00002030B5044604254FF449
:101B4000302000F001F90546042D17D10C4800693A
:101B500040F002000A49086108464461006940F00B
:101B6000400008614FF4302000F0EEF805460448CC
:101B7000006941F6FD71084001490861284630BD01
:101B80000020024004200B49C96801F0010109B19D
:101B900001200EE00749C96801F0040109B10220E3
:101BA00007E00449C96801F0100109B1032000E011
:101BB000042070470020024000200449C96901F058
:101BC000020109B1012000E000207047002002401E
:101BD0000348006940F08000014908617047000037
:101BE000002002400549096821F01001034A1160F4
:101BF000114609680143116070470000002002404F
:101C000078B506460C46042500200090E80200F056
:101C10009BF80546042D24D11348006940F00100CB
:101C2000114908613480E80200F08EF80546042D61
:101C300010D1B01C0090200C00990880E80200F040
:101C400083F805460848006941F6FE7108400649D8
:101C5000086106E00448006941F6FE710840024947
:101C60000861284678BD00000020024030B50546D6
:101C700004244FF4302000F067F80446042C41D1CE
:101C8000214822498860224888600846006940F05F
:101C9000200008610846006940F0400008614FF4E8
:101CA000302000F051F80446042C22D11748006976
:101CB00041F6DF710840154908610846006940F0A7
:101CC000100008611DB100201249088002E0A52023
:101CD000104908804FF4302000F036F80446052CF7
:101CE00010D00A48006941F6EF71084007490861C1
:101CF00008E0052C06D00548006941F6DF71084070
:101D000002490861204630BD23016745002002409A
:101D1000AB89EFCD00F8FF1F01460020034A106891
:101D200000F03800084310607047000000200240B7
:101D300002480349486003484860704723016745EB
:101D400000200240AB89EFCD00B502460423FFF727
:101D500019FF034603E0FFF715FF0346521E012B50
:101D600001D1002AF7D102B90523184600BD0000B1
:101D70000020234991F83210A1B30021204A82F8B3
:101D8000321020490978052902D100211D4A11701D
:101D90001B4991F87A101C4A1A4B1B7822F8131031
:101DA0001146098852881144174A92881144164AEC
:101DB000D2881144144A128988180521B0FBF1F029
:101DC00010490978491C0F4A1170C0EB00118900B5
:101DD0000E4A1278B1FBF2F1094AA2F87C100021F8
:101DE00082F87A100649B1F87C100912084A82F884
:101DF0004710034991F87C1082F8481070470000A2
:101E00006C100020A100002030130020A200002050
:101E1000980F002010B50A48C07800F0FD0008496E
:101E2000C870642003F0D4F964200649087008469D
:101E3000007805490870034800780149C87310BD4F
:101E40000A0F00204B0000204D00002010B50F4865
:101E5000407930B10A2004F02BFD01200C4981F8B3
:101E600060004FF480400B4908600020074948712A
:101E70000948C07800F0BF000749C8700020074932
:101E8000C874024840790875002010BD6613002010
:101E90006C100020141401400A0F0020980F00203D
:101EA0002648B0F88200022801DC00207047244850
:101EB000007803281BD14FF4804022490860224853
:101EC000407930B900201D4981F86D00012081F86A
:101ED00060000020194981F8560001201A49487114
:101EE0001748C07840F040001549C8701EE01348FC
:101EF00090F86D00D0B14FF480401249086012484C
:101F0000407930B900200D4981F86D00012081F839
:101F100060000020094981F8560001200A494871F3
:101F20000748C07840F040000549C87000200749C4
:101F3000C8740548407908750020B7E76C10002088
:101F40000A0F00201014014066130020980F002093
:101F500010B564200549C87303F03AF964200449B8
:101F60000870084600780349087010BD0A0F002069
:101F70004B0000204D00002010B500200549C8731B
:101F800003F026F900200449087008460078034948
:101F9000087010BD0A0F00204B0000204D000020EB
:101FA00010B5FFF709FE012806D0FFF7C1FE01209A
:101FB000FFF75CFEFFF70CFE10BD2DE9F041024675
:101FC00000250026002000230024002791F803C0EC
:101FD0000CF00F0591F803C00CF0100CBCF1000FD1
:101FE00003D091F802C04CEA050591F800C0BCF19D
:101FF000000F31D0146800202BE04FF0010C0CFAD8
:1020000000F3B1F800C00CEA03069E4220D1830021
:102010004FF00F0C0CFA03F7BC4305FA03FC4CEA33
:10202000040491F803C0BCF1280F06D14FF0010C55
:102030000CFA00FCC2F814C00AE091F803C0BCF12D
:10204000480F05D14FF0010C0CFA00FCC2F810C08B
:10205000401C0828D1D31460B1F800C0BCF1FF0FB8
:1020600034DD546800202EE000F1080C4FF0010828
:1020700008FA0CF3B1F800C00CEA03069E4221D125
:1020800083004FF00F0C0CFA03F7BC4305FA03FC76
:102090004CEA040491F803C0BCF1280F05D100F10B
:1020A000080C08FA0CF8C2F8148091F803C0BCF1CF
:1020B000480F07D100F1080C4FF0010808FA0CF89E
:1020C000C2F81080401C0828CED35460BDE8F081CF
:1020D000F0B50A46002300240021002500F0004648
:1020E000B6F1004F02D11D4EF16901E01B4E71683F
:1020F000C0F3034583B200F44016B6F5401F08D183
:1021000021F07061154E766826F07066134F7E6080
:1021100012E000F48016B6F5801F06D1032606FAF9
:1021200005F4A14341F0706106E0460D360103FA63
:1021300006F6B14341F0706122B1460D360103FA53
:1021400006F6314300F00046B6F1004F02D1034ECF
:10215000F16101E0014E7160F0BD0000000001403E
:102160000246002093680B400BB1012000E00020E4
:1021700070470AB1016100E041617047014600BF4C
:1021800040F6E44301FB03F2D31702EB1353C3F30E
:102190000F300C4A9080B0F5BE7F04DD40F22F2254
:1021A000904200DA501CA0F22F2202EB8202520071
:1021B0008C2392FBF3F290B2B0F5004F01DD40F2B8
:1021C000E73070476C1000200820002100BF494A0A
:1021D0009278012A06D1474A527812B1454A1278BC
:1021E00002B90121434A5278012A03D1414A1278A7
:1021F00002B9012189B1404A92F852202AB1012244
:102200003D4B83F855205A7603E000223A4B83F881
:1022100055200122384B5A7504E00022364B5A767D
:102220005A751A75344A127E0C2A05DB0022324B8D
:1022300083F855205A761A76304A127802B905206A
:102240002D4A92F8522052B12C4A1278022A06D115
:10225000284A12780AB10F2002E00C2000E00F207B
:10226000254A127D82420BDB234A92F845201AB997
:102270000822214B83F8452000221F4B5A751A75FE
:102280001C4AD279A2B91C4AD27C12B900221A4B3C
:102290009A740122184BDA741A46927C012A0BDDDB
:1022A0001A4692F845203AB90F2283F8452003E0F8
:1022B0000022114BDA749A740E4A9279A2B90E4A2E
:1022C000527C12B900220C4B1A7401220A4B5A7428
:1022D0001A46127C012A0BDD1A4692F845203AB9BB
:1022E000012283F8452003E00022034B5A741A743C
:1022F00070470000CA1200206C1000200A0F002056
:1023000070B5044603F078F94FF4803003F036FAE4
:1023100003F092FA0546012D23D11020FFF762FC4D
:102320000220FFF7F9FC002003F01CFAA80203F0DA
:102330004BFA002003F054FA2146280403F062FA15
:10234000012003F059FA00BF392003F0E5F9002815
:10235000FAD0022003F064FA00BF03F0FBF908286A
:10236000FBD170BD00BFFEE770B503240F2500262A
:102370008A48806B002876D0894890F83000002881
:1023800072D0874890F8590009286ED2DFE800F033
:1023900005E92C4B81A0B9CCDF0002F0B9FF8148E0
:1023A000008981490978884211DD01207C4981F842
:1023B00055004FF47A7105FB01F006F02FFE022064
:1023C000774981F859000020784908700BE0002017
:1023D000734981F8550042F2107006F01FFE042088
:1023E0006F4981F85900C4E07148007810B90120A4
:1023F000704908706F480078A0B100206D490870DE
:10240000674981F8550002F0A7FF68480078401C32
:102410006649087043F2C82006F000FE03206049B8
:1024200081F85900A5E002F097FF00205C4981F88F
:1024300055005F48007810B901205E4908705D487A
:10244000007828B300205B49087002F061FF5A4809
:1024500006F0E4FD55480078A04207DA0220504912
:1024600081F8590006E08DE084E07AE004204C49D0
:1024700081F859004B4800894B490978884207DAAE
:102480000420474981F8590044F6206006F0C6FD53
:102490006FE002F03DFF002044490870404981F898
:1024A00055004348007810B901204249087041485E
:1024B000007860B100203F49087002F04DFF47F2FC
:1024C000305006F0ABFD0520354981F8590050E049
:1024D00002F042FF0020324981F85500344800786C
:1024E00010B90120334908703248007840B100200B
:1024F0003049087002F00CFF0620294981F8590084
:1025000037E002F005FF2D48407801280BD12B4819
:102510000078012807D10720214981F8590047F2A6
:10252000305006F07BFD24E002F0F2FE20480078F7
:1025300010B901201F4908701E48007830B10020F2
:102540001C4908700820164981F8590011E002F072
:10255000DFFE0020124981F8300081F85900012681
:1025600007E000200E4981F8300081F8590001266B
:1025700000BF10E000200A4981F85900012602F04E
:10258000C7FE08E002F0C4FE01260020044981F8DD
:10259000550081F85900304670BD00001811002028
:1025A0006C10002010150020A3000020A4000020C3
:1025B000490000204800002080380100CA12002095
:1025C00010B52F4890F8450078B92D4890F85B0079
:1025D00018B101202A4981F860000020284981F8BB
:1025E000450081F85B00274948712548B0F84C0048
:1025F000B0F5E16F05DB0020234908702049A1F800
:102600004C001F4890F85B00002837D11C4890F818
:10261000450098B31A4890F84500FF282ED00020B6
:102620001A4908701A480078022801D108F0F4FF0E
:10263000032008F0FBFC012012494871104981F881
:102640005B0081F8310081F86000084690F8450091
:102650000D49097888420BD0094890F845000A498D
:10266000087001F031FE06F057F8642004F020F9FC
:1026700000200349A1F84C0002F04CF910BD000005
:102680006C100020E40000209E0000208C00002040
:102690000A0F002070B505460C4645F2555000F073
:1026A0002BF8284600F01CF8204600F01FF800F038
:1026B0000FF800F001F870BD4CF6CC4001490860FD
:1026C000704700000030004010B500F001F810BD68
:1026D0004AF6AA2001490860704700000030004017
:1026E000014948607047000000300040014988609F
:1026F000704700000030004001490860704700004A
:102700000030004000B5144890F8450008B10020A2
:1027100000BD1248C0881249496B884207D90E484B
:1027200090F8450018B910200B4981F84500FFF7D3
:102730004BFD0C48007860B9074890F8520001281A
:1027400007D1054890F8450018B90720024981F8DB
:1027500045000020DCE700006C1000201015002070
:10276000181100209000002000B5FFF72DFD07484C
:102770000079012809D10648407840F0200004493A
:1027800048700320034981F8450000BDCA120020AB
:102790000A0F00206C10002010B50121084602F03D
:1027A0000BFF01210148FFF793FC10BD0002300030
:1027B00008B510208DF8030003208DF802000121D8
:1027C000202002F0F9FE1020ADF800008DF8030083
:1027D00003208DF8020069464148FFF7EEFB012116
:1027E000402002F0E9FE0420ADF8000010208DF832
:1027F000030003208DF8020069463A48FFF7DDFB2D
:102800000121402002F0D8FE0820ADF80000102081
:102810008DF8030003208DF8020069463148FFF768
:10282000CCFB0121102002F0C7FE3020ADF80000E3
:1028300048208DF8030069462B48FFF7BEFB0121B5
:10284000042002F0B9FEC020ADF8000048208DF849
:10285000030069462548FFF7B0FB0121202002F064
:10286000ABFEE020ADF8000048208DF8030069467B
:102870001B48FFF7A2FB0121092002F09DFE012168
:102880001B48FFF725FC0121082002F095FE4FF4BC
:102890007E70ADF8000048208DF8030069461548A9
:1028A000FFF78BFB0121402002F086FE0320ADF8EC
:1028B000000048208DF8030069460A48FFF77DFBB9
:1028C0000121402002F078FE0120ADF80000042034
:1028D0008DF8030069460748FFF76FFB08BD00004D
:1028E00000140140001801400010014000080140A0
:1028F00000023000000C014010B503F0B9FD0120CA
:10290000064981F860000648407800F07F000449DD
:1029100048700020014981F85C0010BD6C10002057
:102920000A0F002010B503F0DDFD01200E4981F8EB
:102930005C000E48407840F080000C49487001204F
:10294000094981F86000FFF765FA074890F85E00D2
:1029500020B10749486806F061FB03E043F6982080
:1029600006F05CFB10BD00006C1000200A0F002078
:10297000181100202DE9F04F93B04FF0000800200F
:10298000129011901090814600250F90002600248F
:102990000E900D90824600270C9004908346019083
:1029A000FD4890F85D02002801F0BC820020FA4941
:1029B00081F85D02002240F22551F84805F0D9FB6C
:1029C000F54890F85902401EF5490A5CF24890F823
:1029D0005902801E085C02EB00201FFA80FAEE48C4
:1029E00090F85902052818DDEB4890F85902401F6D
:1029F000C0B20C9000BF05E0E948F91C405C05A995
:102A0000C8557F1C0C988742F6D305A80C9901F095
:102A10009DFA504501D1012004900498002801F04E
:102A20007C82DD4890F82C015A2841F07682DA4801
:102A300090F82D01A528F8D1D74890F82E011290D2
:102A4000D54890F82F8190F8311190F8300101EBC2
:102A500000201FFA80F9B8F1810F7DD1A9F2023070
:102A600000287AD0A0F5E8500E38002876D1CA495F
:102A700091F8321101F0F000C11700EB117109114A
:102A800001EB8102C44991F8321101F00F0101EB11
:102A9000420101F5FA61C34A5161BF4991F833110E
:102AA00001F0F000C11700EB1171091101EB810277
:102AB000B94991F8331101F00F0101EB4201B94A14
:102AC0001161B54991F8341101F0F000C11700EB24
:102AD0001171091101EB8102AF4991F8341101F034
:102AE0000F0101EB4201AF4AD160AB4991F83611B9
:102AF00001F0F000C11700EB1171091101EB810227
:102B0000A54991F8361101F00F0101EB4201A54AE8
:102B10009160A14991F8371101F0F000C11700EB65
:102B20001171091101EB81029B4991F8371101F0F4
:102B30000F0101EB42019B4A5160974991F838110E
:102B400001F0F000C11700EB1171091101EB8102D6
:102B5000914991F8381102E030E00BE02DE001F0EE
:102B60000F0101EB42018F4A116000208E4981F86C
:102B7000420022E0884890F8331190F8320101EBCE
:102B8000002085B2884890F85300A8420AD08648B1
:102B900090F85300002809DD834991F8530008F0AC
:102BA00045FA03E00020804981F853006E2D03D1DF
:102BB00000207D4981F83F0000BF00BFB8F1830FBE
:102BC00041F0A08148F28000A9EB0001814572D05C
:102BD0005ADC47F27001A9EB010089456CD02BDC6F
:102BE00047F20901A9EB0100894571D017DCB9F55D
:102BF000CA4F6ED00ADCB9F1010F6BD0B9F5445F52
:102C000069D0B9F5A04F41F07B81A7E0B9F5E04F5D
:102C100062D0A9F5E04003380028F4D16BE1272801
:102C20005BD004DC072859D01728ECD199E137286C
:102C300070D05728E7D1CAE1B0F57B6F6BD011DCBB
:102C4000B0F5796F68D006DC302872D0402871D09A
:102C50009028D8D103E2A0F6937000286BD00D28FD
:102C6000D1D151E3B0F57E6F6FD006DCB0F57C6F4B
:102C70006CD0B0F57D6FC6D1F8E3B0F57F6F6ED044
:102C8000B0F5805FBFD1F0E340F68872881A9142B8
:102C90007ED02BDC40F68172A1EB0200914278D00D
:102CA00011DC802976D008DC102974D020297FD04F
:102CB0003029A8D1FDE3FDE39BE1902979D0B1F55E
:102CC000786FA0D1F7E3801E052881F0198106E016
:102CD00023E145E03BE040E0FCE054E12FE1DFE8A8
:102CE00010F036065D06AA06CD06F606FA2801F0B3
:102CF0001D8012DC04287DD006DC01287BD0022850
:102D00007AD0032889D1FCE3F82876D0F92884D139
:102D100000F0C4BF49E137E3B2E1B0F5847F01F0D0
:102D20006F8009DCFB2801F01980FC2891D101F0AB
:102D300049B870E181E12BE2A0F20910002801F00E
:102D40009580012885D101F0C3B8C7E362E3002074
:102D5000154981F83F0001F0D4B8FCE7FBE7E0E358
:102D60000020114981F842000B4890F8341190F886
:102D7000330101EB00200D490870074890F8381125
:102D800090F8370101EB002008494870024811E033
:102D9000FDE3FDE3FDE3FDE3920500200044004078
:102DA000BE060020540000206C10002018020020F5
:102DB000F1E325E290F83C1190F83B0101EB002093
:102DC000FE498870FE4890F8401190F83F0101EBF1
:102DD0000020FA49C870FA4890F8441190F843016D
:102DE00001EB0020F54908711721F648FDF779FB42
:102DF000F54803E0FCE3FCE3FCE3FCE38078F14905
:102E00000871F1488078ED490978884201D00120A5
:102E10000F90ED484079EB490872EB484079E7495B
:102E20004978884201D001200F90E748407AE5496F
:102E30000873E548407AE1498978884201D0012049
:102E40000F90E24890F83000DE490874DF4890F8AF
:102E50003000DA49C978884201D001200F90DA4861
:102E6000007AD8490875D848007AD4490979884247
:102E700001D001200F900F9858B35A208DF80C0004
:102E8000A5208DF80D0019208DF80E008220CD4967
:102E9000087065204870002088701721C94801F02B
:102EA00055F882464FEA2A208DF808000AF0FF0004
:102EB0008DF80900032203A9C54805F005FA172279
:102EC000C049C34805F000FA022202A9C04805F033
:102ED000FBF940E7BA4890F8341190F8330101EB60
:102EE000002085B2B5F5E04F04D1032200218020F7
:102EF00003F068F82FE7B24890F8341190F83301E6
:102F000001EB002085B247F20300854204D106227E
:102F10000321802003F056F81DE7A94890F83411EA
:102F200090F8330101EB002085B247F20900854299
:102F300004D108221021812003F044F80BE7A048B7
:102F400090F8341190F8330101EB002085B247F27C
:102F50001000854204D104221021802003F032F8B1
:102F6000F9E6974890F8341190F8330101EB00200E
:102F700085B247F22000854204D10522202180201D
:102F800003F020F8E7E68E4890F8341190F833010A
:102F900001EB002085B247F23000854204D10322C4
:102FA0003021802003F00EF8D5E6854890F83411E2
:102FB00090F8330101EB002085B247F240008542D2
:102FC00004D103224021802002F0FCFFC3E67C48AC
:102FD00090F8341190F8330101EB002085B247F2EC
:102FE0006000854204D104226021802002F0EAFFC3
:102FF000B1E6734890F8341190F8330101EB0020EA
:1030000085B247F27000854204D1032270218020EE
:1030100002F0D8FF9FE66A4890F8341190F8330127
:1030200001EB002085B247F2A000854204D10A22BC
:10303000A021802002F0C6FF8DE6614890F834118F
:1030400090F8330101EB002085B247F2B0008542D1
:1030500004D10222B021802002F0B4FF7BE6584860
:1030600090F8341190F8330101EB002085B2B5F5EA
:10307000E24F04D102220021812002F0A3FF6AE680
:103080004F4890F8341190F8330101EB002084B2DE
:103090004B4890F8361190F8350101EB002080B2D2
:1030A0000E90474890F8381190F8370101EB002056
:1030B00080B20D904748006DA04209D34548016D8C
:1030C0000E98814204D34348016D0D98814203D28A
:1030D000092007F0ABFF58E0394890F8341190F818
:1030E000330101EB00203C490860354890F8361167
:1030F00090F8350101EB002037494860304890F8DE
:10310000381190F8370101EB0020334988600846F8
:1031100000680A2801D20A2008602F4800682D495B
:10312000096D884203D92B48006D2B4908602A4855
:10313000406829490968884204D8274800680A304D
:1031400025494860244840682249096D884203D9CE
:103150002048006D204948601F4880681E49496822
:10316000884202D90A201C4988601B4880680A28C6
:1031700002D20A201849886005F0F4FB174800685D
:1031800015490860042007F051FF01F0C3FBE2E598
:103190000B4890F8341190F8330101EB00201049EE
:1031A0004861074890F836010861054890F83801F1
:1031B000C860034890F83A01886013E018020020C4
:1031C0009205002095150020661300206C10002049
:1031D0000044004018110020FC10002000E001080D
:1031E00054000020FE4890F83C014860FC4890F8EC
:1031F0003E01086005F08CFC042007F017FFAAE5EB
:10320000F74890F8341190F8330101EB002084B2B4
:103210001E2C07DBB4F5967F04DC4FF47A70604314
:10322000F0490860EE4890F8361190F8350101EB4E
:10323000002084B21E2C07DBB4F5967F04DC4FF42B
:103240007A706043E7494860E54890F8381190F893
:10325000370101EB002084B20F2C03DB462C01DC8C
:10326000E0480461DE4890F83A1190F8390101EB2A
:10327000002084B21E2C03DB642C01DCD94844629C
:10328000D74890F83C1190F83B0101EB002084B244
:103290003C2C06DBC82C04DC04EB84004000D14944
:1032A0004863CF4890F83E1190F83D0101EB0020B3
:1032B00084B2052C04DB282C02DCCA48C0F8884004
:1032C000C74890F8401190F83F0101EB002084B20C
:1032D0003C2C04DBFF2C02DCC248C0F8A040C048F4
:1032E00090F8421190F8410101EB002084B23C2C8F
:1032F00004DBFF2C02DCBB48C0F89C4005F0C8F89A
:103300000B2007F093FE26E5B54890F8341190F8AD
:10331000330101EB002084B2012C01DCB14844618F
:10332000AF4890F8361190F8350101EB002084B2D7
:1033300040F2E470844205DB40F60200844201DC86
:10334000A8488461A64890F8381190F8370101EB3D
:10335000002084B2012C03DB0C2C01DCA148C461E9
:103360009F4890F83A1190F8390101EB002084B29F
:10337000012C03DB1E2C01DC9A48046205F088F85E
:103380000B2007F053FEE6E4954890F8341190F8CE
:10339000330101EB002084B2012C01DC91488463ED
:1033A0008F4890F8361190F8350101EB002084B277
:1033B000012C03DB172C01DC8A488465884890F8CF
:1033C000381190F8370101EB002084B2012C01DCA8
:1033D0008448C465824890F83A1190F8390101EBAD
:1033E000002084B2012C03DB172C01DC7D4804662D
:1033F0007B4890F83C1190F83B0101EB002084B22F
:10340000012C01DC7748446605F042F80B2007F0F8
:103410000DFEA0E4724890F8341190F8330101EBEE
:10342000002084B2642C01DC6E4884646C4890F8FF
:10343000361190F8350101EB002084B2012C01DC3B
:1034400068484465664890F8381190F8370101EBF8
:10345000002084B2012C01DC6248446405F018F8B5
:103460000B2007F0E3FD76E400E0A0E05C4890F874
:10347000341190F8330101EB002084B2012C01DCFF
:1034800058488462564890F8361190F8350101EB9F
:10349000002084B2B4F57A7F05DB42F20F708442DB
:1034A00001DC5048C4624E4890F8381190F837015A
:1034B00002E0A3E1B5E0DFE101EB002084B2B4F566
:1034C0007A7F05DB41F27070844201DC4548046379
:1034D00004F0DEFF0B2007F0A9FD3CE4404890F823
:1034E000341190F8330101EB002084B23C4890F88D
:1034F000361190F8350101EB002080B20E900E9845
:1035000000E011E200EB04473748874202D10B206C
:1035100007F08CFD3548874202D10D2007F086FD6B
:1035200019E42F4890F8341190F8330101EB002092
:1035300084B23C2C03DB642C01DC2A480467284855
:1035400090F8361190F8350101EB002084B21E2C62
:1035500003DB462C01DC23484467214890F83811EE
:1035600090F8370101EB002084B21E2C04DBB4F587
:10357000167F01DC1B488467194890F83A1190F8CF
:10358000390101EB002084B21E2C0ADB04E0E8E2E2
:1035900091E153E1BDE007E1B4F5167F01DC11488C
:1035A000C46704F075FF0B2007F040FD91E40C4860
:1035B00090F8341190F8330101EB002084B2012C13
:1035C00002DC0848C0F88040054890F8361190F8B1
:1035D000350101EB002084B2012C0FDC01480BE027
:1035E000920500201811002093E20B00B9100F0083
:1035F000F1E2DBE27AE112E3C0F88440FE4890F8A1
:10360000381190F8370101EB002084B2012C02DC64
:10361000FA48C0F8984004F03BFF0B2007F006FD85
:1036200057E4F54890F83601F5490870F24890F8EB
:1036300035014870F04890F834018870EE4890F8F1
:103640003301C8700846D0F800B0EB4890F8380154
:103650000870E94890F83701487000208870C870F9
:10366000084600680190E74890F83510E64850F8A1
:10367000210088B3E34890F83500E349383951F820
:10368000200058452DD1DF4890F83510DE481C3811
:1036900050F821100198814223D10020D94981F8A6
:1036A0003600DA49C875D74890F836000876D5480C
:1036B00090F83500D34981F834000020D34948768A
:1036C000D04890F834008876CE4890F8450020B174
:1036D000032007F0ABFC0BE007E0012007F0A6FC9D
:1036E00006E0252007F0A2FC02E0222007F09EFC65
:1036F000C44890F8350006280AD1C548834507D14B
:1037000043F237510198884202D10D2007F08EFC18
:10371000F7E3B94890F83301FF2803D1042007F0FC
:1037200085FC40E0B44890F83601B5490870B248CD
:1037300090F835014870B04890F834018870AE4870
:1037400090F83301C8700846D0F800B0AA4890F845
:1037500038010870A84890F8370148700020887038
:10376000C870084600680190A64890F83410A64832
:1037700050F82100A0B1A34890F83400A24938398C
:1037800041F820B09F4991F834209F491C39019895
:1037900041F8220005F016F9232007F047FC02E06B
:1037A000222007F043FCACE301261FE0701E082135
:1037B00001EB80019748455C012D02DC924840F8FE
:1037C0002650701E0A2101EB80019248455C012DB4
:1037D0000AD191488C49383941F8260043F23851D2
:1037E00089481C3840F82610701CC6B2052EDDDD55
:1037F00005F0E8F81A2007F019FC82E37E4890F8FB
:10380000341190F8330101EB002085B2012D02DC68
:103810007A48C0F8B850784890F8361190F83501D9
:1038200001EB002085B2642D02DA7448C0F8B45070
:1038300004F02EFE0E2007F0F9FB62E36E4890F8CC
:10384000341190F8330101EB002084B2012C02DC2A
:103850006A48C0F8AC40684890F8361190F83501D5
:1038600001EB002084B26548C0F8A44004F010FECB
:103870000B2007F0DBFB44E35F4890F8341190F82D
:10388000330101EB002085B25E4890F83400012836
:1038900000DA36E3B5F5104F0CD16048007810B966
:1038A0000A2007F0C3FB5D480078022802D12420DB
:1038B00007F0BCFB25E3504890F8341190F8330131
:1038C00001EB002085B24F4890F83400012800DA5F
:1038D00017E349F20100854207D15048007820B92A
:1038E00008F08AF83220FDF7E3FC0AE3424890F83A
:1038F000341190F8330101EB002085B2414890F873
:103900003400012800DAFCE249F20A0085420AD1BB
:1039100042480078022806D107F07EFE3220FDF7EB
:10392000C7FC00F097FFECE2334890F8341190F8B0
:10393000330101EB002085B249F20B00854205D12D
:103940000020304981F8310035494871D9E22A48D0
:1039500090F8341190F8330101EB002085B249F260
:103960000300854219D12D480078042802D1002097
:103970002A490870012007F059FB0020214981F8ED
:103980004500274948711F4981F85B000884887702
:1039900081F82600088500F0BDFFB2E2164890F8D5
:1039A000341190F8330101EB002085B2154890F8EE
:1039B000450000B1A5E2134890F83400012800DA70
:1039C0009FE249F20400854234D11448007848BB94
:1039D0000C4890F8300028BB02F04AFD02F0AEFD22
:1039E000FDF730FFFEF732FA02F09AFC01F090FC8E
:1039F00004F07AFC032016E0920500201811002044
:103A0000780000206C10002014130020980F002074
:103A100034333231BE060020323734310A0F0020F1
:103A2000E400002006E0FE49087000F013FF0520C6
:103A300007F0FCFA65E2FB4890F8341190F8330186
:103A400001EB002085B249F20500854215D102F054
:103A50000FFD02F073FDFDF7F5FEFEF7F7F901F03B
:103A600057FC04F041FC02F05BFC0020EC490870BC
:103A700000F0F0FE012007F0D9FA42E20320E84905
:103A80000870E948807870B902F02CFDFEF760FA02
:103A9000642300220921902007F074FDFEF714FE34
:103AA00000F0D8FE2DE2E048807801280ED102F027
:103AB000DFFCFEF761FA00231A460921902007F087
:103AC00061FDFEF701FE00F0C5FE1AE219E2D548DD
:103AD00090F8341190F8330101EB002085B249F2DF
:103AE000070085423CD10320CD490870CE4840797B
:103AF000D8B90020CD49C8740120087500F0AAFE8D
:103B000002F024FCFEF7E0FD4FF42F7002F0D0FE2F
:103B1000FEF7DAFD0320C649A1F88200FEF7C0F9DE
:103B20000120C34981F85F00EBE1BF4840790128DB
:103B300016D1FEF78BF900F08DFEFEF7C5FD4FF4B0
:103B4000967002F0B5FEFEF7BFFD0320B849A1F85C
:103B5000840002F0E5FB0020B54981F85F00D0E168
:103B6000CFE1B04890F8341190F8330101EB002018
:103B700085B20320AA49087049F20800854214D191
:103B8000A948C07830B901F0E7FBFEF79DFD00F0D1
:103B900061FEB6E1A448C078012806D101F0B8FB67
:103BA000FEF792FD00F056FEABE1AAE19D4890F8C9
:103BB000341190F8330101EB002085B2642D07DC4D
:103BC0000A2D05DB9848807810B1E8B201F000FBBF
:103BD00000F040FE95E1934890F8341190F83301DD
:103BE00001EB002085B249F20C00854216D1002677
:103BF00009E006EBC6008F490844002101604160DE
:103C00000172701CC6B2072EF3DDFEF75DFD04F0F5
:103C100083FD00F0BBF9072007F008FA71E1814845
:103C200090F8341190F8330101EB002085B2804800
:103C300090F83400042800DA63E1B5F5114F2CD177
:103C40007D480088C0F3072011907B4800781090D1
:103C500000218020DDE9103207F094FC764880884E
:103C6000C0F3072011907448007910900121802042
:103C7000DDE9103207F086FC6F480089C0F30720A9
:103C800011906D48007A109002218020DDE91032F9
:103C900007F078FC082007F0C9F932E1674840696D
:103CA000642805DA6548808A00F5FA6084B202E08B
:103CB0006248808A84B220121190E0B210900321F1
:103CC0008020DDE9103207F05DFC5C48007C10903C
:103CD000002204218020109B07F054FC5748007BF1
:103CE0001090002205218020109B07F04BFC5348C8
:103CF000007A1090002206218020109B07F042FCE1
:103D00004E4800791090002207218020109B07F078
:103D100039FC4A4800781090002208218020109B2E
:103D200007F030FC062007F081F9EAE03D4890F802
:103D3000341190F8330101EB002085B249F20210F2
:103D400085420AD13A4890F8450018B1032007F09F
:103D50006DF902E0012007F069F9D2E0314890F8EE
:103D6000341190F8330101EB002085B2304890F80F
:103D70003400012800DAC4E041F20100854204D198
:103D8000042007F053F904F0BBFF49F20310854209
:103D900017D1FF231A469021802007F0F3FB244817
:103DA00090F83400062802DA1F2007F03FF9204877
:103DB00090F83400062802D11A2007F037F904F0F1
:103DC0009FFF9EE0174890F8341190F8330101EB03
:103DD000002085B2164890F83400062800DA90E0FA
:103DE00049F20410854204D10B2007F01FF904F0BA
:103DF00087FF49F20510854201D104F081FF80E080
:103E00000B4890F834000A4981F83500084690F8CC
:103E1000350010B9012081F83500054810E0000098
:103E20000A0F00209205002066130020980F002042
:103E30006C1000203A120020FC10002054000020DA
:103E400090F8353000221146622007F09BFB0A20D3
:103E500002F02EFD384890F83530002211466220DD
:103E600007F090FB1C2007F0E1F84AE0324890F898
:103E70003400002824DD304890F8360020B90120B5
:103E80002D4981F836001BE02B4890F834002A4970
:103E900081F835001C2007F0C9F8274890F8353024
:103EA00000221146622007F06DFB0A2002F000FD9F
:103EB000214890F8353000221146622007F062FB5D
:103EC00000201E49C8751C4890F83600087618E096
:103ED0001B4890F8341190F8330101EB002085B2B3
:103EE000062D02DC144981F83550FEF7EDFB12482F
:103EF00090F8353000221146622007F043FB00E0C5
:103F000000BF00BFB8F1820F07D144F64B70814566
:103F100003D10020084981F842004FF49671094806
:103F2000FCF7DFFA012240F22551074804F021F99D
:103F300013B0BDE8F08F00006C100020980F002037
:103F400092050020BE06002000440040F0B5024665
:103F50000B464FF6FF71002411E0177879400025D9
:103F600008E001F00106491016B14AF20107794054
:103F70006F1CBDB2082DF4DB521C671CBCB29C4206
:103F8000EBDB0F063F0C47EA1120F0BD7CB5CBA060
:103F90000068019000260025002401F053FE1E2039
:103FA00002F086FC0724822004EBC401C44A50546A
:103FB000662004EBC40111444870152004EBC401D1
:103FC00011448870032201A9BE4804F07DF904EB76
:103FD000C401BB4A8818092107F010FB04EBC40197
:103FE000B74A88180921FFF7B1FF054628128DF856
:103FF0000000E8B28DF8010002226946B14804F0E1
:1040000063F91E2002F054FC0624822004EBC40154
:10401000AB4A5054662004EBC4011144487012208E
:1040200004EBC40111448870032201A9A54804F0DF
:104030004BF904EBC401A24A8818092107F0DEFA03
:1040400004EBC4019E4A88180921FFF77FFF05464B
:1040500028128DF80000E8B28DF8010002226946AE
:10406000984804F031F91E2002F022FC822004EB73
:10407000C401934A5054662004EBC40111444870B3
:104080000F2004EBC40111448870032201A98D485C
:1040900004F01AF904EBC401894A8818092107F0D1
:1040A000ADFA04EBC401864A88180921FFF74EFFD8
:1040B000054628128DF80000E8B28DF801000222B2
:1040C0006946804804F000F91E2002F0F1FB042448
:1040D000822004EBC4017A4A5054662004EBC401E8
:1040E000114448700C2004EBC40111448870032271
:1040F00001A9744804F0E8F804EBC401704A881878
:10410000092107F07BFA04EBC4016D4A88180921E4
:10411000FFF71CFF054628128DF80000E8B28DF865
:10412000010002226946674804F0CEF81E2002F022
:10413000BFFB0324822004EBC401614A5054662073
:1041400004EBC40111444870092004EBC40111447C
:104150008870032201A95B4804F0B6F804EBC4019F
:10416000574A8818092107F049FA04EBC401544A58
:1041700088180921FFF7EAFE054628128DF800008D
:10418000E8B28DF80100022269464E4804F09CF81E
:104190001E2002F08DFB0224822004EBC401484A59
:1041A0005054662004EBC40111444870062004EB0F
:1041B000C40111448870032201A9424804F084F824
:1041C00004EBC4013E4A8818092107F017FA04EBF2
:1041D000C4013B4A88180921FFF7B8FE054628129A
:1041E0008DF80000E8B28DF80100022269463548DA
:1041F00004F06AF81E2002F05BFB0124822004EB2D
:10420000C4012F4A5054662004EBC4011144487085
:10421000032004EBC40111448870032201A929483A
:1042200004F052F804EBC401254A8818092107F06C
:10423000E5F904EBC401224A88180921FFF786FE3C
:10424000054628128DF80000E8B28DF80100022220
:1042500069461C4804F038F81E2002F029FB0024AF
:10426000822004EBC401164A5054662004EBC401BA
:1042700011444870002004EBC4011144887004EB21
:10428000C40188180921FFF761FE054628128DF840
:104290000000E8B28DF80100032201A9094804F0EA
:1042A00013F804EBC401064A8818092107F0A6F99F
:1042B00002226946034804F007F87CBD5AA50B00AA
:1042C0003A120020004400407CB5FEA00068019036
:1042D0000026002500241E2002F0EAFAFA48A0F188
:1042E00009010A6802604A684260097A017207247B
:1042F000822004EBC401F44A3F3A5054662004EB98
:10430000C40111444870152004EBC40111448870A5
:10431000032201A9ED4803F0D7FF04EBC401EA4AE8
:104320003F3A8818092107F069F904EBC401E64A0D
:104330003F3A88180921FFF709FE054628128DF833
:104340000000E8B28DF8010002226946DF4803F060
:10435000BBFF1E2002F0ACFADB480938A0F10901CE
:104360000A6802604A684260097A01720624822063
:1043700004EBC401D44A3F3A5054662004EBC40114
:1043800011444870122004EBC401114488700322C8
:1043900001A9CE4803F098FF04EBC401CA4A3F3A92
:1043A0008818092107F02AF904EBC401C64A3F3AEC
:1043B00088180921FFF7CAFD054628128DF800006C
:1043C000E8B28DF8010002226946C04803F07CFF84
:1043D0001E2002F06DFABC481238A0F12D014A6A85
:1043E00002608A6A426091F82C10017205248220D2
:1043F00004EBC401B44A3F3A5054662004EBC401B4
:10440000114448700F2004EBC4011144887003224A
:1044100001A9AE4803F058FF04EBC401AA4A3F3A91
:104420008818092107F0EAF804EBC401A64A3F3ACC
:1044300088180921FFF78AFD054628128DF800002B
:10444000E8B28DF8010002226946A04803F03CFF63
:104450001E2002F02DFA9C493F3901F11B00026831
:104460004A6242688A62007A81F82C000424822021
:1044700004EBC401944A3F3A5054662004EBC40153
:10448000114448700C2004EBC401114488700322CD
:1044900001A98E4803F018FF04EBC4018A4A3F3A91
:1044A0008818092107F0AAF804EBC401864A3F3AAC
:1044B00088180921FFF74AFD054628128DF80000EB
:1044C000E8B28DF8010002226946804803F0FCFE44
:1044D0001E2002F0EDF97C482438A0F109010A6899
:1044E00002604A684260097A01720324822004EB68
:1044F000C401754A3F3A5054662004EBC40111448C
:104500004870092004EBC40111448870032201A9FA
:104510006E4803F0D9FE04EBC4016B4A3F3A881899
:10452000092107F06BF804EBC401674A3F3A881889
:104530000921FFF70BFD054628128DF80000E8B2AF
:104540008DF8010002226946604803F0BDFE1E207E
:1045500002F0AEF95C482D38A0F109010A6802604A
:104560004A684260097A01720224822004EBC40185
:10457000554A3F3A5054662004EBC4011144487038
:10458000062004EBC40111448870032201A94F489E
:1045900003F09AFE04EBC4014B4A3F3A8818092104
:1045A00007F02CF804EBC401474A3F3A8818092168
:1045B000FFF7CCFC054628128DF80000E8B28DF814
:1045C000010002226946414803F07EFE1E2002F0EF
:1045D0006FF93D483638A0F109010A6802604A685F
:1045E0004260097A01720124822004EBC401364A38
:1045F0003F3A5054662004EBC40111444870032034
:1046000004EBC40111448870032201A92F4803F070
:104610005BFE04EBC4012C4A3F3A8818092106F0DE
:10462000EDFF04EBC401284A3F3A88180921FFF73F
:104630008DFC054628128DF80000E8B28DF80100C7
:1046400002226946214803F03FFE21480069FF210C
:1046500090FBF1F201FB12000A2190FBF1F201FB49
:1046600012011B480069FF2290FBF2F302FB1300CA
:104670000A2290FBF2F001EB001013493F39C87099
:104680001348C068FF2190FBF1F201FB12000A21E0
:1046900090FBF1F201FB12010D48C068FF2290FB74
:1046A000F2F302FB13000A2290FBF2F001EB001080
:1046B00005493F39087106488068FF2190FBF1F2F7
:1046C00008E000005AA50B007912002000440040C9
:1046D0005400002001FB12000A2190FBF1F201FBC3
:1046E000120130488068FF2290FBF2F302FB1300B6
:1046F0000A2290FBF2F001EB00102B494871294887
:104700004068FF2190FBF1F201FB12000A2190FBAF
:10471000F1F201FB120123484068FF2290FBF2F303
:1047200002FB13000A2290FBF2F001EB00101E497D
:1047300088710020C8711E2002F0BAF81B4890F85A
:104740004500194908720024822004EBC401164A6E
:104750005054662004EBC40111444870002004EB5F
:10476000C4011144887004EBC40188180921FFF7C3
:10477000EDFB054628128DF80000E8B28DF8010027
:10478000032201A90A4803F09FFD04EBC401064A75
:104790008818092106F032FF02226946044803F016
:1047A00093FD7CBD540000203A1200206C100020C4
:1047B000004400407FB5002500260024142002F0AC
:1047C00077F85A208DF80C00A5208DF80D000A20EE
:1047D0008DF80E0084208DF8040007208DF8050068
:1047E0001948C0880612184884798DF806608DF83B
:1047F0000740008906121448047A8DF808608DF885
:1048000009401248C47B00208DF80A008DF80B4047
:10481000082101A8FFF79AFB054628128DF8000031
:10482000E8B28DF80100032203A9094803F04CFD0A
:10483000082201A9064803F047FD02226946044800
:1048400003F042FD7FBD0000101500200A0F00207C
:10485000004400407CB5002500245A208DF8040057
:10486000A5208DF8050065208DF8060082202349DB
:104870000870612048700020887048718871204855
:104880000078022801D10120887100201B4948725C
:104890001B48C07B88720020C8731A4890F84500F6
:1048A0000874002081F82300174890F8500081F820
:1048B000240016480088001281F86100134800782F
:1048C00081F8620063210D48FFF740FB0446201287
:1048D0008DF80000E0B28DF80100032201A90C4818
:1048E00003F0F2FC63220549094803F0EDFC0222C3
:1048F0006946074803F0E8FC7CBD0000980F0020E3
:104900000A0F00206C1000201811002030C700088A
:104910000044004010B500242D4800782D498873CC
:1049200023212D48FBF7DDFD00202B4908700320D3
:1049300048701E208870FD20C877DF2081F8200095
:1049400024480078C870254890F84500087121482F
:1049500040784871002088711E48C078C8710020D6
:104960000872487288721E48C0880012C8721C48BB
:10497000807908731A480089001248731848007A31
:104980008873174840890012C8731548807A0874E4
:104990001048C07B48740E48007888750C48007930
:1049A000C8750B48007A08760E4890F8540048778E
:1049B0000748007B88772321074800F017F8044652
:1049C0002012054981F8210081F8224010BD000025
:1049D000FC1000200A0F0020721500206C1000202F
:1049E000101500201811002000BFFEE7F0B50246A8
:1049F0000B464FF6FF71002411E01778794000252F
:104A000008E001F00106491016B14AF201077940A9
:104A10006F1CBDB2082DF4DB521C671CBCB29F1E7C
:104A2000A742EADC0F063F0C47EA1120F0BD000068
:104A300070B5002400252A221E491F48FBF7DAFC26
:104A40001E4890F85D02002832D000201B4981F8F2
:104A50005D02002240F22551194803F08AFB1748F5
:104A600090F85902401E17490A5C144890F8590200
:104A7000801E085C02EB002085B2104890F85912A5
:104A80001048FFF7B3FFA84201D100F06BF9FCF723
:104A900071FC002404E000210A480155601CC4B2E6
:104AA000642CF8DB012240F22551054803F061FB3C
:104AB00070BD00000A0F0020340F002034030020D6
:104AC000003801406004002070B5002400252A222F
:104AD0002B492C48FBF78EFC2B4890F85D020028F0
:104AE0004DD00020284981F85D02002240F2255176
:104AF000264803F03EFB244890F85902401E244902
:104B00000A5C214890F85902801E085C02EB0020E4
:104B100085B21D4890F82C011E49896C88421FD12E
:104B2000194890F859121A48FFF760FFA84217D1A8
:104B3000154890F82C011749896C884201D100F082
:104B40008FFF1448406C58B1002405E01048005D08
:104B500011490855601CC4B20E2CF7DB01F06CFA49
:104B6000002404E000210A480155601CC4B2642CF2
:104B7000F8DB012240F22551044803F0FAFA70BD37
:104B80000A0F0020340F00204E0A0020004C004085
:104B90007A0B0020181100203A13002070B5002174
:104BA000552228231E241425424890F87020006FB7
:104BB000404E766AB04203D83E4890F8702002E03A
:104BC0003C4890F824203B48406F3A4E3669B0424A
:104BD00003D3384890F8743001E03648037C3548F8
:104BE00090F8784090F87C503348C17B00780228D8
:104BF00038D1324890F8520000282AD0914203DD83
:104C000001202F4E307004E000202D4E3070707067
:104C100030712B484078A04205DD0020284E3070CE
:104C2000707001203071994203DA0120244EB07077
:104C300004E00020224EB070F070B0712048C078BF
:104C4000A84213DD00201E4EB070F0700120B0713C
:104C50000CE01948807848B10020194E30710120CD
:104C6000B07103E00020164E3071B0711548006835
:104C7000154E3689B0420DD912480068124E368959
:104C8000801B042803D900200D4EB07102E00020E3
:104C90000B4E30710A480079074EB074084880798D
:104CA000F07407480079094E3071054880797071B9
:104CB000002070BD181100200A0F00206C10002089
:104CC000C1000020FC100020101500204813002017
:104CD000704710B54FF4A06000F03AF810BD000026
:104CE00070B5002100230F22C47804B3154C24684A
:104CF00004F4E064C4F5E064210AC1F10403CA408D
:104D0000447804FA03F184781440214309010E4CDD
:104D10000678A155047804F01F050124AC400578FD
:104D20006D11AD0005F1E025C5F8004109E00478FA
:104D300004F01F050124AC40044D0678761145F8B7
:104D4000264070BD0CED00E000E400E080E100E0F2
:104D500002490143024A1160704700000000FA0551
:104D60000CED00E02DE9FF5F4FF00009CB46002776
:104D70000025A846002003900126824600240290C8
:104D800001900090EC4890F82D9190F82F1190F838
:104D90002E0101EB00201FFA80F8E74890F831114E
:104DA00090F8300101EB0020C7B23D46B9F1030F86
:104DB00003D0B9F1060F7DD1C7E0B8F1640F06D07A
:104DC000B8F1780F5ED0B8F1960F74D18EE0B8F1DB
:104DD000640F56D10B2F54D1D74806700320D64903
:104DE0004870162088700020C870D4480078087178
:104DF000D348008900124871D148007A8871002098
:104E0000C871CF48807A087200204872CD48807BF4
:104E100088720020C872CA48C0880A2190FBF1F04D
:104E2000C5490873C848408800124873C64880784E
:104E300088730020C873C44890F8450008740020A7
:104E40004874C248807888740020C874BB48C07B0E
:104E5000087500204875BD48407988750020C875E0
:104E6000B94890F8520008761B21B348FFF7BEFD01
:104E700004462012B04948768C761B22B44803F0D1
:104E800023FA60E0AE49088907F072FB8246B14917
:104E9000504607F08BFAB0490860B8F1780F24D17A
:104EA000022F22D1A44806700320A3494870042091
:104EB000887001E03BE145E0A748C078C870A6488B
:104EC00080780871A44840784871A34800788871B8
:104ED00009219948FFF78AFD044620129649C871B6
:104EE0000C7209229A4803F0EFF92CE0032F28D125
:104EF00091480670032090494870062088709748B2
:104F00000088000AC8709548007808719348808826
:104F1000000A487191480079887190480089000A18
:104F2000C8718E48007A08720B218348FFF75EFD36
:104F300004462012804948728C720B22844803F088
:104F4000C3F900E000BF00BFF2E0B8F1960F73D0E4
:104F500006DCB8F1640F0AD0B8F16A0F6AD144E0F8
:104F6000B8F1970F67D0B8F1980FF7D1B6E0734852
:104F70000078D8B9022D19D106F03EFD6E480670B2
:104F800003206D494870022088700020C8700220FC
:104F9000087107216848FFF729FD04462012664979
:104FA00048718C7107226A4803F08EF963480078D3
:104FB000022819D1C5B906F02FFB5F4806700320FF
:104FC0005D494870022088700020C8700871072170
:104FD0005948FFF70BFD04462012574948718C7160
:104FE00007225B4803F070F99FE0012006F01EF8ED
:104FF0000020554981F8450059494871524981F8C6
:105000005B004D48067003204B49487002208870B1
:105010000020C870087107214748FFF7E7FC0446E5
:105020002012454948718C710722494803F04CF918
:105030007BE001E078E027E048484068A84220D9BA
:10504000142D1EDB4548056003F08CFC3A480670C1
:105050000320394948700220887040480088000ABF
:10506000C8703E480078087107213348FFF7BEFC3E
:1050700004462012304948718C710722344803F0ED
:1050800023F903F03DFE50E03648006DA84222D9D6
:1050900032480068A8421ED23048456003F062FCE6
:1050A00025480670032024494870022088702B4848
:1050B0008088000AC87029480079087107211E48B5
:1050C000FFF794FC044620121B4948718C7107229B
:1050D0001F4803F0F9F803F013FE26E01F4840686C
:1050E000A8421ED91D48856003F03CFC124806709A
:1050F0000320114948700220887018480089000A6E
:10510000C8701648007A087107210B48FFF76EFC3B
:1051100004462012084948718C7107220C4803F09C
:10512000D3F803F0EDFD00E000BF00BF00E000BFDA
:1051300000BFBDE8FF9F0000340300200A0F0020DD
:1051400010150020980F00206C100020661300201E
:10515000003801400000C84280000020FC10002000
:10516000E400002018110020114890F86600B0B14A
:1051700000200F4981F866000E480078022805D10A
:105180000D48007A401C0C49087202E000200A49D0
:1051900008720948007A00F00100074908720448C3
:1051A00090F8690018B10020014981F86900704742
:1051B0006C1000200A0F00206613002010B5042098
:1051C00000F01CF84FF48030FCF742FC10BD0000EA
:1051D000642800DD642040F2F511052202FB101165
:1051E000034A11800349C8730349087070470000DF
:1051F000400400400A0F00204D000020014600201E
:10520000034A52680A400AB1012000E000207047BA
:105210000070004010B53648007802280ED135489D
:1052200090F83C003C280DDB0020324981F83C001E
:1052300031480069401C3049086103E000202D49D5
:1052400081F83C002C4800692C490988884203D920
:105250002A480088284908612748006928490988A0
:10526000884207D90020274981F83F00012081F8B2
:10527000400005E00020234981F83F0081F840000C
:105280002148007818B900201A4981F837001A48D7
:105290000069012810D91D48007868B901201A4911
:1052A0000870144890F83700142805DB00200870B7
:1052B0001149086103F0C0FB0020124981F8410048
:1052C0000D4800693C21B0FBF1F00E4981F8420025
:1052D000002081F84300084800693C21B0FBF1F24E
:1052E00001FB1200074981F84400002010BD0000B6
:1052F0000A0F00206C1000201C100020A8000020C5
:10530000A6000020980F0020AA000020CA1200204A
:1053100010B50D48C07810B10A2001F0C9FA4FF459
:1053200080700A49486100200749C8700848C07861
:1053300000F07F000649C870002006494875024801
:10534000C078887510BD0000661300200010014071
:105350000A0F0020980F002010B50D48C07810B932
:105360000A2001F0A5FA4FF480700A490861012073
:105370000749C8700848C07840F080000649C870E6
:105380000020064948750248C078887510BD0000A5
:1053900066130020001001400A0F0020980F002023
:1053A000704770B504460D4629462046FCF7D8FEE6
:1053B000012800D170BD0020FCE700001CB50024CE
:1053C00033A103C9CDE90001334890F8510030B151
:1053D00001281CD004282CD0052850D147E00122F8
:1053E0001146002000F0EEFDC82001F061FAFDF743
:1053F000C1FA294890F83F0040B9472005F016FE51
:105400000120254981F8510081F83F003CE0082245
:105410006946224802F058FFC82001F049FAFDF71A
:10542000A9FA04201C4981F85100012081F83F00AD
:105430002AE00120184981F8530000F087FD002080
:10544000154981F85300C82001F032FAFDF792FAAD
:10545000114890F83F0048B901200F4981F83F00FA
:10546000052081F85100012005F0E0FD0CE0012449
:105470000020094981F8510081F83F0004E0002034
:10548000054981F8510000BF00BF20461CBD000047
:105490005AA50581201039E46C100020004400401A
:1054A00030B50146002200230020204C64688C4265
:1054B00014D21F4C94F8474034B901241C4D85F890
:1054C0004740002485F84840194C94F84840062C81
:1054D00001DB084629E0174C208926E00024144D02
:1054E00085F8474085F84840134C2478142C02DB9B
:1054F0000024114D2C70114C0F4D2D7824F81510EF
:105500000D4C2478641C0C4D2C70002306E00B4CD1
:1055100034F813401444A2B25C1CE3B2132BF6DD42
:10552000142492FBF4F4A2B2104630BDFC1000200B
:105530006C10002010150020690100201E150020AD
:1055400001460020034A506820F440400843506060
:10555000704700000010024029B1064A5269024318
:10556000044B5A6104E0034A52698243014B5A6179
:10557000704700000010024029B1064AD269024378
:10558000044BDA6104E0034AD2698243014BDA61D9
:10559000704700000010024029B1064A1269024318
:1055A000044B1A6104E0034A12698243014B1A61F9
:1055B000704700000010024029B1064A9269024378
:1055C000044B9A6104E0034A92698243014B9A6159
:1055D000704700000010024029B1064AD268024319
:1055E000044BDA6004E0034AD2688243014BDA607C
:1055F00070470000001002400F48006840F00100B2
:105600000D490860084640680C4908400A4948604E
:10561000084600680A4908400749086008460068CB
:1056200020F4802008600846406820F4FE004860AE
:105630004FF41F0088607047001002400000FFF820
:10564000FFFFF6FE30B500210022002400232D4D7F
:105650006D6805F00C0121B1042905D0082923D17A
:1056600005E0294D056022E0274D05601FE0254D2E
:105670006D6805F47012234D6D6805F480340225C1
:1056800005EB92421CB9214D554305600BE01D4DC1
:105690006D6805F400351DB11C4D5543056002E0F1
:1056A000194D5543056002E0174D056000BF00BF6E
:1056B000144D6D6805F0F0010909154D6B5C056826
:1056C000DD4045600F4D6D6805F4E061090A104D3D
:1056D0006B5C4568DD4085600A4D6D6805F460517E
:1056E000C90A0B4D6B5C4568DD40C560054D6D68B2
:1056F00005F44041890B074D6B5CC568B5FBF3F5BC
:10570000056130BD0010024000127A0000093D0022
:10571000AD000020BD00002010B50146002200238E
:1057200000204A11012A02D1094C236806E0022A0E
:1057300002D1074C236A01E0054C636A01F01F02A5
:10574000012494401C400CB1012000E0002010BD59
:10575000001002400248406800F00C007047000052
:105760000010024001460020034A506820F0F0007B
:10577000084350607047000000100240114909685A
:1057800021F480310F4A11601146096821F480210B
:105790001160B0F5803F03D0B0F5802F0ED106E048
:1057A0000849096841F48031064A116007E005495B
:1057B000096841F4A021034A116000E000BF00BF66
:1057C000704700000010024001460020034A506864
:1057D00020F4E06008435060704700000010024071
:1057E00001460020034A506820F4605040EAC1009E
:1057F0005060704700100240014908667047000081
:105800000000424202460020044B586820F47C10FD
:1058100042EA01031843014B5860704700100240F0
:1058200001460020034A506820F0030008435060FE
:10583000704700000010024038B50020009000249E
:10584000002500BF3120FFF767FF05460098401C88
:1058500000900098B0F5A06F01D0002DF2D031205B
:10586000FFF75AFF08B1012400E00024204638BDAC
:1058700008B501212020FFF79FFE4CF20E00ADF885
:10588000000010208DF8030003208DF80200694607
:105890001348FCF792FB01211020FFF78DFE4FF417
:1058A0007070ADF8000010208DF8030003208DF813
:1058B000020069460B48FCF780FB01210420FFF73A
:1058C0007BFE4FF48070ADF8000010208DF80300CF
:1058D00003208DF8020069460348FCF76EFB08BD03
:1058E00000140140001001400008014002490988ED
:1058F0008143014A1180704704280040014600207E
:10590000064A12880A40D0B2044A121F12880A407E
:1059100012B108B1012000E00020704704280040C7
:1059200010B50120FFF7EAFF38B10120FFF7DEFFD5
:1059300001200249086000F003F810BD6C0100204E
:1059400000BF0348008800F020000028F9D070470D
:105950000428004010B5002415213A48FAF7C1FD8B
:10596000394890F8480037490870032048701020E3
:105970008870364800780871354890F8450010B1B5
:105980000120887102E000202E4988712F48C07BD9
:105990002C490872002048722E480089FF2803DC39
:1059A0002C48007A887202E0002026498872002084
:1059B0002449C872264890F8520010B1012008739B
:1059C00002E000201F4908732248C08800121D49C8
:1059D00048732048807988731F48807B08B900206D
:1059E00008741D48807B012801D1164908741A48A3
:1059F000807B032802D10220124908741648807B5C
:105A0000072802D103200F4908741348807B0F2810
:105A100002D104200B4908740D484088001209493E
:105A200048740B488078887415210648FEF7DEFF1D
:105A3000044620120349C8740C751522074802F069
:105A400043FC10BD1C030020181100200A0F002089
:105A50006C10002010150020980F0020004C004012
:105A60002DE9F0470027B94600260025A846002466
:105A70006E4890F82D7190F82F1190F82E0101EBDF
:105A8000002086B2032F76D0062F6FD1092E02D0C8
:105A90000A2E6DD137E0654890F8311190F8300149
:105AA00001EB002085B23DB961480078022801D1A0
:105AB00005F0B2FD5D494D71012D09D100205B4912
:105AC00048715B48007818B905F096FF57494D7149
:105AD000584890F848005549087006204870002042
