:020000040800F2
:100000001829002011020008BD4D0008792B0008B6
:10001000B93300083515000861930008000000009E
:10002000000000000000000000000000E362000883
:10003000FD1A000800000000DD5A000835690008BC
:100040002B020008515900082B020008C95F000864
:100050002B0200082B020008A11F00082B02000839
:100060002B0200082B0200083D2100082B0200088B
:100070002B0200082B0200082B0200082B020008AC
:100080002B0200082B0200082B0200082B0200089C
:100090002B0200082B0200082B0200084F21000849
:1000A0002B0200082B0200082B0200082B0200087C
:1000B000557400082B020008B17500082B020008D7
:1000C0002B0200082B0200082B0200082B0200085C
:1000D0002B020008ED880008D9890008958A0008DD
:1000E000DD1F00082B0200082B0200082B0200086D
:1000F0002B0200082B0200082B0200082B0200082C
:100100002B0200082B020008197D00082B020008B2
:10011000DD7E0008018800082B0200082B02000881
:100120002B0200082B0200082B0200082B020008FB
:1001300000F002F800F05CF80AA090E8000C82449D
:100140008344AAF10107DA4501D100F051F8AFF27A
:10015000090EBAE80F0013F0010F18BFFB1A43F0A5
:1001600001031847A0D40000C0D400000A444FF097
:10017000000C10F8013B13F0070408BF10F8014B06
:100180001D1108BF10F8015B641E05D010F8016B4B
:10019000641E01F8016BF9D113F0080F1EBF10F8AF
:1001A000014BAD1C0C1B09D16D1E58BF01F801CBD2
:1001B000FAD505E014F8016B01F8016B6D1EF9D555
:1001C0009142D6D37047000000230024002500266A
:1001D000103A28BF78C1FBD8520728BF30C148BFAA
:1001E0000B607047002070471FB51FBD10B510BDD4
:1001F00000F07CF91146FFF7F7FF0BF0F9FD00F076
:100200009AF903B4FFF7F2FF03BC09F0ACFD00005C
:100210000948804709480047FEE7FEE7FEE7FEE79A
:10022000FEE7FEE7FEE7FEE7FEE7FEE704480549D6
:10023000054A064B70470000816F00083101000835
:10024000181F002018290020182100201821002044
:10025000704700000FB4044910B503AA029800F0DB
:100260002FF910BC5DF814FB380000202DE9F05F79
:10027000894604464FF0000ADFF874B1FB44C0F829
:1002800020A02046E1688847002874D0252806D0A1
:10029000D4E901219047206A401C2062F1E7002642
:1002A0005F462046E16888472028054607DB312D58
:1002B00005D2781910F8200C08B10643F1E7B00711
:1002C00001D526F00406C4F81CA00027C4F818A025
:1002D0002A2D09D0284609F03FFD38B304EB8708E2
:1002E000303DC8F8185019E059F8041B204604EBBB
:1002F00087029161E1688847012F054618D1E069BE
:10030000002820DA26F020061DE0D8F8180000EBBF
:10031000800005EB40003038C8F818002046E1683E
:100320008847054609F018FD0028EED1012F0AD0B4
:100330002E2D08D12046E16888477F1C0546022FF4
:1003400046F02006C4DBA069002803DA404246F0EC
:100350000106A061F00701D026F010066C2D0BD02D
:10036000682D09D04C2D39D06A2D35D0742D35D05B
:100370007A2D33D016E038E0E1682F4620468847D2
:10038000B842054609D16C2F26D04FF48060E16851
:10039000064320468847054604E06C2F1AD04FF4E8
:1003A000807006430DB3A5F14100192802D820350D
:1003B00046F400664A462946204626604E46FFF728
:1003C00011FF80B101280BD0F61D26F0070000F1C7
:1003D000080956E74020E4E78020D8E70020D6E768
:1003E00006F104094DE7284652E7206ABDE8F09F70
:1003F00090D200004FF000020429C0F0128010F0EB
:10040000030C00F01B80CCF1040CBCF1020F18BFF0
:1004100000F8012BA8BF20F8022BA1EB0C0100F083
:100420000DB85FEAC17C24BF00F8012B00F8012B56
:1004300048BF00F8012B70474FF0000200B513468B
:1004400094469646203922BFA0E80C50A0E80C50F4
:10045000B1F12001BFF4F7AF090728BFA0E80C50A5
:1004600048BF0CC05DF804EB890028BF40F8042B9E
:1004700008BF704748BF20F8022B11F0804F18BF0B
:1004800000F8012B704770477047704770470000B5
:1004900001694A1C02610878704700B58FB0CDE948
:1004A00001310021059105497944CDE90310114638
:1004B0006846FFF7DBFE0FB000BD0000E5FFFFFF61
:1004C000074B70B50D467B44FFF7E7FF044628460F
:1004D00000F008F810B14FF0FF3070BD204670BD3D
:1004E00083990000007B00F080007047754600F0A3
:1004F0002BF8AE4605006946534620F007008546B6
:1005000018B020B5FFF792FEBDE820404FF000067E
:100510004FF000074FF000084FF0000B21F00701EB
:10052000AC46ACE8C009ACE8C009ACE8C009ACE82E
:10053000C0098D46704710B50446AFF300802046D1
:10054000BDE81040FFF75DBE00487047B41E0020B4
:1005500021B1826842F00102826003E0826822F0E9
:1005600001028260704721B1826842F48072826029
:1005700003E0826822F480728260704701460020A6
:100580008A6802F004020AB1012000E000207047EE
:10059000014600208A6802F008020AB1012000E04A
:1005A0000020704730B502460020002350680F4CF1
:1005B00020400D790C6844EA05242043506090687F
:1005C0000B4C2040D1E902542C434D7944EA4504B8
:1005D00020439060D06A20F470000C7C641EE4B26A
:1005E000234340EA0350D06230BD0000FFFEF0FF1D
:1005F000FDF7F1FF2DE9FE4F0024A346A1460020A0
:1006000002908246654890F8220000287ED00020A3
:10061000624981F8220009F0F3FB00BF09E060495C
:1006200051F824000CF0F6FD5E4921F81400601C1E
:10063000C4B2042CF3DB4FF400515B4805F04FFAD1
:10064000002845D15548008C401C5449088400F0CE
:1006500059FA824650460CF095FB4FF04042534BFE
:10066000CDE900010CF036FA07460022504B0CF0A1
:10067000D9FB05460CF0F0F902904FF08341029847
:100680000CF006FD01900CF0CBFC05460022494B16
:100690000CF020FA07460CF0DFF902904649029868
:1006A0000CF038FE05460CF0B5FD82461FFA8AF0C4
:1006B00000F0D8FB8146484609F036F83F49C8802B
:1006C0000846C088642803DD0846C0881938C880F9
:1006D0003A49C8880CF0D6FD0290394902980CF0CE
:1006E000D7FC384948622E4948680CF093FD85B222
:1006F000284602F01FF98346584605F025FA2F498F
:100700000881087A0BF064FC2C4900E042E0488143
:100710002D48D0F8C000012804D02B48D0F8C000E4
:10072000032814D11E4908680CF074FD85B22846D0
:1007300005F0E2F92149C881C8890CF0A3FD0290B7
:100740001D4902980CF0A4FC1E49886102E00020BB
:100750001A49C881194908890CF094FD029016497C
:1007600002980CF095FC17494861144948890CF02F
:1007700089FD144908620A4988680CF04BFD074955
:10078000C8870749C8680CF045FD0449A1F8400036
:1007900005F0F6FD0020BDE8FE8F0000880F002068
:1007A000581700200A01002000180140FFFF5F4198
:1007B00000409F400000E03F0000C842F8180020C1
:1007C000000020410413002070100020F0B5044602
:1007D0000D4600200021092D11DDE068A5F10A0673
:1007E00006EB4607072606FA07F18843A5F10A0635
:1007F00006EB460603FA06F10843E0600CE02069C8
:1008000005EB4507072606FA07F1884305EB450681
:1008100003FA06F108432061072A0FDA606B561EBF
:1008200006EB86071F2606FA07F18843561E06EBDD
:10083000860605FA06F10843606322E00D2A0FDA06
:10084000206BD61F06EB86071F2606FA07F18843A2
:10085000D61F06EB860605FA06F10843206310E072
:10086000E06AA2F10D0606EB86071F2606FA07F1DD
:100870008843A2F10D0606EB860605FA06F1084349
:10088000E062F0BD816841F008018160704721B1EC
:10089000826842F4A002826003E0826822F4A0022F
:1008A00082607047816841F00401816070470000F8
:1008B00008B50121042005F0D3F90320ADF80000AC
:1008C00000208DF803006946084801F03BFF012134
:1008D000102005F0C5F900208DF803000320ADF8C5
:1008E00000006946024801F02DFF08BD00080140E4
:1008F0000010014010B5FFF7DBFF00F001F810BD5C
:1009000000B591B00121084605F07AF901214802AD
:1009100005F0A6F93D4801F02DF83D4806903D4808
:10092000079000200890C820099000200A9080209D
:100930000B9040000C9080000D9020200E90000243
:100940000F900020109006A9304801F0B9F801215D
:100950002E4801F003F80020019001208DF80800D6
:100960008DF809004FF460200390002004900420CB
:100970008DF8140001A926484C38FFF713FE4FF4F8
:10098000004005F031F907230122002120484C38AE
:10099000FFF71CFF0723022201211D484C38FFF7F7
:1009A00015FF072303220A2119484C38FFF70EFFD1
:1009B000072304220B2116484C38FFF707FF0121BB
:1009C00013484C38FFF7CFFD012111484C38FFF791
:1009D000BFFD0F484C38FFF755FF00BF0C484C389F
:1009E000FFF7D6FD0028F9D109484C38FFF75AFF28
:1009F00000BF07484C38FFF7C1FD0028F9D101219D
:100A000003484C38FFF743FF11B000BD0800024017
:100A10004C2401406817002008B5682000906A4601
:100A20000121002000F094F8042000906A46012182
:100A3000084600F08DF8552000906A4601210220FA
:100A400000F086F8702000906A460121032000F033
:100A50007FF808BD10B5044614B1012C0ED106E094
:100A6000074A918A1068012201F049FF06E0044A12
:100A7000918A1068002201F042FF00BF00BF10BD44
:100A80003002002038B500240121402005F0E8F8AC
:100A900000BF10E010208DF8030001208DF8020047
:100AA000164830F81400ADF800006946144801F00B
:100AB00049FE601CC4B2032CECDB03240DE048208B
:100AC0008DF803000D4830F81400ADF800006946B9
:100AD0000B4801F037FE601CC4B2052CEFDB074A5F
:100AE000143A918A1068012201F009FF034A143A6E
:100AF000D18A5068002201F002FF38BD4402002074
:100B00000018014010B50120FFF7A4FF102000F0ED
:100B100019F800F013F8044600F010F840EA042435
:100B200000F00CF840EA042404F4000008B144F09A
:100B30007F440020FFF78EFF204610BD10B505F062
:100B400051FB10BD10B50446204605F083FB10BDD7
:100B50002DE9F04106460C4615460120FFF77AFFC5
:100B60000C2101EA8601621E02F00302114341F0EA
:100B70004000FFF7E7FF002704E015F8040BFFF73C
:100B8000E1FF7F1CA742F8DB0020FFF763FFBDE811
:100B9000F081000000B501F00BFF1148007A012838
:100BA00007D1104890F87D0018B903200D4981F84D
:100BB0007D000D48C0880D49896B884203D91020FB
:100BC000084981F87D00084801890848406D401EA9
:100BD000814203D30220034981F87D0000BD00005B
:100BE00066120020880F0020F818002070100020E6
:100BF00010B58F48807800286FD08E4800780B2879
:100C00006CD2DFE800F0061D376CD46B6B6B6B6B3E
:100C1000C20000F099FF05F0D3FB01F0C5FC864847
:100C2000406BB0F5167F03D20020834981F8B500F0
:100C30004FF47A7009F0D4F801207E490870F2E090
:100C400005F0BEFB00F080FF01F0AEFC7B480078B1
:100C500010B901207A4908707948007848B100201D
:100C6000774908700220734908707649486809F08E
:100C7000B7F8D8E005F0A4FB00F066FF01F094FCA3
:100C80007148C07818B901206B4981F88D006E4811
:100C9000C078012803D10020674981F88D0067489A
:100CA000007810B90120664908706548007898B14D
:100CB00000206349087003205E4908704FF47A7081
:100CC00009F08EF800205C4981F88D005E480078BC
:100CD00010B9052081F87D00A5E0A5E0A0E000F0B6
:100CE00033FF05F06DFB01F05FFC534890F88A007C
:100CF000012803D10720504981F87D004F48007832
:100D000010B901204E4908704D480078C0B300204A
:100D10004B49087046488078032803D10A2045498A
:100D2000087031E04948008949498968884207D9F3
:100D30003F488078052803D03D488078062820D198
:100D400000203B4988704349C87108460021016072
:100D500041600020374908700220354908703E493B
:100D6000087001203D49087002203D49087005F0D7
:100D700021FB1E2004F0F6FD4FF47A7009F030F8E4
:100D800002E004202B4908704DE005F019FB05F046
:100D900003FB00F0A5FA48B10420264908700120A1
:100DA0002C49C8710020244981F866003BE00120ED
:100DB0002849C8710846C07970B300F0C5FE05F037
:100DC000FFFA2248008922498968884207D91848D1
:100DD0008078052803D01648807806281DD1002089
:100DE000134988701B49C8710846002101604160A1
:100DF00000201049087002200D490870164908703B
:100E000001201649087000201549087005F0D2FA33
:100E10004FF47A7008F0E4FF01E005F0BDFA02E05B
:100E20000BF07AFA00BF02E000200249087010BD02
:100E3000260E002086000020880F0020450000209C
:100E4000440000207010002066120020F8180020D6
:100E5000541000206C000020880000208900002031
:100E60008A00002010B5044642F2A630844205DD17
:100E700042F21070844201DA002010BD42F210707C
:100E8000844207DB42F69600844203DA204608F0EB
:100E9000F3FFF2E742F69600844207DB42F61B209E
:100EA000844203DA204609F074F9E6E742F61B2093
:100EB000844207DB42F69F30844203DA20460AF080
:100EC0009DF9DAE742F69F30844207DB42F6225072
:100ED000844203DA20460AF04AFACEE742F622506C
:100EE000844207DB42F6A460844203DA20460AF01B
:100EF000FEFAC2E742F6A460844207DB43F2240014
:100F0000844203DA20460AF0B2FBB6E743F224003B
:100F1000844207DB43F2A410844203DA20460AF03D
:100F200066FCAAE743F2A410844207DB43F22230B6
:100F3000844203DA20460AF01AFD9EE743F222308B
:100F4000844207DB43F29F40844203DA20460AF0E2
:100F5000CEFD92E743F29F40844207DB43F21B60E1
:100F6000844203DA20460AF082FE86E743F21B60E1
:100F7000844207DB43F29570844203DA204609F08D
:100F800048F87AE743F29570844207DB43F60F1086
:100F9000844203DA204609F0B1F96EE743F60F10F8
:100FA000844207DB43F68720844203DA204609F0B7
:100FB00065FA62E743F68720844207DB43F6FE309A
:100FC000844203DA204609F019FB56E743F6FE3067
:100FD000844207DB43F67550844203DA204609F069
:100FE000CDFB4AE743F67550844207DB43F6E960E0
:100FF000844203DA204609F081FC3EE743F6E960CB
:10100000844207DB44F25D00844203DA204609F0A3
:1010100035FD32E744F25D00844207DB44F2D01034
:10102000844203DA204609F0E9FD26E744F2D010B5
:10103000844207DB44F24130844203DA204609F05F
:101040009DFE1AE744F24130844207DB44F2B2408D
:10105000844203DA204609F051FF0EE744F2B24021
:10106000844207DB44F22160844203DA20460AF01E
:1010700005F802E742F20F70FFE60000F0B500212C
:101080000022002500230024002600271E480778A0
:101090000020DFF878C08CF8790007B9F0BD1C4853
:1010A000808A81B21A48008A82B21948808985B242
:1010B0001548001D008883B213480830008884B2A8
:1010C00011480C30008886B2994206DD0120DFF815
:1010D0003CC08CF879000020E0E7994211D1A2428F
:1010E00006DD0120DFF824C08CF879000020D5E768
:1010F000A24206D1B54204DB0120DFF810C08CF813
:1011000079000020CAE7000014B80108880F002009
:10111000500000202448D0F8C00020B12248D0F868
:10112000C000012817D1214890F87D0078B11F48F0
:1011300090F8A40078B100201C4981F8A40008466A
:1011400090F8670038B104201949086003E00420D2
:101150001749091D08601448D0F8C000022804D0BF
:101160001148D0F8C00003281BD1104890F87D002A
:1011700018B91048B0F8920078B10C4890F8A40063
:1011800078B10020094981F8A400084690F867006A
:1011900038B104200649086003E004200449091D11
:1011A000086000207047000070100020880F0020A9
:1011B000101401408C13002010B5002401F0F8FB3E
:1011C0004148407A012807D1404890F87D0018B97D
:1011D00009203E4981F87D003B48007A012807D16B
:1011E0003A4890F87D0018B90320384981F87D000D
:1011F0003548007800B9012424B10120334981F831
:10120000490005E00020314981F8490081F8480093
:101210002E4890F8480005280BDB06202C498870E2
:1012200001202C49C8710020284981F8490081F823
:101230004800264890F88A00D0B905F0C1F8234844
:1012400090F87000401C214981F87000084690F821
:101250007000032803DB0C2081F87D0008E01C48A7
:10126000807840F020001A49887001201949C8711F
:10127000164890F8700048B11448B0F87200B0F504
:10128000E16F03DB0020114981F870001248C0882B
:101290001249896B884207D90C4890F87D0018B92B
:1012A00010200A4981F87D000B4801890B48406DE8
:1012B000401E814207D3054890F87D0018B90220EE
:1012C000024981F87D0010BD66120020880F0020C1
:1012D000260E00206C000020F8180020701000205E
:1012E00070B503250F260024474890F866000028B3
:1012F0007ED0454890F8910030B102281AD00328DA
:101300003FD004286BD15CE004F0DCFB3F4800894F
:101310003F490978884204DD46F2A81008F060FDD4
:1013200003E048F6B80008F05BFD0220364981F87A
:1013300091005CE03748007810B901203649087008
:101340003648007848B903202F4981F891004EF6BD
:10135000602008F045FD04F0A9FB2F48007878B123
:1013600000202D490870284981F88D0004F09EFB6B
:101370004EF6602008F034FD0320234981F89100E7
:1013800035E004F093FB2348007810B9012022498E
:10139000087022484078012803D104201A4981F8B6
:1013A00091001D48007858B100201B49087016496B
:1013B00081F88D0004F07AFB0420134981F8910034
:1013C00015E004F073FB00200F4981F88D0081F8CF
:1013D000660081F89100012409E009E0FFE70020A0
:1013E000094981F8660081F89100012400BF08E0F6
:1013F0000020054981F8910081F88D00012404F056
:1014000055FB204670BD0000880F0020F818002012
:10141000A8000020450000204400002066120020A3
:10142000024908800121014A11717047FC00002027
:1014300010B5002400BF3A4890F8B40020B101284C
:1014400026D0022862D144E004F0B4FF002004F06A
:1014500089FA04F02BFB42F6E06008F0C1FC314849
:10146000D0F8C000012804D02E48D0F8C0000328CE
:1014700005D12D48C089012801DC01F087FF01203A
:10148000274981F8B400002081F87000888044E08A
:101490002648007810B901202549087024480078B2
:1014A000B0B10020224908701D4981F8880002204F
:1014B00081F8B40001F078F81A48D0F8C00001288B
:1014C00004D01848D0F8C000032801D101F0E2FE92
:1014D00023E01448D0F8C000012804D01148D0F807
:1014E000C000032801D101F0D5FE0F4801890D4845
:1014F000406D401E814203D30220094981F87D00DE
:101500000020074981F8B400012406E000200449C6
:1015100081F8B4000AF000FF00BF00BF204610BDF4
:10152000880F002070100020F818002045000020CF
:101530004400002000BFFEE73CB5024600230093B4
:10154000019300BF01F0CF038DF80030090A01F0CC
:10155000CF038DF8013002F0CF038DF80230120A6C
:1015600002F0CF038DF80330120A02F0CF038DF89A
:101570000430120A02F0CF038DF805309DF80030D8
:101580009DF8014004EB840403EB44039DF8024002
:1015900004EBC40505EB041403EB84039DF803403E
:1015A00004EB4405C5EBC41403EBC4049DF80430FC
:1015B00040F271256B4304EB03149DF8053040F6AF
:1015C00035456B4304EB43103CBD000070B500246F
:1015D000C4480068C449086008460068C349884296
:1015E00005D8C148006847F23051884203D247F21B
:1015F0003050BD490860BB48001D0068BA494860CA
:1016000008464068B949884205D8B748406847F25B
:101610003051884203D247F23050B3494860B14854
:1016200010300068B0490861084600693C2803D8BA
:10163000084600690F2802D21920AB490861AA4860
:10164000406A642803D8A848406A142802D264205B
:10165000A5494862A448406AA3490969884203D25F
:10166000A1480069A04948629E48283000689E4908
:1016700088620846806A012801D901208862994859
:1016800034300068984988630846806BB0F5FA6F7B
:1016900007D90846806BB0F5167F02D24FF4487028
:1016A00088639348806A93490860084600680A285E
:1016B00005D3084600688C49496D884202D337201B
:1016C0008C4908608B4840688749496D884204D33B
:1016D0008548406D401F8749486082485030006807
:1016E000814948650846406DFA2801D9502048656F
:1016F0007D48D0F8C00030B1012805D0022811D0B3
:1017000003281BD10FE000BF7B48007810B90020F0
:101710007A49088078480078022802D10120774968
:1017200008800BE000BF7648008874490880744840
:101730000088032801D10020088000BF00BF714845
:10174000808C6E49A1F856006A488089A1F864002F
:101750006D4890F83800A1F86E006C4880790881D7
:101760006A48C07888816948407A0882654890F85C
:101770008A00C8806348B0F8B80048825E48C07BE1
:1017800088805C4908680BF07DFD054660490BF0D8
:101790007FFC5A494867574948680BF073FD054676
:1017A0005B490BF075FC55498867524988680BF016
:1017B00069FD054656490BF06BFC5049C8674A491C
:1017C000486D0BF05FFD054651490BF061FC4B493C
:1017D000C1F88000444800684FF47A71B0FBF1F022
:1017E0004649C886404840684FF47A71B0FBF1F032
:1017F000424908873C48008A48873B48808C888754
:101800003948806B0A21B0FBF1F03C49C887364863
:10181000008DA1F840003448808EA1F84200324883
:10182000008EA1F85400374890F87D004880354874
:1018300090F86600A1F8440034488078C8813348A5
:10184000407A08822848B0F8BC00A1F84600264833
:10185000B0F8B800A1F848002348B0F8B000A1F8EB
:101860004A002148B0F8A800A1F84C001E48B0F882
:10187000C800A1F84E001C48B0F8CC00A1F85000F8
:101880001948B0F84C00A1F852001748B0F87C0095
:10189000A1F866001448B0F88000A1F868001D485F
:1018A0000088A1F872001048B0F8C000A1F87000DC
:1018B0000D49486D0BF0E6FC0446154920460BF037
:1018C000E7FB0E49C1F880000F4890F868101248F5
:1018D000A0F8B2100C4890F838100F48A0F86A1021
:1018E00070BD000000B8010870100020E0930400F3
:1018F0000020030854100020260E002004130020AE
:10190000801A0020880F0020941A00204817002019
:101910000000C8420ED500088C13002004200C499A
:1019200008600820086002200860C00109490860BA
:10193000800107490860400008604020064948616E
:1019400080204861400048614000486170470000C5
:1019500014140140140801400010014021B1026834
:1019600042F00102026004E002684FF6FE731A4082
:101970000260704701684FF6FE721140016000215D
:10198000016041608160C1604B49884208D14A4989
:101990000839496841F00F01474A083A51608AE026
:1019A00045491431884208D143490839496841F012
:1019B000F001414A083A51607DE03F4928318842B0
:1019C00008D13D490839496841F470613A4A083AFA
:1019D000516070E038493C31884208D136490839B5
:1019E000496841F47041344A083A516063E0324931
:1019F0005031884208D130490839496841F4702192
:101A00002D4A083A516056E02B496431884208D18A
:101A100029490839496841F47001274A083A516058
:101A200049E025497831884208D123490839496875
:101A300041F07061204A083A51603CE01F498842F9
:101A400006D1011F096841F00F01021F116032E049
:101A50001A491431884208D11849091F096841F010
:101A6000F001164A121F116025E0144928318842FE
:101A700008D11249091F096841F470610F4A121F09
:101A8000116018E00D493C31884208D10B49091F0B
:101A9000096841F47041094A121F11600BE00749BF
:101AA0005031884207D10549091F096841F4702166
:101AB000024A121F116070470800024008040240E9
:101AC00010B50022026847F6F0739A430C6A8B68DF
:101AD00023430C6923434C6923438C692343CC691A
:101AE00023434C6A23438C6A23431A430260CB6826
:101AF00043600B6883604B68C36010BD704701464C
:101B0000002005E0002001E0421CD0B21428FBDBDD
:101B10000A1EA1F1010399B2F4D1704710B5002457
:101B2000074804780F2C00DA0F243C2C00DD3C24FD
:101B3000204603F017FF03480470012010BD000089
:101B400010B80108470000200020014908707047C4
:101B500048170020012001490870704748170020ED
:101B600010B500247148007803280CD17048007823
:101B700010B96F48407810B101F016FC01E001F097
:101B80000DFC002010BD6A48807818B96848C078FC
:101B900000B9002466488078012803D16448C078E1
:101BA00000B901246248807820B96148C0780128D2
:101BB00000D102245E488078012804D15C48C078B6
:101BC000012800D1032434B1012C19D0022C43D0B8
:101BD000032C7CD16CE05748407918B1002054495F
:101BE00088714881002052498871084640895249CD
:101BF0000988884203DB00204D490871487167E07D
:101C00004B484078012813D14A48407910B1002050
:101C1000474948810020464988710846408946491D
:101C20000988884217DB002041494871088112E089
:101C30003F480078012809D13D4800893E4909887C
:101C4000884208DB01203A49887104E001203849C4
:101C50000871002008813BE035480078012813D145
:101C60003448407910B10020314948810020304982
:101C700088710846408930490988884217DB00206E
:101C80002B490871088112E029484078012809D1C0
:101C90002748008928490988884208DB012024490F
:101CA000887104E0012022494871002008810FE07A
:101CB00001201F4908714871084600891E4909889A
:101CC000884202DB01201A49887101E0FFE700BF6A
:101CD00000BF1A4890F8560038B91548807910B1FD
:101CE00001F062FB01E001F059FB1148407968B155
:101CF0000F484078C0B901200D49487003211048B1
:101D000080F87310012180F874100DE008484078C5
:101D1000012809D103210A4880F87310002180F8B6
:101D2000741000200249487000202BE7260E002086
:101D3000CC12002048170020B8000020880F002097
:101D4000941A00202DE9F0410024282512260027AE
:101D50008A48D0F8B800632803D963208749C1F8BE
:101D6000B8008648D0F8B800192803D21920834952
:101D7000C1F8B800814890F8B850002080494873F5
:101D800080480078012802D144F0010401E004F009
:101D90000E047C484078012802D144F0020401E09E
:101DA00004F00D0477488078012802D144F004043F
:101DB00001E004F00B047348C078012802D144F01C
:101DC000080401E004F007046F480078022808D1F5
:101DD0006C48807828B96B48C078012801D104F09C
:101DE00007046748847369484481694890F82C0067
:101DF00000280ADD01206749887003206449A1F8A2
:101E0000BE0000F0E7FB04F09BFA614890F82C005C
:101E100030B900205F49887000F0D0FB04F062FA0E
:101E200059480078032802D10020BDE8F0815848C5
:101E300090F87D0030B1002056498870544981F8EF
:101E40002C00F2E750480078D8B9514890F8960035
:101E500078B14C48407818B91E204D4981F82C00C3
:101E60004848407801280AD10020494981F82C00CF
:101E700005E0002047498870454981F82C00002082
:101E8000D3E7434890F88D0038B10120414988706C
:101E90003F4880F82C500020C7E73A4800780128D6
:101EA00003D13848407800B90127364840780128E6
:101EB00003D13448807800B902273248407801289D
:101EC00004D130488078012800D103272D480078BC
:101ED00000B9002737B1012F0BD0022F19D0032FE3
:101EE00043D12BE02A4880F82C5000202A49087062
:101EF00041E029480078022804D128480078401C95
:101F000026490870224880F82C5001202249087088
:101F100031E022480078B04201DA204806701F48BC
:101F20000078A84201DD1D4805701C48007818495A
:101F300081F82C000220184908701CE0164800782F
:101F4000022804D115480078401E1449087013482F
:101F50000078B04201DA1148067003200E4908707B
:101F600000200B4981F82C0005E0002700200849DB
:101F700081F82C0000BF00BF002056E77010002041
:101F8000B40E002066120020260E0020041300204C
:101F9000880F0020CC120020BA000020BB000020D7
:101FA00010B5012000F002F9A8B10B48B0F8B60056
:101FB000401C0949A1F8B600084690F8270038B936
:101FC000012081F82700084690F8260081F82800B3
:101FD000012000F0E5F810BD880F002010B54FF487
:101FE000806000F0E3F818B14FF4806000F0D8F89A
:101FF0004FF4006000F0DAF818B14FF4006000F020
:10200000CFF84FF4805000F0D1F8002870D00120B4
:102010004549087300204549C8720873084680780E
:1020200040B10846C07A4FF40040414908600220A0
:10203000086008E03D48007B4FF400403C49091D22
:102040000860022008603948407818B140203949BA
:10205000086102E04020374948613448007818B1EF
:1020600080203449086102E08020324948612F48CD
:10207000407920B14FF480402D49086004E04FF4CE
:1020800080402B49091D08602848807920B14FF411
:1020900080702949086004E04FF480702649091DCA
:1020A00008602248C07820B14FF48070214908614F
:1020B00003E04FF480701F4948611C48807A18B1D2
:1020C00008201B49086003E008201949091D086021
:1020D0001648407A20B14FF400701649086103E0B9
:1020E0004FF40070134948614FF4805000F058F8E5
:1020F0004FF4005000F05AF818B14FF4005000F0BF
:102100004FF84FF4804000F051F818B14FF4804080
:1021100000F046F84FF4004000F048F818B14FF4D2
:10212000004000F03DF810BD880F00204817002047
:1021300010140140001001401008014010B510209B
:1021400000F034F810B1102000F02AF810BD10B5DE
:10215000202000F02BF810B1202000F021F84020C2
:1021600000F024F810B1402000F01AF8802000F0B0
:102170001DF810B1802000F013F84FF4807000F0CB
:1021800015F818B14FF4807000F00AF84FF40070A1
:1021900000F00CF818B14FF4007000F001F810BD19
:1021A0000149086070470000140401400146002006
:1021B0000022074B1B6803EA0102054B14331B681E
:1021C0000B4013B10AB1012000E00020704700006D
:1021D00000040140002123498279002A3AD00A46AE
:1021E000126803689A430B461A600A1D1268036856
:1021F0009A430B1D1A60027911440A6803681A4356
:102200000A60184A0832126803689A43154B08336B
:102210001A601A1D126803689A43124B0C331A6035
:102220004279102A0ED11A1F126803681A430D4B07
:1022300008331A601A1D126803681A43094B0C33DD
:102240001A600DE00749427911440A6803681A438D
:102250000A6005E0027911440A6803689A430A603B
:10226000704700000004014010B5214890F87D003F
:1022700078B91F4890F8950018B101201C4981F8E1
:102280009A0000201A4981F87D0081F895001949CB
:1022900048711748B0F88400B0F5E16F05DB002005
:1022A000154908701249A1F88400114890F895006A
:1022B000E8B90F4890F87D00C8B10AF02DF8012068
:1022C0000B4981F8950081F867000A494871084870
:1022D00090F87D0008490978884204D0044890F8B5
:1022E0007D000549087000200149A1F8840010BD57
:1022F000880F0020FC000020A30000200149C860D6
:10230000704700000020024030B5044604254FF419
:10231000302000F001F90546042D17D10C48006962
:1023200040F002000A49086108464461006940F033
:10233000400008614FF4302000F0EEF805460448F4
:10234000006941F6FD71084001490861284630BD29
:102350000020024004200B49C96801F0010109B1C5
:1023600001200EE00749C96801F0040109B102200B
:1023700007E00449C96801F0100109B1032000E039
:10238000042070470020024000200449C96901F080
:10239000020109B1012000E0002070470020024046
:1023A0000348006940F0800001490861704700005F
:1023B000002002400549096821F01001034A11601C
:1023C0001146096801431160704700000020024077
:1023D00078B506460C46042500200090E80200F07F
:1023E0009BF80546042D24D11348006940F00100F4
:1023F000114908613480E80200F08EF80546042D8A
:1024000010D1B01C0090200C00990880E80200F068
:1024100083F805460848006941F6FE710840064900
:10242000086106E00448006941F6FE71084002496F
:102430000861284678BD00000020024030B50546FE
:1024400004244FF4302000F067F80446042C41D1F6
:10245000214822498860224888600846006940F087
:10246000200008610846006940F0400008614FF410
:10247000302000F051F80446042C22D1174800699E
:1024800041F6DF710840154908610846006940F0CF
:10249000100008611DB100201249088002E0A5204B
:1024A000104908804FF4302000F036F80446052C1F
:1024B00010D00A48006941F6EF71084007490861E9
:1024C00008E0052C06D00548006941F6DF71084098
:1024D00002490861204630BD2301674500200240C3
:1024E000AB89EFCD00F8FF1F01460020034A1068BA
:1024F00000F03800084310607047000000200240E0
:102500000248034948600348486070472301674513
:1025100000200240AB89EFCD00B502460423FFF74F
:1025200019FF034603E0FFF715FF0346521E012B78
:1025300001D1002AF7D102B90523184600BD0000D9
:102540000020174991F8681011B30021144A82F84D
:1025500068101449096B0A2902D21249096B11B992
:102560000321104A11630E49B1F8B610002910DD9D
:102570000B49B1F8B610C1EB01118900094A126B81
:10258000B1FBF2F1064AA2F8B8100021A2F8B61089
:1025900005E00021024AA2F8B610A2F8B810704770
:1025A000880F00207010002010B5642003F0DAF9C5
:1025B00064200149087010BD470000200020034935
:1025C00081F82C000249487170470000880F0020F4
:1025D000481700200548B0F8BE00022801DC0020A2
:1025E00070470120024948710020F9E7880F002058
:1025F0004817002010B5FFF7C7FE012806D0FFF7E7
:102600007FFF0120FFF71AFFFFF7CAFE10BD000091
:1026100070B5082600240025354890F83D0008B91B
:10262000002070BD0020324981F83D00012081F872
:102630002E00084690F82C00642806DC084690F826
:102640002C0000EB8000450000E0002529480078C0
:10265000401C2849087008460078052805DD002040
:10266000254908702349087002E0012022490870BA
:102670002148007810B1012833D118E01F480670B6
:1026800003201E49487000208870C870087101201E
:1026900048710821194801F071FD044620121749BC
:1026A0008871CC710822164806F06BFE1DE01348B5
:1026B0000670062011494870002088700120C870FB
:1026C000281208714D7108210C4801F057FD04468D
:1026D00020120A498871CC710822094806F051FE7F
:1026E00003E000200449087000BF00BF002098E705
:1026F000880F0020D9000020D80000200C070020FF
:102700000048004030B500228B071C0F0F2303FA4E
:1027100004F20B4B8C1053F824309343084C8D106B
:1027200044F8253023468C1053F824308C07240FAE
:1027300000FA04F42343024C8D1044F8253030BDD8
:10274000080001402DE9F041024600250026002046
:1027500000230024002791F803C00CF00F0591F826
:1027600003C00CF0100CBCF1000F03D091F802C0B4
:102770004CEA050591F800C0BCF1000F31D0146897
:1027800000202BE04FF0010C0CFA00F3B1F800C070
:102790000CEA03069E4220D183004FF00F0C0CFA86
:1027A00003F7BC4305FA03FC4CEA040491F803C0A8
:1027B000BCF1280F06D14FF0010C0CFA00FCC2F856
:1027C00014C00AE091F803C0BCF1480F05D14FF0E6
:1027D000010C0CFA00FCC2F810C0401C0828D1D330
:1027E0001460B1F800C0BCF1FF0F34DD5468002064
:1027F0002EE000F1080C4FF0010808FA0CF3B1F8D4
:1028000000C00CEA03069E4221D183004FF00F0C5A
:102810000CFA03F7BC4305FA03FC4CEA040491F8F4
:1028200003C0BCF1280F05D100F1080C08FA0CF820
:10283000C2F8148091F803C0BCF1480F07D100F131
:10284000080C4FF0010808FA0CF8C2F81080401C80
:102850000828CED35460BDE8F0810000F0B50A46E8
:10286000002300240021002500F00046B6F1004FAF
:1028700002D11D4EF16901E01B4E7168C0F30345A2
:1028800083B200F44016B6F5401F08D121F0706104
:10289000154E766826F07066134F7E6012E000F4E5
:1028A0008016B6F5801F06D1032606FA05F4A1436B
:1028B00041F0706106E0460D360103FA06F6B143B9
:1028C00041F0706122B1460D360103FA06F631433C
:1028D00000F00046B6F1004F02D1034EF16101E075
:1028E000014E7160F0BD0000000001400246002072
:1028F00093680B400BB1012000E0002070470AB143
:10290000016100E04161704710B5FFF757FE0220FA
:102910000749A1F8C00003F0E5FC03F0C7F803F095
:102920003BFD00F0B7FC06F03DFD002010BD0000AF
:10293000880F0020014600BF40F6E44301FB03F28C
:10294000D31702EB1353C3F30F30174AD083B0F5FC
:10295000BE7F04DD40F22F22904200DA501C134A61
:10296000526DA02A08D8A0F22F2202EB8202520058
:102970008C2392FBF3F290B20C4A526DA02A0DD92F
:102980000A4A526DFA2A09D8A0F22F2202EBC2039A
:1029900003EB0212E02392FBF3F290B2B0F5004F8A
:1029A00001DD40F2E7307047880F002070100020F2
:1029B0000820002100BF544A9278012A06D1524AC9
:1029C000527812B1504A127802B901214E4A527817
:1029D000012A03D14C4A127802B9012199B14B4A1C
:1029E00092F88A2032B10122484B83F88D2083F877
:1029F0004B2003E00022454B83F88D200122434BFE
:102A000083F8472007E00022404B83F84B2083F8EF
:102A1000472083F846203D4A92F84A20052A07DBE2
:102A200000223A4B83F88D2083F84B2083F84A200C
:102A3000374A127802B90520344A92F88A2052B1F6
:102A4000334A1278022A06D12F4A12780AB1082096
:102A500002E0052000E00A202C4A92F8462082423B
:102A60000DDB2A4A92F87D201AB90822274B83F8F9
:102A70007D200022254B83F8472083F84620224AF8
:102A8000927AC2B9214A92F845201AB900221F4B06
:102A900083F8442001221D4B83F845201A4692F802
:102AA0004420012A0DDD1A4692F87D204AB90F22F2
:102AB00083F87D2005E00022144B83F8452083F83D
:102AC0004420114AD27AC2B9104A92F843201AB966
:102AD00000220E4B83F8422001220C4B83F8432046
:102AE0001A4692F84220012A0DDD1A4692F87D20FE
:102AF0004AB9012283F87D2005E00022034B83F8C8
:102B0000432083F84220704766120020880F00207F
:102B1000260E002070B5044603F0C2F84FF4803052
:102B200003F080F903F0DCF90546012D23D11020D4
:102B3000FFF740FC0220FFF7D7FC002003F066F906
:102B4000A80203F095F9002003F09EF9214628041D
:102B500003F0ACF9012003F0A3F900BF392003F022
:102B60002FF90028FAD0022003F0AEF900BF03F0DD
:102B700045F90828FBD170BD00BFFEE710B5284815
:102B800090F87D0078B9264890F8950018B101209A
:102B9000234981F89A000020214981F87D0081F8BD
:102BA0009500204948711E48B0F88400B0F5E16FE7
:102BB00005DB00201C4908701949A1F88400184859
:102BC00090F8950058BB164890F87D0038B314482B
:102BD00090F87D00FF2822D0002014490870144886
:102BE0000078022801D109F097FB01200D494871B6
:102BF0000B4981F8950081F8670081F89A00084632
:102C000090F87D0008490978884204D0044890F87B
:102C10007D000549087000200149A1F8840010BD1D
:102C2000880F0020FC000020A40000208800002065
:102C3000260E00201FB50121202003F011F84FF4CB
:102C40008050ADF80C0048208DF80F0003A92C48E7
:102C5000FFF778FD0121084603F002F80C2103205C
:102C6000FFF750FD4FF48050019000208DF80800D0
:102C700008208DF8090001208DF80A0001A8FFF74F
:102C8000A9FA28208DF8000002208DF801008DF8A7
:102C9000020001208DF80300684602F097F8012138
:102CA000082002F0DDFF0120ADF80C0048208DF86F
:102CB0000F0003A91348FFF745FD00210120FFF78E
:102CC00021FD0120019000208DF8080008208DF8DA
:102CD000090001208DF80A0001A8FFF77BFA062001
:102CE0008DF8000002208DF801008DF8020001200F
:102CF0008DF80300684602F069F8002004B010BDAA
:102D000000140140000C014070B505460C4645F228
:102D1000555000F02BF8284600F01CF8204600F033
:102D20001FF800F00FF800F001F870BD4CF6CC4031
:102D300001490860704700000030004010B500F005
:102D400001F810BD4AF6AA2001490860704700004A
:102D500000300040014948607047000000300040EA
:102D60000149886070470000003000400149086058
:102D7000704700000030004000B50D4890F87D001D
:102D800008B1002000BDFFF713FE0A48007860B9C3
:102D9000074890F88A00012807D1054890F87D007F
:102DA00018B90720024981F87D000020EAE70000F9
:102DB000880F00208C00002000B5FFF7F9FD0B48BC
:102DC000C0880B49896B884207D90A4890F87D0072
:102DD00018B91020074981F87D000748007A0128BA
:102DE00003D10320034981F87D0000BDF8180020BD
:102DF00070100020880F00206612002010B50121FD
:102E0000084602F02DFF01210148FFF727FD10BD04
:102E10000002300070B5044600250026B248007854
:102E200010B101287ED14DE1002504EB4400AF49EB
:102E300001EB0010407B60B104EB440001EB00109B
:102E4000407B401E04EB4401A84A02EB0111487389
:102E5000012504EB4400A54901EB0010407C68B15A
:102E600065B904EB440001EB0010407C401E04EB0C
:102E700044019E4A02EB01114874022504EB440010
:102E80009A4901EB0010407E68B165B904EB44003B
:102E900001EB0010407E401E04EB4401934A02EB1C
:102EA00001114876032504EB4400904901EB001022
:102EB000C07C68B165B904EB440001EB0010C07C34
:102EC000401E04EB4401894A02EB0111C874042539
:102ED00004EB4400854901EB0010407D68B165B901
:102EE00004EB440001EB0010407D401E04EB440164
:102EF0007E4A02EB01114875052504EB44007B492D
:102F000001EB0010C07D78B175B904EB440001EB12
:102F10000010C07D401E04EB4401744A02EB011115
:102F2000C87500E0D8E0062504EB44006F4901EBCA
:102F30000010C07B68B165B904EB440001EB0010E0
:102F4000C07B401E04EB4401684A02EB0111C873C8
:102F5000072504EB4400654901EB0010C07E68B111
:102F600065B904EB440001EB0010C07E401E04EB89
:102F700044015E4A02EB0111C87609257DB904EBD4
:102F800044005A4901EB0010007B0A2807DD0020AD
:102F900004EB4401554A02EB0111087308250A2D80
:102FA00077D2DFE805F00518232E39444F5A656AB9
:102FB00004EB44004D4901EB0010007B401C04EB86
:102FC00044014A4A02EB011108731222642120468F
:102FD00000F0D2FF5FE004EB4400444901EB001035
:102FE000827B6421204600F0EDFF54E004EB4400B6
:102FF0003E4901EB0010827C7021204600F0E2FF88
:1030000049E004EB4400394901EB0010827E6F2156
:10301000204600F0D7FF3EE004EB4400334901EBCB
:103020000010027D7121204600F0CCFF33E004EB5C
:1030300044002E4901EB0010827D7221204600F0F1
:10304000C1FF28E004EB4400284901EB0010027E98
:103050007321204600F0B6FF1DE004EB4400234935
:1030600001EB0010027C6B21204600F0ABFF12E068
:103070009621204600F0CCFF0DE004EB44001B49F4
:1030800001EB0010027F7521204600F09BFF02E05B
:10309000FFE7002500BF00BF04EB4400134901EB2C
:1030A00000108088401C04EB4401104A02EB01111F
:1030B000888000200E4948730B480078401C0A495C
:1030C00008700DE00A48407B28B100200849487389
:1030D00005490870012603E000200349087000BF7D
:1030E00000BF304670BD0000DB000020941A0020B5
:1030F000880F002008B510208DF8030003208DF8FC
:1031000002000121202002F0ABFD1020ADF80000EC
:103110008DF8030003208DF8020069464148FFF74F
:1031200011FB0121402002F09BFD0420ADF80000BE
:1031300010208DF8030003208DF8020069463A48FC
:10314000FFF700FB0121402002F08AFD0820ADF8C6
:10315000000010208DF8030003208DF8020069465E
:103160003148FFF7EFFA0121102002F079FD3020FD
:10317000ADF8000048208DF8030069462B48FFF7A2
:10318000E1FA0121042002F06BFDC020ADF800003F
:1031900048208DF8030069462548FFF7D3FA01213E
:1031A000202002F05DFDE020ADF8000048208DF801
:1031B000030069461B48FFF7C5FA0121092002F008
:1031C0004FFD01211B48FFF749FB0121082002F0B8
:1031D00047FD4FF47E70ADF8000048208DF80300E5
:1031E00069461548FFF7AEFA0121402002F038FD8C
:1031F0000320ADF8000048208DF8030069460A4816
:10320000FFF7A0FA0121082002F02AFD0120ADF805
:10321000000048208DF8030069460748FFF792FA3E
:1032200008BD0000001401400018014000100140DA
:103230000008014000023000000C014010B503F00E
:10324000ABF80120034981F89A00002081F896002C
:1032500010BD0000880F002010B503F0ABF801206E
:103260000A4981F8960081F89A00FFF79DF907480E
:1032700090F8980020B10649486806F0B1FD03E0D7
:1032800043F6982006F0ACFD10BD0000880F00202A
:103290007010002000200149487270474817002034
:1032A00070B500BF00BF00263348D0F8C800C0EB9F
:1032B000001084003048D0F8CC0000EB80004FF6BE
:1032C000FF7101EA40052C48D0F8C000012804D065
:1032D0002948D0F8C000032801D1002070BD27483C
:1032E0000078032801D10020F8E72448007802285C
:1032F0000FD1234890F88A0058B1214890F8300047
:1033000038B11F48406B401C1D494863002081F8BC
:1033100030001B48406BA04206D300201849486388
:10332000886301201749087016480078E0B11448F6
:10333000806BA84214D21448407970B100F026F88E
:103340000F4890F83C00A0B100200D4981F83C00E6
:103350000846806B401C88630BE0FFF79BFF08E08A
:1033600000200849087004E0002005498863FFF741
:1033700091FF0020B2E7000070100020260E002010
:10338000880F0020B30000204817002001200249C8
:1033900048720020704700004817002000200149B3
:1033A00048717047481700200120024948710020E9
:1033B000704700004817002000BFFEE72DE9FF5FBF
:1033C0004FF0000A0027002500200390804602905D
:1033D00083460024814601900026FC4890F87A003C
:1033E0000F2852DBFA48D0F8C00020B1F848D0F8D6
:1033F000C00001280ED1F7480078022801D108F05A
:103400008BFFF4480078032804D10020F1490870AC
:10341000FFF77AFAEE48D0F8C000022804D0EC4852
:10342000D0F8C00003282AD1EB48008801280FD12A
:103430000020E9490880E7480078022801D108F017
:103440006BFF0321E54880F86D10002180F86E10B5
:10345000E1480088032812D10020DF490880DD48B8
:103460000078032804D10020DA490870FFF74CFAED
:103470000321DA4880F86D10002180F86E100120D9
:10348000D24981F86700D6494871D64890F85D0264
:10349000002878D00020D34981F85D02002240F254
:1034A0002551D14805F015FCCE4890F85902401E30
:1034B000CE490A5CCB4890F85902801E085C02EBAA
:1034C00000201FFA80F8C74890F85912C74800F04A
:1034D00055FE40457BD1C34890F82D010290002055
:1034E000BA4981F87A000298032874D1BD4890F84F
:1034F0002F1190F82E0101EB00201FFA80FBB94834
:1035000090F8311190F8300101EB002084B2A1460F
:10351000BBF1000F03D0BBF1C80F5AD127E08825BB
:103520000120B049087003204870084685700327C1
:1035300006E0F81EAE49085CAA49C855781CC7B217
:10354000E81C8742F5DB681DC1B2A64800F016FEF4
:1035500080464FEA2821A34AE81C1154281D02F88E
:1035600000806A1D9F49A04805F00BFF32E0022051
:103570000390482501209B490870032048700846A5
:10358000857003270CE0FCE3039800EBC000994929
:1035900001EBC001F81E085C9249C855781CC7B2FF
:1035A000E81C8742F0DB681DC1B28E4800F0E6FDE2
:1035B00080464FEA28218B4AE81C1154281D02F846
:1035C00000806A1D8749884805F0DBFE02E06DE057
:1035D00001E000BF00BF0298102867D1814890F831
:1035E0002F1190F82E0101EB00201FFA80FB7D487F
:1035F00090F8311190F8300101EB00201FFA80F9AA
:10360000784890F8331190F8340101EB002084B22F
:10361000BBF1280F71D018DCBBF1280F6ED2DFE8A8
:103620000BF059616E6D7A6DA8BBFC6D6D6D6D6DA3
:103630006D6D6D6D6D6D6D6DFBFAF9F8F7F6F5F466
:10364000F3F2F1F0EFEEEDECEBD4BBF1C90F7DD06E
:1036500027DCBBF1370F7AD014DCBBF1330F77D006
:1036600009DCBBF1290F74D0BBF12A0F72D0BBF17A
:10367000320F43D120E2BBF1340F6CD0BBF1360FD7
:10368000F7D144E2ABF138000928C7D2DFE810F0E7
:103690005F02360073023600E20236001B0336007A
:1036A0004C03ABF1CA001128B8D200E0FCE3DFE81C
:1036B00010F079032500890325009903A903CB03A2
:1036C000250025002500DB03EA03FC0325000B048D
:1036D0001C042B04204601F05BFA4946584601F0D1
:1036E00035FA04E224B942484480384981F87D40E3
:1036F0004946584601F02AFAF3E7ACE1F4E3642CBA
:1037000004DC3B488480E0B202F02CF9494658467C
:1037100001F01CFAE5E7012C26DC0ED1012034492A
:10372000088103202949A1F8BE00FEF753FF32208B
:10373000264981F82C0002F003FEACB900202C4988
:103740000881FEF73BFF0220204905E01AE3EAE189
:10375000C0E191E1A0E1CBE1A1F8C00002F0C2FD1F
:1037600000201A4981F82C004946584601F0EEF92C
:10377000D5E3012C0BDC04D101201D49888102F026
:10378000A1F924B900201A49888102F08FF949462D
:10379000584601F0DBF9C2E3012C13DC1448C48164
:1037A00007D101201249C88102F004FE642002F012
:1037B000D9F83CB900200E49C88102F0EDFD002087
:1037C00002F0D0F84946584628E033E1880F00203F
:1037D00070100020260E0020801A0020941A00206D
:1037E000FC000020AE04002000440040DA05002068
:1037F000041300208C1300200AE1FAE0E8E0D8E08E
:10380000BCE0A8E099E086E076E066E053E040E0C6
:1038100038E030E028E020E018E002E001F096F91E
:103820007DE3012C0DDCFE48048204D10120FC491B
:103830000882FFF7ABFD24B90020F9490882FFF7A1
:1038400029FD4946584601F081F968E3F44884852A
:103850004946584601F07AF961E3F148C485494682
:10386000584601F073F95AE3ED4804864946584634
:1038700001F06CF953E3EA4844864946584601F0A2
:1038800065F94CE3E64884864946584601F05EF9FE
:1038900045E3142C0ADB782C08DCE148C4864FF49D
:1038A0007A706043DF49086005F086FF4946584654
:1038B00001F04CF933E3142C0ADB782C08DCD848EF
:1038C00004874FF47A706043D649486005F074FF6E
:1038D0004946584601F03AF921E3142C07DB3C2C09
:1038E00005DCCF484487CF48046105F065FF4946B1
:1038F000584601F02BF912E31E2C07DB642C05DC83
:10390000C7488487C748446205F056FF4946584671
:1039100001F01CF903E3502C0ADBDC2C08DCC04866
:10392000C48704EB84004000BE49886305F044FF6F
:103930004946584601F00AF9F1E2012C06DCB84884
:10394000A0F84040B748846205F036FF4946584623
:1039500001F0FCF8E3E2B4F5FA7F0ADB40F6B83098
:10396000844206DCAE48A0F84240AE48446305F00D
:1039700023FF4946584601F0E9F8D0E2012C13DC58
:10398000A748A0F844400120A74981F8660001211A
:10399000A64880F87C10032180F87B10012180F874
:1039A000AC10032180F8AB104946584601F0CEF820
:1039B000B5E2012C07DC9A48A0F846409948C0F8C7
:1039C000BC4005F0F9FE4946584601F0BFF8A6E2B2
:1039D000192C09DB642C07DC9148A0F84840914879
:1039E000C0F8B84005F0E8FE4946584601F0AEF888
:1039F00095E2012C07DC8A48A0F84A408948C0F8C3
:103A0000B04005F0D9FE4946584601F09FF886E2DD
:103A1000C82C0ADBB4F5AF7F07DC8148A0F84C4026
:103A20008048C0F8A84005F0C7FE4946584601F056
:103A30008DF874E2012C09DB3C2C07DC7848A0F8F7
:103A40004E407848C0F8C84005F0B6FE4946584692
:103A500001F07CF863E2012C09DB3C2C07DC7048A8
:103A6000A0F850406F48C0F8CC4005F0A5FE49468C
:103A7000584601F06BF852E2002C08DBFA2C06DC09
:103A80006748A0F852406748C46405F095FE49466F
:103A9000584601F05BF842E2012C08DB0A2C06DCF8
:103AA0005F48A0F854405F48046305F085FE49462E
:103AB000584601F04BF832E2012C06DC5848A0F8D9
:103AC00064405B48C46005F0E7FF4946584601F092
:103AD0003DF824E2142C06DD5148A0F86640514818
:103AE000C46705F069FE4946584601F02FF816E212
:103AF000142C07DD4A48A0F868404A48C0F88040C6
:103B000005F05AFE4946584601F020F807E2012C1C
:103B100004DC4348A0F86C4005F04EFE4946584688
:103B200001F014F8FBE1012C0CDC4248A0F86A40DB
:103B3000B0F86A003A49A1F86E003C4880F8384075
:103B400006F002F84946584601F000F8E7E1032C78
:103B50000CDC3348A0F870403248C0F8C04005F093
:103B60002BFE354800682F49C1F8C0004946584629
:103B700000F0ECFFD3E1B9F1020F6AD12F4890F8C1
:103B800033012F4908702D4890F8340148702B48B4
:103B900090F835018870294890F83601C8700846B9
:103BA00000681F494867486F264909F0B3FB009039
:103BB00009F030FB86B20A2E2FDB1A48406DB04266
:103BC0002BD31B4806601E480068154948671848F3
:103BD000006817494968884219D9154800680A30B1
:103BE00013494860084640680E49496D884204D32D
:103BF0000C48406D401E0E4948600D49486809F068
:103C000041FB1049009009F043FA0549886705F027
:103C100043FF0D48806A064908604946584616E049
:103C20000413002070100020880F0020941A002038
:103C3000541000208C130020B0B80108AE040020FE
:103C40007C0000200000C8420020030801E000F0D2
:103C50007DFF64E1B9F1020F34D1BC4890F8330123
:103C6000BB490870B94890F834014870B74890F8DB
:103C700035018870B54890F83601C870084600686C
:103C8000B4498867886FB44909F044FB009009F093
:103C9000C1FA86B2B1480068B0420FD8B048406D52
:103CA000B0420BD3AD484660A9480068A94988676F
:103CB00005F0F2FEAB48C06AA8494860494658463C
:103CC00000F044FF2BE1B9F1020F2CD19F4890F88E
:103CD00033019F4908709D4890F8340148709B4813
:103CE00090F835018870994890F83601C8700846F8
:103CF00000689849C867C86F974909F00BFB0090A6
:103D000009F088FA86B295484068B04207D99348CE
:103D100086608F4800688F49C86705F0BDFE494638
:103D2000584600F013FFFAE0B9F1020F28D1874896
:103D300090F8330186490870844890F8340148703F
:103D4000824890F835018870804890F83601C87034
:103D5000084600687F49C1F88000D1F880007E499C
:103D600009F0D8FA009009F055FA86B2FA2E03DC71
:103D70007B48466505F020FD4946584600F0E6FEC2
:103D8000CDE0E1E0012C08DC7748A0F89240032167
:103D9000764880F86F1080F870404946584600F029
:103DA000D5FEBCE0642C08DC6F48A0F894400321E9
:103DB0006E4880F8791080F87A404946584600F0FD
:103DC000C5FEACE0012C08DC6748A0F89840032150
:103DD000664880F8731080F874404946584600F0F1
:103DE000B5FE9CE0012C08DC5F48A0F89C40032154
:103DF0005E4880F8751080F876404946584600F0D5
:103E0000A5FE8CE0012C1ADC0CD101215648A0F84B
:103E10009E106421A0F894100321544880F871107A
:103E200080F872405CB900214F48A0F89E10A0F8BD
:103E3000941003214D4880F8711080F87240494673
:103E4000584600F083FE6AE0012C08DC4648A0F8E2
:103E5000A0400321454880F8771080F87840494613
:103E6000584600F073FE5AE03C2C07DC3E48A0F8B0
:103E7000A8403E4880F88A4005F066FE494658460C
:103E800000F064FE4BE0642C09DC1E2C07DB364896
:103E9000A0F8AA40354880F88B4005F055FE494609
:103EA000584600F053FE3AE03AE0C82C07DC2E48B2
:103EB000A0F8AC402D4880F88C4005F045FE4946FE
:103EC000584600F043FE2AE0B4F5C87F07DC2648D8
:103ED000A0F8B0402548A0F88E4005F035FE4946D0
:103EE000584600F033FE1AE018E0012C07DC1E48AB
:103EF000A0F8B2401D4880F8684005F025FE49460C
:103F0000584600F023FE0AE0012C02DC1648A0F817
:103F1000B4404946584600F019FE00E000BF00BF1B
:103F20004FF0000A07E00021114800F80A100AF1DA
:103F3000010000F0FF0ABAF1C80FF4DB012240F2E1
:103F400025510C4804F0C5FEBDE8FF9FAE040020DB
:103F50007C000020041300200000C8425410002000
:103F600070100020002003088C130020941A0020F9
:103F7000DA050020004400402DE9F04106460C46D9
:103F8000154600270D48067003200C494870201282
:103F90008870CC70281208714D710821074800F014
:103FA000EDF80746381205498871CF710822044898
:103FB00005F0E7F90020BDE8F08100000C070020C3
:103FC000004800402DE9F04106460C461546002702
:103FD0000D48067006200C49487020128870CC707D
:103FE000281208714D710821074800F0C7F80746EC
:103FF000381205498871CF710822044805F0C1F9CB
:104000000020BDE8F08100000C07002000480040BF
:104010002DE9F04104460D46002600275248047061
:1040200010205149487028128870CD700020087106
:1040300012204871242088714C480088000AC871F9
:104040004A480078087249488088000A4872474800
:104050000079887245480089000AC8724348007A8E
:1040600008730020487304EB4400414901EB001041
:1040700090F82A003C4988730020C87304EB440080
:104080003B4901EB001090F82B003749087404EB12
:104090004400374901EB0010C08D001232494874CA
:1040A00004EB4400324901EB001090F82E002E4939
:1040B00088740020C87404EB44002D4901EB001003
:1040C00090F82C002849087500204875294890F878
:1040D000B8008875274890F8C800C875254890F83A
:1040E000CC000876002048768876C876087748772E
:1040F0008877C87781F8200081F821001D4890F862
:10410000280081F82200002081F82300194890F847
:10411000BC0081F82400002081F82500154890F8A3
:10412000540081F82600002081F82700114890F8FB
:10413000C00081F82800002081F829000B48007B8E
:1041400081F82A002D21084800F018F806463012A0
:10415000054981F82B0081F82C602D22064805F0D6
:1041600010F90020BDE8F0810C0700205410002059
:10417000941A00207010002000480040F0B502465C
:104180000B464FF6FF71002411E0177879400025A7
:1041900008E001F00106491016B14AF20107794022
:1041A0006F1CBDB2082DF4DB521C671CBCB29F1EF5
:1041B000A742EADC0F063F0C47EA1120F0BD0000E1
:1041C00070B50024002500263D4890F85D020028C7
:1041D00074D000203A4981F85D02002240F2255156
:1041E000384804F076FD364890F85902401E3649AA
:1041F0000A5C334890F85902801E085C02EB0020EC
:1042000085B22F4890F859122F48FFF7B7FFA84200
:1042100045D12B4890F82C01FE282BD1284890F846
:104220002D01032826D1264890F82F1190F82E0151
:1042300001EB002086B2B6F57A7F1BD1204890F8BA
:104240002C011F490870032048700220887000204C
:10425000C8701E4890F84C00087107211848FFF7F5
:104260008DFF05462812164948718D7107221548A1
:1042700005F087F81548D0F8C00030B1012805D006
:10428000022806D0032808D104E000BF01F0CEF8D0
:1042900004E000BF00F0DCFD00E000BF00BF002430
:1042A00004E0002108480155601CC4B2642CF8DB0E
:1042B000012240F22551034804F00BFD70BD0000BF
:1042C00050020020003801407C03002070100020C4
:1042D0002DE9F0470024002500260027A046A1462E
:1042E000594890F8560040BB01241CE004EB440000
:1042F000564901EB001080881E2812DD002004EBD7
:104300004401524A02EB0111487004EBC401504AC7
:1043100022F8310004EBC40102EBC1004821FCF794
:104320008BF8601CC4B20D2CE0DB484890F86100AB
:1043300018B9002047494870C8704748D0F8BC00F9
:1043400048B1414890F82F000A2808DB13203E4965
:1043500081F87D0003E000203B4981F82F003F48B1
:1043600090F85D0200286CD000203C4981F85D0285
:10437000002240F225513A4804F0ABFC374890F84F
:104380005902401E37490A5C344890F85902801E91
:10439000085C02EB00201FFA80F9304890F82D618C
:1043A00090F82E7190F859122E48FFF7E7FE484515
:1043B00038D12A4890F82C51234890F8560038B943
:1043C000082D05DA254991F82D01294600F0D0F88D
:1043D000082D27D100201C4981F82E0081F82F00DC
:1043E000032E1FD1022F1DD11C4890F8301190F8D8
:1043F0002F0101EB00201FFA80F8B8F1EA0F04D179
:104400000120114981F82D0003E000200E4981F8B8
:104410002D000D4890F82D00012803D112200A49E3
:1044200081F87D00002404E000210E480155601C45
:10443000C4B2642CF8DB012240F22551084804F094
:1044400048FCBDE8F0870000880F0020941A002087
:104450008C130020CC120020701000200C070020CC
:10446000004800403808002070B5002400253A4874
:10447000D0F8C000022804D03748D0F8C000032884
:1044800018D1364890F85600012813DD334890F8CB
:1044900057000F280EDD32480078022801D107F0BE
:1044A0003BFF2F480078032802D100202C490870D8
:1044B000FEF72AFA2B4890F85D0200284AD0002027
:1044C000284981F85D02002240F22551264804F077
:1044D00000FC244890F85902401E24490A5C2148F7
:1044E00090F85902801E085C02EB002085B21D483E
:1044F00090F859121D48FFF741FEA8421BD11748FA
:1045000090F8560048B9174890F82C011249C96C28
:10451000884210D103F058FD0DE0124890F82C01AC
:104520000E4991F85610884205D100200B4981F8B8
:10453000570003F049FD002404E000210B48015519
:10454000601CC4B2642CF8DB012240F225510648FD
:1045500004F0BFFB70BD000070100020880F002029
:10456000260E00206A090020004C0040960A002018
:104570002DE9F04707460C464FF000090025A846F4
:104580000026002004EB4401DD4A02EB0111888083
:10459000012004EB440102EB01114870032F7DD18F
:1045A000D84890F82E91B9F1240FF8D104EB4400CB
:1045B000114601EB001080880A2806DD002004EB7C
:1045C000C401D14A22F831001DE0CE4890F83001F4
:1045D000022804D104EBC401CB4A22F83100C948B7
:1045E00090F8300128B9012004EBC401C64A22F832
:1045F0003100C44890F83C0128B1032004EBC40109
:10460000C14A22F83100BF4890F83C0104EBC401D4
:10461000BD4A02EBC1014880BA4890F8440104EB5E
:10462000C40102EBC1018880B64890F83E0104EB5A
:10463000C40102EBC101C880B24890F8480104EB04
:10464000C40102EBC1010881AE4890F8360104EBC9
:10465000C40102EBC1014881AA4890F84A0104EB69
:10466000C40102EBC1018881A64890F8460104EB21
:10467000C40102EBC101C881A24890F84C0104EBCF
:10468000C40102EBC10108829E4890F8401190F8E5
:104690003F0101EB002004EBC40100E0BAE002EBB3
:1046A000C1014882974890F8521190F8510101EBEE
:1046B000002004EBC40102EBC101C88404EB4400F8
:1046C0008F4901EB001090F82A0004EBC40102EBC3
:1046D000C101088304EB4400894901EB001090F804
:1046E0002B0004EBC40102EBC101488304EB44003E
:1046F000834901EB001090F82C0004EBC40102EB9D
:10470000C101888304EB44007D4901EB0010C08D9A
:1047100004EBC40102EBC101088404EB44007849B6
:1047200001EB0010007A04EBC40102EBC1014884E4
:10473000022C0BD104EBC400114601EBC000007A3F
:10474000724948706F4890F84E01C8706D4991F8F1
:10475000322191F8311102EB012008F07BFD8046F7
:104760000021404608F0A2FE0AD26949404608F0FE
:104770008FFC04EBC401644A02EBC101086306E04C
:10478000002004EBC401604A02EBC10108635D49EB
:1047900091F8422191F8411102EB012008F05AFDF5
:1047A00080460021404608F081FE0AD25849404622
:1047B00008F06EFC04EBC401534A02EBC1014863EC
:1047C00006E0002004EBC4014F4A02EBC10148633C
:1047D0004C4991F83A2191F8391102EB012008F087
:1047E00039FD804604EBC400474901EBC000C0F826
:1047F0004480444991F8382191F8371102EB0120A7
:1048000008F028FD804604EBC4003F4901EBC000DE
:10481000C0F84080062F70D13A4890F82F1190F8D8
:104820002E0101EB002085B2364890F8311190F846
:10483000300101EB002086B2642D1FD1002004EB73
:1048400044012F4A02EB01114873012E01D0022EC0
:1048500005D1022004EBC4012B4A22F831002EB905
:10486000012004EBC401284A22F83100032E05D1AF
:10487000032004EBC401244A22F831006B2D06D139
:10488000002004EB44011E4A02EB0111C8736F2D96
:1048900006D1002004EB4401194A02EB01114876CD
:1048A000702D06D1002004EB4401154A02EB0111E2
:1048B0004874712D06D1002004EB4401104A02EB2C
:1048C0000111C874722D06D1002004EB44010C4A7A
:1048D00002EB01114875732D06D1002004EB440151
:1048E000074A02EB0111C875752D06D1002004EBB3
:1048F0004401034A02EB0111C8760020BDE8F087AD
:10490000941A00200C0700208C130020CC120020E9
:104910000000C84210B58648D0F8C00020B18448D5
:10492000D0F8C00001282DD182480078012802D09B
:10493000022822D117E07E48D0F8BC0068B17E483A
:10494000407B78B1FDF764FE00207B4948737948CD
:104950000078401C7749087004E076480078401CD5
:10496000744908700DE07448407B28B100207249FA
:10497000487301206F49087003E001206D490870F9
:1049800000BF00BF6A48D0F8C000022804D06848C1
:10499000D0F8C00003287DD16648007806287AD276
:1049A000DFE800F0BF038590A3B50121634880F8DC
:1049B00031100021818680F836105F4890F87D0024
:1049C00018B901215D4880F832105B4890F87D10DD
:1049D0005B48A0F84A10594890F83D00B0B100215A
:1049E000564880F83D1090F83E0028B955480078A8
:1049F000022801D107F090FC504890F83E000128B1
:104A000004D15048007808B907F074FE4D4800788A
:104A100018B901204A49A1F848004A4800780228FC
:104A200002D14749A1F84800434890F87D0018B1E9
:104A300003204349A1F848004148B0F848004249E2
:104A4000A1F86A000846B0F86E103D48A0F86A1058
:104A50003D48B0F86C103A48A0F86C103A4881888C
:104A60003748A0F84C103848818F3548A0F86210BC
:104A70003548B0F856103248A0F86E1032484169F7
:104A80002F488167304881692D48C1672A4890F8CE
:104A9000560001E04AE044E028B926480078401C6E
:104AA0002449087002E00420224908703DE02148B2
:104AB0000078FEF7AFF920B11E480078401C1D4970
:104AC000087032E01B480078FEF7A4F960B118487E
:104AD000D0F8BC0028B117480078401C1549087070
:104AE00002E00120134908701FE01148D0F8BC0013
:104AF00060B11148407B48B1FDF78AFD00200E49A6
:104B000048730C480078401C0A4908700DE00A48B8
:104B1000407B28B1002008494873012005490870EE
:104B200003E001200349087000BF00BF002010BD52
:104B300070100020DA000020880F0020941A002056
:104B40008C130020260E00200413002070B50446AC
:104B50000D46002601200C490870102048702012D4
:104B60008870CC70281208714D7108210648FFF733
:104B700005FB0646301204498871CE7108220348AD
:104B800004F0FFFB002070BDAE0400200044004094
:104B900010B504463248D0F8C00030B1012805D025
:104BA000022825D0032856D123E000BF012C04D1D0
:104BB0002C48007808B907F09DFD74B929480078A1
:104BC000022801D107F0A8FB26480078032804D169
:104BD000002024490870FDF797FE032C07D12148D7
:104BE000007820B903201F490870FDF78DFE33E0DF
:104BF00000BF012C02D101201B490880BCB9194813
:104C00000078022801D107F087FB002016490880B0
:104C10000321164880F86D1080F86E401148007826
:104C2000032804D100200F490870FDF76DFE032C06
:104C300010D103200C4908800A48007820B90320CD
:104C400008490870FDF760FE0321084880F86D10E0
:104C500080F86E4000E000BF00BF002010BD0000E3
:104C600070100020260E0020801A0020941A0020C8
:104C700070B504460D4600260D4890F82C010C49ED
:104C800008700620487020128870CC7028120871B5
:104C90004D7108210648FFF771FA064630120449A3
:104CA0008871CE710822034804F06BFB002070BDB0
:104CB0006A090020004C004070B504460D460026ED
:104CC00001200C4908701020487020128870CC70A8
:104CD000281208714D7108210648FFF74FFA064661
:104CE000301204498871CE710822034804F049FB50
:104CF000002070BD6A090020004C00402DE9F04101
:104D000004460D4600260127114890F82C01012881
:104D100002DD104890F84C700D48077010200C49C7
:104D2000487020128870CC70281208714D710821CB
:104D30000748FFF723FA0646301205498871CE71FD
:104D40000822054804F01DFB0020BDE8F0810000AA
:104D50005002002070100020003801402DE9F04181
:104D600004460D4600260127114890F82C01012821
:104D700002DD104890F84C700D48077006200C4971
:104D8000487020128870CC70281208714D7108216B
:104D90000748FFF7F3F90646301205498871CE71CE
:104DA0000822054804F0EDFA0020BDE8F08100007B
:104DB000500200207010002000380140704710B5EC
:104DC0004FF4A06000F03AF810BD000070B500216B
:104DD00000230F22C47804B3154C246804F4E06463
:104DE000C4F5E064210AC1F10403CA40447804FA1E
:104DF00003F184781440214309010E4C0678A15533
:104E0000047804F01F050124AC4005786D11AD0055
:104E100005F1E025C5F8004109E0047804F01F051C
:104E20000124AC40044D0678761145F8264070BD4B
:104E30000CED00E000E400E080E100E00249014305
:104E4000024A1160704700000000FA050CED00E016
:104E50002DE9FF5F4FF0000B0020039080460126F4
:104E60000024824602904FF0010900250190009035
:104E70000027FE4890F82DB190F82F1190F82E01E0
:104E800001EB002086B2F94890F8311190F830011A
:104E900001EB002000F0FF08F44890F8311190F881
:104EA000300101EB002084B2F04890F82C01012879
:104EB00002DDEF4890F84C90BBF1030F03D0BBF13B
:104EC000060F7DD185E1822E7BD004DC642E07D0D5
:104ED000782E77D1A1E0962E75D0A02EF9D146E19B
:104EE000642E71D1B8F1120FFBD1E04880F8009028
:104EF0000320DE494870242088700020C870DD48F7
:104F00000078087100204871DB4800788871002023
:104F1000C87108724872D948807A8872D848C088A7
:104F20000A2190FBF1F01FFA80FA4FEA2A20CF49BC
:104F3000C87281F80CA0D149886A08F06BF987B271
:104F40003812CA4948738F730020C873CB488078E1
:104F5000087400204874C948007988740020C87417
:104F6000C648007A087500204875C448807988755D
:104F70000020C875C34890F89A000876C149D1F856
:104F8000D00008F047F987B23812B84948768F76D2
:104F9000BC49D1F8D40008F03DF987B23812B349C2
:104FA000C8760F7700204877B64890F89200887747
:104FB0000020C877B34890F8940081F8200004E0FE
:104FC00022E268E002E1A4E026E0002081F821006E
:104FD000AC4890F8980081F82200002081F8230066
:104FE000A84890F8960081F82400002081F8250058
:104FF000A44890F8900081F8260029219B48FFF7EB
:10500000BDF805462812994981F8270081F82850F3
:1050100029229D4804F0B5F9D9E0782E3AD1B8F1AB
:10502000040F37D1914880F8009003208F494870D1
:10503000082088709348806F944908600846C078BB
:105040008A49C870914880780871904840784871C2
:105050008E48007888718B48D0F8C0008B49086072
:105060000846C0788149C8718848807808728748A6
:10507000407848728548007888720D217B48FFF798
:105080007DF8054628127949C8720D730D227E48B5
:1050900004F077F99BE0822E3AD1B8F1040F37D1B2
:1050A000724880F80090032070494870082088708A
:1050B00072488069754908600846C0786B49C870B5
:1050C0007248807808717148407848716F4800785C
:1050D00088716C48D0F8C4006C4908600846C078F4
:1050E0006249C87169488078087268484078487297
:1050F0006648007888720D215C48FFF73FF8054646
:1051000028125A49C8720D730D225F4804F039F90C
:105110005DE0B8F1030F29D1544880F800900320D6
:10512000524948700620887059480088000AC870A3
:1051300057480078087156488088000A48715448DA
:105140000079887152480089000AC8715048007A75
:1051500008720B214548FFF711F80546281243490C
:1051600048728D720B22484804F00BF92FE0B8F119
:10517000040F2AD13D4880F8009003203B49487035
:10518000082088700020C8704248007D087141489E
:10519000C08A001248713F48807D88710020C87124
:1051A0003C48007E0872002048723A48407E88726F
:1051B0000D212E48FEF7E2FF054628122B49C87242
:1051C0000D730D22304804F0DCF800E000BF00BF92
:1051D0001BE1982E49D00CDC712E6ED004DC642EBD
:1051E00010D06A2E6AD16BE0962E68D0972EF9D136
:1051F000B9E0A02E7ED0A12E7DD0A22E7CD0A32EF1
:10520000F0D1F1E0194890F8311190F8300101EB3C
:1052100000201FFA80FABAF1000F16D11548008855
:1052200098B100201349088013480078022801D162
:1052300007F072F80321184880F86D10002180F8FB
:105240006E1021463046FFF789FDBAF1010F33D1C8
:1052500021463046FFF782FD0A48B0F86A00E8B9F7
:105260000848B0F8B200C8B9CCE08DE05002002088
:1052700070100020801A0020260E00200413002049
:10528000F81800208C130020003801407C0000201A
:1052900054100020880F0020941A00205C48B0F8B9
:1052A0006A0018B95A48B0F8B20028B159480088C5
:1052B00010B9012057490880A4E027E0A1E043E0AD
:1052C000554890F87D0018B95148B0F89200E0B107
:1052D00000214F48A0F892100321504880F86F1029
:1052E000002180F8701000204B4981F87D004C4966
:1052F000487102E055E05FE069E04871464981F895
:10530000950021463046FFF729FD7BE0424890F8A2
:105310007D0018B93E48B0F89200A0B100213C4889
:10532000A0F8921003213D4880F86F10002180F80A
:1053300070100020384981F87D00394948712146B4
:105340003046FFF70BFD5DE036484068A04209D9C2
:10535000142C07DB3348046004F09EFB21463046E2
:10536000FFF7FCFC4EE03048406DA0420BD92D48C1
:105370000068A04207D22B48446004F08DFB214610
:105380003046FFF7EBFC3DE026484068A04207D9D5
:105390002448846004F080FB21463046FFF7DEFCA1
:1053A00030E0012C07DC1C490C7504F075FB21462C
:1053B0003046FFF7D3FC25E0002C07DB1648C482FB
:1053C00004F06AFB21463046FFF7C8FC1AE0002CC7
:1053D00009DB0C2C07DC10490C7604F05DFB214640
:1053E0003046FFF7BBFC0DE0002C09DB1E2C07DC70
:1053F00009494C7604F050FB21463046FFF7AEFCDD
:1054000000E000BF00BF00E000BF00BFBDE8FF9F9D
:105410008C130020801A0020880F0020941A00208E
:10542000FC00002054100020701000202DE9F04FE7
:1054300089B000200890079080460024814606909D
:105440004FF0010A059000260025834604900027AE
:105450000390029000900190FD4890F82D01089073
:10546000FB4890F82F1190F82E0101EB00201FFA55
:1054700080F9F74890F8311190F8300101EB0020E5
:1054800000F0FF08F24890F8311190F8300101EB7C
:10549000002084B2EE4890F82C0101280DDDED4883
:1054A00090F84CA0EA4890F82C01EA49C96C88426F
:1054B00003D0002009B0BDE8F08F0898032804D07D
:1054C00006287DD010287CD1DFE1B9F1640F09D026
:1054D000B9F1780F63D0B9F1960F73D0B9F1A00F7D
:1054E00071D1C2E0B9F1640F58D1B8F10B0F55D1A9
:1054F000D74880F800A00320D5494870162088704E
:105500000020C870D44800780871D448008900127F
:105510004871D248007A88710020C871CF48807ADB
:10552000087200204872CE48807A88720020C872C3
:10553000CA48C0880A2190FBF1F0C5490873C948E0
:10554000808B00124873C748007F88730020C8739F
:10555000C44890F87D00087400204874C2488078E0
:1055600088740020C874BE4800790875002048750A
:10557000BD48407988750020C875BA4890F88A00FF
:1055800008761B21B248FEF7F9FD06463012B049F5
:1055900048768E761B22B54803F0F3FEB3E0AF49A0
:1055A000088907F06FFE0590B149059807F070FD76
:1055B000B0490860B9F1780F28D1B8F1020F03E0C3
:1055C000A3E0A6E123E09DE020D1A14880F800A05F
:1055D00003209F49487004208870A648C078C8708E
:1055E000A44880780871A34840784871A1480078A1
:1055F000887109219648FEF7C1FD0646301294498C
:10560000C8710E720922994803F0BBFE7BE0B8F125
:10561000030F29D18E4880F800A003208C494870E0
:105620000620887094480088000AC8709248007864
:10563000087191488088000A48718F480079887104
:105640008D480089000AC8718B48007A08720B21C6
:105650007F48FEF793FD064630127D4948728E72F0
:105660000B22824803F08DFE4DE0B8F1080F48D1BF
:10567000774880F800A00320754948701020887092
:105680000020C8707748007D08717648C08A0012F3
:1056900048717448807D88710020C8717148007E0F
:1056A0000872002048726F48407E8872734A516BBE
:1056B0009069FBF741FF07463D0C28126449C87208
:1056C0000D73BDB2281248738D736C4A116B50690B
:1056D000FBF732FF07463D0C28125D49C8730D7475
:1056E000BDB2281248748D7415215948FEF746FD45
:1056F000064630125649C8740E7515225B4803F0F1
:1057000040FE00E000BF00BF04E1B9F1980F5FD098
:105710000CDCB9F1640F16D0B9F16A0F2AD0B9F1D7
:10572000960F35D0B9F1970F75D140E0B9F1A00FC0
:105730005BD0B9F1A10F63D0B9F1A20F6DD0B9F16F
:10574000A30FF1D176E04448007838B9022C05D196
:1057500006F0D0FF21464846FFF700FB3E480078A0
:10576000022806D12CB906F0D7FD21464846FFF79E
:10577000F5FA88E000203B4981F87D0040494871F6
:10578000384981F8950021464846FFF7E7FA7AE064
:1057900039484068A04209D9142C07DB3648046018
:1057A00004F07AF921464846FFF7D8FA6BE0294819
:1057B000406DA0420BD930480068A04207D22E4865
:1057C000446004F069F921464846FFF7C7FA5AE0F9
:1057D00029484068A04207D92748846004F05CF952
:1057E00021464846FFF7BAFA4DE0012C07DC1D4977
:1057F0000C7504F051F921464846FFF7AFFA42E034
:10580000002C07DB1748C48204F046F921464846BD
:10581000FFF7A4FA37E035E0FFE7002C09DB0C2C9A
:1058200007DC10490C7604F037F921464846FFF7AB
:1058300095FA28E0002C09DB1E2C07DC09494C7680
:1058400004F02AF921464846FFF788FA1BE00000D9
:105850005002002070100020260E0020F8180020B2
:1058600004130020880F0020481700200038014052
:105870000000C8427C000020541000207812002054
:10588000FC00002000BF00BF44E0244890F8311124
:1058900090F8300101EB002000F0FF081F4890F85D
:1058A000341190F8330101EB002085B21B4890F8C9
:1058B000361190F8350101EB00201FFA80FBB9F199
:1058C000A40F03D0B9F1A60F20D10FE0B8F1020F59
:1058D0000BD10BEB05471248874206D3114887428C
:1058E00003D841464846FFF709FA10E0B8F1020F25
:1058F0000BD10BEB05470A48874206D3094887427C
:1059000003D841464846FFF7F9F900E000BF00BF61
:1059100000E000BF00BF0020CCE5000050020020E6
:10592000A08601003F420F00084890F8A20018B17D
:105930000020064981F8A200044890F8A50018B19B
:105940000020024981F8A50070470000880F002060
:1059500010B5042000F020F84FF48030FCF720FC54
:1059600010BD0000642800DD642040F2F51105221E
:1059700002FB1011044A11800449C873044988804D
:10598000044908707047000040040040260E0020C3
:10599000041300204700002001460020034A5268FB
:1059A0000A400AB1012000E000207047007000406A
:1059B00010B53648007802280ED1354890F87400AA
:1059C0003C280DDB0020324981F874003148006921
:1059D000401C3049086103E000202D4981F8740023
:1059E0002C4800692C490988884203D92A48008834
:1059F000284908612748006928490988884207D949
:105A00000020274981F83F00012081F8400005E08F
:105A10000020234981F83F0081F8400021480078A8
:105A200018B900201A49A1F86E001A480069012827
:105A300010D91D48007868B901201A490870144827
:105A4000B0F86E00032805DB0020087011490861DA
:105A500004F07AF80020124981F841000D480069ED
:105A60003C21B0FBF1F00E4981F84200002081F8A2
:105A70004300084800693C21B0FBF1F201FB120031
:105A8000074981F84400002010BD0000260E0020C8
:105A9000880F0020380F0020AC000020AA00002052
:105AA000B40E0020AE000020661200204FF480707B
:105AB0000249486100200249C87070470010014047
:105AC000481700204FF48070024908610120024904
:105AD000C87070470010014048170020704770B52B
