:020000040800F2
:10000000F820002011020008F15200089126000893
:10001000095000084D150008F7880008000000008E
:100020000000000000000000000000003F69000820
:10003000F918000800000000C15900080D6F000801
:100040002B020008DD5700082B020008415F000862
:100050002B0200082B0200082B0200082B020008CC
:100060002B0200082B020008011B00082B020008CD
:100070002B0200082B0200082B0200082B020008AC
:100080002B0200082B0200082B0200082B0200089C
:100090002B0200082B0200082B020008131B00088B
:1000A0002B0200082B0200082B0200082B0200087C
:1000B000B97700082B020008157900082B02000808
:1000C0002B0200082B0200082B0200082B0200085C
:1000D0002B02000819840008F184000899850008A3
:1000E000911A00082B0200082B0200082B020008BE
:1000F0002B0200082B0200082B0200082B0200082C
:100100002B0200082B020008D17F00082B020008F8
:1001100069820008418300082B0200082B020008B6
:100120002B0200082B0200082B0200082B020008FB
:1001300000F002F800F05CF80AA090E8000C82449D
:100140008344AAF10107DA4501D100F051F8AFF27A
:10015000090EBAE80F0013F0010F18BFFB1A43F0A5
:1001600001031847F4D1000014D200000A444FF0F4
:10017000000C10F8013B13F0070408BF10F8014B06
:100180001D1108BF10F8015B641E05D010F8016B4B
:10019000641E01F8016BF9D113F0080F1EBF10F8AF
:1001A000014BAD1C0C1B09D16D1E58BF01F801CBD2
:1001B000FAD505E014F8016B01F8016B6D1EF9D555
:1001C0009142D6D37047000000230024002500266A
:1001D000103A28BF78C1FBD8520728BF30C148BFAA
:1001E0000B607047002070471FB51FBD10B510BDD4
:1001F00000F0F2F91146FFF7F7FF0BF063FC00F097
:1002000010FA03B4FFF7F2FF03BC09F002F9000093
:100210000948804709480047FEE7FEE7FEE7FEE79A
:10022000FEE7FEE7FEE7FEE7FEE7FEE704480549D6
:10023000054A064B70470000197400083101000898
:10024000F8160020F8200020F8180020F8180020E8
:10025000704700000FB4044910B503AA029800F0DB
:10026000A5F910BC5DF814FB380000202DE9F05F03
:10027000894604464FF0000ADFF874B1FB44C0F829
:1002800020A02046E1688847002874D0252806D0A1
:10029000D4E901219047206A401C2062F1E7002642
:1002A0005F462046E16888472028054607DB312D58
:1002B00005D2781910F8200C08B10643F1E7B00711
:1002C00001D526F00406C4F81CA00027C4F818A025
:1002D0002A2D09D0284609F095F838B304EB870891
:1002E000303DC8F8185019E059F8041B204604EBBB
:1002F00087029161E1688847012F054618D1E069BE
:10030000002820DA26F020061DE0D8F8180000EBBF
:10031000800005EB40003038C8F818002046E1683E
:100320008847054609F06EF80028EED1012F0AD063
:100330002E2D08D12046E16888477F1C0546022FF4
:1003400046F02006C4DBA069002803DA404246F0EC
:100350000106A061F00701D026F010066C2D0BD02D
:10036000682D09D04C2D39D06A2D35D0742D35D05B
:100370007A2D33D016E038E0E1682F4620468847D2
:10038000B842054609D16C2F26D04FF48060E16851
:10039000064320468847054604E06C2F1AD04FF4E8
:1003A000807006430DB3A5F14100192802D820350D
:1003B00046F400664A462946204626604E46FFF728
:1003C00011FF80B101280BD0F61D26F0070000F1C7
:1003D000080956E74020E4E78020D8E70020D6E768
:1003E00006F104094DE7284652E7206ABDE8F09F70
:1003F000E6CF0000032A40F2308010F0030C00F03A
:10040000158011F8013BBCF1020F624498BF11F84E
:1004100001CB00F8013B38BF11F8013BA2F1040207
:1004200098BF00F801CB38BF00F8013B11F003037F
:1004300000F02580083AC0F0088051F8043B083AE3
:1004400051F804CBA0E80810F5E7121D5CBF51F885
:10045000043B40F8043BAFF30080D20724BF11F8FF
:10046000013B11F801CB48BF11F8012B24BF00F864
:10047000013B00F801CB48BF00F8012B704710B5D5
:10048000203AC0F00B80B1E81850203AA0E818508C
:10049000B1E81850A0E81850BFF4F5AF5FEA027C4D
:1004A00024BFB1E81850A0E8185044BF18C918C0BC
:1004B000BDE810405FEA827C24BF51F8043B40F85D
:1004C000043B08BF7047D20728BF31F8023B48BF42
:1004D00011F8012B28BF20F8023B48BF00F8012B80
:1004E00070474FF000020429C0F0128010F0030C96
:1004F00000F01B80CCF1040CBCF1020F18BF00F817
:10050000012BA8BF20F8022BA1EB0C0100F00DB8C5
:100510005FEAC17C24BF00F8012B00F8012B48BF23
:1005200000F8012B70474FF0000200B513469446C7
:100530009646203922BFA0E80C50A0E80C50B1F13B
:100540002001BFF4F7AF090728BFA0E80C5048BF4F
:100550000CC05DF804EB890028BF40F8042B08BFED
:10056000704748BF20F8022B11F0804F18BF00F8E9
:10057000012B7047704770477047704701694A1CEC
:1005800002610878704700B58FB0CDE901310021D4
:10059000059105497944CDE9031011466846FFF7F6
:1005A00065FE0FB000BD0000E5FFFFFF074B70B513
:1005B0000D467B44FFF7E7FF0446284600F008F8A5
:1005C00010B14FF0FF3070BD204670BDF3940000B5
:1005D000007B00F080007047754600F02BF8AE46B7
:1005E00005006946534620F00700854618B020B53F
:1005F000FFF71CFEBDE820404FF000064FF000075B
:100600004FF000084FF0000B21F00701AC46ACE8BA
:10061000C009ACE8C009ACE8C009ACE8C0098D4627
:10062000704710B50446AFF300802046BDE8104087
:10063000FFF7E7BD004870479816002021B1826897
:1006400042F00102826003E0826822F001028260CF
:10065000704721B1826842F48072826003E0826850
:1006600022F4807282607047014600208A6802F09E
:1006700004020AB1012000E000207047014600207A
:100680008A6802F008020AB1012000E000207047E9
:1006900030B502460020002350680F4C20400D79F1
:1006A0000C6844EA05242043506090680B4C2040BD
:1006B000D1E902542C434D7944EA4504204390602B
:1006C000D06A20F470000C7C641EE4B2234340EA3C
:1006D0000350D06230BD0000FFFEF0FFFDF7F1FFD8
:1006E0002DE9FE4F0024A346A14600200290824639
:1006F0004148007A00287BD000203F49087209F069
:10070000ADF900BF09E03D4951F824000CF0AAFC06
:100710003B4921F81400601CC4B2042CF3DB4FF4F5
:100720000051384805F04DF9002845D13248C088BD
:10073000401C3149C88000F00DFA824650460CF04A
:1007400091FA4FF04042304BCDE900010CF032F904
:10075000074600222D4B0CF099FA05460CF0F8F8EC
:1007600002904FF0834102980CF0BAFB01900CF01C
:100770008BFB05460022264B0CF01CF907460CF0BB
:10078000E7F80290234902980CF0A0FC05460CF013
:1007900069FC82461FFA8AF000F07EFB81464846DB
:1007A00008F048FA1C49C8800846C088642803DD60
:1007B0000846C0881938C880104948680CF052FCB7
:1007C00085B2284601F05AFE8346584605F078F96E
:1007D00011490881094988680CF044FC0649C8831E
:1007E0000649C8680CF03EFC0349088406F0E0F8AE
:1007F0000020BDE8FE8F000078100020CC13002000
:10080000FE00002000180140FFFF5F4100409F40B4
:100810000000E03F0000C8426C150020F0B504461F
:100820000D4600200021092D11DDE068A5F10A0622
:1008300006EB4607072606FA07F18843A5F10A06E4
:1008400006EB460603FA06F10843E0600CE0206977
:1008500005EB4507072606FA07F1884305EB450631
:1008600003FA06F108432061072A0FDA606B561E6F
:1008700006EB86071F2606FA07F18843561E06EB8D
:10088000860605FA06F10843606322E00D2A0FDAB6
:10089000206BD61F06EB86071F2606FA07F1884352
:1008A000D61F06EB860605FA06F10843206310E022
:1008B000E06AA2F10D0606EB86071F2606FA07F18D
:1008C0008843A2F10D0606EB860605FA06F10843F9
:1008D000E062F0BD816841F008018160704721B19C
:1008E000826842F4A002826003E0826822F4A002DF
:1008F00082607047816841F00401816070470000A8
:1009000008B50121042005F067F90320ADF80000C7
:1009100000208DF803006946084801F0CDFC012154
:10092000102005F059F900208DF803000320ADF8E0
:1009300000006946024801F0BFFC08BD0008014004
:100940000010014010B5FFF7DBFF00F001F810BD0B
:1009500000B591B00121084605F00EF901214802C9
:1009600005F03AF93D4800F003FF3D4806903D4848
:10097000079000200890C820099000200A9080204D
:100980000B9040000C9080000D9020200E900002F3
:100990000F900020109006A9304800F08FFF012131
:1009A0002E4800F0D9FE0020019001208DF80800AB
:1009B0008DF809004FF4602003900020049004207B
:1009C0008DF8140001A926484C38FFF761FE4FF45A
:1009D000004005F0C5F807230122002120484C38CB
:1009E000FFF71CFF0723022201211D484C38FFF7A7
:1009F00015FF072303220A2119484C38FFF70EFF81
:100A0000072304220B2116484C38FFF707FF01216A
:100A100013484C38FFF71DFE012111484C38FFF7F1
:100A20000DFE0F484C38FFF755FF00BF0C484C38FF
:100A3000FFF724FE0028F9D109484C38FFF75AFF88
:100A400000BF07484C38FFF70FFE0028F9D10121FD
:100A500003484C38FFF743FF11B000BD08000240C7
:100A60004C240140DC13002008B5682000906A4641
:100A70000121002000F094F8042000906A46012132
:100A8000084600F08DF8552000906A4601210220AA
:100A900000F086F8702000906A460121032000F0E3
:100AA0007FF808BD10B5044614B1012C0ED106E044
:100AB000074A918A1068012201F0DBFC06E0044A33
:100AC000918A1068002201F0D4FC00BF00BF10BD65
:100AD0004002002038B500240121402005F07CF8B8
:100AE00000BF10E010208DF8030001208DF80200F7
:100AF000164830F81400ADF800006946144801F0BB
:100B0000DBFB601CC4B2032CECDB03240DE04820AB
:100B10008DF803000D4830F81400ADF80000694668
:100B20000B4801F0C9FB601CC4B2052CEFDB074A7F
:100B3000143A918A1068012201F09BFC034A143A8E
:100B4000D18A5068002201F094FC38BD5402002084
:100B50000018014010B50120FFF7A4FF102000F09D
:100B600019F800F013F8044600F010F840EA0424E5
:100B700000F00CF840EA042404F4000008B144F04A
:100B80007F440020FFF78EFF204610BD10B505F012
:100B900057FE10BD10B50446204605F089FE10BD75
:100BA0002DE9F04106460C4615460120FFF77AFF75
:100BB0000C2101EA8601621E02F00302114341F09A
:100BC0004000FFF7E7FF002704E015F8040BFFF7EC
:100BD000E1FF7F1CA742F8DB0020FFF763FFBDE8C1
:100BE000F081000000B501F06FFC14480079012885
:100BF0000DD11348407840F0200011494870114849
:100C000090F8570018B903200E4981F857000E4894
:100C1000C0880E49496B884203D91020094981F8E0
:100C20005700094801890948006D401E814203D3DD
:100C30000220044981F8570000BD00002213002063
:100C4000160F0020781000206C15002034110020B1
:100C500010B58448807800287ED0834800780B281F
:100C60007BD2DFE800F006142E61C3F7F7F7F7F741
:100C7000B50000F071FE05F071FF01F055F94FF479
:100C80007A7008F0DBFE012077490870E5E005F096
:100C900065FF00F061FE01F047F97448007810B973
:100CA0000120734908707248007848B100207049EB
:100CB000087002206C4908706E49486808F0BEFE52
:100CC000CBE005F04BFF00F047FE01F02DF96A483C
:100CD000C07818B90120694981F867006648C07872
:100CE000012803D10020654981F867005F4800783A
:100CF00010B901205E4908705D48007898B1002065
:100D00005B4908700320584908704FF47A7008F066
:100D100095FE0020594981F867005748007810B9BE
:100D2000052081F8570098E000F016FE05F016FF48
:100D300001F0FAF8514890F86400012803D1072027
:100D40004E4981F857004948007810B901204849B8
:100D500008704748007801E080E07BE098B300200D
:100D6000434908703F488078032803D10A203E4950
:100D700008702CE04248008942498968884223D89B
:100D80000020384988704049C87108460021016038
:100D900041600020344908700220324908703B4904
:100DA000087001203A49087002203A49087005F09D
:100DB000A9FE1E2004F01CFD4FF47A7008F03EFEE0
:100DC00001200AF043FE02E004202749087044E0B5
:100DD00005F0C4FE05F05CFE01F05CFC28B10420C7
:100DE0002149087001202849C87136E001202649B0
:100DF000C8710846C07948B300F0AEFD05F0AEFEFC
:100E00001F4800891F498968884220D80020154959
:100E100088701D49C87108460021016041600020AA
:100E20001149087002200F49087018490870012004
:100E30001749087000201749087005F063FE4FF449
:100E40007A7008F0FBFD01200AF000FE01E005F0D9
:100E50001FFE02E00BF002F900BF02E00020024991
:100E6000087010BD160F00208A00002049000020E5
:100E700048000020341100202213002078100020A8
:100E80006C15002018110020700000208C0000203C
:100E90008D0000208E00002010B5044642F2A630DE
:100EA000844205DD42F21070844201DA002010BD58
:100EB00042F21070844207DB42F69600844203DA65
:100EC000204608F007FEF2E742F69600844207DB70
:100ED00042F61B20844203DA204608F088FFE6E74A
:100EE00042F61B20844207DB42F69F30844203DA3D
:100EF000204609F0B1FFDAE742F69F30844207DB73
:100F000042F62250844203DA20460AF05EF8CEE729
:100F100042F62250844207DB42F6A460844203DAA0
:100F200020460AF012F9C2E742F6A460844207DBC9
:100F300043F22400844203DA20460AF0C6F9B6E7F9
:100F400043F22400844207DB43F2A410844203DA14
:100F500020460AF07AFAAAE743F2A410844207DB9B
:100F600043F22230844203DA20460AF02EFB9EE749
:100F700043F22230844207DB43F29F40844203DA8B
:100F800020460AF0E2FB92E743F29F40844207DBEF
:100F900043F21B60844203DA20460AF096FC86E79F
:100FA00043F21B60844207DB43F29570844203DA0C
:100FB000204608F05CFE7AE743F29570844207DB36
:100FC00043F60F10844203DA204608F0C5FF6EE7AF
:100FD00043F60F10844207DB43F68720844203DA8E
:100FE000204609F079F862E743F68720844207DB60
:100FF00043F6FE30844203DA204609F02DF956E725
:1010000043F6FE30844207DB43F67550844203DA30
:10101000204609F0E1F94AE743F67550844207DBC0
:1010200043F6E960844203DA204609F095FA3EE788
:1010300043F6E960844207DB44F25D00844203DA50
:10104000204609F049FB32E744F25D00844207DBA9
:1010500044F2D010844203DA204609F0FDFB26E773
:1010600044F2D010844207DB44F24130844203DA78
:10107000204609F0B1FC1AE744F24130844207DB14
:1010800044F2B240844203DA204609F065FD0EE7DF
:1010900044F2B240844207DB44F22160844203DA26
:1010A000204609F019FE02E742F20F70FFE6000049
:1010B000F0B500210022002500230024002600278F
:1010C0001E4807780020DFF878C08CF8530007B975
:1010D000F0BD1C48808A81B21A48008A82B2194841
:1010E000808985B21548001D008883B213480830F6
:1010F000008884B211480C30008886B2994206DD1F
:101100000120DFF83CC08CF853000020E0E7994252
:1011100011D1A24206DD0120DFF824C08CF8530073
:101120000020D5E7A24206D1B54204DB0120DFF85A
:1011300010C08CF853000020CAE7000014B8010862
:1011400078100020540000200C4890F8570078B127
:101150000A4890F87A0078B10020084981F87A00AE
:10116000084690F8430038B104200549086003E0C0
:1011700004200349091D08600020704778100020F2
:101180001014014010B5002401F09EF94648407942
:10119000012807D1454890F8570018B9092043495C
:1011A00081F857004048007901280DD14048407827
:1011B00040F020003E4948703C4890F8570018B96C
:1011C00003203A4981F857003748007800B90124D4
:1011D00024B10120354981F8290005E00020334978
:1011E00081F8290081F82800304890F828000A2862
:1011F0000EDB2F48807840F020002D4988700120B8
:101200002C49C8710020294981F8290081F828005B
:10121000264890F86400D0B905F0A0FC234890F867
:101220004A00401C214981F84A00084690F84A00CB
:10123000032803DB0C2081F8570008E01C48807865
:1012400040F020001A49887001201A49C8711748D7
:1012500090F84A0048B11548B0F84C00B0F5E16F7D
:1012600003DB0020114981F84A001348C088134964
:10127000496B884207D90D4890F8570018B91020DB
:101280000A4981F857000C4801890C48006D401E3E
:10129000814207D3054890F8570018B90220034946
:1012A00081F8570010BD00002213002078100020A4
:1012B000160F0020700000206C1500203411002053
:1012C00010B53C48D0F8D000D0B13A48D0F8C800AA
:1012D00039498968884213D13648D0F8CC0036495C
:1012E000496888420CD1344800681E2808DA33481F
:1012F000007828B9324890F8570008B90BF016F971
:101300002C48D0F8DC00D0B12A48D0F8D4002A49C3
:101310008968884213D12748D0F8D80026494968FF
:1013200088420CD1244800681E2808DA2348007837
:1013300028B9234890F8570008B90BF0F7F81D4872
:10134000D0F8E800B8B11B48D0F8E0001A49896825
:10135000884210D11748D0F8E400174949688842FC
:1013600009D1154800681E2805DA144800780228BB
:1013700001D10AF073FE0F48D0F8F400B8B10D485F
:10138000D0F8EC000C498968884210D10948D0F89F
:10139000F00009494968884209D1074800681E28B9
:1013A00005DA06480078022801D10AF057FE00202D
:1013B00010BD00003411002054000020160F002042
:1013C00078100020024908800121014A11717047FC
:1013D000F000002010B5002400BF264890F88A00D5
:1013E00020B1012815D0022839D127E005F08AFB69
:1013F000002004F0FDF904F09BFA42F6E06008F0EA
:101400001DFB01201B4981F88A00002081F84A0059
:101410002CE01948007810B90120184908701748C5
:10142000007850B1002015490870124981F8620017
:10143000022081F88A0000F077FD17E0104801894A
:101440001048006D401E814203D30220094981F8F3
:1014500057000020074981F88A00012406E0002097
:10146000044981F88A000AF0F9FD00BF00BF204658
:1014700010BD000078100020490000204800002026
:101480006C1500203411002010B52E4890F82C0166
:101490004C2822D12B4890F82D014F281DD12948E6
:1014A00090F82E01432818D1264890F82F014B2898
:1014B00013D1244890F8300139280ED1214890F8F2
:1014C0003101392809D12048C06830B901201E49AE
:1014D000C86007F075FE03F02DFD1A4890F82C0146
:1014E00055282DD1174890F82D014E2828D11548A0
:1014F00090F82E014C2823D1124890F82F014F2844
:101500001ED1104890F83001432819D10D4890F8A9
:1015100031014B2814D10B4890F8320139280FD1F2
:10152000084890F8330139280AD10748C0680128D3
:1015300006D100200449C86007F042FE03F0FAFC1F
:10154000002010BD400300201811002000BFFEE75E
:101550004D4800684D490860084600684C4988427B
:1015600005D84A48006847F23051884203D247F212
:101570003050464908604448001D006843494860AF
:10158000084640684249884205D84048406847F2CA
:101590003051884203D247F230503C4948603A48C3
:1015A0001030006839490861084600693C2803D8B2
:1015B000084600690F2802D21920344908613348CF
:1015C000406A642803D83148406A1E2802D2642049
:1015D0002E4948622D48406A2C490969884203D245
:1015E0002A48006929494862274828300068274965
:1015F00088620846806A012801D901208862224851
:1016000034300068214948630846406BB0F5FA6FF2
:1016100007D90846406BB0F5167F02D24FF44870E8
:101620004863194838300068184988630846806B59
:10163000012801D90020886316480068164908600F
:10164000084600680A2805D3084600680F49096D56
:10165000884202D93720104908600B485030006892
:101660000A4908650846006DA02801D95020086580
:1016700005483C3000680549C8630846C06B01282E
:1016800001D90020C863704700B801083411002058
:10169000E093040000E001081811002004200C4928
:1016A00008600820086002200860C001094908603D
:1016B00080010749086040000860402006494861F1
:1016C0008020486140004861400048617047000048
:1016D00014140140140801400010014010B500240A
:1016E0001B48006F1B49C979884204D01948C0794A
:1016F0001749086701241648406F1649097A88423D
:1017000004D01448007A1249486701241048806FB9
:101710001049497A884204D00E48407A0C498867BB
:1017200001240B48C06F0B49897A884204D00948CC
:10173000807A0749C867012444B1002407F0C2FA3F
:1017400001F058F907F062FF01F054F9002010BDD4
:10175000341100209213002021B1026842F00102EE
:10176000026004E002684FF6FE731A4002607047A0
:1017700001684FF6FE721140016000210160416076
:101780008160C1604B49884208D14A49083949689B
:1017900041F00F01474A083A51608AE04549143147
:1017A000884208D143490839496841F0F001414A6B
:1017B000083A51607DE03F492831884208D13D49CF
:1017C0000839496841F470613A4A083A516070E05A
:1017D00038493C31884208D136490839496841F4D2
:1017E0007041344A083A516063E0324950318842CE
:1017F00008D130490839496841F470212D4A083A26
:10180000516056E02B496431884208D12949083992
:10181000496841F47001274A083A516049E0254976
:101820007831884208D123490839496841F070610C
:10183000204A083A51603CE01F49884206D1011F06
:10184000096841F00F01021F116032E01A4914319A
:10185000884208D11849091F096841F0F001164A69
:10186000121F116025E014492831884208D112491D
:10187000091F096841F470610F4A121F116018E0D6
:101880000D493C31884208D10B49091F096841F4D0
:101890007041094A121F11600BE00749503188421C
:1018A00007D10549091F096841F47021024A121F36
:1018B00011607047080002400804024010B5002281
:1018C000026847F6F0739A430C6A8B6823430C69ED
:1018D00023434C6923438C692343CC6923434C6ADB
:1018E00023438C6A23431A430260CB6843600B682E
:1018F00083604B68C36010BD70470146002005E05F
:10190000002001E0421CD0B21428FBDB0A1EA1F12A
:10191000010399B2F4D1704710B500240A48047845
:101920000F2C00DA0F243C2C00DD3C24204603F071
:101930005FFF064804700078054908700348007886
:101940000449C873012010BD10B801084B000020E5
:101950004D000020160F002010B580200A49486174
:101960000A48007830B1142005F0B2FA0120084985
:1019700081F872000748C07800F0F7000549C87088
:1019800000200249087010BD00100140BE13002065
:1019900078100020160F002010B580200D49086136
:1019A0000D48007858B9642005F092FA0B48006998
:1019B000401C0A4908610120094981F87200094860
:1019C000C07840F008000749C8700120024908703B
:1019D00010BD000000100140BE13002018110020AF
:1019E00078100020160F002070B5002500241E245A
:1019F0001F4890F848001F490870032048701E20B7
:101A000088701B4890F84400C8701B4800788871A3
:101A10001A4890F85700C8711948807B0872164818
:101A2000407A48721448C07B88721648C0880A21E0
:101A300090FBF1F00F49C872104890F864000873E9
:101A400011484079487310488078887321460948C6
:101A500003F0DCFA05462912A01E064A1154601E46
:101A6000155422460349094806F056FF002070BD70
:101A700034110020A0130020160F00207810002041
:101A8000A40F00206C150020BE130020004C004065
:101A900010B54FF4806000F06BF818B14FF480601F
:101AA00000F060F84FF4006000F062F818B14FF4F5
:101AB000006000F057F84FF4805000F059F818B16A
:101AC0004FF4805000F04EF84FF4005000F050F802
:101AD00018B14FF4005000F045F84FF4804000F08A
:101AE00047F818B14FF4804000F03CF84FF4004044
:101AF00000F03EF818B14FF4004000F033F810BD8C
:101B000010B5102000F034F810B1102000F02AF8C1
:101B100010BD10B5202000F02BF810B1202000F0EF
:101B200021F8402000F024F810B1402000F01AF80D
:101B3000802000F01DF810B1802000F013F84FF461
:101B4000807000F015F818B14FF4807000F00AF8BA
:101B50004FF4007000F00CF818B14FF4007000F072
:101B600001F810BD014908607047000014040140ED
:101B7000014600200022074B1B6803EA0102054BC7
:101B800014331B680B4013B10AB1012000E00020A0
:101B9000704700000004014010B5294890F8570034
:101BA00078B9274890F86D0018B10120244981F8D0
:101BB00072000020224981F8570081F86D00214908
:101BC00048711F48B0F85E00B0F5E16F05DB0020FA
:101BD0001D4908701A49A1F85E00194890F86D0077
:101BE00050BB174890F8570028B30AF037FA012085
:101BF000134981F86D0081F84300124948710320B0
:101C000009F024FF0E4890F857000F4909788842E0
:101C10000BD00B4890F857000B49087002F0E4FD18
:101C200007F0A8F9642005F053F900200449A1F851
:101C30005E0003F07FF902E0032009F007FF10BD0A
:101C400078100020F00000209D00002030B50446F0
:101C500004254FF4302000F001F90546042D17D17A
:101C60000C48006940F002000A49086108464461D6
:101C7000006940F0400008614FF4302000F0EEF8B9
:101C800005460448006941F6FD71084001490861B4
:101C9000284630BD0020024004200B49C96801F0ED
:101CA000010109B101200EE00749C96801F00401F2
:101CB00009B1022007E00449C96801F0100109B127
:101CC000032000E004207047002002400020044967
:101CD000C96901F0020109B1012000E0002070474C
:101CE000002002400348006940F08000014908617B
:101CF00070470000002002400549096821F01001EA
:101D0000034A1160114609680143116070470000E1
:101D10000020024078B506460C46042500200090BD
:101D2000E80200F09BF80546042D24D11348006911
:101D300040F00100114908613480E80200F08EF89B
:101D40000546042D10D1B01C0090200C009908808D
:101D5000E80200F083F805460848006941F6FE7184
:101D600008400649086106E00448006941F6FE7132
:101D7000084002490861284678BD00000020024062
:101D800030B5054604244FF4302000F067F80446CF
:101D9000042C41D1214822498860224888600846A5
:101DA000006940F0200008610846006940F04000EA
:101DB00008614FF4302000F051F80446042C22D181
:101DC0001748006941F6DF71084015490861084667
:101DD000006940F0100008611DB100201249088020
:101DE00002E0A520104908804FF4302000F036F8BA
:101DF0000446052C10D00A48006941F6EF710840EE
:101E00000749086108E0052C06D00548006941F63D
:101E1000DF71084002490861204630BD2301674553
:101E200000200240AB89EFCD00F8FF1F01460020E3
:101E3000034A106800F03800084310607047000043
:101E40000020024002480349486003484860704748
:101E50002301674500200240AB89EFCD00B5024663
:101E60000423FFF719FF034603E0FFF715FF0346BE
:101E7000521E012B01D1002AF7D102B905231846C1
:101E800000BD00000020234991F84410A1B30021B7
:101E9000204A82F8441020490978052902D10021FE
:101EA0001D4A11701B4991F88C101C4A1A4B1B7863
:101EB00022F813101146098852881144174A928853
:101EC0001144164AD2881144144A128988180521EF
:101ED000B0FBF1F010490978491C0F4A1170C0EBB2
:101EE000001189000E4A1278B1FBF2F1094AA2F8FA
:101EF0008E10002182F88C100649B1F88E1009125C
:101F0000084A82F84710034991F88E1082F8481069
:101F10007047000078100020A100002088130020E6
:101F2000A2000020A40F002010B50A48C07800F0DD
:101F3000FD000849C870642003F05AFC642006497B
:101F40000870084600780549087003480078014980
:101F5000C87310BD160F00204B0000204D0000205C
:101F600010B51048407930B10A2004F0B1FF0120CB
:101F70000D4981F872004FF480400C490860002040
:101F800009490873074948710948C07800F0BF0043
:101F90000749C87000200749C8740248407908758D
:101FA000002010BDBE130020781000201414014042
:101FB000160F0020A40F00202648B0F89400022835
:101FC00001DC002070472448007803281BD14FF41F
:101FD0008040224908602248407930B900201D49DC
:101FE00081F87F00012081F872000020194981F8F2
:101FF000680001201A4948711748C07840F0400035
:102000001549C8701EE0134890F87F00D0B14FF416
:102010008040124908601248407930B900200D49CB
:1020200081F87F00012081F872000020094981F8C1
:10203000680001200A4948710748C07840F0400014
:102040000549C87000200749C874054840790875DB
:102050000020B7E778100020160F00201014014070
:10206000BE130020A40F002010B564200549C873DA
:1020700003F0BEFB64200449087008460078034959
:10208000087010BD160F00204B0000204D000020EE
:1020900010B500200549C87303F0AAFB00200449CD
:1020A0000870084600780349087010BD160F00201C
:1020B0004B0000204D00002010B5FFF707FE01285F
:1020C00006D0FFF7BFFE0120FFF75AFEFFF70AFE1A
:1020D00010BD000070B50826002400253348407F5D
:1020E00008B9002070BD002030494877012088736E
:1020F0000846007B642805DC0846007B00EB800076
:10210000450000E000252A480078401C2849087056
:1021100008460078052805DD002026490870244976
:10212000087002E00120234908702248007810B1AD
:10213000012833D118E02048067003201E4948705A
:1021400000208870C87008710120487108211A4861
:1021500002F05CFF0446201217498871CC710822F6
:10216000164806F0D9FB1DE01348067006201249F8
:102170004870002088700120C870281208714D71C5
:1021800008210D4802F042FF044620120A498871D6
:10219000CC710822094806F0BFFB03E00020054986
:1021A000087000BF00BF00209CE7000078100020EE
:1021B000D4000020D3000020FC070020004800408D
:1021C0002DE9F0470025002600240027A046A1465F
:1021D0003548C07B0A2803DB1320334981F85700B8
:1021E000324890F85D0200285AD000202F4981F82B
:1021F0005D02002240F225512D4806F0E2FA2B48FC
:1022000090F85902401E2B490A5C284890F8590260
:10221000801E085C02EB002085B2244890F82C61F7
:1022200090F82D7190F82E81082E2AD190F859122D
:10223000204802F0EBFEA84223D100201A498873FF
:10224000C873032F1DD1B8F1020F1AD1174890F8A7
:10225000301190F82F0101EB00201FFA80F9B9F13D
:10226000EA0F03D101201049487302E000200E4913
:1022700048730D48407B012803D112200A4981F898
:102280005700002404E000210A480155601CC4B234
:10229000642CF8DB012240F22551054806F091FA42
:1022A0000020BDE8F087000078100020FC07002027
:1022B00000480040280900202DE9F0410246002591
:1022C0000026002000230024002791F803C00CF012
:1022D0000F0591F803C00CF0100CBCF1000F03D0F7
:1022E00091F802C04CEA050591F800C0BCF1000F5E
:1022F00031D0146800202BE04FF0010C0CFA00F3F1
:10230000B1F800C00CEA03069E4220D183004FF0D2
:102310000F0C0CFA03F7BC4305FA03FC4CEA040467
:1023200091F803C0BCF1280F06D14FF0010C0CFA54
:1023300000FCC2F814C00AE091F803C0BCF1480FD9
:1023400005D14FF0010C0CFA00FCC2F810C0401C83
:102350000828D1D31460B1F800C0BCF1FF0F34DD00
:10236000546800202EE000F1080C4FF0010808FA34
:102370000CF3B1F800C00CEA03069E4221D18300A1
:102380004FF00F0C0CFA03F7BC4305FA03FC4CEAC0
:10239000040491F803C0BCF1280F05D100F1080C2A
:1023A00008FA0CF8C2F8148091F803C0BCF1480F89
:1023B00007D100F1080C4FF0010808FA0CF8C2F838
:1023C0001080401C0828CED35460BDE8F081000086
:1023D000F0B50A46002300240021002500F0004645
:1023E000B6F1004F02D11D4EF16901E01B4E71683C
:1023F000C0F3034583B200F44016B6F5401F08D180
:1024000021F07061154E766826F07066134F7E607D
:1024100012E000F48016B6F5801F06D1032606FAF6
:1024200005F4A14341F0706106E0460D360103FA60
:1024300006F6B14341F0706122B1460D360103FA50
:1024400006F6314300F00046B6F1004F02D1034ECC
:10245000F16101E0014E7160F0BD0000000001403B
:102460000246002093680B400BB1012000E00020E1
:1024700070470AB1016100E041617047014600BF49
:1024800040F6E44301FB03F2D31702EB1353C3F30B
:102490000F300C4A9080B0F5BE7F04DD40F22F2251
:1024A000904200DA501CA0F22F2202EB820252006E
:1024B0008C2392FBF3F290B2B0F5004F01DD40F2B5
:1024C000E7307047781000200820002100BF544AF0
:1024D0009278012A06D1524A527812B1504A1278A3
:1024E00002B901214E4A5278012A03D14C4A12788E
:1024F00002B9012199B14B4A92F8642032B101220C
:10250000484B83F8672083F82B2003E00022454BDB
:1025100083F867200122434B83F8272007E000223D
:10252000404B83F82B2083F8272083F826203D4A50
:1025300092F82A200C2A07DB00223A4B83F8672006
:1025400083F82B2083F82A20374A127802B9052015
:10255000344A92F8642052B1334A1278022A06D1E2
:102560002F4A12780AB10F2002E00C2000E00F2061
:102570002C4A92F8262082420DDB2A4A92F85720F4
:102580001AB90822274B83F857200022254B83F8DD
:10259000272083F82620224AD279C2B9214A92F80C
:1025A00025201AB900221F4B83F8242001221D4B3D
:1025B00083F825201A4692F82420012A0DDD1A46B8
:1025C00092F857204AB90F2283F8572005E00022DD
:1025D000144B83F8252083F82420114A9279C2B93C
:1025E000104A92F823201AB900220E4B83F82220B9
:1025F00001220C4B83F823201A4692F82220012A4C
:102600000DDD1A4692F857204AB9012283F8572067
:1026100005E00022034B83F8232083F82220704733
:102620002213002078100020160F002070B50446F9
:1026300003F0F2FA4FF4803003F0B0FB03F00CFC2F
:102640000546012D23D11020FFF756FB0220FFF78E
:10265000EDFB002003F096FBA80203F0C5FB002071
:1026600003F0CEFB2146280403F0DCFB012003F03D
:10267000D3FB00BF392003F05FFB0028FAD0022013
:1026800003F0DEFB00BF03F075FB0828FBD170BD33
:1026900000BFFEE770B503240F2500268A48806B33
:1026A000002876D0894890F84200002872D08748E8
:1026B00090F86B0009286ED2DFE800F005E92C4B9A
:1026C00081A0B9CCDF0003F033F98148008981494A
:1026D0000978884211DD01207C4981F867004FF4B8
:1026E0007A7105FB01F007F0A9F90220774981F81A
:1026F0006B000020784908700BE00020734981F8D6
:10270000670042F2107007F099F904206F4981F8D0
:102710006B00C4E07148007810B90120704908705E
:102720006F480078A0B100206D490870674981F8B2
:10273000670003F021F968480078401C664908707A
:1027400043F2C82007F07AF90320604981F86B0052
:10275000A5E003F011F900205C4981F867005F48AB
:10276000007810B901205E4908705D48007828B3F0
:1027700000205B49087003F0DBF85A4807F05EF967
:1027800055480078A04207DA0220504981F86B00D2
:1027900006E08DE084E07AE004204C4981F86B008B
:1027A0004B4800894B490978884207DA0420474999
:1027B00081F86B0044F6206007F040F96FE003F009
:1027C000B7F8002044490870404981F86700434841
:1027D000007810B90120424908704148007860B182
:1027E00000203F49087003F0C7F847F2305007F067
:1027F00025F90520354981F86B0050E003F0BCF85D
:102800000020324981F867003448007810B901206F
:10281000334908703248007840B1002030490870D0
:1028200003F086F80620294981F86B0037E003F0B1
:102830007FF82D48407801280BD12B4800780128DB
:1028400007D10720214981F86B0047F2305007F08B
:10285000F5F824E003F06CF82048007810B9012066
:102860001F4908701E48007830B100201C490870CC
:102870000820164981F86B0011E003F059F8002098
:10288000124981F8420081F86B00012607E0002020
:102890000E4981F8420081F86B00012600BF10E06C
:1028A00000200A4981F86B00012603F041F808E096
:1028B00003F03EF801260020044981F8670081F802
:1028C0006B00304670BD00003411002078100020ED
:1028D0006C150020A3000020A40000204900002067
:1028E00048000020803801002213002010B52F4836
:1028F00090F8570078B92D4890F86D0018B1012074
:102900002A4981F872000020284981F8570081F88F
:102910006D00274948712548B0F85E00B0F5E16FB9
:1029200005DB0020234908702049A1F85E001F48FC
:1029300090F86D00002837D11C4890F8570098B3E4
:102940001A4890F85700FF282ED000201A49087026
:102950001A480078022801D109F080FB032009F011
:1029600075F8012012494871104981F86D0081F80D
:10297000430081F87200084690F857000D49097825
:1029800088420BD0094890F857000A49087001F0B6
:102990002BFF06F0EFFA642004F09AFA00200349B6
:1029A000A1F85E0002F0C6FA10BD00007810002009
:1029B000F00000209E0000208C000020160F002058
:1029C00070B505460C4645F2555000F02BF82846E8
:1029D00000F01CF8204600F01FF800F00FF800F09F
:1029E00001F870BD4CF6CC4001490860704700000A
:1029F0000030004010B500F001F810BD4AF6AA20E2
:102A000001490860704700000030004001494860FB
:102A100070470000003000400149886070470000A6
:102A2000003000400149086070470000003000405D
:102A300000B5144890F8570008B1002000BD1248B6
:102A4000C0881249496B884207D90E4890F8570050
:102A500018B910200B4981F85700FFF735FD0C48D5
:102A6000007860B9074890F86400012807D105484C
:102A700090F8570018B90720024981F85700002044
:102A8000DCE70000781000206C15002034110020D5
:102A90009000002000B5FFF717FD074800790128D6
:102AA00009D10648407840F02000044948700320CE
:102AB000034981F8570000BD22130020160F0020A3
:102AC0007810002010B50121084603F085F8012197
:102AD0000148FFF77DFC10BD0002300008B5102052
:102AE0008DF8030003208DF802000121202003F05F
:102AF00073F81020ADF800008DF8030003208DF866
:102B0000020069464148FFF7D7FB0121402003F04E
:102B100063F80420ADF8000010208DF803000320B6
:102B20008DF8020069463A48FFF7C6FB01214020B4
:102B300003F052F80820ADF8000010208DF80300D3
:102B400003208DF8020069463148FFF7B5FB0121EB
:102B5000102003F041F83020ADF8000048208DF837
:102B6000030069462B48FFF7A7FB0121042003F06F
:102B700033F8C020ADF8000048208DF80300694606
:102B80002548FFF799FB0121202003F025F8E020DC
:102B9000ADF8000048208DF8030069461B48FFF798
:102BA0008BFB0121092003F017F801211B48FFF7D7
:102BB0000FFC0121082003F00FF84FF47E70ADF8F0
:102BC000000048208DF8030069461548FFF774FBA4
:102BD0000121402003F000F80320ADF80000482058
:102BE0008DF8030069460A48FFF766FB0121402083
:102BF00002F0F2FF0120ADF8000004208DF8030080
:102C000069460748FFF758FB08BD00000014014063
:102C1000001801400010014000080140000230008F
:102C2000000C014010B503F033FF0120064981F884
:102C300072000648407800F07F0004494870002088
:102C4000014981F86E0010BD78100020160F002099
:102C500010B503F057FF01200E4981F86E000E48B1
:102C6000407840F080000C4948700120094981F803
:102C70007200FFF759F9074890F8700020B1074932
:102C8000486806F0DBFE03E043F6982006F0D6FE27
:102C900010BD000078100020160F00203411002015
:102CA0002DE9F04F93B04FF00008002012901190E2
:102CB0001090814600250F90002600240E900D9064
:102CC000824600270C90049083460190F44890F8C7
:102CD0005D02002801F0B1830020F14981F85D0216
:102CE000002240F22551EF4805F06BFDEC4890F8CA
:102CF0005902401EEC490A5CE94890F85902801ECE
:102D0000085C02EB00201FFA80FAE54890F85902AF
:102D1000052818DDE24890F85902401FC0B20C9017
:102D200000BF05E0E048F91C405C05A9C8557F1CC0
:102D30000C988742F6D305A80C9901F097FB5045F3
:102D400001D1012004900498002801F07183D44837
:102D500090F82C015A2841F06B83D14890F82D014E
:102D6000A528F8D1CE4890F82E011290CC4890F8C2
:102D70002F8190F8311190F8300101EB00201FFAFB
:102D800080F9B8F1810F7DD1A9F2023000287AD004
:102D9000A0F5E8500E38002876D1C14991F83211DB
:102DA00001F0F000C11700EB1171091101EB810274
:102DB000BB4991F8321101F00F0101EB420101F51D
:102DC000FA61BA4A5161B64991F8331101F0F00045
:102DD000C11700EB1171091101EB8102B04991F8A3
:102DE000331101F00F0101EB4201B04A1161AC490E
:102DF00091F8341101F0F000C11700EB11710911C5
:102E000001EB8102A64991F8341101F00F0101EBA9
:102E10004201A64AD160A24991F8361101F0F000B2
:102E2000C11700EB1171091101EB81029C4991F866
:102E3000361101F00F0101EB42019C4A9160984963
:102E400091F8371101F0F000C11700EB1171091171
:102E500001EB8102924991F8371101F00F0101EB6A
:102E60004201924A51608E4991F8381101F0F00008
:102E7000C11700EB1171091101EB8102884991F82A
:102E8000381102E030E00BE02DE001F00F0101EB22
:102E90004201864A11600020854981F8540022E0F1
:102EA0007F4890F8331190F8320101EB002085B291
:102EB0007F4890F86500A8420AD07D4890F86500E8
:102EC000002809DD7A4991F8650008F0BFFD03E0AC
:102ED0000020774981F865006E2D03D100207449E8
:102EE00081F8510000BF00BFB8F1830F41F0958217
:102EF00048F28001A9EB0100894574D05FDC47F2FC
:102F0000A001A9EB010089456ED02DDC47F2090133
:102F1000A9EB0100894568D017DCB9F5CA4F70D01C
:102F20000ADCB9F1010F6DD0B9F5445F6BD0B9F58A
:102F3000A04F41F07082C2E0B9F5E04F64D0A9F52E
:102F4000E04003380028F4D171E137285DD006DC79
:102F500007285BD017285AD02728EAD1AFE1572895
:102F60006FD06728E5D1E0E1B0F5776F6AD011DC6A
:102F7000802868D006DC10287ED040287DD06028CC
:102F8000D7D11AE2B0F5766F78D0A0F6637000283A
:102F9000CFD1CEE2B0F57B6F71D009DCB0F5786FA0
:102FA0006ED0B0F5796F6CD0B0F57A6FC1D1FDE31A
:102FB000B0F57C6F73D0B0F57D6FBAD1F7E340F612
:102FC0008772811A904201F00E802ADCA02871D00D
:102FD00011DC60286FD009DC10286DD020286CD05F
:102FE0003028A6D1FDE3FDE3B1E132E180287DD0B8
:102FF00090289ED1C0E2A0F57860072881F00B826E
:1030000006E05DE045E059E000E16AE133E144E1DA
:10301000DFE810F0D506F406010A400768079D07AF
:10302000C007FA2901F0D78015DC04297ED00BDC1B
:10303000012901F02480022901F0468003298CD166
:10304000FDE360E11CE3C9E1052901F05280F929A3
:1030500088D101F081B840F20912881A914201F03A
:103060006C810FDCFB2901F0FE80FC2901F013814B
:10307000FD2985D101F043B97BE18CE1C0E1EBE3AF
:103080003EE383E3012801F07C8102288ED101F028
:10309000AAB90020064981F8510001F0BDB9FCE34E
:1030A0009E05002000440040CA0600205400002075
:1030B00078100020F2E3F2E3F2E3F2E3EDE7ECE76D
:1030C0000020FE4981F85400FD4890F8341190F832
:1030D000330101EB0020FB490870F94890F83811E2
:1030E00090F8370101EB0020F64900E0F2E3487068
:1030F000F34890F83C1190F83B0101EB0020F149B6
:103100008870EF4890F8401190F83F0101EB0020E3
:10311000EC49C870EA4890F8441190F8430101EB7B
:103120000020E84908711721E74800E0D3E3FDF7E4
:10313000D8F9E6488078E4490871E4488078E149A4
:103140000978884201D001200F90E0484079DE499B
:103150000872DE484079DB494978884201D0012075
:103160000F90DA48407AD8490873D848407AD54950
:103170008978884201D001200F90D04890F8420011
:10318000D1490874CD4890F84200CE49C9788842A8
:1031900001D001200F90CD48007ACB490875CB486B
:1031A000007AC8490979884201D001200F900F9810
:1031B00058B35A208DF80C00A5208DF80D00192069
:1031C0008DF80E008220C0490870652048700020EC
:1031D00088701721BC4801F049F982464FEA2A203D
:1031E0008DF808000AF0FF008DF80900032203A9FA
:1031F000B74805F091FB1722B349B54805F08CFBA1
:10320000022202A9B24805F087FB46E7AC4890F8D5
:10321000341190F8330101EB002085B2B5F5E04F91
:1032200004D103220021802003F0DCF935E7A44813
:1032300090F8341190F8330101EB002085B247F289
:103240000300854204D106220321802003F0CAF93D
:1032500023E79B4890F8341190F8330101EB0020EC
:1032600085B247F20900854204D10822102181204D
:1032700003F0B8F911E7924890F8341190F833014F
:1032800001EB002085B247F21000854204D10422F0
:103290001021802003F0A6F9FFE6894890F8341148
:1032A00090F8330101EB002085B247F220008542FF
:1032B00004D105222021802003F094F9EDE6804816
:1032C00090F8341190F8330101EB002085B247F2F9
:1032D0003000854204D103223021802003F082F99E
:1032E000DBE6774890F8341190F8330101EB0020C9
:1032F00085B247F24000854204D10322402180205C
:1033000003F070F9C9E66E4890F8341190F8330173
:1033100001EB002085B247F26000854204D104220F
:103320006021802003F05EF9B7E6654890F834111B
:1033300090F8330101EB002085B247F2700085421E
:1033400004D103227021802003F04CF9A5E65C48EB
:1033500090F8341190F8330101EB002085B247F268
:10336000A000854204D10A22A021802003F03AF96E
:1033700093E6534890F8341190F8330101EB0020A4
:1033800085B247F2B000854204D10222B0218020EC
:1033900003F028F981E64A4890F8341190F8330197
:1033A00001EB002085B247F2E000854204D10C22F7
:1033B000E021802003F016F96FE6414890F83411BF
:1033C00090F8330101EB002085B2B5F5E24F04D14E
:1033D00002220021812003F005F95EE6384890F8CA
:1033E000341190F8330101EB002085B247F2201030
:1033F000854204D103222021812003F0F3F84CE61A
:103400002F4890F8341190F8330101EB002084B27A
:103410002B4890F8361190F8350101EB002080B26E
:103420000E90274890F8381190F8370101EB0020F2
:1034300080B20D902748006DA04209D32548016D48
:103440000E98814204D32348016D0D98814203D226
:10345000092008F0FBFA69E0194890F8341190F857
:10346000330101EB00201C490860154890F8361123
:1034700090F8350101EB002017494860104890F89A
:10348000381190F8370101EB002013498860084695
:1034900000680A2801D20A2008600F4800680D4918
:1034A000096D884203D90B48006D0B4908600A4832
:1034B000406809490968884215D80FE07810002053
:1034C0009E05002024020020F1150020BE130020DC
:1034D000004400403411002018110020FE4800680C
:1034E0000A30FD494860FC484068FC49096D884243
:1034F00003D9FA48006DF8494860F7488068F649F2
:103500004968884202D90A20F3498860F2488068F5
:103510000A2802D20A20F049886005F051FEF048DE
:103520000068ED490860042008F090FA01F002FDFF
:10353000B3E5EC4890F8341190F8330101EB00202A
:10354000E9494861E74890F836010861E54890F894
:103550003801C860E34890F83A018860E14890F883
:103560003C014860DF4890F83E01086005F054FFD8
:10357000042008F06BFA90E5DA4890F8341190F8DE
:10358000330101EB002084B21E2C07DBB4F5967FDB
:1035900004DC4FF47A706043D0490860D14890F859
:1035A000361190F8350101EB002084B21E2C07DBA8
:1035B000B4F5967F04DC4FF47A706043C7494860E5
:1035C000C84890F8381190F8370101EB002084B218
:1035D0000F2C03DB462C01DCC0480461C14890F885
:1035E0003A1190F8390101EB002084B21E2C03DB64
:1035F000642C01DCB9484462BA4890F83C1190F858
:103600003B0101EB002084B23C2C06DBC82C04DC1F
:1036100004EB84004000B1494863B24890F83E1181
:1036200090F83D0101EB002084B2052C04DB282C2E
:1036300002DCAA48C0F88840AA4890F8401190F8E7
:103640003F0101EB002084B23C2C04DBFF2C02DCA8
:10365000A248C0F8A040A34890F8421190F8410158
:1036600001EB002084B23C2C04DBFF2C02DC9B48E5
:10367000C0F89C4005F026FB0B2008F0E7F90CE5AC
:10368000984890F8341190F8330101EB002084B28F
:10369000012C01DC91484461924890F8361190F871
:1036A000350101EB002084B240F2E470844205DB76
:1036B00040F60200844201DC88488461894890F821
:1036C000381190F8370101EB002084B2012C03DBA4
:1036D0000C2C01DC8148C461824890F83A1190F8C2
:1036E000390101EB002084B2012C03DB1E2C01DC2C
:1036F0007A48046205F0E6FA0B2008F0A7F9CCE45A
:10370000784890F8341190F8330101EB002084B22E
:10371000012C01DC71488463724890F8361190F8EE
:10372000350101EB002084B2012C03DB172C01DCF6
:103730006A4884656B4890F8381190F8370101EBBE
:10374000002084B2012C01DC6448C465654890F80F
:103750003A1190F8390101EB002084B2012C03DB0F
:10376000172C01DC5D4804665E4890F83C1190F827
:103770003B0101EB002084B2012C01DC5748446678
:1037800005F0A0FA0B2008F061F986E4554890F89E
:10379000341190F8330101EB002084B2642C01DC79
:1037A0004E4884644F4890F8361101E01EE0CAE0AC
:1037B00090F8350101EB002084B2012C01DC474870
:1037C0004465484890F8381190F8370101EB002023
:1037D00084B2012C01DC4148446405F073FA0B20EB
:1037E00001E0CAE1DCE008F031F956E43D4890F828
:1037F000341190F8330101EB002084B2012C01DC7C
:1038000036488462374890F8361190F8350101EB5C
:10381000002084B2B4F57A7F05DB42F20F70844257
:1038200001DC2E48C4622F4890F8381190F8370117
:1038300001EB002084B2B4F57A7F07DB00E0F8E208
:1038400041F27070844201DC2448046305F03AFAC6
:103850000B2008F0FBF820E4224890F8341190F88F
:10386000330101EB002084B21E4890F8361190F825
:10387000350101EB002080B20E900E9800EB04475A
:103880001A48874202D10B2008F0E0F81848874216
:1038900002D10D2008F0DAF810E403E060E28CE1D8
:1038A000F6E040E10F4890F8341190F8330101EB55
:1038B000002084B23C2C03DB642C01DC0748046745
:1038C000084890F8361190F8350101EB002084B2D9
:1038D0001E2C0FE026E2CAE218110020341100204D
:1038E00000E001089E0500205400002093E20B0038
:1038F000B9100F0003DB462C01DCFE484467FE488C
:1039000090F8381190F8370101EB002084B21E2C9A
:1039100004DBB4F5167F01DCF6488467F64890F8BE
:103920003A1190F8390101EB002084B21E2C04DB1F
:10393000B4F5167F01DCEF48C46705F0C3F90B202E
:1039400008F084F861E4EC4890F8341190F8330101
:1039500001EB002084B2012C02DCE648C0F8804074
:10396000E54890F8361190F8350101EB002084B25B
:10397000012C02DCDF48C0F88440DF4890F83811A1
:1039800090F8370101EB002084B2012C02DCD94809
:10399000C0F8984005F096F90B2008F057F834E489
:1039A000D54890F83601D5490870D34890F83501CC
:1039B0004870D14890F834018870CF4890F83301AE
:1039C000C8700846D0F800B0CB4890F838010870AD
:1039D000C94890F83701487000208870C8700846C0
:1039E00000680190C64890F84710C64850F821007A
:1039F00088B3C34890F84700C249383951F82000CD
:103A000058452DD1BE4890F84710BE481C3850F894
:103A100021100198814223D10020B94981F8480042
:103A2000B949C875B64890F848000876B44890F887
:103A30004700B34981F846000020B3494876B048B2
:103A400090F846008876AE4890F8570020B10320E1
:103A500007F0FCFF0BE007E0012007F0F7FF06E0AE
:103A6000252007F0F3FF02E0222007F0EFFFA44833
:103A700090F8470006280AD1A448834507D143F2AD
:103A800037510198884202D10D2007F0DFFF15E47D
:103A9000994890F83301FF2803D1042007F0D6FF9E
:103AA00040E0954890F8360194490870924890F8A3
:103AB00035014870904890F8340188708E4890F82D
:103AC0003301C8700846D0F800B08B4890F8380130
:103AD0000870894890F83701487000208870C870D5
:103AE000084600680190864890F84610854850F8CE
:103AF0002100A0B1824890F846008249383941F847
:103B000020B07F4991F846207E491C39019841F840
:103B1000220005F085FB232007F098FF02E0222019
:103B200007F094FF12E401261FE0701E082101EB4C
:103B300080017748455C012D02DC724840F8265030
:103B4000701E0A2101EB80017148455C012D0AD1EC
:103B500070486C49383941F8260043F238516948B9
:103B60001C3840F82610701CC6B2052EDDDD05F0AD
:103B700057FB1A2007F06AFF0CE45F4890F83411F5
:103B800090F8330101EB002085B2012D02DC594889
:103B9000C0F8B850584890F8361190F8350101EB4C
:103BA000002085B2642D02DA5248C0F8B45005F006
:103BB00089F80E2007F04AFF00E24F4890F83411D0
:103BC00090F8330101EB002084B2172C02DC494845
:103BD000C0F8C840484890F8361190F8350101EB1C
:103BE000002084B23B2C02DC4248C0F8CC40424862
:103BF00090F8381190F8370101EB002084B2012CC5
:103C000002DC3C48C0F8D0403B4890F83A1190F8AC
:103C1000390101EB002084B2172C02DC3548C0F8D2
:103C2000D440354890F83C1190F83B0101EB00205E
:103C300084B23B2C02DC2F48C0F8D8402E4890F8C4
:103C40003E1190F83D0101EB002084B2012C02DC12
:103C50002848C0F8DC40284890F8401190F83F010F
:103C600001EB002084B2172C02DC2248C0F8E040AF
:103C7000214890F8421190F8410101EB002084B2F4
:103C80003B2C02DC1B48C0F8E4401B4890F8441170
:103C900090F8430101EB002084B2012C02DC1548AE
:103CA000C0F8E840144890F8461190F8450101EB3F
:103CB000002084B2172C02DC0E48C0F8EC400E48FD
:103CC00090F8481190F8470101EB002084B23B2C9A
:103CD00002DC0848C0F8F040074890F84A1190F814
:103CE000490101EB002084B2012C02DC0148C0F83C
:103CF000F44011E0341100209E05002078000020DF
:103D0000781000206C130020A40F002034333231CF
:103D1000CA0600203237343105F0BCFA042007F01F
:103D200095FE79E3FA4890F8341190F8330101EBED
:103D3000002084B2012C02DCF648C0F8AC40F44804
:103D400090F8361190F8350101EB002084B2F1486B
:103D5000C0F8A44004F0B6FF0B2007F077FE5BE349
:103D6000EB4890F8341190F8330101EB002084B255
:103D7000012C02DCE748C0F8BC40E54890F8361159
:103D800090F8350101EB002084B2012C04DB642C97
:103D900002DCE048C0F8C040DD4890F8381190F8E7
:103DA000370101EB002084B2642C02DCD948C0F852
:103DB000C44004F087FF0E2007F048FE2CE3D448EF
:103DC00090F8341190F8330101EB002085B2D2480D
:103DD00090F84600012800DA1EE3B5F5104F0CD12B
:103DE000CE48007810B90A2007F030FECB480078A2
:103DF000022802D1242007F029FE0DE3C44890F8E0
:103E0000341190F8330101EB002085B2C24890F8DC
:103E10004600012800DAFFE249F20100854207D19D
:103E2000BE48007820B908F081FB3220FDF7CAFABD
:103E3000F2E2B74890F8341190F8330101EB00201A
:103E400085B2B54890F84600012800DAE4E249F26C
:103E50000A0085420AD1B1480078022806D108F04C
:103E6000FDF83220FDF7AEFA01F004F8D4E2A848DC
:103E700090F8341190F8330101EB002085B249F23B
:103E80000B00854205D10020A34981F84300A449D5
:103E90004871C1E29E4890F8341190F8330101EB6B
:103EA000002085B249F2030085421AD19B48007870
:103EB000042802D1002099490870012007F0C6FDAE
:103EC0000020954981F8570095494871924981F839
:103ED0006D00488681F8300081F83800488701F08D
:103EE00029F899E28A4890F8341190F8330101EBEF
:103EF000002085B2884890F8570000B18CE28648CF
:103F000090F84600012800DA86E249F20400854272
:103F10001CD182480078C8B97F4890F84200A8B9FF
:103F200002F0B6FD02F01AFEFDF716FDFEF718F8D6
:103F300002F006FD01F0FCFC04F0FEFC03207749D2
:103F4000087000F097FF052007F080FD64E27048DC
:103F500090F8341190F8330101EB002085B249F25A
:103F60000500854215D102F093FD02F0F7FDFDF743
:103F7000F3FCFDF7F5FF01F0DBFC04F0DDFC02F0E3
:103F8000DFFC00206549087000F074FF012007F095
:103F90005DFD41E20320614908706248807870B994
:103FA00002F0B0FDFEF760F86423002209219020A2
:103FB00008F00AF8FEF71EFD00F05CFF2CE25948FD
:103FC000807801280ED102F063FDFEF761F800232E
:103FD0001A460921902007F0F7FFFEF70BFD00F0CD
:103FE00049FF19E218E24A4890F8341190F8330179
:103FF00001EB002085B249F2070085423ED1032043
:104000004649087047484079E8B900204649C874D5
:104010000120087500F02EFF02F0A8FCFEF7EAFC74
:104020004FF42F7002F054FFFEF7E4FC03203A49EE
:10403000A1F89400FDF7C0FF322037490873012032
:1040400081F87100E8E137484079012816D1FDF781
:1040500087FF00F00FFFFEF7CDFC4FF4967002F0E3
:1040600037FFFEF7C7FC03202B49A1F8960002F0AA
:1040700067FC0020284981F87100CDE1CCE124489B
:1040800090F8341190F8330101EB002085B2032041
:104090002249087049F20800854214D12148C078AD
:1040A00030B901F069FCFEF7A5FC00F0E3FEB3E1D6
:1040B0001C48C078012806D101F03AFCFEF79AFCB2
:1040C00000F0D8FEA8E1A7E1114890F8341190F86B
:1040D000330101EB002085B2642D07DC0A2D05DBDE
:1040E0001048807810B1E8B201F082FB00F0C2FE07
:1040F00092E1074890F8341190F8330101EB002069
:1041000085B249F20C00854225D1002618E0000056
:104110009E0500203411002078100020160F00208A
:10412000F0000020BE130020A40F002006EBC60004
:10413000C64908440021016041600172701CC6B28A
:10414000072EF3DDFEF756FC04F014FF00F0AEF985
:10415000072007F07BFC5FE1BD4890F8341190F830
:10416000330101EB002085B2BA4890F846000428DC
:1041700000DA51E1B5F5114F2CD1B7480088C0F3F2
:1041800007201190B4480078109000218020DDE9CC
:10419000103207F019FFB0488088C0F30720119053
:1041A000AD480079109001218020DDE9103207F040
:1041B0000BFFA9480089C0F307201190A648007A98
:1041C000109002218020DDE9103207F0FDFE08206A
:1041D00007F03CFC20E1A1484069642805DA9F48CB
:1041E000808A00F5FA6084B202E09C48808A84B23A
:1041F00020121190E0B2109003218020DDE91032EE
:1042000007F0E2FE9548007C1090002204218020F7
:10421000109B07F0D9FE9148007B109000220521E9
:104220008020109B07F0D0FE8C48007A109000226E
:1042300006218020109B07F0C7FE88480079109067
:10424000002207218020109B07F0BEFE83480078E3
:104250001090002208218020109B07F0B5FE062058
:1042600007F0F4FBD8E07A4890F8341190F8330165
:1042700001EB002085B249F2021085420AD175484F
:1042800090F8570018B1032007F0E0FB02E001208E
:1042900007F0DCFBC0E06E4890F8341190F8330171
:1042A00001EB002085B26B4890F84600012800DA47
:1042B000B2E041F20100854204D1042007F0C6FBC0
:1042C00005F0A4F949F20310854217D1FF231A46DD
:1042D0009021802007F078FE5E4890F8460006287E
:1042E00002DA1F2007F0B2FB5A4890F84600062871
:1042F00002D11A2007F0AAFB05F088F98CE0544897
:1043000090F8341190F8330101EB002085B2514848
:1043100090F84600062800DA7EE049F20410854253
:1043200004D10B2007F092FB05F070F949F205105B
:10433000854201D105F06AF96EE0464890F84600E2
:10434000444981F84700084690F8470010B9012019
:1043500081F847003F4890F847300022114662201C
:1043600007F032FE0A2002F0B3FD3A4890F84730D9
:1043700000221146622007F027FE1C2007F066FB92
:104380004AE0344890F84600002824DD314890F88F
:10439000480020B901202F4981F848001BE02D4832
:1043A00090F846002B4981F847001C2007F04EFB8F
:1043B000284890F8473000221146622007F004FE9A
:1043C0000A2002F085FD234890F84730002211466C
:1043D000622007F0F9FD00202149C8751D4890F8BA
:1043E0004800087618E01A4890F8341190F8330124
:1043F00001EB002085B2062D02DC164981F84750FA
:10440000FEF7F8FA134890F8473000221146622070
:1044100007F0DAFD00E000BF00BFB8F1820F07D15E
:1044200044F64B70814503D100200A4981F85400BD
:104430004FF496710B48FCF754F8012240F22551D5
:10444000094804F0BEF913B0BDE8F08F92120020C5
:104450009E05002078100020181100205400002034
:10446000A40F0020CA06002000440040F0B5024618
:104470000B464FF6FF71002411E0177879400025B4
:1044800008E001F00106491016B14AF2010779402F
:104490006F1CBDB2082DF4DB521C671CBCB29C42E1
:1044A000EBDB0F063F0C47EA1120F0BD7CB5CBA03B
:1044B0000068019000260025002401F0D3FE1E2094
:1044C00002F006FD0724822004EBC401C44A5054C4
:1044D000662004EBC40111444870152004EBC401AC
:1044E00011448870032201A9BE4804F015FA04EBB8
:1044F000C401BB4A8818092107F0A2FD04EBC401DE
:10450000B74A88180921FFF7B1FF054628128DF830
:104510000000E8B28DF8010002226946B14804F0BB
:10452000FBF91E2002F0D4FC0624822004EBC40117
:10453000AB4A5054662004EBC40111444870122069
:1045400004EBC40111448870032201A9A54804F0BA
:10455000E3F904EBC401A24A8818092107F070FDB1
:1045600004EBC4019E4A88180921FFF77FFF054626
:1045700028128DF80000E8B28DF801000222694689
:10458000984804F0C9F91E2002F0A2FC822004EB36
:10459000C401934A5054662004EBC401114448708E
:1045A0000F2004EBC40111448870032201A98D4837
:1045B00004F0B2F904EBC401894A8818092107F014
:1045C0003FFD04EBC401864A88180921FFF74EFF1E
:1045D000054628128DF80000E8B28DF8010002228D
:1045E0006946804804F098F91E2002F071FC04240A
:1045F000822004EBC4017A4A5054662004EBC401C3
:10460000114448700C2004EBC4011144887003224B
:1046100001A9744804F080F904EBC401704A8818B9
:10462000092107F00DFD04EBC4016D4A881809212A
:10463000FFF71CFF054628128DF80000E8B28DF840
:10464000010002226946674804F066F91E2002F064
:104650003FFC0324822004EBC401614A50546620CD
:1046600004EBC40111444870092004EBC401114457
:104670008870032201A95B4804F04EF904EBC401E1
:10468000574A8818092107F0DBFC04EBC401544A9F
:1046900088180921FFF7EAFE054628128DF8000068
:1046A000E8B28DF80100022269464E4804F034F960
:1046B0001E2002F00DFC0224822004EBC401484AB3
:1046C0005054662004EBC40111444870062004EBEA
:1046D000C40111448870032201A9424804F01CF966
:1046E00004EBC4013E4A8818092107F0A9FC04EB39
:1046F000C4013B4A88180921FFF7B8FE0546281275
:104700008DF80000E8B28DF80100022269463548B4
:1047100004F002F91E2002F0DBFB0124822004EBEE
:10472000C4012F4A5054662004EBC4011144487060
:10473000032004EBC40111448870032201A9294815
:1047400004F0EAF804EBC401254A8818092107F0AF
:1047500077FC04EBC401224A88180921FFF786FE82
:10476000054628128DF80000E8B28DF801000222FB
:1047700069461C4804F0D0F81E2002F0A9FB002472
:10478000822004EBC401164A5054662004EBC40195
:1047900011444870002004EBC4011144887004EBFC
:1047A000C40188180921FFF761FE054628128DF81B
:1047B0000000E8B28DF80100032201A9094804F0C5
:1047C000ABF804EBC401064A8818092107F038FC4D
:1047D00002226946034804F09FF87CBD5AA50B00ED
:1047E00092120020004400407CB5FEA000680190B9
:1047F0000026002500241E2002F06AFBFA48A0F1E2
:1048000009010A6802604A684260097A0172072455
:10481000822004EBC401F44A3F3A5054662004EB72
:10482000C40111444870152004EBC4011144887080
:10483000032201A9ED4804F06FF804EBC401EA4A31
:104840003F3A8818092107F0FBFB04EBC401E64A54
:104850003F3A88180921FFF709FE054628128DF80E
:104860000000E8B28DF8010002226946DF4804F03A
:1048700053F81E2002F02CFBDB480938A0F1090197
:104880000A6802604A684260097A0172062482203E
:1048900004EBC401D44A3F3A5054662004EBC401EF
:1048A00011444870122004EBC401114488700322A3
:1048B00001A9CE4804F030F804EBC401CA4A3F3ADB
:1048C0008818092107F0BCFB04EBC401C64A3F3A33
:1048D00088180921FFF7CAFD054628128DF8000047
:1048E000E8B28DF8010002226946C04804F014F8CD
:1048F0001E2002F0EDFABC481238A0F12D014A6AE0
:1049000002608A6A426091F82C10017205248220AC
:1049100004EBC401B44A3F3A5054662004EBC4018E
:10492000114448700F2004EBC40111448870032225
:1049300001A9AE4803F0F0FF04EBC401AA4A3F3AD4
:104940008818092107F07CFB04EBC401A64A3F3A12
:1049500088180921FFF78AFD054628128DF8000006
:10496000E8B28DF8010002226946A04803F0D4FFA6
:104970001E2002F0ADFA9C493F3901F11B0002688C
:104980004A6242688A62007A81F82C0004248220FC
:1049900004EBC401944A3F3A5054662004EBC4012E
:1049A000114448700C2004EBC401114488700322A8
:1049B00001A98E4803F0B0FF04EBC4018A4A3F3AD4
:1049C0008818092107F03CFB04EBC401864A3F3AF2
:1049D00088180921FFF74AFD054628128DF80000C6
:1049E000E8B28DF8010002226946804803F094FF86
:1049F0001E2002F06DFA7C482438A0F109010A68F3
:104A000002604A684260097A01720324822004EB42
:104A1000C401754A3F3A5054662004EBC401114466
:104A20004870092004EBC40111448870032201A9D5
:104A30006E4803F071FF04EBC4016B4A3F3A8818DB
:104A4000092107F0FDFA04EBC401674A3F3A8818D0
:104A50000921FFF70BFD054628128DF80000E8B28A
:104A60008DF8010002226946604803F055FF1E20C0
:104A700002F02EFA5C482D38A0F109010A680260A4
:104A80004A684260097A01720224822004EBC40160
:104A9000554A3F3A5054662004EBC4011144487013
:104AA000062004EBC40111448870032201A94F4879
:104AB00003F032FF04EBC4014B4A3F3A8818092146
:104AC00007F0BEFA04EBC401474A3F3A88180921AF
:104AD000FFF7CCFC054628128DF80000E8B28DF8EF
:104AE000010002226946414803F016FF1E2002F031
:104AF000EFF93D483638A0F109010A6802604A68BA
:104B00004260097A01720124822004EBC401364A12
:104B10003F3A5054662004EBC4011144487003200E
:104B200004EBC40111448870032201A92F4803F04B
:104B3000F3FE04EBC4012C4A3F3A8818092107F020
:104B40007FFA04EBC401284A3F3A88180921FFF78D
:104B50008DFC054628128DF80000E8B28DF80100A2
:104B600002226946214803F0D7FE21480069FF214F
:104B700090FBF1F201FB12000A2190FBF1F201FB24
:104B800012011B480069FF2290FBF2F302FB1300A5
:104B90000A2290FBF2F001EB001013493F39C87074
:104BA0001348C068FF2190FBF1F201FB12000A21BB
:104BB00090FBF1F201FB12010D48C068FF2290FB4F
:104BC000F2F302FB13000A2290FBF2F001EB00105B
:104BD00005493F39087106488068FF2190FBF1F2D2
:104BE00008E000005AA50B00D1120020004400404C
:104BF0005400002001FB12000A2190FBF1F201FB9E
:104C0000120130488068FF2290FBF2F302FB130090
:104C10000A2290FBF2F001EB00102B494871294861
:104C20004068FF2190FBF1F201FB12000A2190FB8A
:104C3000F1F201FB120123484068FF2290FBF2F3DE
:104C400002FB13000A2290FBF2F001EB00101E4958
:104C500088710020C8711E2002F03AF91B4890F8B4
:104C60005700194908720024822004EBC401164A37
:104C70005054662004EBC40111444870002004EB3A
:104C8000C4011144887004EBC40188180921FFF79E
:104C9000EDFB054628128DF80000E8B28DF8010002
:104CA000032201A90A4803F037FE04EBC401064AB7
:104CB0008818092107F0C4F902226946044803F064
:104CC0002BFE7CBD540000209212002078100020A2
:104CD000004400407FB5002500260024142002F087
:104CE000F7F85A208DF80C00A5208DF80D000A2049
:104CF0008DF80E0084208DF8040007208DF8050043
:104D00001948C0880612184884798DF806608DF815
:104D10000740008906121448047A8DF808608DF85F
:104D200009401248C47B00208DF80A008DF80B4022
:104D3000082101A8FFF79AFB054628128DF800000C
:104D4000E8B28DF80100032203A9094803F0E4FD4D
:104D5000082201A9064803F0DFFD02226946044843
:104D600003F0DAFD7FBD00006C150020160F002057
:104D7000004400404FF4007002494861002002499D
:104D80008872704700100140BE13002070B500BF4C
:104D900000BF00262B48D0F8C000C0EB00108400F4
:104DA0002848D0F8C40000EB80004FF6FF7101EAFC
:104DB00040052448D0F8BC0008B9002070BD224846
:104DC000007802280DD1214890F8640048B11F48AE
:104DD000007C30B11D484069401C1C4948610020DE
:104DE00008741A484069A04206D300201749486158
:104DF000886101201649087015480078D0B1134821
:104E00008069A84212D21348407960B100F024F8BA
:104E10000E48007F98B100200C4908770846806949
:104E2000401C88610BE0FFF7A5FF08E0002008495F
:104E3000087004E0002005498861FFF79BFF00200F
:104E4000BCE7000034110020160F0020781000206D
:104E5000AF000020BE1300204FF40070034908612A
:104E600001200349887200207047000000100140B3
:104E7000BE1300207CB5002500245A208DF80400C4
:104E8000A5208DF8050065208DF8060082202349B5
:104E9000087061204870002088704871887120482F
:104EA0000078022801D10120887100201B49487236
:104EB0001B48C07B88720020C8731A4890F85700BE
:104EC0000874002081F82300174890F8500081F8FA
:104ED000240016480088001281F861001348007809
:104EE00081F8620063210D48FFF7C0FA04462012E2
:104EF0008DF80000E0B28DF80100032201A90C48F2
:104F000003F00AFD63220549094803F005FD02226A
:104F10006946074803F000FD7CBD0000A40F002097
:104F2000160F0020781000203411002064D20008F1
:104F30000044004010B500242D4800782D498873A6
:104F400023212D48FBF7CDFA00202B4908700320C0
:104F500048701E208870FD20C877DF2081F820006F
:104F600024480078C870254890F8570008712148F7
:104F700040784871002088711E48C078C8710020B0
:104F80000872487288721E48C0880012C8721C4895
:104F9000807908731A480089001248731848007A0B
:104FA0008873174840890012C8731548807A0874BE
:104FB0001048C07B48740E48007888750C4800790A
:104FC000C8750B48007A08760E4890F85400487768
:104FD0000748007B88772321074800F017F804462C
:104FE0002012054981F8210081F8224010BD0000FF
:104FF00018110020160F0020CE1500207810002078
:105000006C1500203411002000BFFEE7F0B5024609
:105010000B464FF6FF71002411E017787940002508
:1050200008E001F00106491016B14AF20107794083
:105030006F1CBDB2082DF4DB521C671CBCB29F1E56
:10504000A742EADC0F063F0C47EA1120F0BD000042
:1050500070B5002400252A221E491F48FBF7CAF913
:105060001E4890F85D02002832D000201B4981F8CC
:105070005D02002240F22551194803F0A2FB1748B7
:1050800090F85902401E17490A5C144890F85902DA
:10509000801E085C02EB002085B2104890F859127F
:1050A0001048FFF7B3FFA84201D100F06BF9FCF7FD
:1050B000EBF9002404E000210A480155601CC4B249
:1050C000642CF8DB012240F22551054803F079FBFE
:1050D00070BD0000160F0020400F0020400300208C
:1050E000003801406C04002070B5002400252A22FD
:1050F0002B492C48FBF77EF92B4890F85D020028DD
:105100004DD00020284981F85D02002240F225514F
:10511000264803F056FB244890F85902401E2449C3
:105120000A5C214890F85902801E085C02EB0020BE
:1051300085B21D4890F82C011E49896C88421FD108
:10514000194890F859121A48FFF760FFA84217D182
:10515000154890F82C011749896C884201D100F05C
:105160008FFF1448406C58B1002405E01048005DE2
:1051700011490855601CC4B20E2CF7DB01F06CFA23
:10518000002404E000210A480155601CC4B2642CCC
:10519000F8DB012240F22551044803F012FB70BDF8
:1051A000160F0020400F00205A0A0020004C00403B
:1051B000860B0020341100209213002070B50021CE
:1051C000552228231E241425424890F87020006F91
:1051D000404E766AB04203D83E4890F8702002E014
:1051E0003C4890F824203B48406F3A4E3669B04224
:1051F00003D3384890F8743001E03648037C3548D2
:1052000090F8784090F87C503348C17B00780228B1
:1052100038D1324890F8640000282AD0914203DD4A
:1052200001202F4E307004E000202D4E3070707041
:1052300030712B484078A04205DD0020284E3070A8
:10524000707001203071994203DA0120244EB07051
:1052500004E00020224EB070F070B0712048C07899
:10526000A84213DD00201E4EB070F0700120B07116
:105270000CE01948807848B10020194E30710120A7
:10528000B07103E00020164E3071B071154800680F
:10529000154E3689B0420DD912480068124E368933
:1052A000801B042803D900200D4EB07102E00020BD
:1052B0000B4E30710A480079074EB0740848807967
:1052C000F07407480079094E307105488079707193
:1052D000002070BD34110020160F0020781000202F
:1052E000C4000020181100206C150020A01300201D
:1052F000704710B54FF4A06000F03AF810BD000000
:1053000070B5002100230F22C47804B3154C246823
:1053100004F4E064C4F5E064210AC1F10403CA4066
:10532000447804FA03F184781440214309010E4CB7
:105330000678A155047804F01F050124AC400578D7
:105340006D11AD0005F1E025C5F8004109E00478D4
:1053500004F01F050124AC40044D0678761145F891
:10536000264070BD0CED00E000E400E080E100E0CC
:1053700002490143024A1160704700000000FA052B
:105380000CED00E02DE9FF5F4FF00009CB46002750
:105390000025A846002003900126824600240290A2
:1053A00001900090EC4890F82D9190F82F1190F812
:1053B0002E0101EB00201FFA80F8E74890F8311128
:1053C00090F8300101EB0020C7B23D46B9F1030F60
:1053D00003D0B9F1060F7DD1C7E0B8F1640F06D054
:1053E000B8F1780F5ED0B8F1960F74D18EE0B8F1B5
:1053F000640F56D10B2F54D1D74806700320D649DD
:105400004870162088700020C870D4480078087151
:10541000D348008900124871D148007A8871002071
:10542000C871CF48807A087200204872CD48807BCE
:1054300088720020C872CA48C0880A2190FBF1F027
:10544000C5490873C848408800124873C648807828
:1054500088730020C873C44890F85700087400206F
:105460004874C248807888740020C874BB48C07BE8
:10547000087500204875BD48407988750020C875BA
:10548000B94890F8640008761B21B348FFF7BEFDC9
:1054900004462012B04948768C761B22B44803F0AB
:1054A0003BFA60E0AE49088907F0FCFD8246B1494D
:1054B000504607F015FDB0490860B8F1780F24D1C7
:1054C000022F22D1A44806700320A349487004206B
:1054D000887001E03BE145E0A748C078C870A64865
:1054E00080780871A44840784871A3480078887192
:1054F00009219948FFF78AFD044620129649C87190
:105500000C7209229A4803F007FA2CE0032F28D1E5
:10551000914806700320904948700620887097488B
:105520000088000AC8709548007808719348808800
:10553000000A487191480079887190480089000AF2
:10554000C8718E48007A08720B218348FFF75EFD10
:1055500004462012804948728C720B22844803F062
:10556000DBF900E000BF00BFF2E0B8F1960F73D0A6
:1055700006DCB8F1640F0AD0B8F16A0F6AD144E0D2
:10558000B8F1970F67D0B8F1980FF7D1B6E073482C
:105590000078D8B9022D19D106F0C8FF6E48067000
:1055A00003206D494870022088700020C8700220D6
:1055B000087107216848FFF729FD04462012664953
:1055C00048718C7107226A4803F0A6F96348007895
:1055D000022819D1C5B906F041FD5F4806700320C5
:1055E0005D494870022088700020C870087107214A
:1055F0005948FFF70BFD04462012574948718C713A
:1056000007225B4803F088F99FE0012006F01EFAAC
:105610000020554981F8570059494871524981F88D
:105620006D004D48067003204B4948700220887079
:105630000020C870087107214748FFF7E7FC0446BF
:105640002012454948718C710722494803F064F9DA
:105650007BE001E078E027E048484068A84220D994
:10566000142D1EDB4548056003F0AAFD3A4806707C
:105670000320394948700220887040480088000A99
:10568000C8703E480078087107213348FFF7BEFC18
:1056900004462012304948718C710722344803F0C7
:1056A0003BF903F0B3FF50E03648006DA84222D921
:1056B00032480068A8421ED23048456003F080FDA1
:1056C00025480670032024494870022088702B4822
:1056D0008088000AC87029480079087107211E488F
:1056E000FFF794FC044620121B4948718C71072275
:1056F0001F4803F011F903F089FF26E01F484068B6
:10570000A8421ED91D48856003F05AFD1248067054
:105710000320114948700220887018480089000A47
:10572000C8701648007A087107210B48FFF76EFC15
:1057300004462012084948718C7107220C4803F076
:10574000EBF803F063FF00E000BF00BF00E000BF24
:1057500000BFBDE8FF9F000040030020160F00209F
:105760006C150020A40F002078100020BE1300202C
:10577000003801400000C8428000002018110020BD
:10578000F000002034110020114890F87800B0B1EA
:1057900000200F4981F878000E480078022805D1D2
:1057A0000D48007A401C0C49087202E000200A49AA
:1057B00008720948007A00F001000749087204489D
:1057C00090F87B0018B10020014981F87B007047F8
:1057D00078100020160F0020BE13002010B5042002
:1057E00000F01CF84FF48030FCF7BCF910BD00004D
:1057F000642800DD642040F2F511052202FB10113F
:10580000034A11800349C8730349087070470000B8
:1058100040040040160F00204D00002001460020EB
:10582000034A52680A400AB1012000E00020704794
:105830000070004010B53648007802280ED1354877
:1058400090F84E003C280DDB0020324981F84E00D4
:1058500031480069401C3049086103E000202D49AF
:1058600081F84E002C4800692C490988884203D9E8
:105870002A4800882849086127480069284909887A
:10588000884207D90020274981F83F00012081F88C
:10589000400005E00020234981F83F0081F84000E6
:1058A0002148007818B900201A4981F849001A489F
:1058B0000069012810D91D48007868B901201A49EB
:1058C0000870144890F84900142805DB002008707F
:1058D0001149086103F0DEFC0020124981F8410003
:1058E0000D4800693C21B0FBF1F00E4981F84200FF
:1058F000002081F84300084800693C21B0FBF1F228
:1059000001FB1200074981F84400002010BD00008F
:10591000160F00207810002028100020A80000207A
:10592000A6000020A40F0020AA00002022130020BF
:1059300010B50D48C07810B10A2001F0C9FA4FF433
:1059400080700A49486100200749C8700848C0783B
:1059500000F07F000649C8700020064948750248DB
:10596000C078887510BD0000BE13002000100140F3
:10597000160F0020A40F002010B50D48C07810B9F4
:105980000A2001F0A5FA4FF480700A49086101204D
:105990000749C8700848C07840F080000649C870C0
:1059A0000020064948750248C078887510BD00007F
:1059B000BE13002000100140160F0020A40F00208D
:1059C000704770B504460D4629462046FCF748FD51
:1059D000012800D170BD0020FCE700001CB50024A8
:1059E00033A103C9CDE90001334890F8630030B119
:1059F00001281CD004282CD0052850D147E00122D2
:105A00001146002000F0EEFDC82001F061FAFDF71C
:105A100047F9294890F8510040B9472006F016F898
:105A20000120254981F8630081F851003CE00822FB
:105A30006946224802F070FFC82001F049FAFDF7DC
:105A40002FF904201C4981F86300012081F85100DE
:105A50002AE00120184981F8650000F087FD002048
:105A6000154981F86500C82001F032FAFDF718F9F0
:105A7000114890F8510048B901200F4981F85100B0
:105A8000052081F86300012005F0E0FF0CE001240F
:105A90000020094981F8630081F8510004E00020EA
:105AA000054981F8630000BF00BF20461CBD00000F
:105AB0005AA50581201039E47810002000440040E8
:105AC00030B50146002200230020204C64688C423F
:105AD00014D21F4C94F8594034B901241C4D85F858
