:020000040800F2
:100000003020002011020008BD510008C126000860
:10001000E94D0008F5150008CB8B00080000000032
:10002000000000000000000000000000F36700086E
:10003000B919000800000000495C0008796E00084A
:100040002B020008655A00082B020008C96100084D
:100050002B0200082B0200082B0200082B020008CC
:100060002B0200082B020008191B00082B020008B5
:100070002B0200082B0200082B0200082B020008AC
:100080002B0200082B0200082B0200082B0200089C
:100090002B0200082B0200082B0200082B1B000873
:1000A0002B0200082B0200082B0200082B0200087C
:1000B000657700082B020008C17800082B020008B1
:1000C0002B0200082B0200082B0200082B0200085C
:1000D0002B020008ED860008C58700086D8800081F
:1000E000A91A00082B0200082B0200082B020008A6
:1000F0002B0200082B0200082B0200082B0200082C
:100100002B0200082B0200088D7F00082B0200083C
:1001100025820008158600082B0200082B02000823
:100120002B0200082B0200082B0200082B020008FB
:1001300000F002F800F05CF80AA090E8000C82449D
:100140008344AAF10107DA4501D100F051F8AFF27A
:10015000090EBAE80F0013F0010F18BFFB1A43F0A5
:1001600001031847B8D50000D8D500000A444FF065
:10017000000C10F8013B13F0070408BF10F8014B06
:100180001D1108BF10F8015B641E05D010F8016B4B
:10019000641E01F8016BF9D113F0080F1EBF10F8AF
:1001A000014BAD1C0C1B09D16D1E58BF01F801CBD2
:1001B000FAD505E014F8016B01F8016B6D1EF9D555
:1001C0009142D6D37047000000230024002500266A
:1001D000103A28BF78C1FBD8520728BF30C148BFAA
:1001E0000B607047002070471FB51FBD10B510BDD4
:1001F00000F0F2F91146FFF7F7FF0BF021FE00F0D7
:1002000010FA03B4FFF7F2FF03BC09F0C0FA0000D4
:100210000948804709480047FEE7FEE7FEE7FEE79A
:10022000FEE7FEE7FEE7FEE7FEE7FEE704480549D6
:10023000054A064B70470000A17300083101000811
:100240003016002030200020301800203018002008
:10025000704700000FB4044910B503AA029800F0DB
:10026000A5F910BC5DF814FB380000202DE9F05F03
:10027000894604464FF0000ADFF874B1FB44C0F829
:1002800020A02046E1688847002874D0252806D0A1
:10029000D4E901219047206A401C2062F1E7002642
:1002A0005F462046E16888472028054607DB312D58
:1002B00005D2781910F8200C08B10643F1E7B00711
:1002C00001D526F00406C4F81CA00027C4F818A025
:1002D0002A2D09D0284609F053FA38B304EB8708D1
:1002E000303DC8F8185019E059F8041B204604EBBB
:1002F00087029161E1688847012F054618D1E069BE
:10030000002820DA26F020061DE0D8F8180000EBBF
:10031000800005EB40003038C8F818002046E1683E
:100320008847054609F02CFA0028EED1012F0AD0A3
:100330002E2D08D12046E16888477F1C0546022FF4
:1003400046F02006C4DBA069002803DA404246F0EC
:100350000106A061F00701D026F010066C2D0BD02D
:10036000682D09D04C2D39D06A2D35D0742D35D05B
:100370007A2D33D016E038E0E1682F4620468847D2
:10038000B842054609D16C2F26D04FF48060E16851
:10039000064320468847054604E06C2F1AD04FF4E8
:1003A000807006430DB3A5F14100192802D820350D
:1003B00046F400664A462946204626604E46FFF728
:1003C00011FF80B101280BD0F61D26F0070000F1C7
:1003D000080956E74020E4E78020D8E70020D6E768
:1003E00006F104094DE7284652E7206ABDE8F09F70
:1003F000AAD30000032A40F2308010F0030C00F072
:10040000158011F8013BBCF1020F624498BF11F84E
:1004100001CB00F8013B38BF11F8013BA2F1040207
:1004200098BF00F801CB38BF00F8013B11F003037F
:1004300000F02580083AC0F0088051F8043B083AE3
:1004400051F804CBA0E80810F5E7121D5CBF51F885
:10045000043B40F8043BAFF30080D20724BF11F8FF
:10046000013B11F801CB48BF11F8012B24BF00F864
:10047000013B00F801CB48BF00F8012B704710B5D5
:10048000203AC0F00B80B1E81850203AA0E818508C
:10049000B1E81850A0E81850BFF4F5AF5FEA027C4D
:1004A00024BFB1E81850A0E8185044BF18C918C0BC
:1004B000BDE810405FEA827C24BF51F8043B40F85D
:1004C000043B08BF7047D20728BF31F8023B48BF42
:1004D00011F8012B28BF20F8023B48BF00F8012B80
:1004E00070474FF000020429C0F0128010F0030C96
:1004F00000F01B80CCF1040CBCF1020F18BF00F817
:10050000012BA8BF20F8022BA1EB0C0100F00DB8C5
:100510005FEAC17C24BF00F8012B00F8012B48BF23
:1005200000F8012B70474FF0000200B513469446C7
:100530009646203922BFA0E80C50A0E80C50B1F13B
:100540002001BFF4F7AF090728BFA0E80C5048BF4F
:100550000CC05DF804EB890028BF40F8042B08BFED
:10056000704748BF20F8022B11F0804F18BF00F8E9
:10057000012B7047704770477047704701694A1CEC
:1005800002610878704700B58FB0CDE901310021D4
:10059000059105497944CDE9031011466846FFF7F6
:1005A00065FE0FB000BD0000E5FFFFFF074B70B513
:1005B0000D467B44FFF7E7FF0446284600F008F8A5
:1005C00010B14FF0FF3070BD204670BD6F98000035
:1005D000007B00F080007047754600F02BF8AE46B7
:1005E00005006946534620F00700854618B020B53F
:1005F000FFF71CFEBDE820404FF000064FF000075B
:100600004FF000084FF0000B21F00701AC46ACE8BA
:10061000C009ACE8C009ACE8C009ACE8C0098D4627
:10062000704710B50446AFF300802046BDE8104087
:10063000FFF7E7BD00487047CC15002021B1826864
:1006400042F00102826003E0826822F001028260CF
:10065000704721B1826842F48072826003E0826850
:1006600022F4807282607047014600208A6802F09E
:1006700004020AB1012000E000207047014600207A
:100680008A6802F008020AB1012000E000207047E9
:1006900030B502460020002350680F4C20400D79F1
:1006A0000C6844EA05242043506090680B4C2040BD
:1006B000D1E902542C434D7944EA4504204390602B
:1006C000D06A20F470000C7C641EE4B2234340EA3C
:1006D0000350D06230BD0000FFFEF0FFFDF7F1FFD8
:1006E0002DE9FE4F0024A346A14600200290824639
:1006F0004148807B00287BD000203F49887309F067
:100700006BFB00BF09E03D4951F824000CF08CFE62
:100710003B4921F81400601CC4B2042CF3DB4FF4F5
:100720000051384805F091FA002845D132488089B7
:10073000401C3149888100F00DFA824650460CF089
:1007400073FC4FF04042304BCDE900010CF014FB3C
:10075000074600222D4B0CF07BFC05460CF0DAFA24
:1007600002904FF0834102980CF09CFD01900CF038
:100770006DFD05460022264B0CF0FEFA07460CF0F4
:10078000C9FA0290234902980CF082FE05460CF04B
:100790004BFE82461FFA8AF000F086FB81464846EF
:1007A00008F0B2FB1C49C8800846C088642803DDF5
:1007B0000846C0881938C880104948680CF034FED3
:1007C00085B2284601F068FE8346584605F0BCFA1B
:1007D00011490881094988680CF026FE0649C88439
:1007E0000649C8680CF020FE0349088506F03AF86F
:1007F0000020BDE8FE8F00009C0F002000130020A9
:100800000201002000180140FFFF5F4100409F40AF
:100810000000E03F0000C842A0140020F0B50446EC
:100820000D4600200021092D11DDE068A5F10A0622
:1008300006EB4607072606FA07F18843A5F10A06E4
:1008400006EB460603FA06F10843E0600CE0206977
:1008500005EB4507072606FA07F1884305EB450631
:1008600003FA06F108432061072A0FDA606B561E6F
:1008700006EB86071F2606FA07F18843561E06EB8D
:10088000860605FA06F10843606322E00D2A0FDAB6
:10089000206BD61F06EB86071F2606FA07F1884352
:1008A000D61F06EB860605FA06F10843206310E022
:1008B000E06AA2F10D0606EB86071F2606FA07F18D
:1008C0008843A2F10D0606EB860605FA06F10843F9
:1008D000E062F0BD816841F008018160704721B19C
:1008E000826842F4A002826003E0826822F4A002DF
:1008F00082607047816841F00401816070470000A8
:1009000008B50121042005F0ABFA0320ADF8000082
:1009100000208DF803006946084801F0DBFC012146
:10092000102005F09DFA00208DF803000320ADF89B
:1009300000006946024801F0CDFC08BD00080140F6
:100940000010014010B5FFF7DBFF00F001F810BD0B
:1009500000B591B00121084605F052FA0121480284
:1009600005F07EFA3D4800F063FF3D4806903D48A3
:10097000079000200890C820099000200A9080204D
:100980000B9040000C9080000D9020200E900002F3
:100990000F900020109006A9304800F0EFFF0121D1
:1009A0002E4800F039FF0020019001208DF808004A
:1009B0008DF809004FF4602003900020049004207B
:1009C0008DF8140001A926484C38FFF761FE4FF45A
:1009D000004005F009FA07230122002120484C3885
:1009E000FFF71CFF0723022201211D484C38FFF7A7
:1009F00015FF072303220A2119484C38FFF70EFF81
:100A0000072304220B2116484C38FFF707FF01216A
:100A100013484C38FFF71DFE012111484C38FFF7F1
:100A20000DFE0F484C38FFF755FF00BF0C484C38FF
:100A3000FFF724FE0028F9D109484C38FFF75AFF88
:100A400000BF07484C38FFF70FFE0028F9D10121FD
:100A500003484C38FFF743FF11B000BD08000240C7
:100A60004C2401401013002008B5682000906A460D
:100A70000121002000F094F8042000906A46012132
:100A8000084600F08DF8552000906A4601210220AA
:100A900000F086F8702000906A460121032000F0E3
:100AA0007FF808BD10B5044614B1012C0ED106E044
:100AB000074A918A1068012201F0E9FC06E0044A25
:100AC000918A1068002201F0E2FC00BF00BF10BD57
:100AD0004402002038B500240121402005F0C0F96F
:100AE00000BF10E010208DF8030001208DF80200F7
:100AF000164830F81400ADF800006946144801F0BB
:100B0000E9FB601CC4B2032CECDB03240DE048209D
:100B10008DF803000D4830F81400ADF80000694668
:100B20000B4801F0D7FB601CC4B2052CEFDB074A71
:100B3000143A918A1068012201F0A9FC034A143A80
:100B4000D18A5068002201F0A2FC38BD5802002072
:100B50000018014010B50120FFF7A4FF102000F09D
:100B600019F800F013F8044600F010F840EA0424E5
:100B700000F00CF840EA042404F4000008B144F04A
:100B80007F440020FFF78EFF204610BD10B505F012
:100B9000B1FD10BD10B50446204605F0E3FD10BDC3
:100BA0002DE9F04106460C4615460120FFF77AFF75
:100BB0000C2101EA8601621E02F00302114341F09A
:100BC0004000FFF7E7FF002704E015F8040BFFF7EC
:100BD000E1FF7F1CA742F8DB0020FFF763FFBDE8C1
:100BE000F081000000B501F087FC1448007901286D
:100BF0000DD11348407840F0200011494870114849
:100C000090F8630018B903200E4981F863000E487C
:100C1000C0880E49496B884203D91020094981F8E0
:100C20006300094801890948006D401E814203D3D1
:100C30000220044981F8630000BD00005612002024
:100C40003A0E00209C0F0020A01400206810002005
:100C500010B58848807800286FD0874800780B2826
:100C60006CD2DFE800F0061D376CCBFFFFFFFFFF03
:100C7000BD0000F0D1FE05F0CBFE01F061F97F4828
:100C8000C069B0F5167F03D200207C4981F8990035
:100C90004FF47A7009F090F8012077490870E4E089
:100CA00005F0B6FE00F0B8FE01F04AF9744800788D
:100CB00010B90120734908707248007848B10020CB
:100CC0007049087002206C4908706F49486809F043
:100CD00073F8CAE005F09CFE00F09EFE01F030F9CA
:100CE0006A48C07818B90120644981F873006748E0
:100CF000C078012803D10020604981F87300604862
:100D0000007810B901205F4908705E48007898B1FA
:100D100000205C4908700320574908704FF47A702E
:100D200009F04AF80020554981F8730057480078C7
:100D300010B9052081F8630097E097E092E000F099
:100D40006BFE05F065FE01F0FBF84C4890F8700072
:100D5000012803D10720494981F8630048480078F9
:100D600010B90120474908704648007898B3002020
:100D7000444908703F488078032803D10A203E493F
:100D800008702CE04248008942498968884223D88B
:100D90000020384988704049C87108460021016028
:100DA00041600020344908700220324908703B49F4
:100DB000087001203A49087002203A49087005F08D
:100DC000FBFD1E2004F058FE4FF47A7008F0F4FF8B
:100DD00001200AF0F9FF02E004202749087044E0EE
:100DE00005F016FE05F0AEFD00F072FA28B1042001
:100DF0002149087001202849C87136E001202649A0
:100E0000C8710846C07948B300F006FE05F000FE40
:100E10001F4800891F498968884220D80020154949
:100E200088701D49C871084600210160416000209A
:100E30001149087002200F490870184908700120F4
:100E40001749087000201749087005F0B5FD4FF4E8
:100E50007A7008F0B1FF01200AF0B6FF01E005F05A
:100E600071FD02E00BF0C0FA00BF02E00020024971
:100E7000087010BD3A0E00208A0000209C0F002050
:100E80004900002048000020681000205612002071
:100E9000A01400204C100020700000208C000020C6
:100EA0008D0000208E00002010B5044642F2A630CE
:100EB000844205DD42F21070844201DA002010BD48
:100EC00042F21070844207DB42F69600844203DA55
:100ED000204608F0BDFFF2E742F69600844207DBA9
:100EE00042F61B20844203DA204609F03EF9E6E789
:100EF00042F61B20844207DB42F69F30844203DA2D
:100F000020460AF067F9DAE742F69F30844207DBB1
:100F100042F62250844203DA20460AF014FACEE761
:100F200042F62250844207DB42F6A460844203DA90
:100F300020460AF0C8FAC2E742F6A460844207DB02
:100F400043F22400844203DA20460AF07CFBB6E731
:100F500043F22400844207DB43F2A410844203DA04
:100F600020460AF030FCAAE743F2A410844207DBD3
:100F700043F22230844203DA20460AF0E4FC9EE782
:100F800043F22230844207DB43F29F40844203DA7B
:100F900020460AF098FD92E743F29F40844207DB27
:100FA00043F21B60844203DA20460AF04CFE86E7D7
:100FB00043F21B60844207DB43F29570844203DAFC
:100FC000204609F012F87AE743F29570844207DB75
:100FD00043F60F10844203DA204609F07BF96EE7EE
:100FE00043F60F10844207DB43F68720844203DA7E
:100FF000204609F02FFA62E743F68720844207DB98
:1010000043F6FE30844203DA204609F0E3FA56E75D
:1010100043F6FE30844207DB43F67550844203DA20
:10102000204609F097FB4AE743F67550844207DBF8
:1010300043F6E960844203DA204609F04BFC3EE7C0
:1010400043F6E960844207DB44F25D00844203DA40
:10105000204609F0FFFC32E744F25D00844207DBE2
:1010600044F2D010844203DA204609F0B3FD26E7AB
:1010700044F2D010844207DB44F24130844203DA68
:10108000204609F067FE1AE744F24130844207DB4C
:1010900044F2B240844203DA204609F01BFF0EE717
:1010A00044F2B240844207DB44F22160844203DA16
:1010B000204609F0CFFF02E742F20F70FFE6000082
:1010C000F0B500210022002500230024002600277F
:1010D0001E4807780020DFF878C08CF85F0007B959
:1010E000F0BD1C48808A81B21A48008A82B2194831
:1010F000808985B21548001D008883B213480830E6
:10110000008884B211480C30008886B2994206DD0E
:101110000120DFF83CC08CF85F000020E0E7994236
:1011200011D1A24206DD0120DFF824C08CF85F0057
:101130000020D5E7A24206D1B54204DB0120DFF84A
:1011400010C08CF85F000020CAE7000014B8010846
:101150009C0F0020540000200C4890F8630078B1E8
:101160000A4890F8880078B10020084981F8880082
:10117000084690F84F0038B104200549086003E0A4
:1011800004200349091D0860002070479C0F0020BF
:101190001014014010B5002401F0AEF94648407922
:1011A000012807D1454890F8630018B90920434940
:1011B00081F863004048007901280DD1404840780B
:1011C00040F020003E4948703C4890F8630018B950
:1011D00003203A4981F863003748007800B90124B8
:1011E00024B10120354981F8310005E00020334960
:1011F00081F8310081F83000304890F8300005283F
:101200000EDB2F48807840F020002D4988700120A7
:101210002C49C8710020294981F8310081F830003B
:10122000264890F87000D0B905F0F2FB234890F8FA
:101230005600401C214981F85600084690F8560097
:10124000032803DB0C2081F8630008E01C48807849
:1012500040F020001A49887001201A49C8711748C7
:1012600090F8560048B11548B0F85800B0F5E16F55
:1012700003DB0020114981F856001348C088134948
:10128000496B884207D90D4890F8630018B91020BF
:101290000A4981F863000C4801890C48006D401E22
:1012A000814207D3054890F8630018B9022003492A
:1012B00081F8630010BD0000561200209C0F002032
:1012C0003A0E002070000020A014002068100020BA
:1012D00070B503250F2600244C48806B002876D07B
:1012E0004B4890F84E0000287DD0494890F8770090
:1012F00030B102281AD003283FD004286AD15CE01C
:1013000004F07EFC4348008943490978884204DDA3
:1013100042F2107008F050FD03E048F6B80008F003
:101320004BFD02203A4981F877005BE03B480078AA
:1013300010B901203A4908703A48007848B90320AA
:10134000334981F877004EF6602008F035FD04F04F
:1013500033FC3348007878B10020314908702C49BB
:1013600081F8730004F028FC4EF6602008F024FD9C
:101370000320274981F8770034E004F01DFC27485A
:10138000007810B9012026490870264840780128C5
:1013900003D104201E4981F877002148007858B114
:1013A00000201F4908701A4981F8730004F004FCFA
:1013B0000420174981F8770014E004F0FDFB0020B9
:1013C000134981F84E0081F8770001240AE012E009
:1013D00009E0FFE700200E4981F84E0081F8770010
:1013E000012400BF10E00020094981F877000124A2
:1013F00004F0E2FB08E004F0DFFB012400200449D4
:1014000081F8730081F87700204670BD68100020D5
:101410009C0F0020A0140020A500002049000020FF
:10142000480000205612002010B53C48D0F8D000EB
:10143000D0B13A48D0F8C80039498968884213D1F8
:101440003648D0F8CC003649496888420CD1344837
:1014500000681E2808DA3348007828B9324890F826
:10146000630008B90BF044FA2C48D0F8DC00D0B186
:101470002A48D0F8D4002A498968884213D12748DD
:10148000D0F8D8002649496888420CD12448006821
:101490001E2808DA2348007828B9234890F863000A
:1014A00008B90BF025FA1D48D0F8E800B8B11B4880
:1014B000D0F8E0001A498968884210D11748D0F85E
:1014C000E40017494968884209D1154800681E2878
:1014D00005DA14480078022801D10AF085FF0F4888
:1014E000D0F8F400B8B10D48D0F8EC000C49896888
:1014F000884210D10948D0F8F0000949496888426B
:1015000009D1074800681E2805DA06480078022835
:1015100001D10AF069FF002010BD00006810002012
:10152000540000203A0E00209C0F00200249088041
:101530000121014A11717047F400002010B5002408
:1015400000BF264890F8980020B1012815D0022845
:1015500039D127E005F030FA002004F08DFA04F0CC
:101560002BFB42F6E06008F027FC01201B4981F8C4
:101570009800002081F856002CE01948007810B936
:101580000120184908701748007850B1002015490B
:101590000870124981F86E00022081F8980000F06E
:1015A000CFFC17E0104801891048006D401E8142B1
:1015B00003D30220094981F863000020074981F81C
:1015C0009800012406E00020044981F898000AF000
:1015D0000BFF00BF00BF204610BD00009C0F002085
:1015E0004900002048000020A014002068100020BE
:1015F0000020704700BFFEE73CB502460023009381
:10160000019300BF01F0CF038DF80030090A01F00B
:10161000CF038DF8013002F0CF038DF80230120AAB
:1016200002F0CF038DF80330120A02F0CF038DF8D9
:101630000430120A02F0CF038DF805309DF8003017
:101640009DF8014004EB840403EB44039DF8024041
:1016500004EBC40505EB041403EB84039DF803407D
:1016600004EB4405C5EBC41403EBC4049DF804303B
:1016700040F271256B4304EB03149DF8053040F6EE
:1016800035456B4304EB43103CBD00004D480068FA
:101690004D490860084600684C49884205D84A48C8
:1016A000006847F23051884203D247F23050464931
:1016B00008604448001D0068434948600846406887
:1016C0004249884205D84048406847F23051884234
:1016D00003D247F230503C4948603A481030006825
:1016E00039490861084600693C2803D80846006962
:1016F0000F2802D21920344908613348406A64280F
:1017000003D83148406A142802D264202E49486226
:101710002D48406A2C490969884203D22A48006949
:1017200029494862274828300068274988620846C6
:10173000806A012801D9012088622248343000687B
:10174000214948630846406BB0F5FA6F07D908464F
:10175000406BB0F5167F02D24FF4487048631948C9
:1017600038300068184988630846806B012801D921
:10177000002088631648006816490860084600681B
:101780000A2805D3084600680F49096D884202D926
:101790003720104908600B48503000680A49086536
:1017A0000846006DA02801D95020086505483C3046
:1017B00000680549C8630846C06B012801D90020AC
:1017C000C863704700B8010868100020E093040067
:1017D00000E001084C10002004200C49086008209B
:1017E000086002200860C0010949086080010749BB
:1017F0000860400008604020064948618020486138
:1018000040004861400048617047000014140140E6
:10181000140801400010014021B1026842F00102A9
:10182000026004E002684FF6FE731A4002607047DF
:1018300001684FF6FE7211400160002101604160B5
:101840008160C1604B49884208D14A4908394968DA
:1018500041F00F01474A083A51608AE04549143186
:10186000884208D143490839496841F0F001414AAA
:10187000083A51607DE03F492831884208D13D490E
:101880000839496841F470613A4A083A516070E099
:1018900038493C31884208D136490839496841F411
:1018A0007041344A083A516063E03249503188420D
:1018B00008D130490839496841F470212D4A083A65
:1018C000516056E02B496431884208D129490839D2
:1018D000496841F47001274A083A516049E02549B6
:1018E0007831884208D123490839496841F070614C
:1018F000204A083A51603CE01F49884206D1011F46
:10190000096841F00F01021F116032E01A491431D9
:10191000884208D11849091F096841F0F001164AA8
:10192000121F116025E014492831884208D112495C
:10193000091F096841F470610F4A121F116018E015
:101940000D493C31884208D10B49091F096841F40F
:101950007041094A121F11600BE00749503188425B
:1019600007D10549091F096841F47021024A121F75
:1019700011607047080002400804024010B50022C0
:10198000026847F6F0739A430C6A8B6823430C692C
:1019900023434C6923438C692343CC6923434C6A1A
:1019A00023438C6A23431A430260CB6843600B686D
:1019B00083604B68C36010BD70470146002005E09E
:1019C000002001E0421CD0B21428FBDB0A1EA1F16A
:1019D000010399B2F4D1704710B500240A48047885
:1019E0000F2C00DA0F243C2C00DD3C24204604F0B0
:1019F00043F80648047000780549087003480078E9
:101A00000449C873012010BD10B801084B00002024
:101A10004D0000203A0E002010B580200A49486190
:101A20000A48007830B1142005F008FA012008496E
:101A300081F87E000748C07800F0F7000549C870BB
:101A400000200249087010BD00100140F212002071
:101A50009C0F00203A0E002010B580200D4908612F
:101A60000D48007858B9642005F0E8F90B48006982
:101A7000401C0A4908610120094981F87E00094893
:101A8000C07840F008000749C8700120024908707A
:101A900010BD000000100140F21200204C10002088
:101AA0009C0F00203A0E002010B54FF4806000F02B
:101AB0006BF818B14FF4806000F060F84FF40060EC
:101AC00000F062F818B14FF4006000F057F84FF4DE
:101AD000805000F059F818B14FF4805000F04EF8E3
:101AE0004FF4005000F050F818B14FF4005000F0DF
:101AF00045F84FF4804000F047F818B14FF48040AB
:101B000000F03CF84FF4004000F03EF818B14FF4FC
:101B1000004000F033F810BD10B5102000F034F88C
:101B200010B1102000F02AF810BD10B5202000F0F0
:101B30002BF810B1202000F021F8402000F024F80C
:101B400010B1402000F01AF8802000F01DF810B10C
:101B5000802000F013F84FF4807000F015F818B1F1
:101B60004FF4807000F00AF84FF4007000F00CF8A9
:101B700018B14FF4007000F001F810BD0149086081
:101B80007047000014040140014600200022074B6A
:101B90001B6803EA0102054B14331B680B4013B1A9
:101BA0000AB1012000E0002070470000000401405D
:101BB00010B5294890F8630078B9274890F8790063
:101BC00018B10120244981F87E000020224981F8C3
:101BD000630081F87900214948711F48B0F86A0014
:101BE000B0F5E16F05DB00201D4908701A49A1F826
:101BF0006A00194890F8790050BB174890F86300C4
:101C000028B30AF0F1FB0120134981F8790081F82B
:101C10004F001249487103200AF0D6F80E4890F898
:101C200063000F49097888420BD00B4890F8630095
:101C30000B49087002F0C6FC07F03AFB642005F07F
:101C4000FDF800200449A1F86A0003F063F802E0FF
:101C500003200AF0B9F810BD9C0F0020F40000200A
:101C60009D00002030B5044604254FF4302000F0DC
:101C700001F90546042D17D10C48006940F0020017
:101C80000A49086108464461006940F04000086163
:101C90004FF4302000F0EEF805460448006941F6A4
:101CA000FD71084001490861284630BD002002400E
:101CB00004200B49C96801F0010109B101200EE0BF
:101CC0000749C96801F0040109B1022007E004498D
:101CD000C96801F0100109B1032000E00420704739
:101CE0000020024000200449C96901F0020109B145
:101CF000012000E0002070470020024003480069F6
:101D000040F0800001490861704700000020024057
:101D10000549096821F01001034A1160114609685C
:101D200001431160704700000020024078B506466C
:101D30000C46042500200090E80200F09BF80546C0
:101D4000042D24D11348006940F0010011490861B5
:101D50003480E80200F08EF80546042D10D1B01C46
:101D60000090200C00990880E80200F083F80546F6
:101D70000848006941F6FE7108400649086106E01E
:101D80000448006941F6FE7108400249086128468E
:101D900078BD00000020024030B5054604244FF411
:101DA000302000F067F80446042C41D12148224934
:101DB0008860224888600846006940F02000086179
:101DC0000846006940F0400008614FF4302000F000
:101DD00051F80446042C22D11748006941F6DF71FE
:101DE0000840154908610846006940F01000086184
:101DF0001DB100201249088002E0A520104908808A
:101E00004FF4302000F036F80446052C10D00A4874
:101E1000006941F6EF7108400749086108E0052CA8
:101E200006D00548006941F6DF71084002490861A3
:101E3000204630BD2301674500200240AB89EFCD2D
:101E400000F8FF1F01460020034A106800F0380028
:101E50000843106070470000002002400248034918
:101E600048600348486070472301674500200240EE
:101E7000AB89EFCD00B502460423FFF719FF0346F7
:101E800003E0FFF715FF0346521E012B01D1002A84
:101E9000F7D102B90523184600BD000000202349F0
:101EA00091F85010A1B30021204A82F85010204927
:101EB0000978052902D100211D4A11701B4991F8AA
:101EC0009A101C4A1A4B1B7822F8131011460988E5
:101ED00052881144174A92881144164AD2881144F4
:101EE000144A128988180521B0FBF1F010490978CD
:101EF000491C0F4A1170C0EB001189000E4A12787C
:101F0000B1FBF2F1094AA2F89C10002182F89A1064
:101F10000649B1F89C100912084A82F84710034993
:101F200091F89C1082F84810704700009C0F002028
:101F3000A1000020BC120020A2000020C80E00203A
:101F400010B50A48C07800F0FD000849C870642048
:101F500003F092FD642006490870084600780549A0
:101F60000870034800780149C87310BD3A0E00207C
:101F70004B0000204D00002010B51048407930B1D2
:101F80000A2004F05BFF01200D4981F87E004FF428
:101F900080400C49086000200949087507494871CC
:101FA0000948C07800F0BF000749C8700020074901
:101FB000C874024840790875002010BDF212002054
:101FC0009C0F0020141401403A0E0020C80E00207F
:101FD0002648B0F8A200022801DC002070472448FF
:101FE000007803281BD14FF4804022490860224822
:101FF000407930B900201D4981F88D00012081F819
:102000007E000020194981F8740001201A494871A6
:102010001748C07840F040001549C8701EE01348CA
:1020200090F88D00D0B14FF48040124908601248FA
:10203000407930B900200D4981F88D00012081F8E8
:102040007E000020094981F8740001200A49487186
:102050000748C07840F040000549C8700020074993
:10206000C8740548407908750020B7E79C0F002028
:102070003A0E002010140140F2120020C80E002079
:1020800010B564200549C87303F0F6FC64200449C8
:102090000870084600780349087010BD3A0E002009
:1020A0004B0000204D00002010B500200549C873EA
:1020B00003F0E2FC00200449087008460078034958
:1020C000087010BD3A0E00204B0000204D0000208B
:1020D00010B5FFF707FE012806D0FFF7BFFE01206D
:1020E000FFF75AFEFFF70AFE10BD000070B5082684
:1020F00000240025344890F8250008B9002070BD60
:102100000020314981F82500012088750846007DAE
:10211000642805DC0846007D00EB8000450000E0F7
:1021200000252A480078401C284908700846007895
:10213000052805DD0020264908702449087002E0C2
:102140000120234908702248007810B1012833D1BA
:1021500018E02048067003201E494870002088704F
:10216000C87008710120487108211A4802F03EFE2B
:102170000446201217498871CC710822164806F0CF
:1021800035FD1DE0134806700620124948700020F6
:1021900088700120C870281208714D7108210D48FF
:1021A00002F024FE044620120A498871CC710822EC
:1021B000094806F01BFD03E000200549087000BF38
:1021C00000BF00209BE700009C0F0020DA000020E9
:1021D000D900002020070020004800402DE9F047EA
:1021E0000025002600240027A046A1463548C07DD2
:1021F0000A2803DB1320334981F86300324890F842
:102200005D0200285AD000202F4981F85D0200228B
:1022100040F225512D4806F03EFC2B4890F859021B
:10222000401E2B490A5C284890F85902801E085C21
:1022300002EB002085B2244890F82C6190F82D71B3
:1022400090F82E81082E2AD190F85912204802F0D9
:10225000CDFDA84223D100201A498875C875032FE7
:102260001DD1B8F1020F1AD1174890F8301190F82B
:102270002F0101EB00201FFA80F9B9F1EA0F03D119
:1022800001201049487502E000200E4948750D48AC
:10229000407D012803D112200A4981F863000024FF
:1022A00004E000210A480155601CC4B2642CF8DB2C
:1022B000012240F22551054806F0EDFB0020BDE863
:1022C000F08700009C0F00202007002000480040FD
:1022D0004C0800202DE9F041024600250026002090
:1022E00000230024002791F803C00CF00F0591F89B
:1022F00003C00CF0100CBCF1000F03D091F802C029
:102300004CEA050591F800C0BCF1000F31D014680B
:1023100000202BE04FF0010C0CFA00F3B1F800C0E4
:102320000CEA03069E4220D183004FF00F0C0CFAFA
:1023300003F7BC4305FA03FC4CEA040491F803C01C
:10234000BCF1280F06D14FF0010C0CFA00FCC2F8CA
:1023500014C00AE091F803C0BCF1480F05D14FF05A
:10236000010C0CFA00FCC2F810C0401C0828D1D3A4
:102370001460B1F800C0BCF1FF0F34DD54680020D8
:102380002EE000F1080C4FF0010808FA0CF3B1F848
:1023900000C00CEA03069E4221D183004FF00F0CCF
:1023A0000CFA03F7BC4305FA03FC4CEA040491F869
:1023B00003C0BCF1280F05D100F1080C08FA0CF895
:1023C000C2F8148091F803C0BCF1480F07D100F1A6
:1023D000080C4FF0010808FA0CF8C2F81080401CF5
:1023E0000828CED35460BDE8F0810000F0B50A465D
:1023F000002300240021002500F00046B6F1004F24
:1024000002D11D4EF16901E01B4E7168C0F3034516
:1024100083B200F44016B6F5401F08D121F0706178
:10242000154E766826F07066134F7E6012E000F459
:102430008016B6F5801F06D1032606FA05F4A143DF
:1024400041F0706106E0460D360103FA06F6B1432D
:1024500041F0706122B1460D360103FA06F63143B0
:1024600000F00046B6F1004F02D1034EF16101E0E9
:10247000014E7160F0BD00000000014002460020E6
:1024800093680B400BB1012000E0002070470AB1B7
:10249000016100E041617047014600BF40F6E4433E
:1024A00001FB03F2D31702EB1353C3F30F30114AAE
:1024B0005081B0F5BE7F04DD40F22F22904200DA59
:1024C000501CA0F22F2202EB820252008C2392FBBE
:1024D000F3F290B2A0F22F2264235A438C2392FB92
:1024E000F3F2044B5A82B0F5004F01DD40F2E730C1
:1024F000704700009C0F00200820002100BF544AB4
:102500009278012A06D1524A527812B1504A127872
:1025100002B901214E4A5278012A03D14C4A12785D
:1025200002B9012199B14B4A92F8702032B10122CF
:10253000484B83F8732083F8332003E00022454B97
:1025400083F873200122434B83F82F2007E00022F9
:10255000404B83F8332083F82F2083F82E203D4A08
:1025600092F832200C2A07DB00223A4B83F87320C2
:1025700083F8332083F83220374A127802B90520D5
:10258000344A92F8702052B1334A1278022A06D1A6
:102590002F4A12780AB10F2002E00C2000E00F2031
:1025A0002C4A92F82E2082420DDB2A4A92F86320B0
:1025B0001AB90822274B83F863200022254B83F8A1
:1025C0002F2083F82E20224AD279C2B9214A92F8CC
:1025D0002D201AB900221F4B83F82C2001221D4BFD
:1025E00083F82D201A4692F82C20012A0DDD1A4678
:1025F00092F863204AB90F2283F8632005E0002295
:10260000144B83F82D2083F82C20114A9279C2B9FB
:10261000104A92F82B201AB900220E4B83F82A2078
:1026200001220C4B83F82B201A4692F82A20012A0B
:102630000DDD1A4692F863204AB9012283F863201F
:1026400005E00022034B83F82B2083F82A207047F3
:10265000561200209C0F00203A0E002070B5044650
:1026600003F01EFC4FF4803003F0DCFC03F038FD77
:102670000546012D23D11020FFF74AFB0220FFF76A
:10268000E1FB002003F0C2FCA80203F0F1FC0020F3
:1026900003F0FAFC2146280403F008FD012003F0B2
:1026A000FFFC00BF392003F08BFC0028FAD0022089
:1026B00003F00AFD00BF03F0A1FC0828FBD170BDA8
:1026C00000BFFEE710B52F4890F8630078B92D4899
:1026D00090F8790018B101202A4981F87E00002085
:1026E000284981F8630081F8790027494871254815
:1026F000B0F86A00B0F5E16F05DB002023490870EF
:102700002049A1F86A001F4890F87900002837D1C5
:102710001C4890F8630098B31A4890F86300FF28AB
:102720002ED000201A4908701A480078022801D1DA
:1027300009F05AFE032009F047FB012012494871B5
:10274000104981F8790081F84F0081F87E00084631
:1027500090F863000D49097888420BD0094890F839
:1027600063000A49087001F02DFF06F0A1FD642006
:1027700004F064FB00200349A1F86A0002F0CAFAE1
:1027800010BD00009C0F0020F40000209E000020DF
:102790008C0000203A0E002070B505460C4645F22C
:1027A000555000F02BF8284600F01CF8204600F0A9
:1027B0001FF800F00FF800F001F870BD4CF6CC40A7
:1027C00001490860704700000030004010B500F07B
:1027D00001F810BD4AF6AA200149086070470000C0
:1027E0000030004001494860704700000030004060
:1027F00001498860704700000030004001490860CE
:10280000704700000030004000B5144890F86300A5
:1028100008B1002000BD1248C0881249496B8842A7
:1028200007D90E4890F8630018B910200B4981F8B9
:102830006300FFF761FE0C48007860B9074890F824
:102840007000012807D1054890F8630018B90720E7
:10285000024981F863000020DCE700009C0F0020A3
:10286000A0140020681000209000002000B5FFF7A1
:1028700043FE07480079012809D10648407840F016
:102880002000044948700320034981F8630000BD1B
:10289000561200203A0E00209C0F002010B5012196
:1028A000084603F0DDFA01210148FFF79FFD10BD46
:1028B0000002300008B510208DF8030003208DF8C9
:1028C00002000121202003F0CBFA1020ADF8000017
:1028D0008DF8030003208DF8020069464148FFF798
:1028E000F9FC0121402003F0BBFA0420ADF8000000
:1028F00010208DF8030003208DF8020069463A4845
:10290000FFF7E8FC0121402003F0AAFA0820ADF807
:10291000000010208DF8030003208DF802006946A6
:102920003148FFF7D7FC0121102003F099FA30203D
:10293000ADF8000048208DF8030069462B48FFF7EA
:10294000C9FC0121042003F08BFAC020ADF800007F
:1029500048208DF8030069462548FFF7BBFC01219C
:10296000202003F07DFAE020ADF8000048208DF82B
:10297000030069461B48FFF7ADFC0121092003F065
:102980006FFA01211B48FFF731FD0121082003F0F8
:1029900067FA4FF47E70ADF8000048208DF8030010
:1029A00069461548FFF796FC0121402003F058FACC
:1029B0000320ADF8000048208DF8030069460A485E
:1029C000FFF788FC0121402003F04AFA0120ADF80E
:1029D000000004208DF8030069460748FFF77AFCE1
:1029E00008BD000000140140001801400010014023
:1029F0000008014000023000000C014010B503F057
:102A0000A1FF0120064981F87E000648407800F0C9
:102A10007F00044948700020014981F87A0010BD08
:102A20009C0F00203A0E002010B503F0C5FF0120D6
:102A30000E4981F87A000E48407840F080000C4939
:102A400048700120094981F87E00FFF779FA0748AC
:102A500090F87C0020B10749486807F0ADF903E021
:102A600043F6982007F0A8F910BD00009C0F002045
:102A70003A0E0020681000202DE9F04F93B04FF07F
:102A800000080020129011901090814600250F90B0
:102A9000002600240E900D90824600270C90049092
:102AA00083460190F44890F85D02002801F0B3835A
:102AB0000020F14981F85D02002240F22551EF48E3
:102AC00005F0E9FFEC4890F85902401EEC490A5C19
:102AD000E94890F85902801E085C02EB00201FFABA
:102AE00080FAE54890F85902052818DDE24890F888
:102AF0005902401FC0B20C9000BF05E0E048F91C2D
:102B0000405C05A9C8557F1C0C988742F6D305A8E0
:102B10000C9901F099FB504501D1012004900498D3
:102B2000002801F07383D44890F82C015A2841F012
:102B30006D83D14890F82D01A528F8D1CE4890F8A2
:102B40002E011290CC4890F82F8190F8311190F816
:102B5000300101EB00201FFA80F9B8F1810F7DD11F
:102B6000A9F2023000287AD0A0F5E8500E380028EB
:102B700076D1C14991F8321101F0F000C11700EB94
:102B80001171091101EB8102BB4991F8321101F079
:102B90000F0101EB420101F5FA61BA4A5161B649F0
:102BA00091F8331101F0F000C11700EB1171091118
:102BB00001EB8102B04991F8331101F00F0101EBF3
:102BC0004201B04A1161AC4991F8341101F0F000B2
:102BD000C11700EB1171091101EB8102A64991F8AF
:102BE000341101F00F0101EB4201A64AD160A24964
:102BF00091F8361101F0F000C11700EB11710911C5
:102C000001EB81029C4991F8361101F00F0101EBB3
:102C100042019C4A9160984991F8371101F0F00007
:102C2000C11700EB1171091101EB8102924991F872
:102C3000371101F00F0101EB4201924A51608E49B8
:102C400091F8381101F0F000C11700EB1171091172
:102C500001EB8102884991F8381102E030E00BE085
:102C60002DE001F00F0101EB4201864A11600020C6
:102C7000854981F8600022E07F4890F8331190F890
:102C8000320101EB002085B27F4890F87100A84224
:102C90000AD07D4890F87100002809DD7A4991F842
:102CA000710009F091F803E00020774981F8710084
:102CB0006E2D03D10020744981F85D0000BF00BF74
:102CC000B8F1830F41F0978248F28001A9EB01002F
:102CD000894574D05FDC47F2A001A9EB010089456A
:102CE0006ED02DDC47F20901A9EB0100894568D0BF
:102CF00017DCB9F5CA4F70D00ADCB9F1010F6DD0FD
:102D0000B9F5445F6BD0B9F5A04F41F07282C2E0D3
:102D1000B9F5E04F64D0A9F5E04003380028F4D1BC
:102D200071E137285DD006DC07285BD017285AD020
:102D30002728EAD1AFE157286FD06728E5D1E0E135
:102D4000B0F5776F6AD011DC802868D006DC1028D7
:102D50007ED040287DD06028D7D11AE2B0F5766FBA
:102D600078D0A0F663700028CFD1CCE2B0F57B6FAD
:102D700071D009DCB0F5786F6ED0B0F5796F6CD09A
:102D8000B0F57A6FC1D1EEE3B0F57C6F73D0B0F5DA
:102D90007D6FBAD1E8E340F68772811A904201F064
:102DA00011802ADCA02871D011DC60286FD009DCEA
:102DB00010286DD020286CD03028A6D1FDE3FDE38B
:102DC000B1E132E180287DD090289ED1C1E2A0F50A
:102DD0007860072881F00D8206E05DE045E059E06B
:102DE00000E16AE133E144E1DFE810F0D706F606DE
:102DF000030A42076B07A007C307FA2901F0D9802D
:102E000015DC04297ED00BDC012901F02780022982
:102E100001F0498003298CD1FDE360E11DE3C9E1A4
:102E2000052901F05580F92988D101F083B840F2D5
:102E30000912881A914201F06E810FDCFB2901F022
:102E40000081FC2901F01581FD2985D101F045B9EA
:102E50007BE18CE1C0E1EBE33FE386E3012801F095
:102E60007E8102288ED101F0ACB90020064981F89C
:102E70005D0001F0BFB9FCE3C20400200044004043
:102E8000EE050020540000209C0F0020F2E3F2E346
:102E9000F2E3F2E3EDE7ECE70020FE4981F86000A1
:102EA000FD4890F8341190F8330101EB0020FB4904
:102EB0000870F94890F8381190F8370101EB0020BC
:102EC000F64900E0F2E34870F34890F83C1190F8BE
:102ED0003B0101EB0020F1498870EF4890F8401168
:102EE00090F83F0101EB0020EC49C870EA4890F8E7
:102EF000441190F8430101EB0020E84908711721C3
:102F0000E74800E0D3E3FDF7ECFAE6488078E449CF
:102F10000871E4488078E1490978884201D00120AD
:102F20000F90E0484079DE490872DE484079DB497D
:102F30004978884201D001200F90DA48407AD84978
:102F40000873D848407AD5498978884201D0012051
:102F50000F90D04890F84E00D1490874CD4890F8B1
:102F60004E00CE49C978884201D001200F90CD484B
:102F7000007ACB490875CB48007AC849097988425C
:102F800001D001200F900F9858B35A208DF80C00F3
:102F9000A5208DF80D0019208DF80E008220C04963
:102FA000087065204870002088701721BC4801F027
:102FB0004BF982464FEA2A208DF808000AF0FF00FC
:102FC0008DF80900032203A9B74805F00FFE172268
:102FD000B349B54805F00AFE022202A9B24805F03D
:102FE00005FE46E7AC4890F8341190F8330101EB48
:102FF000002085B2B5F5E04F04D1032200218020E6
:1030000003F0BCFA35E7A44890F8341190F8330186
:1030100001EB002085B247F20300854204D106226D
:103020000321802003F0AAFA23E79B4890F834118B
:1030300090F8330101EB002085B247F20900854288
:1030400004D108221021812003F098FA11E7924858
:1030500090F8341190F8330101EB002085B247F26B
:103060001000854204D104221021802003F086FA4A
:10307000FFE6894890F8341190F8330101EB002005
:1030800085B247F22000854204D10522202180200C
:1030900003F074FAEDE6804890F8341190F83301AB
:1030A00001EB002085B247F23000854204D10322B3
:1030B0003021802003F062FADBE6774890F8341183
:1030C00090F8330101EB002085B247F240008542C1
:1030D00004D103224021802003F050FAC9E66E4853
:1030E00090F8341190F8330101EB002085B247F2DB
:1030F0006000854204D104226021802003F03EFA62
:10310000B7E6654890F8341190F8330101EB0020E0
:1031100085B247F27000854204D1032270218020DD
:1031200003F02CFAA5E65C4890F8341190F83301CE
:1031300001EB002085B247F2A000854204D10A22AB
:10314000A021802003F01AFA93E6534890F8341136
:1031500090F8330101EB002085B247F2B0008542C0
:1031600004D10222B021802003F008FA81E64A4807
:1031700090F8341190F8330101EB002085B247F24A
:10318000E000854204D10C22E021802003F0F6F912
:103190006FE6414890F8341190F8330101EB0020BC
:1031A00085B2B5F5E24F04D102220021812003F05F
:1031B000E5F95EE6384890F8341190F8330101EBF8
:1031C000002085B247F22010854204D1032220213D
:1031D000812003F0D3F94CE62F4890F8341190F891
:1031E000330101EB002084B22B4890F8361190F89F
:1031F000350101EB002080B20E90274890F838117D
:1032000090F8370101EB002080B20D902748006D47
:10321000A04209D32548016D0E98814204D323486A
:10322000016D0D98814203D2092008F0CDFD69E0BF
:10323000194890F8341190F8330101EB00201C4933
:103240000860154890F8361190F8350101EB002020
:1032500017494860104890F8381190F8370101EB91
:10326000002013498860084600680A2801D20A2015
:1032700008600F4800680D49096D884203D90B4862
:10328000006D0B4908600A4840680949096888428E
:1032900015D80FE09C0F0020C20400202802002057
:1032A00025150020F2120020004400406810002084
:1032B0004C100020FE4800680A30FD494860FC4878
:1032C0004068FC49096D884203D9FA48006DF84905
:1032D0004860F7488068F6494968884202D90A2060
:1032E000F3498860F24880680A2802D20A20F0492F
:1032F000886006F003F9F0480068ED490860042092
:1033000008F062FDB5E5ED4890F8341190F833010E
:1033100001EB0020EA494861E84890F8360108616D
:10332000E64890F83801C860E44890F83A018860AF
:10333000E24890F83C014860E04890F83E0108609F
:10334000E048408808B906F025FA042008F03CFD62
:103350008FE5DA4890F8341190F8330101EB002042
:1033600084B21E2C07DBB4F5967F04DC4FF47A7030
:103370006043D0490860D14890F8361190F8350183
:1033800001EB002084B21E2C07DBB4F5967F04DC31
:103390004FF47A706043C7494860C84890F83811C4
:1033A00090F8370101EB002084B20F2C03DB462C90
:1033B00001DCC0480461C14890F83A1190F8390125
:1033C00001EB002084B2142C03DB642C01DCB9482F
:1033D0004462BA4890F83C1190F83B0101EB0020A0
:1033E00084B23C2C06DBC82C04DC04EB84004000D7
:1033F000B0494863B14890F83E1190F83D0101EBA7
:10340000002084B2052C04DB282C02DCA948C0F87B
:103410008840AA4890F8401190F83F0101EB002045
:1034200084B23C2C04DBFF2C02DCA248C0F8A04094
:10343000A24890F8421190F8410101EB002084B2BB
:103440003C2C04DBFF2C02DC9A48C0F89C4005F0C1
:10345000D7FD0B2008F0B8FC0BE5984890F8341124
:1034600090F8330101EB002084B2012C01DC91487B
:103470004461924890F8361190F8350101EB002034
:1034800084B240F2E470844205DB40F602008442DC
:1034900001DC88488461894890F8381190F8370138
:1034A00001EB002084B2012C03DB0C2C01DC8148F1
:1034B000C461824890F83A1190F8390101EB00207C
:1034C00084B2012C03DB1E2C01DC7A48046205F077
:1034D00097FD0B2008F078FCCBE4784890F8341185
:1034E00090F8330101EB002084B2012C01DC71481B
:1034F0008463724890F8361190F8350101EB002092
:1035000084B2012C03DB172C01DC6A4884656B480C
:1035100090F8381190F8370101EB002084B2012CAB
:1035200001DC6448C465654890F83A1190F83901A7
:1035300001EB002084B2012C03DB172C01DC5D4879
:1035400004665E4890F83C1190F83B0101EB0020C6
:1035500084B2012C01DC5748446605F051FD0B2074
:1035600008F032FC85E42DE0DBE0544890F834119B
:1035700090F8330101EB002084B2642C01DC4D484B
:1035800084644E4890F8361190F8350101EB002024
:1035900084B2012C01DC47484465484890F8381152
:1035A00090F8370101EB002084B2012C01DC414886
:1035B000446405F025FD0B2001E0CCE1DEE008F0DD
:1035C00003FC56E43D4890F8341190F8330101EBC8
:1035D000002084B2012C01DC36488462374890F820
:1035E000361190F8350101EB002084B2B4F57A7FF2
:1035F00005DB42F20F70844201DC2E48C4622F4882
:1036000090F8381190F8370101EB002084B2B4F53E
:103610007A7F07DB00E0FAE241F27070844201DC5D
:103620002448046305F0ECFC0B2008F0CDFB20E4FB
:10363000224890F8341190F8330101EB002084B255
:103640001E4890F8361190F8350101EB002080B249
:103650000E900E9800EB04471B48874202D10B20C6
:1036600008F0B2FB1948874202D10D2008F0ACFBEC
:1036700010E403E062E28EE1F8E042E10F4890F8E6
:10368000341190F8330101EB002084B23C2C03DBB1
:10369000642C01DC07480467084890F8361190F85C
:1036A000350101EB002084B21E2C11E028E2CCE2AF
:1036B0004C1000206810002000E00108C204002027
:1036C000540000209C0F002093E20B00B9100F0063
:1036D00003DB462C01DCFE484467FE4890F83811B5
:1036E00090F8370101EB002084B21E2C04DBB4F506
:1036F000167F01DCF6488467F64890F83A1190F896
:10370000390101EB002084B21E2C04DBB4F5167FD6
:1037100001DCEF48C46705F073FC0B2008F054FB94
:103720005FE4EC4890F8341190F8330101EB00208D
:1037300084B2012C02DCE648C0F88040E54890F8ED
:10374000361190F8350101EB002084B2012C02DC27
:10375000DF48C0F88440DF4890F8381190F837010E
:1037600001EB002084B2012C02DCD948C0F898405B
:1037700005F046FC0B2008F027FB32E4D54890F812
:103780003601D5490870D34890F835014870D148C2
:1037900090F834018870CF4890F83301C87008461B
:1037A000D0F800B0CB4890F838010870C94890F8BC
:1037B0003701487000208870C87008460068019082
:1037C000C64890F85310C64850F8210088B3C34843
:1037D00090F85300C249383951F8200058452DD18E
:1037E000BE4890F85310BE481C3850F8211001987C
:1037F000814223D10020B94981F85400B949C875E4
:10380000B64890F854000876B44890F85300B3498D
:1038100081F852000020B3494876B04890F8520031
:103820008876AE4890F8630020B1032008F0CCFA07
:103830000BE007E0012008F0C7FA06E0252008F0B9
:10384000C3FA02E0222008F0BFFAA44890F853001F
:1038500006280AD1A448834507D143F2375101987D
:10386000884202D10D2008F0AFFA13E4994890F88D
:103870003301FF2803D1042008F0A6FA40E0954860
:1038800090F8360194490870924890F835014870D4
:10389000904890F8340188708E4890F83301C870D1
:1038A0000846D0F800B08B4890F838010870894875
:1038B00090F83701487000208870C870084600688A
:1038C0000190864890F85210854850F82100A0B128
:1038D000824890F852008249383941F820B07F4937
:1038E00091F852207E491C39019841F8220005F0D8
:1038F00055FE232008F068FA02E0222008F064FA5E
:1039000010E401261FE0701E082101EB80017748BA
:10391000455C012D02DC724840F82650701E0A21D9
:1039200001EB80017148455C012D0AD170486C495A
:10393000383941F8260043F2385169481C3840F8BC
:103940002610701CC6B2052EDDDD05F027FE1A20FC
:1039500008F03AFA0AE45F4890F8341190F833011D
:1039600001EB002085B2012D02DC5948C0F8B850A7
:10397000584890F8361190F8350101EB002085B2D7
:10398000642D02DA5248C0F8B45005F039FB0E201D
:1039900008F01AFA01E24F4890F8341190F8330118
:1039A00001EB002084B2172C02DC4948C0F8C84063
:1039B000484890F8361190F8350101EB002084B2A8
:1039C0003B2C02DC4248C0F8CC40424890F8381109
:1039D00090F8370101EB002084B2012C02DC3C4856
:1039E000C0F8D0403B4890F83A1190F8390101EB0B
:1039F000002084B2172C02DC3548C0F8D44035488A
:103A000090F83C1190F83B0101EB002084B23B2C74
:103A100002DC2F48C0F8D8402E4890F83E1190F8AC
:103A20003D0101EB002084B2012C02DC2848C0F8E3
:103A3000DC40284890F8401190F83F0101EB00204D
:103A400084B2172C02DC2248C0F8E040214890F8EC
:103A5000421190F8410101EB002084B23B2C02DCC2
:103A60001B48C0F8E4401B4890F8441190F843010B
:103A700001EB002084B2012C02DC1548C0F8E840BC
:103A8000144890F8461190F8450101EB002084B2EB
:103A9000172C02DC0E48C0F8EC400E4890F8481194
:103AA00090F8470101EB002084B23B2C02DC08486F
:103AB000C0F8F040074890F84A1190F8490101EB2E
:103AC000002084B2012C02DC0148C0F8F44011E06F
:103AD00068100020C2040020780000209C0F002005
:103AE000A0120020C80E002034333231EE05002031
:103AF0003237343105F08CFD042008F065F979E3A4
:103B0000FA4890F8341190F8330101EB002084B2A8
:103B1000012C02DCF648C0F8AC40F44890F83611AD
:103B200090F8350101EB002084B2F148C0F8A440C0
:103B300005F066FA0B2008F047F95BE3EB4890F8D4
:103B4000341190F8330101EB002084B2012C02DC27
:103B5000E748C0F8BC40E54890F8361190F83501C8
:103B600001EB002084B2012C04DB642C02DCE04871
:103B7000C0F8C040DD4890F8381190F8370101EBEB
:103B8000002084B2642C02DCD948C0F8C44005F09F
:103B900037FA0E2008F018F92CE3D44890F83411C5
:103BA00090F8330101EB002085B2D24890F8520022
:103BB000012800DA1EE3B5F5104F0CD1CE4800788D
:103BC00010B90A2008F000F9CB480078022802D189
:103BD000242008F0F9F80DE3C44890F8341190F867
:103BE000330101EB002085B2C24890F85200012851
:103BF00000DAFFE249F20100854207D1BE480078B1
:103C000020B908F075FE3220FDF790FCF2E2B748CB
:103C100090F8341190F8330101EB002085B2B548DB
:103C200090F85200012800DAE4E249F20A008542E5
:103C30000AD1B1480078022806D108F0D5FB32201D
:103C4000FDF774FC01F006F8D4E2A84890F83411AE
:103C500090F8330101EB002085B249F20B00854258
:103C600005D10020A34981F84F00A4494871C1E261
:103C70009E4890F8341190F8330101EB002085B292
:103C800049F2030085421BD19B480078042802D1E9
:103C9000002099490870012008F096F80020954905
:103CA00081F8630095494871924981F87900488705
:103CB00081F8380081F84400A1F8460001F02AF8A4
:103CC00098E28A4890F8341190F8330101EB002013
:103CD00085B2884890F8630000B18BE2854890F87F
:103CE0005200012800DA85E249F2040085421CD125
:103CF00081480078C8B97F4890F84E00A8B902F012
:103D000021FE02F085FEFDF787FEFEF735F902F091
:103D100071FD01F051FF04F079FF0320764908702E
:103D200000F098FF052008F04FF863E26F4890F824
:103D3000341190F8330101EB002085B249F20500FF
:103D4000854215D102F0FEFD02F062FEFDF764FE31
:103D5000FEF712F901F030FF04F058FF02F04AFDBF
:103D600000206549087000F075FF012008F02CF86C
:103D700040E20320604908706148807870B902F021
:103D80001BFEFEF77DF9642300220921902008F034
:103D9000E1FAFEF71BFD00F05DFF2BE2584880784A
:103DA00001280ED102F0CEFDFEF77EF900231A465F
:103DB0000921902008F0CEFAFEF708FD00F04AFF36
:103DC00018E217E2494890F8341190F8330101EBFA
:103DD000002085B249F2070085423ED103204649C2
:103DE000087047484079E8B900204649C874012066
:103DF000087500F02FFF02F013FDFEF7E7FC4FF40B
:103E00002F7003F01BF8FEF7E1FC03203949A1F8FD
:103E1000A200FEF7DDF8322036490875012081F84E
:103E20007D00E7E136484079012816D1FEF7A4F875
:103E300000F010FFFEF7CAFC4FF4967002F0FEFF90
:103E4000FEF7C4FC03202B49A1F8A40002F0D2FC29
:103E50000020284981F87D00CCE1CBE1234890F88F
:103E6000341190F8330101EB002085B20320224980
:103E7000087049F20800854214D12148C07830B951
:103E800001F0BEFEFEF7A2FC00F0E4FEB2E11C4829
:103E9000C078012806D101F08FFEFEF797FC00F0F4
:103EA000D9FEA7E1A6E1114890F8341190F833014A
:103EB00001EB002085B2642D07DC0A2D05DB1048DC
:103EC000807810B1E8B201F0D7FD00F0C3FE91E1B7
:103ED000064890F8341190F8330101EB002085B2C8
:103EE00049F20C00854224D1002617E0C2040020CC
:103EF000681000209C0F00203A0E0020F4000020E3
:103F0000F2120020C80E002006EBC600C649084485
:103F10000021016041600172701CC6B2072EF3DD02
:103F2000FEF754FC05F0C4F900F0AEF9072007F0E5
:103F30004BFF5FE1BD4890F8341190F8330101EB7D
:103F4000002085B2BA4890F85200042800DA51E106
:103F5000B5F5114F2CD1B7480088C0F30720119058
:103F6000B4480078109000218020DDE9103208F07C
:103F7000F1F9B0488088C0F307201190AD4800796E
:103F8000109001218020DDE9103208F0E3F9A94802
:103F90000089C0F307201190A648007A10900221F2
:103FA0008020DDE9103208F0D5F9082007F00CFF79
:103FB00020E1A1484069642805DA9F48808A00F51D
:103FC000FA6084B202E09C48808A84B22012119088
:103FD000E0B2109003218020DDE9103208F0BAF938
:103FE0009548007C1090002204218020109B08F04E
:103FF000B1F99148007B1090002205218020109B90
:1040000008F0A8F98C48007A109000220621802040
:10401000109B08F09FF98848007910900022072132
:104020008020109B08F096F98348007810900022B9
:1040300008218020109B08F08DF9062007F0C4FEAF
:10404000D8E07A4890F8341190F8330101EB002061
:1040500085B249F2021085420AD1754890F8630092
:1040600018B1032007F0B0FE02E0012007F0ACFE1B
:10407000C0E06E4890F8341190F8330101EB002055
:1040800085B26B4890F85200012800DAB2E041F2A4
:104090000100854204D1042007F096FE05F074FC6F
:1040A00049F20310854217D1FF231A469021802040
:1040B00008F050F95E4890F85200062802DA1F20F6
:1040C00007F082FE5A4890F85200062802D11A20C2
:1040D00007F07AFE05F058FC8CE0544890F8341153
:1040E00090F8330101EB002085B2514890F852005E
:1040F000062800DA7EE049F20410854204D10B2044
:1041000007F062FE05F040FC49F20510854201D13E
:1041100005F03AFC6EE0464890F85200444981F8B8
:104120005300084690F8530010B9012081F853005D
:104130003F4890F8533000221146622008F00AF9F7
:104140000A2002F07BFE3A4890F8533000221146D4
:10415000622008F0FFF81C2007F036FE4AE03448E1
:1041600090F85200002824DD314890F8540020B91E
:1041700001202F4981F854001BE02D4890F852008F
:104180002B4981F853001C2007F01EFE284890F8A8
:10419000533000221146622008F0DCF80A2002F0B9
:1041A0004DFE234890F8533000221146622008F05B
:1041B000D1F800202149C8751D4890F854000876B0
:1041C00018E01A4890F8341190F8330101EB002000
:1041D00085B2062D02DC164981F85350FEF7F6FA37
:1041E000134890F8533000221146622008F0B2F8CC
:1041F00000E000BF00BFB8F1820F07D144F64B705A
:10420000814503D100200A4981F860004FF496717E
:104210000B48FCF766F9012240F22551094804F0E9
:104220003AFC13B0BDE8F08FC6110020C204002094
:104230009C0F00204C10002054000020C80E0020CD
:10424000EE05002000440040F0B502460B464FF654
:10425000FF71002411E017787940002508E001F093
:104260000106491016B14AF2010779406F1CBDB230
:10427000082DF4DB521C671CBCB29C42EBDB0F0622
:104280003F0C47EA1120F0BD7CB5CBA0006801903F
:1042900000260025002401F0B1FF1E2002F0CEFD13
:1042A0000724822004EBC401C44A5054662004EB66
:1042B000C40111444870152004EBC40111448870F6
:1042C000032201A9BE4804F091FC04EBC401BB4ADF
:1042D0008818092108F07AF804EBC401B74A881855
:1042E0000921FFF7B1FF054628128DF80000E8B25A
:1042F0008DF8010002226946B14804F077FC1E20C7
:1043000002F09CFD0624822004EBC401AB4A505409
:10431000662004EBC40111444870122004EBC40170
:1043200011448870032201A9A54804F05FFC04EB46
:10433000C401A24A8818092108F048F804EBC40116
:104340009E4A88180921FFF77FFF054628128DF83D
:104350000000E8B28DF8010002226946984804F096
:1043600045FC1E2002F06AFD822004EBC401934A42
:104370005054662004EBC401114448700F2004EB34
:10438000C40111448870032201A98D4804F02EFC59
:1043900004EBC401894A8818092108F017F804EBD6
:1043A000C401864A88180921FFF74EFF05462812E6
:1043B0008DF80000E8B28DF80100022269468048BD
:1043C00004F014FC1E2002F039FD0424822004EBCA
:1043D000C4017A4A5054662004EBC4011144487069
:1043E0000C2004EBC40111448870032201A9744815
:1043F00004F0FCFB04EBC401704A8818092107F0A3
:10440000E5FF04EBC4016D4A88180921FFF71CFF82
:10441000054628128DF80000E8B28DF8010002224E
:104420006946674804F0E2FB1E2002F007FD032402
:10443000822004EBC401614A5054662004EBC4019D
:1044400011444870092004EBC40111448870032210
:1044500001A95B4804F0CAFB04EBC401574A881861
:10446000092107F0B3FF04EBC401544A881809215D
:10447000FFF7EAFE054628128DF80000E8B28DF835
:104480000100022269464E4804F0B0FB1E2002F0F3
:10449000D5FC0224822004EBC401484A5054662013
:1044A00004EBC40111444870062004EBC40111441C
:1044B0008870032201A9424804F098FB04EBC40170
:1044C0003E4A8818092107F081FF04EBC4013B4AEA
:1044D00088180921FFF7B8FE054628128DF800005C
:1044E000E8B28DF8010002226946354804F07EFBEF
:1044F0001E2002F0A3FC0124822004EBC4012F4AF9
:104500005054662004EBC40111444870032004EBAE
:10451000C40111448870032201A9294804F066FBF4
:1045200004EBC401254A8818092107F04FFF04EB6A
:10453000C401224A88180921FFF786FE0546281281
:104540008DF80000E8B28DF80100022269461C488F
:1045500004F04CFB1E2002F071FC0024822004EBCE
:10456000C401164A5054662004EBC401114448703B
:10457000002004EBC4011144887004EBC4018818C6
:104580000921FFF761FE054628128DF80000E8B208
:104590008DF80100032201A9094804F027FB04EB70
:1045A000C401064A8818092107F010FF0222694653
:1045B000034804F01BFB7CBD5AA50B00C61100206C
:1045C000004400407CB5FEA0006801900026002554
:1045D00000241E2002F032FCFA48A0F109010A680A
:1045E00002604A684260097A01720724822004EB63
:1045F000C401F44A3F3A5054662004EBC40111440C
:104600004870152004EBC40111448870032201A9ED
:10461000ED4804F0EBFA04EBC401EA4A3F3A88188B
:10462000092107F0D3FE04EBC401E64A3F3A88189B
:104630000921FFF709FE054628128DF80000E8B2AF
:104640008DF8010002226946DF4804F0CFFA1E20EF
:1046500002F0F4FBDB480938A0F109010A680260A6
:104660004A684260097A01720624822004EBC40180
:10467000D44A3F3A5054662004EBC40111444870B8
:10468000122004EBC40111448870032201A9CE4812
:1046900004F0ACFA04EBC401CA4A3F3A8818092175
:1046A00007F094FE04EBC401C64A3F3A881809217A
:1046B000FFF7CAFD054628128DF80000E8B28DF814
:1046C000010002226946C04804F090FA1E2002F060
:1046D000B5FBBC481238A0F12D014A6A02608A6A13
:1046E000426091F82C1001720524822004EBC40171
:1046F000B44A3F3A5054662004EBC4011144487058
:104700000F2004EBC40111448870032201A9AE48B4
:1047100004F06CFA04EBC401AA4A3F3A8818092154
:1047200007F054FE04EBC401A64A3F3A8818092159
:10473000FFF78AFD054628128DF80000E8B28DF8D3
:10474000010002226946A04804F050FA1E2002F03F
:1047500075FB9C493F3901F11B0002684A624268BF
:104760008A62007A81F82C000424822004EBC401C0
:10477000944A3F3A5054662004EBC40111444870F7
:104780000C2004EBC40111448870032201A98E4857
:1047900004F02CFA04EBC4018A4A3F3A8818092134
:1047A00007F014FE04EBC401864A3F3A8818092139
:1047B000FFF74AFD054628128DF80000E8B28DF893
:1047C000010002226946804804F010FA1E2002F01F
:1047D00035FB7C482438A0F109010A6802604A6868
:1047E0004260097A01720324822004EBC401754AF5
:1047F0003F3A5054662004EBC4011144487009202C
:1048000004EBC40111448870032201A96E4804F02E
:10481000EDF904EBC4016B4A3F3A8818092107F00F
:10482000D5FD04EBC401674A3F3A88180921FFF718
:104830000BFD054628128DF80000E8B28DF8010046
:1048400002226946604804F0D1F91E2002F0F6FA0F
:104850005C482D38A0F109010A6802604A6842608C
:10486000097A01720224822004EBC401554A3F3ABE
:104870005054662004EBC40111444870062004EB38
:10488000C40111448870032201A94F4804F0AEF915
:1048900004EBC4014B4A3F3A8818092107F096FD02
:1048A00004EBC401474A3F3A88180921FFF7CCFCC2
:1048B000054628128DF80000E8B28DF801000222AA
:1048C0006946414804F092F91E2002F0B7FA3D48CB
:1048D0003638A0F109010A6802604A684260097A24
:1048E00001720124822004EBC401364A3F3A50543D
:1048F000662004EBC40111444870032004EBC4019A
:1049000011448870032201A92F4804F06FF904EBC9
:10491000C4012C4A3F3A8818092107F057FD04EBDF
:10492000C401284A3F3A88180921FFF78DFC054643
:1049300028128DF80000E8B28DF8010002226946C5
:10494000214804F053F921480069FF2190FBF1F25E
:1049500001FB12000A2190FBF1F201FB12011B483E
:104960000069FF2290FBF2F302FB13000A2290FB86
:10497000F2F001EB001013493F39C8701348C068CA
:10498000FF2190FBF1F201FB12000A2190FBF1F2F2
:1049900001FB12010D48C068FF2290FBF2F302FBFD
:1049A00013000A2290FBF2F001EB001005493F3999
:1049B000087106488068FF2190FBF1F208E00000D2
:1049C0005AA50B00051200200044004054000020AE
:1049D00001FB12000A2190FBF1F201FB12013048A9
:1049E0008068FF2290FBF2F302FB13000A2290FB87
:1049F000F2F001EB00102B49487129484068FF2173
:104A000090FBF1F201FB12000A2190FBF1F201FB95
:104A1000120123484068FF2290FBF2F302FB1300CF
:104A20000A2290FBF2F001EB00101E498871002071
:104A3000C8711E2002F002FA1B4890F86300194961
:104A400008720024822004EBC401164A50546620E8
:104A500004EBC40111444870002004EBC40111446C
:104A6000887004EBC40188180921FFF7EDFB0546A7
:104A700028128DF80000E8B28DF80100032201A988
:104A80000A4804F0B3F804EBC401064A8818092167
:104A900007F09CFC02226946044804F0A7F87CBD9C
:104AA00054000020C61100209C0F0020004400404C
:104AB0007FB5002500260024142002F0BFF95A20FB
:104AC0008DF80C00A5208DF80D000A208DF80E0041
:104AD00084208DF8040007208DF805001948C0884F
:104AE0000612184884798DF806608DF80740008911
:104AF00006121448047A8DF808608DF809401248AF
:104B0000C47B00208DF80A008DF80B40082101A815
:104B1000FFF79AFB054628128DF80000E8B28DF8E1
:104B20000100032203A9094804F060F8082201A942
:104B3000064804F05BF802226946044804F056F87F
:104B40007FBD0000A01400203A0E00200044004069
:104B50004FF4007002494861002002498872704792
:104B600000100140F212002070B500BF00BF002607
:104B70002C48D0F8C000C0EB001084002948D0F8C1
:104B8000C40000EB80004FF6FF7101EA40052548A4
:104B9000D0F8BC0008B9002070BD23480078022876
:104BA0000DD1224890F8700048B12048007E30B105
:104BB0001E48C069401C1D49C861002008761B487A
:104BC000C069A04206D300201849C86108620120CC
:104BD0001749087016480078E0B11448006AA842E6
:104BE00014D21448407970B100F026F80F4890F8BC
:104BF0002400A0B100200D4981F824000846006A75
:104C0000401C08620BE0FFF7A3FF08E00020084902
:104C1000087004E0002005490862FFF799FF0020B2
:104C2000BAE70000681000203A0E00209C0F002018
:104C3000B1000020F21200204FF400700349086117
:104C400001200349887200207047000000100140D5
:104C5000F21200207CB5002500245A208DF80400B3
:104C6000A5208DF8050065208DF8060082202349D7
:104C70000870612048700020887048718871204851
:104C80000078022801D10120887100201B49487258
:104C90001B48C07B88720020C8731A4890F86300D4
:104CA0000874002081F82300174890F8500081F81C
:104CB000240016480088001281F86100134800782B
:104CC00081F8620063210D48FFF7BEFA0446201206
:104CD0008DF80000E0B28DF80100032201A90C4814
:104CE00003F084FF63220549094803F07FFF022295
:104CF0006946074803F07AFF7CBD0000C80E00201B
:104D00003A0E00209C0F00206810002028D60008D2
:104D10000044004010B500242D4800782D498873C8
:104D200023212D48FBF7DDFB00202B4908700320D1
:104D300048701E208870FD20C877DF2081F8200091
:104D400024480078C870254890F86300087121480D
:104D500040784871002088711E48C078C8710020D2
:104D60000872487288721E48C0880012C8721C48B7
:104D7000807908731A480089001248731848007A2D
:104D80008873174840890012C8731548807A0874E0
:104D90001048C07B48740E48007888750C4800792C
:104DA000C8750B48007A08760E4890F8540048778A
:104DB0000748007B88772321074800F017F804464E
:104DC0002012054981F8210081F8224010BD000021
:104DD0004C1000203A0E0020021500209C0F0020ED
:104DE000A01400206810002000BFFEE7F0B50246C6
:104DF0000B464FF6FF71002411E01778794000252B
:104E000008E001F00106491016B14AF201077940A5
:104E10006F1CBDB2082DF4DB521C671CBCB29F1E78
:104E2000A742EADC0F063F0C47EA1120F0BD000064
:104E300070B5002400252A221E491F48FBF7DAFA24
:104E40001E4890F85D02002832D000201B4981F8EE
:104E50005D02002240F22551194803F01CFE17485C
:104E600090F85902401E17490A5C144890F85902FC
:104E7000801E085C02EB002085B2104890F85912A1
:104E80001048FFF7B3FFA84201D100F0E1F9FCF7A9
:104E9000AFFB002404E000210A480155601CC4B2A5
:104EA000642CF8DB012240F22551054803F0F3FDA4
:104EB00070BD00003A0E0020640E00206402002045
:104EC000003801409003002070B5002400252A22FC
:104ED00024492548FBF78EFA244890F85D02002803
:104EE0003ED00020214981F85D02002240F2255188
:104EF0001F4803F0D0FD1D4890F85902401E1D497F
:104F00000A5C1A4890F85902801E085C02EB0020E7
:104F100085B2164890F82C011749896C884210D147
:104F2000124890F859121348FFF760FFA84208D1C1
:104F30000E4890F82C011049896C884201D103F089
:104F4000DDF9002404E000210A480155601CC4B2C8
:104F5000642CF8DB012240F22551054803F09BFD4B
:104F600070BD00003A0E0020640E00207E09002073
:104F7000004C0040AA0A00206810002070B50446CA
:104F80000D4600260D4890F848000D49087006208F
:104F9000487020128870CC70281208714D71082159
:104FA0000748FFF723FF0646301205498871CE7186
:104FB0000822044803F01AFE002070BD681000208B
:104FC0007E090020004C00402DE9F04104460D46CA
:104FD00000260127114890F82C01012802DD104815
:104FE00090F848700D48077010200C494870201246
:104FF0008870CC70281208714D7108210748FFF79E
:10500000F5FE0646301205498871CE710822054822
:1050100003F0ECFD0020BDE8F081000064020020F8
:1050200068100020003801402DE9F04104460D468B
:1050300000260127114890F82C01012802DD1048B4
:1050400090F848700D48077006200C4948702012EF
:105050008870CC70281208714D7108210748FFF73D
:10506000C5FE0646301205498871CE7108220548F2
:1050700003F0BCFD0020BDE8F081000064020020C8
:10508000681000200038014070B500215522282307
:105090001E241425424890F87020006F404E766A16
:1050A000B04203D83E4890F8702002E03C4890F8A7
:1050B00024203B48406F3A4E3669B04203D338480B
:1050C00090F8743001E03648037C354890F8784019
:1050D00090F87C503348C17B0078022838D13248A0
:1050E00090F8700000282AD0914203DD01202F4E55
:1050F000307004E000202D4E3070707030712B48FD
:105100004078A04205DD0020284E307070700120EC
:105110003071994203DA0120244EB07004E000207F
:10512000224EB070F070B0712048C078A84213DDF4
:1051300000201E4EB070F0700120B0710CE01948D4
:10514000807848B10020194E30710120B07103E021
:105150000020164E3071B07115480068154E368922
:10516000B0420DD912480068124E3689801B0428BF
:1051700003D900200D4EB07102E000200B4E3071BB
:105180000A480079074EB07408488079F0740748DF
:105190000079094E3071054880797071002070BD2A
:1051A000681000203A0E00209C0F0020CA0000204A
:1051B0004C100020A0140020D4120020704710B51D
:1051C0004FF4A06000F03AF810BD000070B5002167
:1051D00000230F22C47804B3154C246804F4E0645F
:1051E000C4F5E064210AC1F10403CA40447804FA1A
:1051F00003F184781440214309010E4C0678A1552F
:10520000047804F01F050124AC4005786D11AD0051
:1052100005F1E025C5F8004109E0047804F01F0518
:105220000124AC40044D0678761145F8264070BD47
:105230000CED00E000E400E080E100E00249014301
:10524000024A1160704700000000FA050CED00E012
:105250002DE9F04F89B00020089007908246002584
:10526000069005904FF001090490002680460390B7
:10527000029000248346002700900190FE4890F899
:105280002D010890FC4890F82F1190F82E0101EBA9
:10529000002080B20690F84890F8311190F8300163
:1052A00001EB002000F0FF0AF34890F8311190F86C
:1052B000300101EB002085B2EF4890F82C01012865
:1052C00002DDEE4890F848900898032804D006289C
:1052D0007ED010287DD173E20698642806D0782805
:1052E00061D0962876D0A02875D1C2E006986428AF
:1052F00058D1BAF10B0F55D1DF4880F80090032048
:10530000DD494870162088700020C870DC4800789D
:105310000871DC48008900124871DA48007A887107
:105320000020C871D748807A087200204872D64899
:10533000807B88720020C872D248C0880A2190FB06
:10534000F1F0CD490873D148008900124873CF4865
:10535000007A88730020C873CC4890F86300087402
:1053600000204874CA48807888740020C874C448F3
:10537000C07B087500204875C548407988750020B5
:10538000C875C24890F8700008761B21BA48FFF72C
:105390002DFD06463012B84948768E761B22BD4850
:1053A00003F024FCBFE0B749088908F05DF80490D9
:1053B000B949049807F076FFB8490860069878283C
:1053C00028D1BAF1020F25D1AB4880F8009003E054
:1053D000ABE009E31FE0A5E00320A74948700420E3
:1053E0008870AE48C078C870AC4880780871AB4807
:1053F00040784871A9480078887109219E48FFF7D4
:10540000F5FC064630129C49C8710E720922A1486B
:1054100003F0ECFB87E0BAF1030F29D1964880F83E
:105420000090032094494870062088709C480088AA
:10543000000AC8709A480078087199488088000A64
:10544000487197480079887195480089000AC871A9
:105450009348007A08720B218748FFF7C7FC06467D
:105460003012854948728E720B228A4803F0BEFBC7
:1054700059E0BAF1080F54D17F4880F8009003201A
:105480007D494870102088700020C8707F480078DF
:1054900008717E484088001248717C488078887185
:1054A0000020C87179480079087200204872774856
:1054B000407988727B4A516B9069FCF79DF80446ED
:1054C0004FEA14484FEA28206B49C87281F80C80D3
:1054D0001FFA84F84FEA2820487381F80E80714A39
:1054E000116B5069FCF788F804464FEA14484FEAFC
:1054F00028206149C87381F810801FFA84F84FEAA8
:105500002820487481F8128015215B48FFF76EFC53
:10551000064630125849C8740E7515225D4803F0CE
:1055200065FB00E000BF00BF5FE20698982877D0D7
:1055300008DC64280FD06A284DD0962876D09728AA
:1055400070D1B7E0A0286ED0A1286DD0A2286CD071
:10555000A328F5D124E14A480078E0B9022D1AD1F8
:1055600007F0C6F929460698FFF75EFD424880F825
:105570000090032040494870022088700020C870C5
:105580000220087107213C48FFF730FC0646301224
:10559000394948718E713A48007802281AD1CDB93C
:1055A00006F022FF29460698FFF73EFD324880F8B4
:1055B0000090032030494870022088700020C87095
:1055C000087107212C48FFF711FC064630122A49C2
:1055D00048718E71F2E0012006F0F6FB00202B49A5
:1055E00081F8630030494871284981F879002946DB
:1055F0000698FFF719FD204880F8009003201E4907
:105600004870022088700020C870087107211A486D
:10561000FFF7ECFB06463012174948718E71CDE05A
:1056200073E003E0C9E097E0A1E0ACE01C4840680B
:10563000A8423CD9142D3ADB1948056003F05EFFFF
:1056400029460698FFF7F0FC0B4880F800900320ED
:10565000094948700220887011480088000AC87003
:105660000F480078087107210348FFF7BFFB064683
:1056700030120149487119E06402002068100020CE
:105680003A0E0020A0140020C80E00209C0F00201D
:10569000F2120020003801400000C84280000020C3
:1056A0004C10002068120020F40000208E7104F0DD
:1056B0006BF983E0CF48006DA84223D9CE4800683B
:1056C000A8421FD2CC48456003F018FF294606982F
:1056D000FFF7AAFCC94880F800900320C74948702A
:1056E00002208870C4488088000AC870C2480079C7
:1056F00008710721C148FFF779FB06463012BF4900
:1057000048718E7104F040F958E0BB484068A842E7
:105710001FD9B948856003F0F1FE29460698FFF7C6
:1057200083FCB64880F800900320B44948700220FA
:105730008870B1480089000AC870AF48007A0871C3
:105740000721AE48FFF752FB06463012AB494871BD
:105750008E7104F019F931E0012D07DCA8490D70B4
:1057600003F0CCFE29460698FFF75EFC26E0B5F56F
:10577000FD6F07DBA248458003F0C0FE294606986E
:10578000FFF752FC1AE0012D09DB0C2D07DC9C49C8
:105790000D7103F0B3FE29460698FFF745FC0DE0B6
:1057A000012D09DB1E2D07DC95494D7103F0A6FE86
:1057B00029460698FFF738FC00E000BF00BF14E15F
:1057C0008E4890F8311190F8300101EB002000F084
:1057D000FF0A8A4890F8341190F8330101EB002059
:1057E0001FFA80F8854890F8361190F8350101EBE2
:1057F000002080B203900698A42802D0A6287DD16C
:1058000066E0BAF1020F62D1039800EB08447D48CC
:1058100084425CD37C48844259D80A20B4FBF0F11E
:1058200000FB114030308DF800000A20B4FBF0F48A
:10583000B4FBF0F100FB114030308DF801000A207C
:10584000B4FBF0F4B4FBF0F100FB114030308DF804
:1058500002000A20B4FBF0F4B4FBF0F100FB1140AD
:1058600030308DF803000A20B4FBF0F4B4FBF0F103
:1058700000FB114030308DF804000A20B4FBF0F436
:10588000B4FBF0F100FB114030308DF805009DF8BD
:1058900005703F029DF8040007433F029DF8030096
:1058A00007433F029DF8020007439DF801B04FEA0D
:1058B0000B2B9DF8000040EA0B0B5448C0F834B0A5
:1058C000876103F06BFE51460698FFF77DFB89E088
:1058D000BAF1020F7ED1039800EB08444948844294
:1058E0007ED3494884427BD80A20B4FBF0F100FB08
:1058F000114030308DF800000A2000E071E0B4FB68
:10590000F0F4B4FBF0F100FB114030308DF80100F1
:105910000A20B4FBF0F4B4FBF0F100FB114030308E
:105920008DF802000A20B4FBF0F4B4FBF0F100FBA8
:10593000114030308DF803000A20B4FBF0F4B4FBC2
:10594000F0F100FB114030308DF804000A20B4FB68
:10595000F0F4B4FBF0F100FB114030308DF805009D
:105960009DF805703F029DF8040007433F029DF833
:10597000030007433F029DF8020007439DF801B072
:105980004FEA0B2B9DF8000040EA0B0B1F48C0F8B4
:1059900030B047610120079011E01C49079841F899
:1059A000207001F11C00079940F821B001221C3041
:1059B000079940F821200798401CC0B2079007982B
:1059C0000528EADD00200B49C1F8840003F018FB2C
:1059D000514600E004E00698FFF7F6FA03F0DEFD1A
:1059E00000E000BF00BF00E000BF00BF09B0BDE89D
:1059F000F08F0000681000204C100020640200208E
:105A00009C0F0020A08601003F420F00681200207A
:105A1000114890F88600B0B100200F4981F8860047
:105A20000E480078022805D10D48007A401C0C4928
:105A3000087202E000200A4908720948007A00F062
:105A4000010007490872044890F8890018B1002045
:105A5000014981F8890070479C0F00203A0E002010
:105A6000F212002010B5042000F01CF84FF4803032
:105A7000FCF784F810BD0000642800DD642040F2CB
:105A8000F511052202FB1011034A11800349C87366
:105A90000349087070470000400400403A0E00209F
:105AA0004D00002001460020034A52680A400AB116
:105AB000012000E0002070470070004010B536481B
:105AC000007802280ED1354890F85A003C280DDBAA
:105AD0000020324981F85A0031480069401C3049A1
